

Microchip MPLAB XC8 Assembler V2.20 build 20200408173844 
                                                                                               Mon Feb 14 17:30:56 2022

Microchip MPLAB XC8 C Compiler v2.20 (Free license) build 20200408173844 Og1 
     1                           	processor	16F1459
     2                           	pagewidth 120
     3                           	opt	flic
     4                           	psect	stringtext1,global,class=STRCODE,delta=2,noexec
     5                           	psect	stringtext2,global,class=STRCODE,delta=2,noexec
     6                           	psect	stringtext3,global,class=STRCODE,delta=2,noexec
     7                           	psect	stringtext4,global,class=STRCODE,delta=2,noexec
     8                           	psect	stringtext5,global,class=STRCODE,delta=2,noexec
     9                           	psect	stringtext6,global,class=STRCODE,delta=2,noexec
    10                           	psect	stringtext7,global,class=STRCODE,delta=2,noexec
    11                           	psect	stringtext8,global,class=STRCODE,delta=2,noexec
    12                           	psect	cinit,global,class=CODE,merge=1,delta=2
    13                           	psect	bssBANK1,global,class=BANK1,space=1,delta=1,noexec
    14                           	psect	bssBANK3,global,class=BANK3,space=1,delta=1,noexec
    15                           	psect	bssBANK4,global,class=BANK4,space=1,delta=1,noexec
    16                           	psect	bssBANK5,global,class=BANK5,space=1,delta=1,noexec
    17                           	psect	bssBANK6,global,class=BANK6,space=1,delta=1,noexec
    18                           	psect	clrtext,global,class=CODE,delta=2
    19                           	psect	cstackBANK3,global,class=BANK3,space=1,delta=1,noexec
    20                           	psect	cstackBANK2,global,class=BANK2,space=1,delta=1,noexec
    21                           	psect	cstackBANK1,global,class=BANK1,space=1,delta=1,noexec
    22                           	psect	cstackCOMMON,global,class=COMMON,space=1,delta=1,noexec
    23                           	psect	cstackBANK0,global,class=BANK0,space=1,delta=1,noexec
    24                           	psect	maintext,global,class=CODE,merge=1,split=1,delta=2
    25                           	psect	text1,local,class=CODE,merge=1,delta=2
    26                           	psect	text2,local,class=CODE,merge=1,delta=2
    27                           	psect	text3,local,class=CODE,merge=1,delta=2
    28                           	psect	text4,local,class=CODE,merge=1,delta=2
    29                           	psect	text5,local,class=CODE,merge=1,delta=2
    30                           	psect	text6,local,class=CODE,merge=1,delta=2
    31                           	psect	text7,local,class=CODE,merge=1,delta=2
    32                           	psect	text8,local,class=CODE,merge=1,delta=2
    33                           	psect	text9,local,class=CODE,merge=1,delta=2
    34                           	psect	text10,local,class=CODE,merge=1,delta=2
    35                           	psect	text11,local,class=CODE,merge=1,delta=2
    36                           	psect	text12,local,class=CODE,merge=1,delta=2
    37                           	psect	text13,local,class=CODE,merge=1,delta=2,group=1
    38                           	psect	text14,local,class=CODE,merge=1,delta=2,group=1
    39                           	psect	text15,local,class=CODE,merge=1,delta=2
    40                           	psect	text16,local,class=CODE,merge=1,delta=2
    41                           	psect	text17,local,class=CODE,merge=1,delta=2,group=1
    42                           	psect	text18,local,class=CODE,merge=1,delta=2
    43                           	psect	text19,local,class=CODE,merge=1,delta=2
    44                           	psect	text20,local,class=CODE,merge=1,delta=2
    45                           	psect	text21,local,class=CODE,merge=1,delta=2
    46                           	psect	intentry,global,class=CODE,delta=2
    47                           	psect	text23,local,class=CODE,merge=1,delta=2
    48                           	psect	text24,local,class=CODE,merge=1,delta=2
    49                           	psect	text25,local,class=CODE,merge=1,delta=2
    50                           	psect	text26,local,class=CODE,merge=1,delta=2
    51                           	psect	text27,local,class=CODE,merge=1,delta=2
    52                           	psect	text28,local,class=CODE,merge=1,delta=2
    53                           	psect	text29,local,class=CODE,merge=1,delta=2
    54                           	psect	text30,local,class=CODE,merge=1,delta=2
    55                           	psect	text31,local,class=CODE,merge=1,delta=2
    56                           	psect	text32,local,class=CODE,merge=1,delta=2
    57                           	psect	text33,local,class=CODE,merge=1,delta=2
    58                           	psect	text34,local,class=CODE,merge=1,delta=2,group=2
    59                           	psect	text35,local,class=CODE,merge=1,delta=2
    60                           	psect	text36,local,class=CODE,merge=1,delta=2
    61                           	psect	text37,local,class=CODE,merge=1,delta=2
    62                           	psect	text38,local,class=CODE,merge=1,delta=2
    63                           	psect	text39,local,class=CODE,merge=1,delta=2
    64                           	psect	text40,local,class=CODE,merge=1,delta=2
    65                           	psect	text41,local,class=CODE,merge=1,delta=2
    66                           	psect	text42,local,class=CODE,merge=1,delta=2
    67                           	psect	text43,local,class=CODE,merge=1,delta=2
    68                           	psect	text44,local,class=CODE,merge=1,delta=2
    69                           	psect	text45,local,class=CODE,merge=1,delta=2
    70                           	psect	text46,local,class=CODE,merge=1,delta=2
    71                           	psect	text47,local,class=CODE,merge=1,delta=2
    72                           	psect	text48,local,class=CODE,merge=1,delta=2
    73                           	psect	text49,local,class=CODE,merge=1,delta=2
    74                           	psect	config,global,abs,ovrld,class=CONFIG,space=4,delta=2,noexec
    75                           	dabs	1,0x20,48,_BDT
    76                           	dabs	1,0x58,8,_CtrlTrfData
    77                           	dabs	1,0x50,8,_SetupPkt
    78                           	dabs	1,0xA0,64,_cdc_data_tx
    79                           	dabs	1,0x120,64,_cdc_data_rx
    80                           	dabs	1,0x7E,2
    81  0000                     
    82                           ; Version 2.20
    83                           ; Generated 12/02/2020 GMT
    84                           ; 
    85                           ; Copyright © 2020, Microchip Technology Inc. and its subsidiaries ("Microchip")
    86                           ; All rights reserved.
    87                           ; 
    88                           ; This software is developed by Microchip Technology Inc. and its subsidiaries ("Microch
      +                          ip").
    89                           ; 
    90                           ; Redistribution and use in source and binary forms, with or without modification, are
    91                           ; permitted provided that the following conditions are met:
    92                           ; 
    93                           ;     1. Redistributions of source code must retain the above copyright notice, this lis
      +                          t of
    94                           ;        conditions and the following disclaimer.
    95                           ; 
    96                           ;     2. Redistributions in binary form must reproduce the above copyright notice, this 
      +                          list
    97                           ;        of conditions and the following disclaimer in the documentation and/or other
    98                           ;        materials provided with the distribution.
    99                           ; 
   100                           ;     3. Microchip's name may not be used to endorse or promote products derived from th
      +                          is
   101                           ;        software without specific prior written permission.
   102                           ; 
   103                           ; THIS SOFTWARE IS PROVIDED BY MICROCHIP "AS IS" AND ANY EXPRESS OR IMPLIED WARRANTIES,
   104                           ; INCLUDING, BUT NOT LIMITED TO, THE IMPLIED WARRANTIES OF MERCHANTABILITY AND FITNESS F
      +                          OR
   105                           ; PURPOSE ARE DISCLAIMED.  IN NO EVENT SHALL MICROCHIP BE LIABLE FOR ANY DIRECT, INDIREC
      +                          T,
   106                           ; INCIDENTAL, SPECIAL, EXEMPLARY, OR CONSEQUENTIAL DAMAGES (INCLUDING BUT NOT LIMITED TO
   107                           ; PROCUREMENT OF SUBSTITUTE GOODS OR SERVICES; LOSS OF USE, DATA OR PROFITS; OR BUSINESS
   108                           ; INTERRUPTION) HOWSOEVER CAUSED AND ON ANY THEORY OF LIABILITY, WHETHER IN CONTRACT, ST
      +                          RICT
   109                           ; LIABILITY, OR TORT (INCLUDING NEGLIGENCE OR OTHERWISE) ARISING IN ANY WAY OUT OF THE U
      +                          SE OF
   110                           ; THIS SOFTWARE, EVEN IF ADVISED OF THE POSSIBILITY OF SUCH DAMAGE.
   111                           ; 
   112                           ; 
   113                           ; Code-generator required, PIC16F1459 Definitions
   114                           ; 
   115                           ; SFR Addresses
   116  0000                     	;# 
   117  0001                     	;# 
   118  0002                     	;# 
   119  0003                     	;# 
   120  0004                     	;# 
   121  0005                     	;# 
   122  0006                     	;# 
   123  0007                     	;# 
   124  0008                     	;# 
   125  0009                     	;# 
   126  000A                     	;# 
   127  000B                     	;# 
   128  000C                     	;# 
   129  000D                     	;# 
   130  000E                     	;# 
   131  0011                     	;# 
   132  0012                     	;# 
   133  0015                     	;# 
   134  0016                     	;# 
   135  0016                     	;# 
   136  0017                     	;# 
   137  0018                     	;# 
   138  0019                     	;# 
   139  001A                     	;# 
   140  001B                     	;# 
   141  001C                     	;# 
   142  008C                     	;# 
   143  008D                     	;# 
   144  008E                     	;# 
   145  0091                     	;# 
   146  0092                     	;# 
   147  0095                     	;# 
   148  0096                     	;# 
   149  0097                     	;# 
   150  0098                     	;# 
   151  0099                     	;# 
   152  009A                     	;# 
   153  009B                     	;# 
   154  009B                     	;# 
   155  009C                     	;# 
   156  009D                     	;# 
   157  009E                     	;# 
   158  009F                     	;# 
   159  010C                     	;# 
   160  010D                     	;# 
   161  010E                     	;# 
   162  0111                     	;# 
   163  0112                     	;# 
   164  0113                     	;# 
   165  0114                     	;# 
   166  0115                     	;# 
   167  0116                     	;# 
   168  0117                     	;# 
   169  0118                     	;# 
   170  0119                     	;# 
   171  011D                     	;# 
   172  018C                     	;# 
   173  018D                     	;# 
   174  018E                     	;# 
   175  0191                     	;# 
   176  0191                     	;# 
   177  0192                     	;# 
   178  0193                     	;# 
   179  0193                     	;# 
   180  0194                     	;# 
   181  0195                     	;# 
   182  0196                     	;# 
   183  0197                     	;# 
   184  0199                     	;# 
   185  019A                     	;# 
   186  019B                     	;# 
   187  019B                     	;# 
   188  019C                     	;# 
   189  019D                     	;# 
   190  019E                     	;# 
   191  019F                     	;# 
   192  020C                     	;# 
   193  020D                     	;# 
   194  0211                     	;# 
   195  0211                     	;# 
   196  0212                     	;# 
   197  0212                     	;# 
   198  0213                     	;# 
   199  0213                     	;# 
   200  0214                     	;# 
   201  0214                     	;# 
   202  0215                     	;# 
   203  0215                     	;# 
   204  0215                     	;# 
   205  0216                     	;# 
   206  0216                     	;# 
   207  0217                     	;# 
   208  0217                     	;# 
   209  0391                     	;# 
   210  0392                     	;# 
   211  0393                     	;# 
   212  0394                     	;# 
   213  0395                     	;# 
   214  0396                     	;# 
   215  039A                     	;# 
   216  039B                     	;# 
   217  0611                     	;# 
   218  0612                     	;# 
   219  0613                     	;# 
   220  0613                     	;# 
   221  0614                     	;# 
   222  0615                     	;# 
   223  0616                     	;# 
   224  0616                     	;# 
   225  0691                     	;# 
   226  0692                     	;# 
   227  0693                     	;# 
   228  0694                     	;# 
   229  0695                     	;# 
   230  0E8E                     	;# 
   231  0E8F                     	;# 
   232  0E90                     	;# 
   233  0E91                     	;# 
   234  0E92                     	;# 
   235  0E93                     	;# 
   236  0E94                     	;# 
   237  0E94                     	;# 
   238  0E95                     	;# 
   239  0E96                     	;# 
   240  0E97                     	;# 
   241  0E98                     	;# 
   242  0E99                     	;# 
   243  0E9A                     	;# 
   244  0E9B                     	;# 
   245  0E9C                     	;# 
   246  0E9D                     	;# 
   247  0E9E                     	;# 
   248  0E9F                     	;# 
   249  0FE4                     	;# 
   250  0FE5                     	;# 
   251  0FE6                     	;# 
   252  0FE7                     	;# 
   253  0FE8                     	;# 
   254  0FE9                     	;# 
   255  0FEA                     	;# 
   256  0FEB                     	;# 
   257  0FED                     	;# 
   258  0FEE                     	;# 
   259  0FEF                     	;# 
   260  0000                     	;# 
   261  0001                     	;# 
   262  0002                     	;# 
   263  0003                     	;# 
   264  0004                     	;# 
   265  0005                     	;# 
   266  0006                     	;# 
   267  0007                     	;# 
   268  0008                     	;# 
   269  0009                     	;# 
   270  000A                     	;# 
   271  000B                     	;# 
   272  000C                     	;# 
   273  000D                     	;# 
   274  000E                     	;# 
   275  0011                     	;# 
   276  0012                     	;# 
   277  0015                     	;# 
   278  0016                     	;# 
   279  0016                     	;# 
   280  0017                     	;# 
   281  0018                     	;# 
   282  0019                     	;# 
   283  001A                     	;# 
   284  001B                     	;# 
   285  001C                     	;# 
   286  008C                     	;# 
   287  008D                     	;# 
   288  008E                     	;# 
   289  0091                     	;# 
   290  0092                     	;# 
   291  0095                     	;# 
   292  0096                     	;# 
   293  0097                     	;# 
   294  0098                     	;# 
   295  0099                     	;# 
   296  009A                     	;# 
   297  009B                     	;# 
   298  009B                     	;# 
   299  009C                     	;# 
   300  009D                     	;# 
   301  009E                     	;# 
   302  009F                     	;# 
   303  010C                     	;# 
   304  010D                     	;# 
   305  010E                     	;# 
   306  0111                     	;# 
   307  0112                     	;# 
   308  0113                     	;# 
   309  0114                     	;# 
   310  0115                     	;# 
   311  0116                     	;# 
   312  0117                     	;# 
   313  0118                     	;# 
   314  0119                     	;# 
   315  011D                     	;# 
   316  018C                     	;# 
   317  018D                     	;# 
   318  018E                     	;# 
   319  0191                     	;# 
   320  0191                     	;# 
   321  0192                     	;# 
   322  0193                     	;# 
   323  0193                     	;# 
   324  0194                     	;# 
   325  0195                     	;# 
   326  0196                     	;# 
   327  0197                     	;# 
   328  0199                     	;# 
   329  019A                     	;# 
   330  019B                     	;# 
   331  019B                     	;# 
   332  019C                     	;# 
   333  019D                     	;# 
   334  019E                     	;# 
   335  019F                     	;# 
   336  020C                     	;# 
   337  020D                     	;# 
   338  0211                     	;# 
   339  0211                     	;# 
   340  0212                     	;# 
   341  0212                     	;# 
   342  0213                     	;# 
   343  0213                     	;# 
   344  0214                     	;# 
   345  0214                     	;# 
   346  0215                     	;# 
   347  0215                     	;# 
   348  0215                     	;# 
   349  0216                     	;# 
   350  0216                     	;# 
   351  0217                     	;# 
   352  0217                     	;# 
   353  0391                     	;# 
   354  0392                     	;# 
   355  0393                     	;# 
   356  0394                     	;# 
   357  0395                     	;# 
   358  0396                     	;# 
   359  039A                     	;# 
   360  039B                     	;# 
   361  0611                     	;# 
   362  0612                     	;# 
   363  0613                     	;# 
   364  0613                     	;# 
   365  0614                     	;# 
   366  0615                     	;# 
   367  0616                     	;# 
   368  0616                     	;# 
   369  0691                     	;# 
   370  0692                     	;# 
   371  0693                     	;# 
   372  0694                     	;# 
   373  0695                     	;# 
   374  0E8E                     	;# 
   375  0E8F                     	;# 
   376  0E90                     	;# 
   377  0E91                     	;# 
   378  0E92                     	;# 
   379  0E93                     	;# 
   380  0E94                     	;# 
   381  0E94                     	;# 
   382  0E95                     	;# 
   383  0E96                     	;# 
   384  0E97                     	;# 
   385  0E98                     	;# 
   386  0E99                     	;# 
   387  0E9A                     	;# 
   388  0E9B                     	;# 
   389  0E9C                     	;# 
   390  0E9D                     	;# 
   391  0E9E                     	;# 
   392  0E9F                     	;# 
   393  0FE4                     	;# 
   394  0FE5                     	;# 
   395  0FE6                     	;# 
   396  0FE7                     	;# 
   397  0FE8                     	;# 
   398  0FE9                     	;# 
   399  0FEA                     	;# 
   400  0FEB                     	;# 
   401  0FED                     	;# 
   402  0FEE                     	;# 
   403  0FEF                     	;# 
   404  0000                     	;# 
   405  0001                     	;# 
   406  0002                     	;# 
   407  0003                     	;# 
   408  0004                     	;# 
   409  0005                     	;# 
   410  0006                     	;# 
   411  0007                     	;# 
   412  0008                     	;# 
   413  0009                     	;# 
   414  000A                     	;# 
   415  000B                     	;# 
   416  000C                     	;# 
   417  000D                     	;# 
   418  000E                     	;# 
   419  0011                     	;# 
   420  0012                     	;# 
   421  0015                     	;# 
   422  0016                     	;# 
   423  0016                     	;# 
   424  0017                     	;# 
   425  0018                     	;# 
   426  0019                     	;# 
   427  001A                     	;# 
   428  001B                     	;# 
   429  001C                     	;# 
   430  008C                     	;# 
   431  008D                     	;# 
   432  008E                     	;# 
   433  0091                     	;# 
   434  0092                     	;# 
   435  0095                     	;# 
   436  0096                     	;# 
   437  0097                     	;# 
   438  0098                     	;# 
   439  0099                     	;# 
   440  009A                     	;# 
   441  009B                     	;# 
   442  009B                     	;# 
   443  009C                     	;# 
   444  009D                     	;# 
   445  009E                     	;# 
   446  009F                     	;# 
   447  010C                     	;# 
   448  010D                     	;# 
   449  010E                     	;# 
   450  0111                     	;# 
   451  0112                     	;# 
   452  0113                     	;# 
   453  0114                     	;# 
   454  0115                     	;# 
   455  0116                     	;# 
   456  0117                     	;# 
   457  0118                     	;# 
   458  0119                     	;# 
   459  011D                     	;# 
   460  018C                     	;# 
   461  018D                     	;# 
   462  018E                     	;# 
   463  0191                     	;# 
   464  0191                     	;# 
   465  0192                     	;# 
   466  0193                     	;# 
   467  0193                     	;# 
   468  0194                     	;# 
   469  0195                     	;# 
   470  0196                     	;# 
   471  0197                     	;# 
   472  0199                     	;# 
   473  019A                     	;# 
   474  019B                     	;# 
   475  019B                     	;# 
   476  019C                     	;# 
   477  019D                     	;# 
   478  019E                     	;# 
   479  019F                     	;# 
   480  020C                     	;# 
   481  020D                     	;# 
   482  0211                     	;# 
   483  0211                     	;# 
   484  0212                     	;# 
   485  0212                     	;# 
   486  0213                     	;# 
   487  0213                     	;# 
   488  0214                     	;# 
   489  0214                     	;# 
   490  0215                     	;# 
   491  0215                     	;# 
   492  0215                     	;# 
   493  0216                     	;# 
   494  0216                     	;# 
   495  0217                     	;# 
   496  0217                     	;# 
   497  0391                     	;# 
   498  0392                     	;# 
   499  0393                     	;# 
   500  0394                     	;# 
   501  0395                     	;# 
   502  0396                     	;# 
   503  039A                     	;# 
   504  039B                     	;# 
   505  0611                     	;# 
   506  0612                     	;# 
   507  0613                     	;# 
   508  0613                     	;# 
   509  0614                     	;# 
   510  0615                     	;# 
   511  0616                     	;# 
   512  0616                     	;# 
   513  0691                     	;# 
   514  0692                     	;# 
   515  0693                     	;# 
   516  0694                     	;# 
   517  0695                     	;# 
   518  0E8E                     	;# 
   519  0E8F                     	;# 
   520  0E90                     	;# 
   521  0E91                     	;# 
   522  0E92                     	;# 
   523  0E93                     	;# 
   524  0E94                     	;# 
   525  0E94                     	;# 
   526  0E95                     	;# 
   527  0E96                     	;# 
   528  0E97                     	;# 
   529  0E98                     	;# 
   530  0E99                     	;# 
   531  0E9A                     	;# 
   532  0E9B                     	;# 
   533  0E9C                     	;# 
   534  0E9D                     	;# 
   535  0E9E                     	;# 
   536  0E9F                     	;# 
   537  0FE4                     	;# 
   538  0FE5                     	;# 
   539  0FE6                     	;# 
   540  0FE7                     	;# 
   541  0FE8                     	;# 
   542  0FE9                     	;# 
   543  0FEA                     	;# 
   544  0FEB                     	;# 
   545  0FED                     	;# 
   546  0FEE                     	;# 
   547  0FEF                     	;# 
   548  0000                     	;# 
   549  0001                     	;# 
   550  0002                     	;# 
   551  0003                     	;# 
   552  0004                     	;# 
   553  0005                     	;# 
   554  0006                     	;# 
   555  0007                     	;# 
   556  0008                     	;# 
   557  0009                     	;# 
   558  000A                     	;# 
   559  000B                     	;# 
   560  000C                     	;# 
   561  000D                     	;# 
   562  000E                     	;# 
   563  0011                     	;# 
   564  0012                     	;# 
   565  0015                     	;# 
   566  0016                     	;# 
   567  0016                     	;# 
   568  0017                     	;# 
   569  0018                     	;# 
   570  0019                     	;# 
   571  001A                     	;# 
   572  001B                     	;# 
   573  001C                     	;# 
   574  008C                     	;# 
   575  008D                     	;# 
   576  008E                     	;# 
   577  0091                     	;# 
   578  0092                     	;# 
   579  0095                     	;# 
   580  0096                     	;# 
   581  0097                     	;# 
   582  0098                     	;# 
   583  0099                     	;# 
   584  009A                     	;# 
   585  009B                     	;# 
   586  009B                     	;# 
   587  009C                     	;# 
   588  009D                     	;# 
   589  009E                     	;# 
   590  009F                     	;# 
   591  010C                     	;# 
   592  010D                     	;# 
   593  010E                     	;# 
   594  0111                     	;# 
   595  0112                     	;# 
   596  0113                     	;# 
   597  0114                     	;# 
   598  0115                     	;# 
   599  0116                     	;# 
   600  0117                     	;# 
   601  0118                     	;# 
   602  0119                     	;# 
   603  011D                     	;# 
   604  018C                     	;# 
   605  018D                     	;# 
   606  018E                     	;# 
   607  0191                     	;# 
   608  0191                     	;# 
   609  0192                     	;# 
   610  0193                     	;# 
   611  0193                     	;# 
   612  0194                     	;# 
   613  0195                     	;# 
   614  0196                     	;# 
   615  0197                     	;# 
   616  0199                     	;# 
   617  019A                     	;# 
   618  019B                     	;# 
   619  019B                     	;# 
   620  019C                     	;# 
   621  019D                     	;# 
   622  019E                     	;# 
   623  019F                     	;# 
   624  020C                     	;# 
   625  020D                     	;# 
   626  0211                     	;# 
   627  0211                     	;# 
   628  0212                     	;# 
   629  0212                     	;# 
   630  0213                     	;# 
   631  0213                     	;# 
   632  0214                     	;# 
   633  0214                     	;# 
   634  0215                     	;# 
   635  0215                     	;# 
   636  0215                     	;# 
   637  0216                     	;# 
   638  0216                     	;# 
   639  0217                     	;# 
   640  0217                     	;# 
   641  0391                     	;# 
   642  0392                     	;# 
   643  0393                     	;# 
   644  0394                     	;# 
   645  0395                     	;# 
   646  0396                     	;# 
   647  039A                     	;# 
   648  039B                     	;# 
   649  0611                     	;# 
   650  0612                     	;# 
   651  0613                     	;# 
   652  0613                     	;# 
   653  0614                     	;# 
   654  0615                     	;# 
   655  0616                     	;# 
   656  0616                     	;# 
   657  0691                     	;# 
   658  0692                     	;# 
   659  0693                     	;# 
   660  0694                     	;# 
   661  0695                     	;# 
   662  0E8E                     	;# 
   663  0E8F                     	;# 
   664  0E90                     	;# 
   665  0E91                     	;# 
   666  0E92                     	;# 
   667  0E93                     	;# 
   668  0E94                     	;# 
   669  0E94                     	;# 
   670  0E95                     	;# 
   671  0E96                     	;# 
   672  0E97                     	;# 
   673  0E98                     	;# 
   674  0E99                     	;# 
   675  0E9A                     	;# 
   676  0E9B                     	;# 
   677  0E9C                     	;# 
   678  0E9D                     	;# 
   679  0E9E                     	;# 
   680  0E9F                     	;# 
   681  0FE4                     	;# 
   682  0FE5                     	;# 
   683  0FE6                     	;# 
   684  0FE7                     	;# 
   685  0FE8                     	;# 
   686  0FE9                     	;# 
   687  0FEA                     	;# 
   688  0FEB                     	;# 
   689  0FED                     	;# 
   690  0FEE                     	;# 
   691  0FEF                     	;# 
   692  0000                     	;# 
   693  0001                     	;# 
   694  0002                     	;# 
   695  0003                     	;# 
   696  0004                     	;# 
   697  0005                     	;# 
   698  0006                     	;# 
   699  0007                     	;# 
   700  0008                     	;# 
   701  0009                     	;# 
   702  000A                     	;# 
   703  000B                     	;# 
   704  000C                     	;# 
   705  000D                     	;# 
   706  000E                     	;# 
   707  0011                     	;# 
   708  0012                     	;# 
   709  0015                     	;# 
   710  0016                     	;# 
   711  0016                     	;# 
   712  0017                     	;# 
   713  0018                     	;# 
   714  0019                     	;# 
   715  001A                     	;# 
   716  001B                     	;# 
   717  001C                     	;# 
   718  008C                     	;# 
   719  008D                     	;# 
   720  008E                     	;# 
   721  0091                     	;# 
   722  0092                     	;# 
   723  0095                     	;# 
   724  0096                     	;# 
   725  0097                     	;# 
   726  0098                     	;# 
   727  0099                     	;# 
   728  009A                     	;# 
   729  009B                     	;# 
   730  009B                     	;# 
   731  009C                     	;# 
   732  009D                     	;# 
   733  009E                     	;# 
   734  009F                     	;# 
   735  010C                     	;# 
   736  010D                     	;# 
   737  010E                     	;# 
   738  0111                     	;# 
   739  0112                     	;# 
   740  0113                     	;# 
   741  0114                     	;# 
   742  0115                     	;# 
   743  0116                     	;# 
   744  0117                     	;# 
   745  0118                     	;# 
   746  0119                     	;# 
   747  011D                     	;# 
   748  018C                     	;# 
   749  018D                     	;# 
   750  018E                     	;# 
   751  0191                     	;# 
   752  0191                     	;# 
   753  0192                     	;# 
   754  0193                     	;# 
   755  0193                     	;# 
   756  0194                     	;# 
   757  0195                     	;# 
   758  0196                     	;# 
   759  0197                     	;# 
   760  0199                     	;# 
   761  019A                     	;# 
   762  019B                     	;# 
   763  019B                     	;# 
   764  019C                     	;# 
   765  019D                     	;# 
   766  019E                     	;# 
   767  019F                     	;# 
   768  020C                     	;# 
   769  020D                     	;# 
   770  0211                     	;# 
   771  0211                     	;# 
   772  0212                     	;# 
   773  0212                     	;# 
   774  0213                     	;# 
   775  0213                     	;# 
   776  0214                     	;# 
   777  0214                     	;# 
   778  0215                     	;# 
   779  0215                     	;# 
   780  0215                     	;# 
   781  0216                     	;# 
   782  0216                     	;# 
   783  0217                     	;# 
   784  0217                     	;# 
   785  0391                     	;# 
   786  0392                     	;# 
   787  0393                     	;# 
   788  0394                     	;# 
   789  0395                     	;# 
   790  0396                     	;# 
   791  039A                     	;# 
   792  039B                     	;# 
   793  0611                     	;# 
   794  0612                     	;# 
   795  0613                     	;# 
   796  0613                     	;# 
   797  0614                     	;# 
   798  0615                     	;# 
   799  0616                     	;# 
   800  0616                     	;# 
   801  0691                     	;# 
   802  0692                     	;# 
   803  0693                     	;# 
   804  0694                     	;# 
   805  0695                     	;# 
   806  0E8E                     	;# 
   807  0E8F                     	;# 
   808  0E90                     	;# 
   809  0E91                     	;# 
   810  0E92                     	;# 
   811  0E93                     	;# 
   812  0E94                     	;# 
   813  0E94                     	;# 
   814  0E95                     	;# 
   815  0E96                     	;# 
   816  0E97                     	;# 
   817  0E98                     	;# 
   818  0E99                     	;# 
   819  0E9A                     	;# 
   820  0E9B                     	;# 
   821  0E9C                     	;# 
   822  0E9D                     	;# 
   823  0E9E                     	;# 
   824  0E9F                     	;# 
   825  0FE4                     	;# 
   826  0FE5                     	;# 
   827  0FE6                     	;# 
   828  0FE7                     	;# 
   829  0FE8                     	;# 
   830  0FE9                     	;# 
   831  0FEA                     	;# 
   832  0FEB                     	;# 
   833  0FED                     	;# 
   834  0FEE                     	;# 
   835  0FEF                     	;# 
   836  0000                     	;# 
   837  0001                     	;# 
   838  0002                     	;# 
   839  0003                     	;# 
   840  0004                     	;# 
   841  0005                     	;# 
   842  0006                     	;# 
   843  0007                     	;# 
   844  0008                     	;# 
   845  0009                     	;# 
   846  000A                     	;# 
   847  000B                     	;# 
   848  000C                     	;# 
   849  000D                     	;# 
   850  000E                     	;# 
   851  0011                     	;# 
   852  0012                     	;# 
   853  0015                     	;# 
   854  0016                     	;# 
   855  0016                     	;# 
   856  0017                     	;# 
   857  0018                     	;# 
   858  0019                     	;# 
   859  001A                     	;# 
   860  001B                     	;# 
   861  001C                     	;# 
   862  008C                     	;# 
   863  008D                     	;# 
   864  008E                     	;# 
   865  0091                     	;# 
   866  0092                     	;# 
   867  0095                     	;# 
   868  0096                     	;# 
   869  0097                     	;# 
   870  0098                     	;# 
   871  0099                     	;# 
   872  009A                     	;# 
   873  009B                     	;# 
   874  009B                     	;# 
   875  009C                     	;# 
   876  009D                     	;# 
   877  009E                     	;# 
   878  009F                     	;# 
   879  010C                     	;# 
   880  010D                     	;# 
   881  010E                     	;# 
   882  0111                     	;# 
   883  0112                     	;# 
   884  0113                     	;# 
   885  0114                     	;# 
   886  0115                     	;# 
   887  0116                     	;# 
   888  0117                     	;# 
   889  0118                     	;# 
   890  0119                     	;# 
   891  011D                     	;# 
   892  018C                     	;# 
   893  018D                     	;# 
   894  018E                     	;# 
   895  0191                     	;# 
   896  0191                     	;# 
   897  0192                     	;# 
   898  0193                     	;# 
   899  0193                     	;# 
   900  0194                     	;# 
   901  0195                     	;# 
   902  0196                     	;# 
   903  0197                     	;# 
   904  0199                     	;# 
   905  019A                     	;# 
   906  019B                     	;# 
   907  019B                     	;# 
   908  019C                     	;# 
   909  019D                     	;# 
   910  019E                     	;# 
   911  019F                     	;# 
   912  020C                     	;# 
   913  020D                     	;# 
   914  0211                     	;# 
   915  0211                     	;# 
   916  0212                     	;# 
   917  0212                     	;# 
   918  0213                     	;# 
   919  0213                     	;# 
   920  0214                     	;# 
   921  0214                     	;# 
   922  0215                     	;# 
   923  0215                     	;# 
   924  0215                     	;# 
   925  0216                     	;# 
   926  0216                     	;# 
   927  0217                     	;# 
   928  0217                     	;# 
   929  0391                     	;# 
   930  0392                     	;# 
   931  0393                     	;# 
   932  0394                     	;# 
   933  0395                     	;# 
   934  0396                     	;# 
   935  039A                     	;# 
   936  039B                     	;# 
   937  0611                     	;# 
   938  0612                     	;# 
   939  0613                     	;# 
   940  0613                     	;# 
   941  0614                     	;# 
   942  0615                     	;# 
   943  0616                     	;# 
   944  0616                     	;# 
   945  0691                     	;# 
   946  0692                     	;# 
   947  0693                     	;# 
   948  0694                     	;# 
   949  0695                     	;# 
   950  0E8E                     	;# 
   951  0E8F                     	;# 
   952  0E90                     	;# 
   953  0E91                     	;# 
   954  0E92                     	;# 
   955  0E93                     	;# 
   956  0E94                     	;# 
   957  0E94                     	;# 
   958  0E95                     	;# 
   959  0E96                     	;# 
   960  0E97                     	;# 
   961  0E98                     	;# 
   962  0E99                     	;# 
   963  0E9A                     	;# 
   964  0E9B                     	;# 
   965  0E9C                     	;# 
   966  0E9D                     	;# 
   967  0E9E                     	;# 
   968  0E9F                     	;# 
   969  0FE4                     	;# 
   970  0FE5                     	;# 
   971  0FE6                     	;# 
   972  0FE7                     	;# 
   973  0FE8                     	;# 
   974  0FE9                     	;# 
   975  0FEA                     	;# 
   976  0FEB                     	;# 
   977  0FED                     	;# 
   978  0FEE                     	;# 
   979  0FEF                     	;# 
   980  0000                     	;# 
   981  0001                     	;# 
   982  0002                     	;# 
   983  0003                     	;# 
   984  0004                     	;# 
   985  0005                     	;# 
   986  0006                     	;# 
   987  0007                     	;# 
   988  0008                     	;# 
   989  0009                     	;# 
   990  000A                     	;# 
   991  000B                     	;# 
   992  000C                     	;# 
   993  000D                     	;# 
   994  000E                     	;# 
   995  0011                     	;# 
   996  0012                     	;# 
   997  0015                     	;# 
   998  0016                     	;# 
   999  0016                     	;# 
  1000  0017                     	;# 
  1001  0018                     	;# 
  1002  0019                     	;# 
  1003  001A                     	;# 
  1004  001B                     	;# 
  1005  001C                     	;# 
  1006  008C                     	;# 
  1007  008D                     	;# 
  1008  008E                     	;# 
  1009  0091                     	;# 
  1010  0092                     	;# 
  1011  0095                     	;# 
  1012  0096                     	;# 
  1013  0097                     	;# 
  1014  0098                     	;# 
  1015  0099                     	;# 
  1016  009A                     	;# 
  1017  009B                     	;# 
  1018  009B                     	;# 
  1019  009C                     	;# 
  1020  009D                     	;# 
  1021  009E                     	;# 
  1022  009F                     	;# 
  1023  010C                     	;# 
  1024  010D                     	;# 
  1025  010E                     	;# 
  1026  0111                     	;# 
  1027  0112                     	;# 
  1028  0113                     	;# 
  1029  0114                     	;# 
  1030  0115                     	;# 
  1031  0116                     	;# 
  1032  0117                     	;# 
  1033  0118                     	;# 
  1034  0119                     	;# 
  1035  011D                     	;# 
  1036  018C                     	;# 
  1037  018D                     	;# 
  1038  018E                     	;# 
  1039  0191                     	;# 
  1040  0191                     	;# 
  1041  0192                     	;# 
  1042  0193                     	;# 
  1043  0193                     	;# 
  1044  0194                     	;# 
  1045  0195                     	;# 
  1046  0196                     	;# 
  1047  0197                     	;# 
  1048  0199                     	;# 
  1049  019A                     	;# 
  1050  019B                     	;# 
  1051  019B                     	;# 
  1052  019C                     	;# 
  1053  019D                     	;# 
  1054  019E                     	;# 
  1055  019F                     	;# 
  1056  020C                     	;# 
  1057  020D                     	;# 
  1058  0211                     	;# 
  1059  0211                     	;# 
  1060  0212                     	;# 
  1061  0212                     	;# 
  1062  0213                     	;# 
  1063  0213                     	;# 
  1064  0214                     	;# 
  1065  0214                     	;# 
  1066  0215                     	;# 
  1067  0215                     	;# 
  1068  0215                     	;# 
  1069  0216                     	;# 
  1070  0216                     	;# 
  1071  0217                     	;# 
  1072  0217                     	;# 
  1073  0391                     	;# 
  1074  0392                     	;# 
  1075  0393                     	;# 
  1076  0394                     	;# 
  1077  0395                     	;# 
  1078  0396                     	;# 
  1079  039A                     	;# 
  1080  039B                     	;# 
  1081  0611                     	;# 
  1082  0612                     	;# 
  1083  0613                     	;# 
  1084  0613                     	;# 
  1085  0614                     	;# 
  1086  0615                     	;# 
  1087  0616                     	;# 
  1088  0616                     	;# 
  1089  0691                     	;# 
  1090  0692                     	;# 
  1091  0693                     	;# 
  1092  0694                     	;# 
  1093  0695                     	;# 
  1094  0E8E                     	;# 
  1095  0E8F                     	;# 
  1096  0E90                     	;# 
  1097  0E91                     	;# 
  1098  0E92                     	;# 
  1099  0E93                     	;# 
  1100  0E94                     	;# 
  1101  0E94                     	;# 
  1102  0E95                     	;# 
  1103  0E96                     	;# 
  1104  0E97                     	;# 
  1105  0E98                     	;# 
  1106  0E99                     	;# 
  1107  0E9A                     	;# 
  1108  0E9B                     	;# 
  1109  0E9C                     	;# 
  1110  0E9D                     	;# 
  1111  0E9E                     	;# 
  1112  0E9F                     	;# 
  1113  0FE4                     	;# 
  1114  0FE5                     	;# 
  1115  0FE6                     	;# 
  1116  0FE7                     	;# 
  1117  0FE8                     	;# 
  1118  0FE9                     	;# 
  1119  0FEA                     	;# 
  1120  0FEB                     	;# 
  1121  0FED                     	;# 
  1122  0FEE                     	;# 
  1123  0FEF                     	;# 
  1124  0000                     	;# 
  1125  0001                     	;# 
  1126  0002                     	;# 
  1127  0003                     	;# 
  1128  0004                     	;# 
  1129  0005                     	;# 
  1130  0006                     	;# 
  1131  0007                     	;# 
  1132  0008                     	;# 
  1133  0009                     	;# 
  1134  000A                     	;# 
  1135  000B                     	;# 
  1136  000C                     	;# 
  1137  000D                     	;# 
  1138  000E                     	;# 
  1139  0011                     	;# 
  1140  0012                     	;# 
  1141  0015                     	;# 
  1142  0016                     	;# 
  1143  0016                     	;# 
  1144  0017                     	;# 
  1145  0018                     	;# 
  1146  0019                     	;# 
  1147  001A                     	;# 
  1148  001B                     	;# 
  1149  001C                     	;# 
  1150  008C                     	;# 
  1151  008D                     	;# 
  1152  008E                     	;# 
  1153  0091                     	;# 
  1154  0092                     	;# 
  1155  0095                     	;# 
  1156  0096                     	;# 
  1157  0097                     	;# 
  1158  0098                     	;# 
  1159  0099                     	;# 
  1160  009A                     	;# 
  1161  009B                     	;# 
  1162  009B                     	;# 
  1163  009C                     	;# 
  1164  009D                     	;# 
  1165  009E                     	;# 
  1166  009F                     	;# 
  1167  010C                     	;# 
  1168  010D                     	;# 
  1169  010E                     	;# 
  1170  0111                     	;# 
  1171  0112                     	;# 
  1172  0113                     	;# 
  1173  0114                     	;# 
  1174  0115                     	;# 
  1175  0116                     	;# 
  1176  0117                     	;# 
  1177  0118                     	;# 
  1178  0119                     	;# 
  1179  011D                     	;# 
  1180  018C                     	;# 
  1181  018D                     	;# 
  1182  018E                     	;# 
  1183  0191                     	;# 
  1184  0191                     	;# 
  1185  0192                     	;# 
  1186  0193                     	;# 
  1187  0193                     	;# 
  1188  0194                     	;# 
  1189  0195                     	;# 
  1190  0196                     	;# 
  1191  0197                     	;# 
  1192  0199                     	;# 
  1193  019A                     	;# 
  1194  019B                     	;# 
  1195  019B                     	;# 
  1196  019C                     	;# 
  1197  019D                     	;# 
  1198  019E                     	;# 
  1199  019F                     	;# 
  1200  020C                     	;# 
  1201  020D                     	;# 
  1202  0211                     	;# 
  1203  0211                     	;# 
  1204  0212                     	;# 
  1205  0212                     	;# 
  1206  0213                     	;# 
  1207  0213                     	;# 
  1208  0214                     	;# 
  1209  0214                     	;# 
  1210  0215                     	;# 
  1211  0215                     	;# 
  1212  0215                     	;# 
  1213  0216                     	;# 
  1214  0216                     	;# 
  1215  0217                     	;# 
  1216  0217                     	;# 
  1217  0391                     	;# 
  1218  0392                     	;# 
  1219  0393                     	;# 
  1220  0394                     	;# 
  1221  0395                     	;# 
  1222  0396                     	;# 
  1223  039A                     	;# 
  1224  039B                     	;# 
  1225  0611                     	;# 
  1226  0612                     	;# 
  1227  0613                     	;# 
  1228  0613                     	;# 
  1229  0614                     	;# 
  1230  0615                     	;# 
  1231  0616                     	;# 
  1232  0616                     	;# 
  1233  0691                     	;# 
  1234  0692                     	;# 
  1235  0693                     	;# 
  1236  0694                     	;# 
  1237  0695                     	;# 
  1238  0E8E                     	;# 
  1239  0E8F                     	;# 
  1240  0E90                     	;# 
  1241  0E91                     	;# 
  1242  0E92                     	;# 
  1243  0E93                     	;# 
  1244  0E94                     	;# 
  1245  0E94                     	;# 
  1246  0E95                     	;# 
  1247  0E96                     	;# 
  1248  0E97                     	;# 
  1249  0E98                     	;# 
  1250  0E99                     	;# 
  1251  0E9A                     	;# 
  1252  0E9B                     	;# 
  1253  0E9C                     	;# 
  1254  0E9D                     	;# 
  1255  0E9E                     	;# 
  1256  0E9F                     	;# 
  1257  0FE4                     	;# 
  1258  0FE5                     	;# 
  1259  0FE6                     	;# 
  1260  0FE7                     	;# 
  1261  0FE8                     	;# 
  1262  0FE9                     	;# 
  1263  0FEA                     	;# 
  1264  0FEB                     	;# 
  1265  0FED                     	;# 
  1266  0FEE                     	;# 
  1267  0FEF                     	;# 
  1268  0000                     	;# 
  1269  0001                     	;# 
  1270  0002                     	;# 
  1271  0003                     	;# 
  1272  0004                     	;# 
  1273  0005                     	;# 
  1274  0006                     	;# 
  1275  0007                     	;# 
  1276  0008                     	;# 
  1277  0009                     	;# 
  1278  000A                     	;# 
  1279  000B                     	;# 
  1280  000C                     	;# 
  1281  000D                     	;# 
  1282  000E                     	;# 
  1283  0011                     	;# 
  1284  0012                     	;# 
  1285  0015                     	;# 
  1286  0016                     	;# 
  1287  0016                     	;# 
  1288  0017                     	;# 
  1289  0018                     	;# 
  1290  0019                     	;# 
  1291  001A                     	;# 
  1292  001B                     	;# 
  1293  001C                     	;# 
  1294  008C                     	;# 
  1295  008D                     	;# 
  1296  008E                     	;# 
  1297  0091                     	;# 
  1298  0092                     	;# 
  1299  0095                     	;# 
  1300  0096                     	;# 
  1301  0097                     	;# 
  1302  0098                     	;# 
  1303  0099                     	;# 
  1304  009A                     	;# 
  1305  009B                     	;# 
  1306  009B                     	;# 
  1307  009C                     	;# 
  1308  009D                     	;# 
  1309  009E                     	;# 
  1310  009F                     	;# 
  1311  010C                     	;# 
  1312  010D                     	;# 
  1313  010E                     	;# 
  1314  0111                     	;# 
  1315  0112                     	;# 
  1316  0113                     	;# 
  1317  0114                     	;# 
  1318  0115                     	;# 
  1319  0116                     	;# 
  1320  0117                     	;# 
  1321  0118                     	;# 
  1322  0119                     	;# 
  1323  011D                     	;# 
  1324  018C                     	;# 
  1325  018D                     	;# 
  1326  018E                     	;# 
  1327  0191                     	;# 
  1328  0191                     	;# 
  1329  0192                     	;# 
  1330  0193                     	;# 
  1331  0193                     	;# 
  1332  0194                     	;# 
  1333  0195                     	;# 
  1334  0196                     	;# 
  1335  0197                     	;# 
  1336  0199                     	;# 
  1337  019A                     	;# 
  1338  019B                     	;# 
  1339  019B                     	;# 
  1340  019C                     	;# 
  1341  019D                     	;# 
  1342  019E                     	;# 
  1343  019F                     	;# 
  1344  020C                     	;# 
  1345  020D                     	;# 
  1346  0211                     	;# 
  1347  0211                     	;# 
  1348  0212                     	;# 
  1349  0212                     	;# 
  1350  0213                     	;# 
  1351  0213                     	;# 
  1352  0214                     	;# 
  1353  0214                     	;# 
  1354  0215                     	;# 
  1355  0215                     	;# 
  1356  0215                     	;# 
  1357  0216                     	;# 
  1358  0216                     	;# 
  1359  0217                     	;# 
  1360  0217                     	;# 
  1361  0391                     	;# 
  1362  0392                     	;# 
  1363  0393                     	;# 
  1364  0394                     	;# 
  1365  0395                     	;# 
  1366  0396                     	;# 
  1367  039A                     	;# 
  1368  039B                     	;# 
  1369  0611                     	;# 
  1370  0612                     	;# 
  1371  0613                     	;# 
  1372  0613                     	;# 
  1373  0614                     	;# 
  1374  0615                     	;# 
  1375  0616                     	;# 
  1376  0616                     	;# 
  1377  0691                     	;# 
  1378  0692                     	;# 
  1379  0693                     	;# 
  1380  0694                     	;# 
  1381  0695                     	;# 
  1382  0E8E                     	;# 
  1383  0E8F                     	;# 
  1384  0E90                     	;# 
  1385  0E91                     	;# 
  1386  0E92                     	;# 
  1387  0E93                     	;# 
  1388  0E94                     	;# 
  1389  0E94                     	;# 
  1390  0E95                     	;# 
  1391  0E96                     	;# 
  1392  0E97                     	;# 
  1393  0E98                     	;# 
  1394  0E99                     	;# 
  1395  0E9A                     	;# 
  1396  0E9B                     	;# 
  1397  0E9C                     	;# 
  1398  0E9D                     	;# 
  1399  0E9E                     	;# 
  1400  0E9F                     	;# 
  1401  0FE4                     	;# 
  1402  0FE5                     	;# 
  1403  0FE6                     	;# 
  1404  0FE7                     	;# 
  1405  0FE8                     	;# 
  1406  0FE9                     	;# 
  1407  0FEA                     	;# 
  1408  0FEB                     	;# 
  1409  0FED                     	;# 
  1410  0FEE                     	;# 
  1411  0FEF                     	;# 
  1412  0000                     	;# 
  1413  0001                     	;# 
  1414  0002                     	;# 
  1415  0003                     	;# 
  1416  0004                     	;# 
  1417  0005                     	;# 
  1418  0006                     	;# 
  1419  0007                     	;# 
  1420  0008                     	;# 
  1421  0009                     	;# 
  1422  000A                     	;# 
  1423  000B                     	;# 
  1424  000C                     	;# 
  1425  000D                     	;# 
  1426  000E                     	;# 
  1427  0011                     	;# 
  1428  0012                     	;# 
  1429  0015                     	;# 
  1430  0016                     	;# 
  1431  0016                     	;# 
  1432  0017                     	;# 
  1433  0018                     	;# 
  1434  0019                     	;# 
  1435  001A                     	;# 
  1436  001B                     	;# 
  1437  001C                     	;# 
  1438  008C                     	;# 
  1439  008D                     	;# 
  1440  008E                     	;# 
  1441  0091                     	;# 
  1442  0092                     	;# 
  1443  0095                     	;# 
  1444  0096                     	;# 
  1445  0097                     	;# 
  1446  0098                     	;# 
  1447  0099                     	;# 
  1448  009A                     	;# 
  1449  009B                     	;# 
  1450  009B                     	;# 
  1451  009C                     	;# 
  1452  009D                     	;# 
  1453  009E                     	;# 
  1454  009F                     	;# 
  1455  010C                     	;# 
  1456  010D                     	;# 
  1457  010E                     	;# 
  1458  0111                     	;# 
  1459  0112                     	;# 
  1460  0113                     	;# 
  1461  0114                     	;# 
  1462  0115                     	;# 
  1463  0116                     	;# 
  1464  0117                     	;# 
  1465  0118                     	;# 
  1466  0119                     	;# 
  1467  011D                     	;# 
  1468  018C                     	;# 
  1469  018D                     	;# 
  1470  018E                     	;# 
  1471  0191                     	;# 
  1472  0191                     	;# 
  1473  0192                     	;# 
  1474  0193                     	;# 
  1475  0193                     	;# 
  1476  0194                     	;# 
  1477  0195                     	;# 
  1478  0196                     	;# 
  1479  0197                     	;# 
  1480  0199                     	;# 
  1481  019A                     	;# 
  1482  019B                     	;# 
  1483  019B                     	;# 
  1484  019C                     	;# 
  1485  019D                     	;# 
  1486  019E                     	;# 
  1487  019F                     	;# 
  1488  020C                     	;# 
  1489  020D                     	;# 
  1490  0211                     	;# 
  1491  0211                     	;# 
  1492  0212                     	;# 
  1493  0212                     	;# 
  1494  0213                     	;# 
  1495  0213                     	;# 
  1496  0214                     	;# 
  1497  0214                     	;# 
  1498  0215                     	;# 
  1499  0215                     	;# 
  1500  0215                     	;# 
  1501  0216                     	;# 
  1502  0216                     	;# 
  1503  0217                     	;# 
  1504  0217                     	;# 
  1505  0391                     	;# 
  1506  0392                     	;# 
  1507  0393                     	;# 
  1508  0394                     	;# 
  1509  0395                     	;# 
  1510  0396                     	;# 
  1511  039A                     	;# 
  1512  039B                     	;# 
  1513  0611                     	;# 
  1514  0612                     	;# 
  1515  0613                     	;# 
  1516  0613                     	;# 
  1517  0614                     	;# 
  1518  0615                     	;# 
  1519  0616                     	;# 
  1520  0616                     	;# 
  1521  0691                     	;# 
  1522  0692                     	;# 
  1523  0693                     	;# 
  1524  0694                     	;# 
  1525  0695                     	;# 
  1526  0E8E                     	;# 
  1527  0E8F                     	;# 
  1528  0E90                     	;# 
  1529  0E91                     	;# 
  1530  0E92                     	;# 
  1531  0E93                     	;# 
  1532  0E94                     	;# 
  1533  0E94                     	;# 
  1534  0E95                     	;# 
  1535  0E96                     	;# 
  1536  0E97                     	;# 
  1537  0E98                     	;# 
  1538  0E99                     	;# 
  1539  0E9A                     	;# 
  1540  0E9B                     	;# 
  1541  0E9C                     	;# 
  1542  0E9D                     	;# 
  1543  0E9E                     	;# 
  1544  0E9F                     	;# 
  1545  0FE4                     	;# 
  1546  0FE5                     	;# 
  1547  0FE6                     	;# 
  1548  0FE7                     	;# 
  1549  0FE8                     	;# 
  1550  0FE9                     	;# 
  1551  0FEA                     	;# 
  1552  0FEB                     	;# 
  1553  0FED                     	;# 
  1554  0FEE                     	;# 
  1555  0FEF                     	;# 
  1556  0000                     	;# 
  1557  0001                     	;# 
  1558  0002                     	;# 
  1559  0003                     	;# 
  1560  0004                     	;# 
  1561  0005                     	;# 
  1562  0006                     	;# 
  1563  0007                     	;# 
  1564  0008                     	;# 
  1565  0009                     	;# 
  1566  000A                     	;# 
  1567  000B                     	;# 
  1568  000C                     	;# 
  1569  000D                     	;# 
  1570  000E                     	;# 
  1571  0011                     	;# 
  1572  0012                     	;# 
  1573  0015                     	;# 
  1574  0016                     	;# 
  1575  0016                     	;# 
  1576  0017                     	;# 
  1577  0018                     	;# 
  1578  0019                     	;# 
  1579  001A                     	;# 
  1580  001B                     	;# 
  1581  001C                     	;# 
  1582  008C                     	;# 
  1583  008D                     	;# 
  1584  008E                     	;# 
  1585  0091                     	;# 
  1586  0092                     	;# 
  1587  0095                     	;# 
  1588  0096                     	;# 
  1589  0097                     	;# 
  1590  0098                     	;# 
  1591  0099                     	;# 
  1592  009A                     	;# 
  1593  009B                     	;# 
  1594  009B                     	;# 
  1595  009C                     	;# 
  1596  009D                     	;# 
  1597  009E                     	;# 
  1598  009F                     	;# 
  1599  010C                     	;# 
  1600  010D                     	;# 
  1601  010E                     	;# 
  1602  0111                     	;# 
  1603  0112                     	;# 
  1604  0113                     	;# 
  1605  0114                     	;# 
  1606  0115                     	;# 
  1607  0116                     	;# 
  1608  0117                     	;# 
  1609  0118                     	;# 
  1610  0119                     	;# 
  1611  011D                     	;# 
  1612  018C                     	;# 
  1613  018D                     	;# 
  1614  018E                     	;# 
  1615  0191                     	;# 
  1616  0191                     	;# 
  1617  0192                     	;# 
  1618  0193                     	;# 
  1619  0193                     	;# 
  1620  0194                     	;# 
  1621  0195                     	;# 
  1622  0196                     	;# 
  1623  0197                     	;# 
  1624  0199                     	;# 
  1625  019A                     	;# 
  1626  019B                     	;# 
  1627  019B                     	;# 
  1628  019C                     	;# 
  1629  019D                     	;# 
  1630  019E                     	;# 
  1631  019F                     	;# 
  1632  020C                     	;# 
  1633  020D                     	;# 
  1634  0211                     	;# 
  1635  0211                     	;# 
  1636  0212                     	;# 
  1637  0212                     	;# 
  1638  0213                     	;# 
  1639  0213                     	;# 
  1640  0214                     	;# 
  1641  0214                     	;# 
  1642  0215                     	;# 
  1643  0215                     	;# 
  1644  0215                     	;# 
  1645  0216                     	;# 
  1646  0216                     	;# 
  1647  0217                     	;# 
  1648  0217                     	;# 
  1649  0391                     	;# 
  1650  0392                     	;# 
  1651  0393                     	;# 
  1652  0394                     	;# 
  1653  0395                     	;# 
  1654  0396                     	;# 
  1655  039A                     	;# 
  1656  039B                     	;# 
  1657  0611                     	;# 
  1658  0612                     	;# 
  1659  0613                     	;# 
  1660  0613                     	;# 
  1661  0614                     	;# 
  1662  0615                     	;# 
  1663  0616                     	;# 
  1664  0616                     	;# 
  1665  0691                     	;# 
  1666  0692                     	;# 
  1667  0693                     	;# 
  1668  0694                     	;# 
  1669  0695                     	;# 
  1670  0E8E                     	;# 
  1671  0E8F                     	;# 
  1672  0E90                     	;# 
  1673  0E91                     	;# 
  1674  0E92                     	;# 
  1675  0E93                     	;# 
  1676  0E94                     	;# 
  1677  0E94                     	;# 
  1678  0E95                     	;# 
  1679  0E96                     	;# 
  1680  0E97                     	;# 
  1681  0E98                     	;# 
  1682  0E99                     	;# 
  1683  0E9A                     	;# 
  1684  0E9B                     	;# 
  1685  0E9C                     	;# 
  1686  0E9D                     	;# 
  1687  0E9E                     	;# 
  1688  0E9F                     	;# 
  1689  0FE4                     	;# 
  1690  0FE5                     	;# 
  1691  0FE6                     	;# 
  1692  0FE7                     	;# 
  1693  0FE8                     	;# 
  1694  0FE9                     	;# 
  1695  0FEA                     	;# 
  1696  0FEB                     	;# 
  1697  0FED                     	;# 
  1698  0FEE                     	;# 
  1699  0FEF                     	;# 
  1700                           
  1701                           	psect	stringtext1
  1702  181B                     __pstringtext1:
  1703  181B                     _USB_SD_Ptr:
  1704  181B  3412               	retlw	low (_sd000| (0+32768))
  1705  181C  3498               	retlw	high (_sd000| (0+32768))
  1706  181D  3477               	retlw	low (_sd001| (0+32768))
  1707  181E  3490               	retlw	high (_sd001| (0+32768))
  1708  181F  3443               	retlw	low (_sd002| (0+32768))
  1709  1820  3490               	retlw	high (_sd002| (0+32768))
  1710  1821                     __end_of_USB_SD_Ptr:
  1711                           
  1712                           	psect	stringtext2
  1713  1821                     __pstringtext2:
  1714  1821                     _USB_CD_Ptr:
  1715  1821  3400               	retlw	low (_configDescriptor1| (0+32768))
  1716  1822  3490               	retlw	high (_configDescriptor1| (0+32768))
  1717  1823                     __end_of_USB_CD_Ptr:
  1718                           
  1719                           	psect	stringtext3
  1720  1000                     __pstringtext3:
  1721  1000                     _configDescriptor1:
  1722  1000  3409               	retlw	9
  1723  1001  3402               	retlw	2
  1724  1002  3443               	retlw	67
  1725  1003  3400               	retlw	0
  1726  1004  3402               	retlw	2
  1727  1005  3401               	retlw	1
  1728  1006  3400               	retlw	0
  1729  1007  34C0               	retlw	192
  1730  1008  3432               	retlw	50
  1731  1009  3409               	retlw	9
  1732  100A  3404               	retlw	4
  1733  100B  3400               	retlw	0
  1734  100C  3400               	retlw	0
  1735  100D  3401               	retlw	1
  1736  100E  3402               	retlw	2
  1737  100F  3402               	retlw	2
  1738  1010  3401               	retlw	1
  1739  1011  3400               	retlw	0
  1740  1012  3405               	retlw	5
  1741  1013  3424               	retlw	36
  1742  1014  3400               	retlw	0
  1743  1015  3410               	retlw	16
  1744  1016  3401               	retlw	1
  1745  1017  3404               	retlw	4
  1746  1018  3424               	retlw	36
  1747  1019  3402               	retlw	2
  1748  101A  3402               	retlw	2
  1749  101B  3405               	retlw	5
  1750  101C  3424               	retlw	36
  1751  101D  3406               	retlw	6
  1752  101E  3400               	retlw	0
  1753  101F  3401               	retlw	1
  1754  1020  3405               	retlw	5
  1755  1021  3424               	retlw	36
  1756  1022  3401               	retlw	1
  1757  1023  3400               	retlw	0
  1758  1024  3401               	retlw	1
  1759  1025  3407               	retlw	7
  1760  1026  3405               	retlw	5
  1761  1027  3481               	retlw	129
  1762  1028  3403               	retlw	3
  1763  1029  3408               	retlw	8
  1764  102A  3400               	retlw	0
  1765  102B  3402               	retlw	2
  1766  102C  3409               	retlw	9
  1767  102D  3404               	retlw	4
  1768  102E  3401               	retlw	1
  1769  102F  3400               	retlw	0
  1770  1030  3402               	retlw	2
  1771  1031  340A               	retlw	10
  1772  1032  3400               	retlw	0
  1773  1033  3400               	retlw	0
  1774  1034  3400               	retlw	0
  1775  1035  3407               	retlw	7
  1776  1036  3405               	retlw	5
  1777  1037  3402               	retlw	2
  1778  1038  3402               	retlw	2
  1779  1039  3440               	retlw	64
  1780  103A  3400               	retlw	0
  1781  103B  3400               	retlw	0
  1782  103C  3407               	retlw	7
  1783  103D  3405               	retlw	5
  1784  103E  3482               	retlw	130
  1785  103F  3402               	retlw	2
  1786  1040  3440               	retlw	64
  1787  1041  3400               	retlw	0
  1788  1042  3400               	retlw	0
  1789  1043                     __end_of_configDescriptor1:
  1790                           
  1791                           	psect	stringtext4
  1792  1043                     __pstringtext4:
  1793  1043                     _sd002:
  1794  1043  3434               	retlw	52
  1795  1044  3403               	retlw	3
  1796  1045  3443               	retlw	67
  1797  1046  3400               	retlw	0
  1798  1047  3444               	retlw	68
  1799  1048  3400               	retlw	0
  1800  1049  3443               	retlw	67
  1801  104A  3400               	retlw	0
  1802  104B  3420               	retlw	32
  1803  104C  3400               	retlw	0
  1804  104D  3452               	retlw	82
  1805  104E  3400               	retlw	0
  1806  104F  3453               	retlw	83
  1807  1050  3400               	retlw	0
  1808  1051  342D               	retlw	45
  1809  1052  3400               	retlw	0
  1810  1053  3432               	retlw	50
  1811  1054  3400               	retlw	0
  1812  1055  3433               	retlw	51
  1813  1056  3400               	retlw	0
  1814  1057  3432               	retlw	50
  1815  1058  3400               	retlw	0
  1816  1059  3420               	retlw	32
  1817  105A  3400               	retlw	0
  1818  105B  3445               	retlw	69
  1819  105C  3400               	retlw	0
  1820  105D  346D               	retlw	109
  1821  105E  3400               	retlw	0
  1822  105F  3475               	retlw	117
  1823  1060  3400               	retlw	0
  1824  1061  346C               	retlw	108
  1825  1062  3400               	retlw	0
  1826  1063  3461               	retlw	97
  1827  1064  3400               	retlw	0
  1828  1065  3474               	retlw	116
  1829  1066  3400               	retlw	0
  1830  1067  3469               	retlw	105
  1831  1068  3400               	retlw	0
  1832  1069  346F               	retlw	111
  1833  106A  3400               	retlw	0
  1834  106B  346E               	retlw	110
  1835  106C  3400               	retlw	0
  1836  106D  3420               	retlw	32
  1837  106E  3400               	retlw	0
  1838  106F  3444               	retlw	68
  1839  1070  3400               	retlw	0
  1840  1071  3465               	retlw	101
  1841  1072  3400               	retlw	0
  1842  1073  346D               	retlw	109
  1843  1074  3400               	retlw	0
  1844  1075  346F               	retlw	111
  1845  1076  3400               	retlw	0
  1846  1077                     __end_of_sd002:
  1847                           
  1848                           	psect	stringtext5
  1849  1077                     __pstringtext5:
  1850  1077                     _sd001:
  1851  1077  3434               	retlw	52
  1852  1078  3403               	retlw	3
  1853  1079  344D               	retlw	77
  1854  107A  3400               	retlw	0
  1855  107B  3469               	retlw	105
  1856  107C  3400               	retlw	0
  1857  107D  3463               	retlw	99
  1858  107E  3400               	retlw	0
  1859  107F  3472               	retlw	114
  1860  1080  3400               	retlw	0
  1861  1081  346F               	retlw	111
  1862  1082  3400               	retlw	0
  1863  1083  3463               	retlw	99
  1864  1084  3400               	retlw	0
  1865  1085  3468               	retlw	104
  1866  1086  3400               	retlw	0
  1867  1087  3469               	retlw	105
  1868  1088  3400               	retlw	0
  1869  1089  3470               	retlw	112
  1870  108A  3400               	retlw	0
  1871  108B  3420               	retlw	32
  1872  108C  3400               	retlw	0
  1873  108D  3454               	retlw	84
  1874  108E  3400               	retlw	0
  1875  108F  3465               	retlw	101
  1876  1090  3400               	retlw	0
  1877  1091  3463               	retlw	99
  1878  1092  3400               	retlw	0
  1879  1093  3468               	retlw	104
  1880  1094  3400               	retlw	0
  1881  1095  346E               	retlw	110
  1882  1096  3400               	retlw	0
  1883  1097  346F               	retlw	111
  1884  1098  3400               	retlw	0
  1885  1099  346C               	retlw	108
  1886  109A  3400               	retlw	0
  1887  109B  346F               	retlw	111
  1888  109C  3400               	retlw	0
  1889  109D  3467               	retlw	103
  1890  109E  3400               	retlw	0
  1891  109F  3479               	retlw	121
  1892  10A0  3400               	retlw	0
  1893  10A1  3420               	retlw	32
  1894  10A2  3400               	retlw	0
  1895  10A3  3449               	retlw	73
  1896  10A4  3400               	retlw	0
  1897  10A5  346E               	retlw	110
  1898  10A6  3400               	retlw	0
  1899  10A7  3463               	retlw	99
  1900  10A8  3400               	retlw	0
  1901  10A9  342E               	retlw	46
  1902  10AA  3400               	retlw	0
  1903  10AB                     __end_of_sd001:
  1904                           
  1905                           	psect	stringtext6
  1906  1800                     __pstringtext6:
  1907  1800                     _device_dsc:
  1908  1800  3412               	retlw	18
  1909  1801  3401               	retlw	1
  1910  1802  3400               	retlw	0
  1911  1803  3402               	retlw	2
  1912  1804  3402               	retlw	2
  1913  1805  3400               	retlw	0
  1914  1806  3400               	retlw	0
  1915  1807  3408               	retlw	8
  1916  1808  34D8               	retlw	216
  1917  1809  3404               	retlw	4
  1918  180A  340A               	retlw	10
  1919  180B  3400               	retlw	0
  1920  180C  3400               	retlw	0
  1921  180D  3401               	retlw	1
  1922  180E  3401               	retlw	1
  1923  180F  3402               	retlw	2
  1924  1810  3400               	retlw	0
  1925  1811  3401               	retlw	1
  1926  1812                     __end_of_device_dsc:
  1927                           
  1928                           	psect	stringtext7
  1929  1812                     __pstringtext7:
  1930  1812                     _sd000:
  1931  1812  3404               	retlw	4
  1932  1813  3403               	retlw	3
  1933  1814  3409               	retlw	9
  1934  1815  3404               	retlw	4
  1935  1816                     __end_of_sd000:
  1936  000B                     _INTCONbits	set	11
  1937  0012                     _PIR2bits	set	18
  1938  000C                     _PORTAbits	set	12
  1939  0092                     _PIE2bits	set	146
  1940  008E                     _TRISCbits	set	142
  1941  008D                     _TRISBbits	set	141
  1942  008C                     _TRISAbits	set	140
  1943  0099                     _OSCCON	set	153
  1944  010E                     _LATCbits	set	270
  1945  018E                     _ANSELC	set	398
  1946  018D                     _ANSELB	set	397
  1947  018C                     _ANSELA	set	396
  1948  0214                     _SSPSTATbits	set	532
  1949  0211                     _SSPBUF	set	529
  1950  0215                     _SSP1CON1	set	533
  1951  0214                     _SSP1STAT	set	532
  1952  039B                     _ACTCON	set	923
  1953  0E98                     _UEP0bits	set	3736
  1954  0E8E                     _UCON	set	3726
  1955  0E8F                     _USTAT	set	3727
  1956  0E92                     _UIEbits	set	3730
  1957  0E90                     _UIRbits	set	3728
  1958  0E96                     _UADDR	set	3734
  1959  0E92                     _UIE	set	3730
  1960  0E97                     _UEIE	set	3735
  1961  0E91                     _UCFG	set	3729
  1962  0E90                     _UIR	set	3728
  1963  0E93                     _UEIR	set	3731
  1964  0E8E                     _UCONbits	set	3726
  1965  0E99                     _UEP1	set	3737
  1966  0E98                     _UEP0	set	3736
  1967  1816                     STR_1:
  1968  1816  344E               	retlw	78	;'N'
  1969  1817  3443               	retlw	67	;'C'
  1970  1818  340D               	retlw	13
  1971  1819  340A               	retlw	10
  1972  181A  3400               	retlw	0
  1973                           
  1974                           	psect	stringtext8
  1975  0000                     __pstringtext8:
  1976  1816                     
  1977                           	psect	cinit
  1978  000D                     start_initialization:	
  1979                           ; #config settings
  1980                           
  1981  000D                     __initialization:
  1982                           
  1983                           ; Clear objects allocated to BANK1
  1984  000D  0021               	movlb	1	; select bank1
  1985  000E  01E9               	clrf	__pbssBANK1& (0+127)
  1986  000F  01EA               	clrf	(__pbssBANK1+1)& (0+127)
  1987  0010  01EB               	clrf	(__pbssBANK1+2)& (0+127)
  1988  0011  01EC               	clrf	(__pbssBANK1+3)& (0+127)
  1989                           
  1990                           ; Clear objects allocated to BANK3
  1991  0012  30A0               	movlw	low __pbssBANK3
  1992  0013  0084               	movwf	4
  1993  0014  3001               	movlw	high __pbssBANK3
  1994  0015  0085               	movwf	5
  1995  0016  3035               	movlw	53
  1996  0017  3195  25DE  3180   	fcall	clear_ram0
  1997                           
  1998                           ; Clear objects allocated to BANK4
  1999  001A  3020               	movlw	low __pbssBANK4
  2000  001B  0084               	movwf	4
  2001  001C  3002               	movlw	high __pbssBANK4
  2002  001D  0085               	movwf	5
  2003  001E  301D               	movlw	29
  2004  001F  3195  25DE  3180   	fcall	clear_ram0
  2005                           
  2006                           ; Clear objects allocated to BANK5
  2007  0022  30A0               	movlw	low __pbssBANK5
  2008  0023  0084               	movwf	4
  2009  0024  3002               	movlw	high __pbssBANK5
  2010  0025  0085               	movwf	5
  2011  0026  3040               	movlw	64
  2012  0027  3195  25DE  3180   	fcall	clear_ram0
  2013                           
  2014                           ; Clear objects allocated to BANK6
  2015  002A  3020               	movlw	low __pbssBANK6
  2016  002B  0084               	movwf	4
  2017  002C  3003               	movlw	high __pbssBANK6
  2018  002D  0085               	movwf	5
  2019  002E  3040               	movlw	64
  2020  002F  3195  25DE  3180   	fcall	clear_ram0
  2021  0032                     end_of_initialization:	
  2022                           ;End of C runtime variable initialization code
  2023                           
  2024  0032                     __end_of__initialization:
  2025  0032  107E               	bcf	int$flags,0	;clear compiler interrupt flag (level 1)
  2026  0033  0020               	movlb	0
  2027  0034  3196  2EFE         	ljmp	_main	;jump to C main() function
  2028                           
  2029                           	psect	bssBANK1
  2030  00E9                     __pbssBANK1:
  2031  00E9                     _controlTransferState:
  2032  00E9                     	ds	1
  2033  00EA                     _pBDTEntryEP0OutNext:
  2034  00EA                     	ds	1
  2035  00EB                     _pBDTEntryEP0OutCurrent:
  2036  00EB                     	ds	1
  2037  00EC                     _USTATcopy:
  2038  00EC                     	ds	1
  2039                           
  2040                           	psect	bssBANK3
  2041  01A0                     __pbssBANK3:
  2042  01A0                     _outPipes:
  2043  01A0                     	ds	7
  2044  01A7                     _inPipes:
  2045  01A7                     	ds	5
  2046  01AC                     _ep_data_out:
  2047  01AC                     	ds	3
  2048  01AF                     _ep_data_in:
  2049  01AF                     	ds	3
  2050  01B2                     _pBDTEntryIn:
  2051  01B2                     	ds	3
  2052  01B5                     _pBDTEntryOut:
  2053  01B5                     	ds	3
  2054  01B8                     _pCDCDst:
  2055  01B8                     	ds	2
  2056  01BA                     _pCDCSrc:
  2057  01BA                     	ds	2
  2058  01BC                     APP_LEDUpdateUSBStatus@ledCount:
  2059  01BC                     	ds	2
  2060  01BE                     _control_signal_bitmap:
  2061  01BE                     	ds	1
  2062  01BF                     _CDCDataInHandle:
  2063  01BF                     	ds	1
  2064  01C0                     _CDCDataOutHandle:
  2065  01C0                     	ds	1
  2066  01C1                     _cdc_mem_type:
  2067  01C1                     	ds	1
  2068  01C2                     _cdc_tx_len:
  2069  01C2                     	ds	1
  2070  01C3                     _cdc_rx_len:
  2071  01C3                     	ds	1
  2072  01C4                     _USBDeferOUTDataStagePackets:
  2073  01C4                     	ds	1
  2074  01C5                     _USBDeferINDataStagePackets:
  2075  01C5                     	ds	1
  2076  01C6                     _USBStatusStageEnabledFlag2:
  2077  01C6                     	ds	1
  2078  01C7                     _USBStatusStageEnabledFlag1:
  2079  01C7                     	ds	1
  2080  01C8                     _USBDeferStatusStagePacket:
  2081  01C8                     	ds	1
  2082  01C9                     _USBStatusStageTimeoutCounter:
  2083  01C9                     	ds	1
  2084  01CA                     _BothEP0OutUOWNsSet:
  2085  01CA                     	ds	1
  2086  01CB                     _endpoint_number:
  2087  01CB                     	ds	1
  2088  01CC                     _USBBusIsSuspended:
  2089  01CC                     	ds	1
  2090  01CD                     _RemoteWakeup:
  2091  01CD                     	ds	1
  2092  01CE                     _pDst:
  2093  01CE                     	ds	1
  2094  01CF                     _shortPacketStatus:
  2095  01CF                     	ds	1
  2096  01D0                     _cdc_trf_state:
  2097  01D0                     	ds	1
  2098  01D1                     _USBDeviceState:
  2099  01D1                     	ds	1
  2100  01D2                     _USBAlternateInterface:
  2101  01D2                     	ds	2
  2102  01D4                     _USBActiveConfiguration:
  2103  01D4                     	ds	1
  2104                           
  2105                           	psect	bssBANK4
  2106  0220                     __pbssBANK4:
  2107  0220                     _cdc_notice:
  2108  0220                     	ds	10
  2109  022A                     _BaudRateGen:
  2110  022A                     	ds	4
  2111  022E                     _dummy_encapsulated_cmd_response:
  2112  022E                     	ds	8
  2113  0236                     _line_coding:
  2114  0236                     	ds	7
  2115                           
  2116                           	psect	bssBANK5
  2117  02A0                     __pbssBANK5:
  2118  02A0                     _readBuffer:
  2119  02A0                     	ds	64
  2120                           
  2121                           	psect	bssBANK6
  2122  0320                     __pbssBANK6:
  2123  0320                     _writeBuffer:
  2124  0320                     	ds	64
  2125                           
  2126                           	psect	clrtext
  2127  15DE                     clear_ram0:	
  2128                           ;	Called with FSR0 containing the base address, and
  2129                           ;	WREG with the size to clear
  2130                           
  2131  15DE  0064               	clrwdt	;clear the watchdog before getting into this loop
  2132  15DF                     clrloop0:
  2133  15DF  0180               	clrf	0	;clear RAM location pointed to by FSR
  2134  15E0  3101               	addfsr 0,1
  2135  15E1  0B89               	decfsz	9,f	;Have we reached the end of clearing yet?
  2136  15E2  2DDF               	goto	clrloop0	;have we reached the end yet?
  2137  15E3  3400               	retlw	0	;all done for this memory range, return
  2138                           
  2139                           	psect	cstackBANK3
  2140  01D5                     __pcstackBANK3:
  2141  01D5                     my_itoa@n:
  2142                           
  2143                           ; 2 bytes @ 0x0
  2144  01D5                     	ds	2
  2145  01D7                     my_itoa@p:
  2146                           
  2147                           ; 1 bytes @ 0x2
  2148  01D7                     	ds	1
  2149  01D8                     my_itoa@v:
  2150                           
  2151                           ; 2 bytes @ 0x3
  2152  01D8                     	ds	2
  2153  01DA                     ??_APP_DeviceCDCEmulatorTasks:
  2154                           
  2155                           ; 1 bytes @ 0x5
  2156  01DA                     	ds	2
  2157  01DC                     APP_DeviceCDCEmulatorTasks@max_6675_temp_str:
  2158                           
  2159                           ; 8 bytes @ 0x7
  2160  01DC                     	ds	8
  2161  01E4                     APP_DeviceCDCEmulatorTasks@max_6675_temp:
  2162                           
  2163                           ; 2 bytes @ 0xF
  2164  01E4                     	ds	2
  2165  01E6                     APP_DeviceCDCEmulatorTasks@numBytesRead:
  2166                           
  2167                           ; 1 bytes @ 0x11
  2168  01E6                     	ds	1
  2169  01E7                     APP_DeviceCDCEmulatorTasks@max_6675:
  2170                           
  2171                           ; 2 bytes @ 0x12
  2172  01E7                     	ds	2
  2173  01E9                     APP_DeviceCDCEmulatorTasks@i:
  2174                           
  2175                           ; 1 bytes @ 0x14
  2176  01E9                     	ds	1
  2177                           
  2178                           	psect	cstackBANK2
  2179  0160                     __pcstackBANK2:
  2180  0160                     ?_putsUSBUSART:
  2181  0160                     ?_putUSBUSART:	
  2182                           ; 1 bytes @ 0x0
  2183                           
  2184  0160                     ?_USBTransferOnePacket:	
  2185                           ; 1 bytes @ 0x0
  2186                           
  2187  0160                     ?_Get_MAX6675:	
  2188                           ; 1 bytes @ 0x0
  2189                           
  2190  0160                     ?_Check_MAX6675_NC:	
  2191                           ; 2 bytes @ 0x0
  2192                           
  2193  0160                     ?___awdiv:	
  2194                           ; 2 bytes @ 0x0
  2195                           
  2196  0160                     ?___lwdiv:	
  2197                           ; 2 bytes @ 0x0
  2198                           
  2199  0160                     ?___lwmod:	
  2200                           ; 2 bytes @ 0x0
  2201                           
  2202  0160                     USBTransferOnePacket@dir:	
  2203                           ; 2 bytes @ 0x0
  2204                           
  2205  0160                     putUSBUSART@length:	
  2206                           ; 1 bytes @ 0x0
  2207                           
  2208  0160                     my_strlen@length:	
  2209                           ; 1 bytes @ 0x0
  2210                           
  2211  0160                     Check_MAX6675_NC@aMAX6675:	
  2212                           ; 1 bytes @ 0x0
  2213                           
  2214  0160                     USBDeviceInit@p:	
  2215                           ; 2 bytes @ 0x0
  2216                           
  2217  0160                     putsUSBUSART@data:	
  2218                           ; 2 bytes @ 0x0
  2219                           
  2220  0160                     ___awdiv@divisor:	
  2221                           ; 2 bytes @ 0x0
  2222                           
  2223  0160                     ___lwdiv@divisor:	
  2224                           ; 2 bytes @ 0x0
  2225                           
  2226  0160                     ___lwmod@divisor:	
  2227                           ; 2 bytes @ 0x0
  2228                           
  2229                           
  2230                           ; 2 bytes @ 0x0
  2231  0160                     	ds	1
  2232  0161                     my_strlen@aStr:
  2233  0161                     USBTransferOnePacket@data:	
  2234                           ; 1 bytes @ 0x1
  2235                           
  2236                           
  2237                           ; 2 bytes @ 0x1
  2238  0161                     	ds	1
  2239  0162                     ??_Get_MAX6675:
  2240  0162                     ??_putsUSBUSART:	
  2241                           ; 1 bytes @ 0x2
  2242                           
  2243  0162                     Check_MAX6675_NC@ConnectionOrNot:	
  2244                           ; 1 bytes @ 0x2
  2245                           
  2246  0162                     USBDeviceInit@i_1261:	
  2247                           ; 1 bytes @ 0x2
  2248                           
  2249  0162                     ___awdiv@dividend:	
  2250                           ; 1 bytes @ 0x2
  2251                           
  2252  0162                     ___lwdiv@dividend:	
  2253                           ; 2 bytes @ 0x2
  2254                           
  2255  0162                     ___lwmod@dividend:	
  2256                           ; 2 bytes @ 0x2
  2257                           
  2258                           
  2259                           ; 2 bytes @ 0x2
  2260  0162                     	ds	1
  2261  0163                     USBDeviceInit@i:
  2262  0163                     USBTransferOnePacket@len:	
  2263                           ; 1 bytes @ 0x3
  2264                           
  2265                           
  2266                           ; 1 bytes @ 0x3
  2267  0163                     	ds	1
  2268  0164                     USBTransferOnePacket@ep:
  2269  0164                     ___awdiv@counter:	
  2270                           ; 1 bytes @ 0x4
  2271                           
  2272  0164                     ___lwdiv@counter:	
  2273                           ; 1 bytes @ 0x4
  2274                           
  2275                           
  2276                           ; 1 bytes @ 0x4
  2277  0164                     	ds	1
  2278  0165                     USBTransferOnePacket@handle:
  2279  0165                     ___awdiv@sign:	
  2280                           ; 1 bytes @ 0x5
  2281                           
  2282  0165                     Get_MAX6675@msb:	
  2283                           ; 1 bytes @ 0x5
  2284                           
  2285  0165                     putsUSBUSART@pData:	
  2286                           ; 2 bytes @ 0x5
  2287                           
  2288  0165                     ___lwdiv@quotient:	
  2289                           ; 2 bytes @ 0x5
  2290                           
  2291                           
  2292                           ; 2 bytes @ 0x5
  2293  0165                     	ds	1
  2294  0166                     ?_getsUSBUSART:
  2295  0166                     ??_CDCTxService:	
  2296                           ; 1 bytes @ 0x6
  2297                           
  2298  0166                     getsUSBUSART@len:	
  2299                           ; 1 bytes @ 0x6
  2300                           
  2301  0166                     ___awdiv@quotient:	
  2302                           ; 1 bytes @ 0x6
  2303                           
  2304                           
  2305                           ; 2 bytes @ 0x6
  2306  0166                     	ds	1
  2307  0167                     ??_getsUSBUSART:
  2308  0167                     ?_my_itoa:	
  2309                           ; 1 bytes @ 0x7
  2310                           
  2311  0167                     putsUSBUSART@len:	
  2312                           ; 1 bytes @ 0x7
  2313                           
  2314  0167                     Get_MAX6675@lsb:	
  2315                           ; 1 bytes @ 0x7
  2316                           
  2317  0167                     my_itoa@val:	
  2318                           ; 2 bytes @ 0x7
  2319                           
  2320                           
  2321                           ; 2 bytes @ 0x7
  2322  0167                     	ds	1
  2323  0168                     ?_Get_MAX6675_Temp:
  2324  0168                     Get_MAX6675_Temp@aMAX6675:	
  2325                           ; 2 bytes @ 0x8
  2326                           
  2327  0168                     _CDCTxService$2757:	
  2328                           ; 2 bytes @ 0x8
  2329                           
  2330                           
  2331                           ; 2 bytes @ 0x8
  2332  0168                     	ds	1
  2333  0169                     getsUSBUSART@buffer:
  2334  0169                     my_itoa@a:	
  2335                           ; 1 bytes @ 0x9
  2336                           
  2337  0169                     Get_MAX6675@msblsb:	
  2338                           ; 1 bytes @ 0x9
  2339                           
  2340                           
  2341                           ; 2 bytes @ 0x9
  2342  0169                     	ds	1
  2343  016A                     ??_Get_MAX6675_Temp:
  2344  016A                     CDCTxService@i:	
  2345                           ; 1 bytes @ 0xA
  2346                           
  2347  016A                     _getsUSBUSART$2709:	
  2348                           ; 1 bytes @ 0xA
  2349                           
  2350  016A                     my_itoa@radix:	
  2351                           ; 2 bytes @ 0xA
  2352                           
  2353                           
  2354                           ; 2 bytes @ 0xA
  2355  016A                     	ds	1
  2356  016B                     CDCTxService@byte_to_send:
  2357                           
  2358                           ; 1 bytes @ 0xB
  2359  016B                     	ds	1
  2360  016C                     ??_my_itoa:
  2361  016C                     Get_MAX6675_Temp@temp:	
  2362                           ; 1 bytes @ 0xC
  2363                           
  2364                           
  2365                           ; 2 bytes @ 0xC
  2366  016C                     	ds	2
  2367  016E                     Get_MAX6675_Temp@temparature:
  2368                           
  2369                           ; 2 bytes @ 0xE
  2370  016E                     	ds	2
  2371                           
  2372                           	psect	cstackBANK1
  2373  00E0                     __pcstackBANK1:
  2374  00E0                     ??_USBCtrlEPService:
  2375                           
  2376                           ; 1 bytes @ 0x0
  2377  00E0                     	ds	3
  2378  00E3                     USBCtrlEPService@setup_cnt:
  2379                           
  2380                           ; 1 bytes @ 0x3
  2381  00E3                     	ds	1
  2382  00E4                     ??_USBDeviceTasks:
  2383                           
  2384                           ; 1 bytes @ 0x4
  2385  00E4                     	ds	2
  2386  00E6                     USBDeviceTasks@i:
  2387                           
  2388                           ; 1 bytes @ 0x6
  2389  00E6                     	ds	1
  2390  00E7                     ??_LED_Enable:
  2391  00E7                     ??_BUTTON_Enable:	
  2392                           ; 1 bytes @ 0x7
  2393                           
  2394  00E7                     ??_Check_MAX6675_NC:	
  2395                           ; 1 bytes @ 0x7
  2396                           
  2397  00E7                     ??_my_strlen:	
  2398                           ; 1 bytes @ 0x7
  2399                           
  2400  00E7                     ??_putUSBUSART:	
  2401                           ; 1 bytes @ 0x7
  2402                           
  2403  00E7                     ??_USBDeviceInit:	
  2404                           ; 1 bytes @ 0x7
  2405                           
  2406  00E7                     ??_USBDeviceAttach:	
  2407                           ; 1 bytes @ 0x7
  2408                           
  2409  00E7                     ??_InitIO:	
  2410                           ; 1 bytes @ 0x7
  2411                           
  2412  00E7                     ??_InitSPI_MAX6675:	
  2413                           ; 1 bytes @ 0x7
  2414                           
  2415  00E7                     ??_USBTransferOnePacket:	
  2416                           ; 1 bytes @ 0x7
  2417                           
  2418  00E7                     ??___awdiv:	
  2419                           ; 1 bytes @ 0x7
  2420                           
  2421  00E7                     ??___lwdiv:	
  2422                           ; 1 bytes @ 0x7
  2423                           
  2424  00E7                     ??___lwmod:	
  2425                           ; 1 bytes @ 0x7
  2426                           
  2427  00E7                     BUTTON_Enable@button:	
  2428                           ; 1 bytes @ 0x7
  2429                           
  2430  00E7                     LED_Enable@led:	
  2431                           ; 1 bytes @ 0x7
  2432                           
  2433                           
  2434                           ; 1 bytes @ 0x7
  2435  00E7                     	ds	1
  2436  00E8                     ??_SYSTEM_Initialize:
  2437  00E8                     SYSTEM_Initialize@state:	
  2438                           ; 1 bytes @ 0x8
  2439                           
  2440  00E8                     putUSBUSART@data:	
  2441                           ; 1 bytes @ 0x8
  2442                           
  2443  00E8                     ___lwmod@counter:	
  2444                           ; 1 bytes @ 0x8
  2445                           
  2446                           
  2447                           ; 1 bytes @ 0x8
  2448  00E8                     	ds	1
  2449  00E9                     ??_main:
  2450                           
  2451                           	psect	cstackCOMMON
  2452  0070                     __pcstackCOMMON:	
  2453                           ; 1 bytes @ 0x9
  2454                           
  2455  0070                     ?_LED_Enable:
  2456  0070                     ?_BUTTON_Enable:	
  2457                           ; 1 bytes @ 0x0
  2458                           
  2459  0070                     ?_USBDeviceTasks:	
  2460                           ; 1 bytes @ 0x0
  2461                           
  2462  0070                     ?_CDCInitEP:	
  2463                           ; 1 bytes @ 0x0
  2464                           
  2465  0070                     ?_my_strlen:	
  2466                           ; 1 bytes @ 0x0
  2467                           
  2468  0070                     ?_CDCTxService:	
  2469                           ; 1 bytes @ 0x0
  2470                           
  2471  0070                     ?_USBDeviceInit:	
  2472                           ; 1 bytes @ 0x0
  2473                           
  2474  0070                     ?_USBDeviceAttach:	
  2475                           ; 1 bytes @ 0x0
  2476                           
  2477  0070                     ?_InitIO:	
  2478                           ; 1 bytes @ 0x0
  2479                           
  2480  0070                     ?_InitSPI_MAX6675:	
  2481                           ; 1 bytes @ 0x0
  2482                           
  2483  0070                     ?_USBCheckCDCRequest:	
  2484                           ; 1 bytes @ 0x0
  2485                           
  2486  0070                     ??_USBCheckCDCRequest:	
  2487                           ; 1 bytes @ 0x0
  2488                           
  2489  0070                     ?_USBWakeFromSuspend:	
  2490                           ; 1 bytes @ 0x0
  2491                           
  2492  0070                     ?_USBSuspend:	
  2493                           ; 1 bytes @ 0x0
  2494                           
  2495  0070                     ?_USBCtrlEPAllowStatusStage:	
  2496                           ; 1 bytes @ 0x0
  2497                           
  2498  0070                     ??_USBCtrlEPAllowStatusStage:	
  2499                           ; 1 bytes @ 0x0
  2500                           
  2501  0070                     ?_USBStallHandler:	
  2502                           ; 1 bytes @ 0x0
  2503                           
  2504  0070                     ??_USBStallHandler:	
  2505                           ; 1 bytes @ 0x0
  2506                           
  2507  0070                     ?_USBCtrlEPService:	
  2508                           ; 1 bytes @ 0x0
  2509                           
  2510  0070                     ?_USBConfigureEndpoint:	
  2511                           ; 1 bytes @ 0x0
  2512                           
  2513  0070                     ?_USBCtrlTrfTxService:	
  2514                           ; 1 bytes @ 0x0
  2515                           
  2516  0070                     ??_USBCtrlTrfTxService:	
  2517                           ; 1 bytes @ 0x0
  2518                           
  2519  0070                     ?_USBCtrlTrfSetupHandler:	
  2520                           ; 1 bytes @ 0x0
  2521                           
  2522  0070                     ?_USBCtrlTrfOutHandler:	
  2523                           ; 1 bytes @ 0x0
  2524                           
  2525  0070                     ?_USBCtrlTrfInHandler:	
  2526                           ; 1 bytes @ 0x0
  2527                           
  2528  0070                     ?_USBCheckStdRequest:	
  2529                           ; 1 bytes @ 0x0
  2530                           
  2531  0070                     ?_USBStdFeatureReqHandler:	
  2532                           ; 1 bytes @ 0x0
  2533                           
  2534  0070                     ?_SYSTEM_Initialize:	
  2535                           ; 1 bytes @ 0x0
  2536                           
  2537  0070                     ?_SYS_InterruptHigh:	
  2538                           ; 1 bytes @ 0x0
  2539                           
  2540  0070                     ?_APP_DeviceCDCEmulatorInitialize:	
  2541                           ; 1 bytes @ 0x0
  2542                           
  2543  0070                     ?_APP_DeviceCDCEmulatorTasks:	
  2544                           ; 1 bytes @ 0x0
  2545                           
  2546  0070                     ?_main:	
  2547                           ; 1 bytes @ 0x0
  2548                           
  2549  0070                     ?_USBCtrlEPAllowDataStage:	
  2550                           ; 1 bytes @ 0x0
  2551                           
  2552  0070                     ?_USBCtrlEPServiceComplete:	
  2553                           ; 1 bytes @ 0x0
  2554                           
  2555  0070                     ?_USBCtrlTrfRxService:	
  2556                           ; 1 bytes @ 0x0
  2557                           
  2558  0070                     ?_USBStdSetCfgHandler:	
  2559                           ; 1 bytes @ 0x0
  2560                           
  2561  0070                     ?_USBStdGetDscHandler:	
  2562                           ; 1 bytes @ 0x0
  2563                           
  2564  0070                     ??_USBStdGetDscHandler:	
  2565                           ; 1 bytes @ 0x0
  2566                           
  2567  0070                     ?_USBStdGetStatusHandler:	
  2568                           ; 1 bytes @ 0x0
  2569                           
  2570  0070                     ??_USBStdGetStatusHandler:	
  2571                           ; 1 bytes @ 0x0
  2572                           
  2573  0070                     ?i1_USBDeviceInit:	
  2574                           ; 1 bytes @ 0x0
  2575                           
  2576  0070                     ??i1_USBDeviceInit:	
  2577                           ; 1 bytes @ 0x0
  2578                           
  2579  0070                     ?i1_USBTransferOnePacket:	
  2580                           ; 1 bytes @ 0x0
  2581                           
  2582  0070                     ?_memset:	
  2583                           ; 1 bytes @ 0x0
  2584                           
  2585  0070                     USBConfigureEndpoint@direction:	
  2586                           ; 2 bytes @ 0x0
  2587                           
  2588  0070                     i1USBTransferOnePacket@dir:	
  2589                           ; 1 bytes @ 0x0
  2590                           
  2591  0070                     memset@p1:	
  2592                           ; 1 bytes @ 0x0
  2593                           
  2594                           
  2595                           ; 2 bytes @ 0x0
  2596  0070                     	ds	1
  2597  0071                     ??_USBConfigureEndpoint:
  2598  0071                     USBStdGetStatusHandler@p:	
  2599                           ; 1 bytes @ 0x1
  2600                           
  2601  0071                     i1USBDeviceInit@p:	
  2602                           ; 1 bytes @ 0x1
  2603                           
  2604  0071                     i1USBTransferOnePacket@data:	
  2605                           ; 2 bytes @ 0x1
  2606                           
  2607                           
  2608                           ; 2 bytes @ 0x1
  2609  0071                     	ds	1
  2610  0072                     ??_USBCtrlTrfRxService:
  2611  0072                     USBCtrlTrfTxService@byteToSend:	
  2612                           ; 1 bytes @ 0x2
  2613                           
  2614  0072                     memset@c:	
  2615                           ; 1 bytes @ 0x2
  2616                           
  2617                           
  2618                           ; 2 bytes @ 0x2
  2619  0072                     	ds	1
  2620  0073                     ??_USBCtrlTrfInHandler:
  2621  0073                     ??_USBCtrlEPAllowDataStage:	
  2622                           ; 1 bytes @ 0x3
  2623                           
  2624  0073                     i1USBDeviceInit@i_1261:	
  2625                           ; 1 bytes @ 0x3
  2626                           
  2627  0073                     i1USBTransferOnePacket@len:	
  2628                           ; 1 bytes @ 0x3
  2629                           
  2630                           
  2631                           ; 1 bytes @ 0x3
  2632  0073                     	ds	1
  2633  0074                     ??i1_USBTransferOnePacket:
  2634  0074                     USBCtrlTrfRxService@i:	
  2635                           ; 1 bytes @ 0x4
  2636                           
  2637  0074                     i1USBDeviceInit@i:	
  2638                           ; 1 bytes @ 0x4
  2639                           
  2640  0074                     memset@n:	
  2641                           ; 1 bytes @ 0x4
  2642                           
  2643                           
  2644                           ; 2 bytes @ 0x4
  2645  0074                     	ds	1
  2646  0075                     ??_USBCtrlEPServiceComplete:
  2647  0075                     USBConfigureEndpoint@EPNum:	
  2648                           ; 1 bytes @ 0x5
  2649                           
  2650  0075                     USBCtrlTrfRxService@byteToRead:	
  2651                           ; 1 bytes @ 0x5
  2652                           
  2653  0075                     USBCtrlTrfInHandler@lastDTS:	
  2654                           ; 1 bytes @ 0x5
  2655                           
  2656                           
  2657                           ; 1 bytes @ 0x5
  2658  0075                     	ds	1
  2659  0076                     ??_memset:
  2660  0076                     ??_USBCtrlTrfOutHandler:	
  2661                           ; 1 bytes @ 0x6
  2662                           
  2663  0076                     USBConfigureEndpoint@handle:	
  2664                           ; 1 bytes @ 0x6
  2665                           
  2666  0076                     i1USBTransferOnePacket@ep:	
  2667                           ; 1 bytes @ 0x6
  2668                           
  2669  0076                     memset@p:	
  2670                           ; 1 bytes @ 0x6
  2671                           
  2672                           
  2673                           ; 2 bytes @ 0x6
  2674  0076                     	ds	1
  2675  0077                     ?_USBEnableEndpoint:
  2676  0077                     USBEnableEndpoint@options:	
  2677                           ; 1 bytes @ 0x7
  2678                           
  2679  0077                     i1USBTransferOnePacket@handle:	
  2680                           ; 1 bytes @ 0x7
  2681                           
  2682                           
  2683                           ; 1 bytes @ 0x7
  2684  0077                     	ds	1
  2685  0078                     ??_USBEnableEndpoint:
  2686                           
  2687                           ; 1 bytes @ 0x8
  2688  0078                     	ds	2
  2689  007A                     USBEnableEndpoint@p:
  2690                           
  2691                           ; 2 bytes @ 0xA
  2692  007A                     	ds	2
  2693  007C                     USBEnableEndpoint@ep:
  2694                           
  2695                           ; 1 bytes @ 0xC
  2696  007C                     	ds	1
  2697  007D                     ??_APP_DeviceCDCEmulatorInitialize:
  2698                           
  2699                           ; 1 bytes @ 0xD
  2700  007D                     	ds	1
  2701  007E                     ??_SYS_InterruptHigh:
  2702  007E                     ??_USER_USB_CALLBACK_EVENT_HANDLER:	
  2703                           ; 1 bytes @ 0xE
  2704                           
  2705                           
  2706                           	psect	cstackBANK0
  2707  0060                     __pcstackBANK0:	
  2708                           ; 1 bytes @ 0xE
  2709                           
  2710  0060                     ??_CDCInitEP:
  2711                           
  2712                           ; 1 bytes @ 0x0
  2713  0060                     	ds	2
  2714  0062                     ?_USER_USB_CALLBACK_EVENT_HANDLER:
  2715  0062                     USER_USB_CALLBACK_EVENT_HANDLER@event:	
  2716                           ; 1 bytes @ 0x2
  2717                           
  2718                           
  2719                           ; 2 bytes @ 0x2
  2720  0062                     	ds	2
  2721  0064                     USER_USB_CALLBACK_EVENT_HANDLER@pdata:
  2722                           
  2723                           ; 2 bytes @ 0x4
  2724  0064                     	ds	2
  2725  0066                     USER_USB_CALLBACK_EVENT_HANDLER@size:
  2726                           
  2727                           ; 2 bytes @ 0x6
  2728  0066                     	ds	2
  2729  0068                     ??_USBWakeFromSuspend:
  2730  0068                     ??_USBSuspend:	
  2731                           ; 1 bytes @ 0x8
  2732                           
  2733  0068                     ??_USBStdFeatureReqHandler:	
  2734                           ; 1 bytes @ 0x8
  2735                           
  2736  0068                     ??_USBStdSetCfgHandler:	
  2737                           ; 1 bytes @ 0x8
  2738                           
  2739                           
  2740                           ; 1 bytes @ 0x8
  2741  0068                     	ds	1
  2742  0069                     USBStdSetCfgHandler@p:
  2743                           
  2744                           ; 2 bytes @ 0x9
  2745  0069                     	ds	1
  2746  006A                     USBStdFeatureReqHandler@pUEP:
  2747                           
  2748                           ; 2 bytes @ 0xA
  2749  006A                     	ds	1
  2750  006B                     USBStdSetCfgHandler@i_2003:
  2751                           
  2752                           ; 1 bytes @ 0xB
  2753  006B                     	ds	1
  2754  006C                     USBStdSetCfgHandler@i:
  2755  006C                     USBStdFeatureReqHandler@current_ep_data:	
  2756                           ; 1 bytes @ 0xC
  2757                           
  2758                           
  2759                           ; 1 bytes @ 0xC
  2760  006C                     	ds	1
  2761  006D                     USBStdFeatureReqHandler@p:
  2762                           
  2763                           ; 1 bytes @ 0xD
  2764  006D                     	ds	1
  2765  006E                     ??_USBCheckStdRequest:
  2766                           
  2767                           ; 1 bytes @ 0xE
  2768  006E                     	ds	1
  2769  006F                     ??_USBCtrlTrfSetupHandler:
  2770                           
  2771                           ; 1 bytes @ 0xF
  2772  006F                     	ds	1
  2773                           
  2774                           	psect	maintext
  2775  16FE                     __pmaintext:	
  2776 ;;
  2777 ;;Main: autosize = 0, tempsize = 0, incstack = 0, save=0
  2778 ;;
  2779 ;; *************** function _main *****************
  2780 ;; Defined at:
  2781 ;;		line 52 in file "../src/main.c"
  2782 ;; Parameters:    Size  Location     Type
  2783 ;;		None
  2784 ;; Auto vars:     Size  Location     Type
  2785 ;;		None
  2786 ;; Return value:  Size  Location     Type
  2787 ;;                  1    wreg      void 
  2788 ;; Registers used:
  2789 ;;		wreg, fsr0l, fsr0h, fsr1l, fsr1h, status,2, status,0, pclath, cstack
  2790 ;; Tracked objects:
  2791 ;;		On entry : B1F/0
  2792 ;;		On exit  : 0/0
  2793 ;;		Unchanged: 0/0
  2794 ;; Data sizes:     COMMON   BANK0   BANK1   BANK2   BANK3   BANK4   BANK5   BANK6   BANK7   BANK8   BANK9  BANK10  BANK1
      +1  BANK12
  2795 ;;      Params:         0       0       0       0       0       0       0       0       0       0       0       0       
      +0       0
  2796 ;;      Locals:         0       0       0       0       0       0       0       0       0       0       0       0       
      +0       0
  2797 ;;      Temps:          0       0       0       0       0       0       0       0       0       0       0       0       
      +0       0
  2798 ;;      Totals:         0       0       0       0       0       0       0       0       0       0       0       0       
      +0       0
  2799 ;;Total ram usage:        0 bytes
  2800 ;; Hardware stack levels required when called:   14
  2801 ;; This function calls:
  2802 ;;		_APP_DeviceCDCEmulatorTasks
  2803 ;;		_InitIO
  2804 ;;		_InitSPI_MAX6675
  2805 ;;		_SYSTEM_Initialize
  2806 ;;		_USBDeviceAttach
  2807 ;;		_USBDeviceInit
  2808 ;; This function is called by:
  2809 ;;		Startup code after reset
  2810 ;; This function uses a non-reentrant model
  2811 ;;
  2812                           
  2813                           
  2814                           ;psect for function _main
  2815  16FE                     _main:
  2816  16FE                     l5933:	
  2817                           ;incstack = 0
  2818                           ; Regs used in _main: [wreg-fsr1h+status,2+status,0+pclath+cstack]
  2819                           
  2820                           
  2821                           ;main.c: 54: SYSTEM_Initialize(SYSTEM_STATE_USB_START);
  2822  16FE  3000               	movlw	0
  2823  16FF  3196  2681  3196   	fcall	_SYSTEM_Initialize
  2824  1702                     l5935:
  2825                           
  2826                           ;main.c: 56: USBDeviceInit();
  2827  1702  3185  2597  3196   	fcall	_USBDeviceInit
  2828  1705                     l5937:
  2829                           
  2830                           ;main.c: 57: USBDeviceAttach();
  2831  1705  3196  26DD  3196   	fcall	_USBDeviceAttach
  2832  1708                     l5939:
  2833                           
  2834                           ;main.c: 59: InitIO();
  2835  1708  3196  261E  3196   	fcall	_InitIO
  2836  170B                     l5941:
  2837                           
  2838                           ;main.c: 60: InitSPI_MAX6675();
  2839  170B  3195  25D9  3196   	fcall	_InitSPI_MAX6675
  2840  170E                     l5943:
  2841                           
  2842                           ;main.c: 63: {;main.c: 64: ;;main.c: 86: if( USBDeviceState < CONFIGURED_STATE )
  2843  170E  3020               	movlw	32
  2844  170F  0023               	movlb	3	; select bank3
  2845  1710  0251               	subwf	_USBDeviceState^(0+384),w	;volatile
  2846  1711  1803               	skipnc
  2847  1712  2F14               	goto	u5451
  2848  1713  2F15               	goto	u5450
  2849  1714                     u5451:
  2850  1714  2F16               	goto	l137
  2851  1715                     u5450:
  2852  1715  2F0E               	goto	l5943
  2853  1716                     l137:
  2854                           
  2855                           ;main.c: 90: };main.c: 96: if( UCONbits.SUSPND== 1 )
  2856  1716  003D               	movlb	29	; select bank29
  2857  1717  1C8E               	btfss	14,1	;volatile
  2858  1718  2F1A               	goto	u5461
  2859  1719  2F1B               	goto	u5460
  2860  171A                     u5461:
  2861  171A  2F1C               	goto	l5949
  2862  171B                     u5460:
  2863  171B  2F0E               	goto	l5943
  2864  171C                     l5949:
  2865                           
  2866                           ;main.c: 100: };main.c: 103: APP_DeviceCDCEmulatorTasks();
  2867  171C  3180  2036  3196   	fcall	_APP_DeviceCDCEmulatorTasks
  2868  171F  2F0E               	goto	l5943
  2869  1720  3180  280B         	ljmp	start
  2870  1722                     __end_of_main:
  2871                           
  2872                           	psect	text1
  2873  0597                     __ptext1:	
  2874 ;; *************** function _USBDeviceInit *****************
  2875 ;; Defined at:
  2876 ;;		line 298 in file "../usb/src/usb_device.c"
  2877 ;; Parameters:    Size  Location     Type
  2878 ;;		None
  2879 ;; Auto vars:     Size  Location     Type
  2880 ;;  p               2    0[BANK2 ] PTR unsigned char 
  2881 ;;		 -> UEP1(1), 
  2882 ;;  i               1    2[BANK2 ] unsigned char 
  2883 ;;  i               1    3[BANK2 ] unsigned char 
  2884 ;; Return value:  Size  Location     Type
  2885 ;;                  1    wreg      void 
  2886 ;; Registers used:
  2887 ;;		wreg, fsr1l, fsr1h, status,2, status,0
  2888 ;; Tracked objects:
  2889 ;;		On entry : 0/0
  2890 ;;		On exit  : 0/0
  2891 ;;		Unchanged: 0/0
  2892 ;; Data sizes:     COMMON   BANK0   BANK1   BANK2   BANK3   BANK4   BANK5   BANK6   BANK7   BANK8   BANK9  BANK10  BANK1
      +1  BANK12
  2893 ;;      Params:         0       0       0       0       0       0       0       0       0       0       0       0       
      +0       0
  2894 ;;      Locals:         0       0       0       4       0       0       0       0       0       0       0       0       
      +0       0
  2895 ;;      Temps:          0       0       1       0       0       0       0       0       0       0       0       0       
      +0       0
  2896 ;;      Totals:         0       0       1       4       0       0       0       0       0       0       0       0       
      +0       0
  2897 ;;Total ram usage:        5 bytes
  2898 ;; Hardware stack levels used:    1
  2899 ;; Hardware stack levels required when called:   11
  2900 ;; This function calls:
  2901 ;;		Nothing
  2902 ;; This function is called by:
  2903 ;;		_main
  2904 ;; This function uses a non-reentrant model
  2905 ;;
  2906                           
  2907                           
  2908                           ;psect for function _USBDeviceInit
  2909  0597                     _USBDeviceInit:
  2910  0597                     l5803:	
  2911                           ;incstack = 0
  2912                           ; Regs used in _USBDeviceInit: [wreg+fsr1l+fsr1h+status,2+status,0]
  2913                           
  2914                           
  2915                           ;usb_device.c: 300: uint8_t i;;usb_device.c: 302: {PIE2bits.USBIE = 0;};
  2916  0597  0021               	movlb	1	; select bank1
  2917  0598  1112               	bcf	18,2	;volatile
  2918  0599                     l5805:
  2919                           
  2920                           ;usb_device.c: 305: {UEIR = 0;};
  2921  0599  003D               	movlb	29	; select bank29
  2922  059A  0193               	clrf	19	;volatile
  2923                           
  2924                           ;usb_device.c: 308: {UIR = 0;};
  2925  059B  0190               	clrf	16	;volatile
  2926                           
  2927                           ;usb_device.c: 311: UEP0 = 0;
  2928  059C  0198               	clrf	24	;volatile
  2929  059D                     l5807:
  2930                           
  2931                           ;usb_device.c: 313: { uint8_t i; uint8_t* p = (uint8_t*)&UEP1; for(i=0;i<2;i++) *p++ = 0
      +                          ; };
  2932  059D  300E               	movlw	14
  2933  059E  0022               	movlb	2	; select bank2
  2934  059F  00E1               	movwf	(USBDeviceInit@p+1)^(0+256)
  2935  05A0  3099               	movlw	153
  2936  05A1  00E0               	movwf	USBDeviceInit@p^(0+256)
  2937  05A2  01E2               	clrf	USBDeviceInit@i_1261^(0+256)
  2938  05A3                     l5813:
  2939  05A3  0860               	movf	USBDeviceInit@p^(0+256),w
  2940  05A4  0086               	movwf	6
  2941  05A5  0861               	movf	(USBDeviceInit@p+1)^(0+256),w
  2942  05A6  0087               	movwf	7
  2943  05A7  0181               	clrf	1
  2944  05A8                     l5815:
  2945  05A8  3001               	movlw	1
  2946  05A9  07E0               	addwf	USBDeviceInit@p^(0+256),f
  2947  05AA  3000               	movlw	0
  2948  05AB  3DE1               	addwfc	(USBDeviceInit@p+1)^(0+256),f
  2949  05AC                     l5817:
  2950  05AC  3001               	movlw	1
  2951  05AD  0021               	movlb	1	; select bank1
  2952  05AE  00E7               	movwf	??_USBDeviceInit^(0+128)
  2953  05AF  0867               	movf	??_USBDeviceInit^(0+128),w
  2954  05B0  0022               	movlb	2	; select bank2
  2955  05B1  07E2               	addwf	USBDeviceInit@i_1261^(0+256),f
  2956  05B2                     l5819:
  2957  05B2  3002               	movlw	2
  2958  05B3  0262               	subwf	USBDeviceInit@i_1261^(0+256),w
  2959  05B4  1C03               	skipc
  2960  05B5  2DB7               	goto	u5381
  2961  05B6  2DB8               	goto	u5380
  2962  05B7                     u5381:
  2963  05B7  2DA3               	goto	l5813
  2964  05B8                     u5380:
  2965  05B8                     l5821:
  2966                           
  2967                           ;usb_device.c: 315: { UCFG = 0x10 | 0x00 | 0x04 | 0x02; UEIE = 0x9F; UIE = 0x39 | 0x40 |
      +                           0x02; };
  2968  05B8  3016               	movlw	22
  2969  05B9  003D               	movlb	29	; select bank29
  2970  05BA  0091               	movwf	17	;volatile
  2971  05BB  309F               	movlw	159
  2972  05BC  0097               	movwf	23	;volatile
  2973  05BD  307B               	movlw	123
  2974  05BE  0092               	movwf	18	;volatile
  2975  05BF                     l5823:
  2976                           
  2977                           ;usb_device.c: 318: ;;usb_device.c: 321: ;;usb_device.c: 324: for(i=0;i<(sizeof(BDT)/siz
      +                          eof(BDT_ENTRY));i++)
  2978  05BF  0022               	movlb	2	; select bank2
  2979  05C0  01E3               	clrf	USBDeviceInit@i^(0+256)
  2980  05C1                     l5829:
  2981                           
  2982                           ;usb_device.c: 325: {;usb_device.c: 326: BDT[i].Val = 0x00;
  2983  05C1  0863               	movf	USBDeviceInit@i^(0+256),w
  2984  05C2  0021               	movlb	1	; select bank1
  2985  05C3  00E7               	movwf	??_USBDeviceInit^(0+128)
  2986  05C4  3001               	movlw	1
  2987  05C5                     u5395:
  2988  05C5  35E7               	lslf	??_USBDeviceInit^(0+128),f
  2989  05C6  3EFF               	addlw	-1
  2990  05C7  1D03               	skipz
  2991  05C8  2DC5               	goto	u5395
  2992  05C9  3567               	lslf	??_USBDeviceInit^(0+128),w
  2993  05CA  3E20               	addlw	32
  2994  05CB  0086               	movwf	6
  2995  05CC  0187               	clrf	7
  2996  05CD  3000               	movlw	0
  2997  05CE  3FC0               	movwi [0]fsr1
  2998  05CF  3000               	movlw	0
  2999  05D0  3FC1               	movwi [1]fsr1
  3000  05D1  3FC2               	movwi [2]fsr1
  3001  05D2  3FC3               	movwi [3]fsr1
  3002  05D3                     l5831:
  3003  05D3  3001               	movlw	1
  3004  05D4  00E7               	movwf	??_USBDeviceInit^(0+128)
  3005  05D5  0867               	movf	??_USBDeviceInit^(0+128),w
  3006  05D6  0022               	movlb	2	; select bank2
  3007  05D7  07E3               	addwf	USBDeviceInit@i^(0+256),f
  3008  05D8                     l5833:
  3009  05D8  300C               	movlw	12
  3010  05D9  0263               	subwf	USBDeviceInit@i^(0+256),w
  3011  05DA  1C03               	skipc
  3012  05DB  2DDD               	goto	u5401
  3013  05DC  2DDE               	goto	u5400
  3014  05DD                     u5401:
  3015  05DD  2DC1               	goto	l5829
  3016  05DE                     u5400:
  3017  05DE                     l405:
  3018                           
  3019                           ;usb_device.c: 327: };usb_device.c: 330: UCONbits.PPBRST = 1;
  3020  05DE  003D               	movlb	29	; select bank29
  3021  05DF  170E               	bsf	14,6	;volatile
  3022  05E0                     l5835:
  3023                           
  3024                           ;usb_device.c: 333: UADDR = 0x00;
  3025  05E0  0196               	clrf	22	;volatile
  3026  05E1                     l5837:
  3027                           
  3028                           ;usb_device.c: 336: UCONbits.PKTDIS = 0;
  3029  05E1  120E               	bcf	14,4	;volatile
  3030  05E2                     l5839:
  3031                           
  3032                           ;usb_device.c: 339: UCONbits.PPBRST = 0;
  3033  05E2  130E               	bcf	14,6	;volatile
  3034                           
  3035                           ;usb_device.c: 342: while(UIRbits.TRNIF == 1)
  3036  05E3  2DEF               	goto	l5849
  3037  05E4                     l5841:
  3038                           
  3039                           ;usb_device.c: 343: {;usb_device.c: 344: (UIR &= 0xF7);
  3040  05E4  30F7               	movlw	247
  3041  05E5  0021               	movlb	1	; select bank1
  3042  05E6  00E7               	movwf	??_USBDeviceInit^(0+128)
  3043  05E7  0867               	movf	??_USBDeviceInit^(0+128),w
  3044  05E8  003D               	movlb	29	; select bank29
  3045  05E9  0590               	andwf	16,f	;volatile
  3046  05EA                     l5843:
  3047                           
  3048                           ;usb_device.c: 346: inPipes[0].info.Val = 0;
  3049  05EA  0023               	movlb	3	; select bank3
  3050  05EB  01A9               	clrf	(_inPipes^(0+384)+2)	;volatile
  3051  05EC                     l5845:
  3052                           
  3053                           ;usb_device.c: 347: outPipes[0].info.Val = 0;
  3054  05EC  01A2               	clrf	(_outPipes^(0+384)+2)	;volatile
  3055  05ED                     l5847:
  3056                           
  3057                           ;usb_device.c: 348: outPipes[0].wCount.Val = 0;
  3058  05ED  01A3               	clrf	(_outPipes^(0+384)+3)	;volatile
  3059  05EE  01A4               	clrf	((_outPipes+1)^(0+384)+3)	;volatile
  3060  05EF                     l5849:
  3061  05EF  003D               	movlb	29	; select bank29
  3062  05F0  1990               	btfsc	16,3	;volatile
  3063  05F1  2DF3               	goto	u5411
  3064  05F2  2DF4               	goto	u5410
  3065  05F3                     u5411:
  3066  05F3  2DE4               	goto	l5841
  3067  05F4                     u5410:
  3068  05F4                     l5851:
  3069                           
  3070                           ;usb_device.c: 349: };usb_device.c: 353: USBStatusStageEnabledFlag1 = 1;
  3071  05F4  3001               	movlw	1
  3072  05F5  0021               	movlb	1	; select bank1
  3073  05F6  00E7               	movwf	??_USBDeviceInit^(0+128)
  3074  05F7  0867               	movf	??_USBDeviceInit^(0+128),w
  3075  05F8  0023               	movlb	3	; select bank3
  3076  05F9  00C7               	movwf	_USBStatusStageEnabledFlag1^(0+384)	;volatile
  3077                           
  3078                           ;usb_device.c: 354: USBStatusStageEnabledFlag2 = 1;
  3079  05FA  3001               	movlw	1
  3080  05FB  0021               	movlb	1	; select bank1
  3081  05FC  00E7               	movwf	??_USBDeviceInit^(0+128)
  3082  05FD  0867               	movf	??_USBDeviceInit^(0+128),w
  3083  05FE  0023               	movlb	3	; select bank3
  3084  05FF  00C6               	movwf	_USBStatusStageEnabledFlag2^(0+384)	;volatile
  3085  0600                     l5853:
  3086                           
  3087                           ;usb_device.c: 356: USBDeferINDataStagePackets = 0;
  3088  0600  01C5               	clrf	_USBDeferINDataStagePackets^(0+384)	;volatile
  3089  0601                     l5855:
  3090                           
  3091                           ;usb_device.c: 357: USBDeferOUTDataStagePackets = 0;
  3092  0601  01C4               	clrf	_USBDeferOUTDataStagePackets^(0+384)	;volatile
  3093  0602                     l5857:
  3094                           
  3095                           ;usb_device.c: 358: USBBusIsSuspended = 0;
  3096  0602  01CC               	clrf	_USBBusIsSuspended^(0+384)	;volatile
  3097  0603                     l5859:
  3098                           
  3099                           ;usb_device.c: 362: for(i = 0; i < (uint8_t)(2+1u); i++)
  3100  0603  0022               	movlb	2	; select bank2
  3101  0604  01E3               	clrf	USBDeviceInit@i^(0+256)
  3102  0605                     l5863:
  3103                           
  3104                           ;usb_device.c: 363: {;usb_device.c: 364: pBDTEntryIn[i] = 0u;
  3105  0605  0863               	movf	USBDeviceInit@i^(0+256),w
  3106  0606  3EB2               	addlw	(low (_pBDTEntryIn| (0+256)))& (0+255)
  3107  0607  0086               	movwf	6
  3108  0608  3001               	movlw	1	; select bank3/4
  3109  0609  0087               	movwf	7
  3110  060A  0181               	clrf	1
  3111                           
  3112                           ;usb_device.c: 365: pBDTEntryOut[i] = 0u;
  3113  060B  0863               	movf	USBDeviceInit@i^(0+256),w
  3114  060C  3EB5               	addlw	(low (_pBDTEntryOut| (0+256)))& (0+255)
  3115  060D  0086               	movwf	6
  3116  060E  3001               	movlw	1	; select bank3/4
  3117  060F  0087               	movwf	7
  3118  0610  0181               	clrf	1
  3119                           
  3120                           ;usb_device.c: 366: ep_data_in[i].Val = 0u;
  3121  0611  0863               	movf	USBDeviceInit@i^(0+256),w
  3122  0612  3EAF               	addlw	(low (_ep_data_in| (0+256)))& (0+255)
  3123  0613  0086               	movwf	6
  3124  0614  3001               	movlw	1	; select bank3/4
  3125  0615  0087               	movwf	7
  3126  0616  0181               	clrf	1
  3127                           
  3128                           ;usb_device.c: 367: ep_data_out[i].Val = 0u;
  3129  0617  0863               	movf	USBDeviceInit@i^(0+256),w
  3130  0618  3EAC               	addlw	(low (_ep_data_out| (0+256)))& (0+255)
  3131  0619  0086               	movwf	6
  3132  061A  3001               	movlw	1	; select bank3/4
  3133  061B  0087               	movwf	7
  3134  061C  0181               	clrf	1
  3135  061D                     l5865:
  3136  061D  3001               	movlw	1
  3137  061E  0021               	movlb	1	; select bank1
  3138  061F  00E7               	movwf	??_USBDeviceInit^(0+128)
  3139  0620  0867               	movf	??_USBDeviceInit^(0+128),w
  3140  0621  0022               	movlb	2	; select bank2
  3141  0622  07E3               	addwf	USBDeviceInit@i^(0+256),f
  3142  0623                     l5867:
  3143  0623  3003               	movlw	3
  3144  0624  0263               	subwf	USBDeviceInit@i^(0+256),w
  3145  0625  1C03               	skipc
  3146  0626  2E28               	goto	u5421
  3147  0627  2E29               	goto	u5420
  3148  0628                     u5421:
  3149  0628  2E05               	goto	l5863
  3150  0629                     u5420:
  3151  0629                     l5869:
  3152                           
  3153                           ;usb_device.c: 368: };usb_device.c: 371: pBDTEntryIn[0] = (volatile BDT_ENTRY*)&BDT[2];
  3154  0629  3028               	movlw	40
  3155  062A  0021               	movlb	1	; select bank1
  3156  062B  00E7               	movwf	??_USBDeviceInit^(0+128)
  3157  062C  0867               	movf	??_USBDeviceInit^(0+128),w
  3158  062D  0023               	movlb	3	; select bank3
  3159  062E  00B2               	movwf	_pBDTEntryIn^(0+384)
  3160                           
  3161                           ;usb_device.c: 373: UEP0 = 0x06|0x10;
  3162  062F  3016               	movlw	22
  3163  0630  003D               	movlb	29	; select bank29
  3164  0631  0098               	movwf	24	;volatile
  3165  0632                     l5871:
  3166                           
  3167                           ;usb_device.c: 375: BDT[0].ADR = (((uint16_t)(&SetupPkt)) & 0x7FFF);
  3168  0632  3000               	movlw	0
  3169  0633  0020               	movlb	0	; select bank0
  3170  0634  00A3               	movwf	35	;volatile
  3171  0635  3050               	movlw	80
  3172  0636  00A2               	movwf	34	;volatile
  3173  0637                     l5873:
  3174                           
  3175                           ;usb_device.c: 376: BDT[0].CNT = 8;
  3176  0637  3008               	movlw	8
  3177  0638  00A1               	movwf	33	;volatile
  3178                           
  3179                           ;usb_device.c: 377: BDT[0].STAT.Val = 0x00|0x04;
  3180  0639  3004               	movlw	4
  3181  063A  0021               	movlb	1	; select bank1
  3182  063B  00E7               	movwf	??_USBDeviceInit^(0+128)
  3183  063C  0867               	movf	??_USBDeviceInit^(0+128),w
  3184  063D  0020               	movlb	0	; select bank0
  3185  063E  00A0               	movwf	32	;volatile
  3186  063F                     l5875:
  3187                           
  3188                           ;usb_device.c: 378: BDT[0].STAT.Val |= 0x80;
  3189  063F  17A0               	bsf	32,7	;volatile
  3190  0640                     l5877:
  3191                           
  3192                           ;usb_device.c: 381: USBActiveConfiguration = 0;
  3193  0640  0023               	movlb	3	; select bank3
  3194  0641  01D4               	clrf	_USBActiveConfiguration^(0+384)	;volatile
  3195  0642                     l5879:
  3196                           
  3197                           ;usb_device.c: 384: USBDeviceState = DETACHED_STATE;
  3198  0642  01D1               	clrf	_USBDeviceState^(0+384)	;volatile
  3199  0643                     l411:
  3200  0643  0008               	return
  3201  0644                     __end_of_USBDeviceInit:
  3202                           
  3203                           	psect	text2
  3204  16DD                     __ptext2:	
  3205 ;; *************** function _USBDeviceAttach *****************
  3206 ;; Defined at:
  3207 ;;		line 1352 in file "../usb/src/usb_device.c"
  3208 ;; Parameters:    Size  Location     Type
  3209 ;;		None
  3210 ;; Auto vars:     Size  Location     Type
  3211 ;;		None
  3212 ;; Return value:  Size  Location     Type
  3213 ;;                  1    wreg      void 
  3214 ;; Registers used:
  3215 ;;		wreg, status,2, status,0
  3216 ;; Tracked objects:
  3217 ;;		On entry : 0/0
  3218 ;;		On exit  : 0/0
  3219 ;;		Unchanged: 0/0
  3220 ;; Data sizes:     COMMON   BANK0   BANK1   BANK2   BANK3   BANK4   BANK5   BANK6   BANK7   BANK8   BANK9  BANK10  BANK1
      +1  BANK12
  3221 ;;      Params:         0       0       0       0       0       0       0       0       0       0       0       0       
      +0       0
  3222 ;;      Locals:         0       0       0       0       0       0       0       0       0       0       0       0       
      +0       0
  3223 ;;      Temps:          0       0       1       0       0       0       0       0       0       0       0       0       
      +0       0
  3224 ;;      Totals:         0       0       1       0       0       0       0       0       0       0       0       0       
      +0       0
  3225 ;;Total ram usage:        1 bytes
  3226 ;; Hardware stack levels used:    1
  3227 ;; Hardware stack levels required when called:   11
  3228 ;; This function calls:
  3229 ;;		Nothing
  3230 ;; This function is called by:
  3231 ;;		_main
  3232 ;; This function uses a non-reentrant model
  3233 ;;
  3234                           
  3235                           
  3236                           ;psect for function _USBDeviceAttach
  3237  16DD                     _USBDeviceAttach:
  3238  16DD                     l5881:	
  3239                           ;incstack = 0
  3240                           ; Regs used in _USBDeviceAttach: [wreg+status,2+status,0]
  3241                           
  3242                           
  3243                           ;usb_device.c: 1356: {;usb_device.c: 1357: if(1 == 1)
  3244  16DD  0023               	movlb	3	; select bank3
  3245  16DE  0851               	movf	_USBDeviceState^(0+384),w	;volatile
  3246  16DF  1D03               	btfss	3,2
  3247  16E0  2EE2               	goto	u5431
  3248  16E1  2EE3               	goto	u5430
  3249  16E2                     u5431:
  3250  16E2  2EFD               	goto	l469
  3251  16E3                     u5430:
  3252  16E3                     l5883:
  3253                           
  3254                           ;usb_device.c: 1358: {;usb_device.c: 1360: UCON = 0;
  3255  16E3  003D               	movlb	29	; select bank29
  3256  16E4  018E               	clrf	14	;volatile
  3257                           
  3258                           ;usb_device.c: 1363: UIE = 0;
  3259  16E5  0192               	clrf	18	;volatile
  3260  16E6                     l5885:
  3261                           
  3262                           ;usb_device.c: 1367: { UCFG = 0x10 | 0x00 | 0x04 | 0x02; UEIE = 0x9F; UIE = 0x39 | 0x40 
      +                          | 0x02; };
  3263  16E6  3016               	movlw	22
  3264  16E7  0091               	movwf	17	;volatile
  3265  16E8                     l5887:
  3266  16E8  309F               	movlw	159
  3267  16E9  0097               	movwf	23	;volatile
  3268  16EA                     l5889:
  3269  16EA  307B               	movlw	123
  3270  16EB  0092               	movwf	18	;volatile
  3271  16EC                     l5891:
  3272                           
  3273                           ;usb_device.c: 1369: {PIE2bits.USBIE = 1;INTCONbits.PEIE = 1; INTCONbits.GIE = 1;};
  3274  16EC  0021               	movlb	1	; select bank1
  3275  16ED  1512               	bsf	18,2	;volatile
  3276  16EE                     l5893:
  3277  16EE  170B               	bsf	11,6	;volatile
  3278  16EF                     l5895:
  3279  16EF  178B               	bsf	11,7	;volatile
  3280                           
  3281                           ;usb_device.c: 1372: while(!UCONbits.USBEN){UCONbits.USBEN = 1;}
  3282  16F0  2EF2               	goto	l466
  3283  16F1                     l467:
  3284  16F1  158E               	bsf	14,3	;volatile
  3285  16F2                     l466:
  3286  16F2  003D               	movlb	29	; select bank29
  3287  16F3  1D8E               	btfss	14,3	;volatile
  3288  16F4  2EF6               	goto	u5441
  3289  16F5  2EF7               	goto	u5440
  3290  16F6                     u5441:
  3291  16F6  2EF1               	goto	l467
  3292  16F7                     u5440:
  3293  16F7                     l5897:
  3294                           
  3295                           ;usb_device.c: 1375: USBDeviceState = ATTACHED_STATE;
  3296  16F7  3001               	movlw	1
  3297  16F8  0021               	movlb	1	; select bank1
  3298  16F9  00E7               	movwf	??_USBDeviceAttach^(0+128)
  3299  16FA  0867               	movf	??_USBDeviceAttach^(0+128),w
  3300  16FB  0023               	movlb	3	; select bank3
  3301  16FC  00D1               	movwf	_USBDeviceState^(0+384)	;volatile
  3302  16FD                     l469:
  3303  16FD  0008               	return
  3304  16FE                     __end_of_USBDeviceAttach:
  3305                           
  3306                           	psect	text3
  3307  1681                     __ptext3:	
  3308 ;; *************** function _SYSTEM_Initialize *****************
  3309 ;; Defined at:
  3310 ;;		line 86 in file "../src/system_config/system.c"
  3311 ;; Parameters:    Size  Location     Type
  3312 ;;  state           1    wreg     enum E2189
  3313 ;; Auto vars:     Size  Location     Type
  3314 ;;  state           1    8[BANK1 ] enum E2189
  3315 ;; Return value:  Size  Location     Type
  3316 ;;                  1    wreg      void 
  3317 ;; Registers used:
  3318 ;;		wreg, fsr0l, fsr0h, status,2, status,0, pclath, cstack
  3319 ;; Tracked objects:
  3320 ;;		On entry : 0/0
  3321 ;;		On exit  : 0/0
  3322 ;;		Unchanged: 0/0
  3323 ;; Data sizes:     COMMON   BANK0   BANK1   BANK2   BANK3   BANK4   BANK5   BANK6   BANK7   BANK8   BANK9  BANK10  BANK1
      +1  BANK12
  3324 ;;      Params:         0       0       0       0       0       0       0       0       0       0       0       0       
      +0       0
  3325 ;;      Locals:         0       0       1       0       0       0       0       0       0       0       0       0       
      +0       0
  3326 ;;      Temps:          0       0       0       0       0       0       0       0       0       0       0       0       
      +0       0
  3327 ;;      Totals:         0       0       1       0       0       0       0       0       0       0       0       0       
      +0       0
  3328 ;;Total ram usage:        1 bytes
  3329 ;; Hardware stack levels used:    1
  3330 ;; Hardware stack levels required when called:   12
  3331 ;; This function calls:
  3332 ;;		_BUTTON_Enable
  3333 ;;		_LED_Enable
  3334 ;; This function is called by:
  3335 ;;		_main
  3336 ;; This function uses a non-reentrant model
  3337 ;;
  3338                           
  3339                           
  3340                           ;psect for function _SYSTEM_Initialize
  3341  1681                     _SYSTEM_Initialize:
  3342                           
  3343                           ;incstack = 0
  3344                           ; Regs used in _SYSTEM_Initialize: [wreg-fsr0h+status,2+status,0+pclath+cstack]
  3345                           ;SYSTEM_Initialize@state stored from wreg
  3346  1681  0021               	movlb	1	; select bank1
  3347  1682  00E8               	movwf	SYSTEM_Initialize@state^(0+128)
  3348  1683                     l5629:
  3349                           
  3350                           ;system.c: 88: switch(state)
  3351  1683  2E92               	goto	l5639
  3352  1684                     l5631:
  3353                           
  3354                           ;system.c: 94: OSCCON = 0xFC;
  3355  1684  30FC               	movlw	252
  3356  1685  0099               	movwf	25	;volatile
  3357                           
  3358                           ;system.c: 95: ACTCON = 0x90;
  3359  1686  3090               	movlw	144
  3360  1687  0027               	movlb	7	; select bank7
  3361  1688  009B               	movwf	27	;volatile
  3362  1689                     l5633:
  3363                           
  3364                           ;system.c: 97: LED_Enable(LED_D1);
  3365  1689  3001               	movlw	1
  3366  168A  3195  25F7  3196   	fcall	_LED_Enable
  3367  168D                     l5635:
  3368                           
  3369                           ;system.c: 98: BUTTON_Enable(BUTTON_S1);
  3370  168D  3001               	movlw	1
  3371  168E  3188  2002  3196   	fcall	_BUTTON_Enable
  3372                           
  3373                           ;system.c: 99: break;
  3374  1691  2E9D               	goto	l18
  3375  1692                     l5639:
  3376  1692  0868               	movf	SYSTEM_Initialize@state^(0+128),w
  3377                           
  3378                           ; Switch size 1, requested type "simple"
  3379                           ; Number of cases is 3, Range of values is 0 to 2
  3380                           ; switch strategies available:
  3381                           ; Name         Instructions Cycles
  3382                           ; simple_byte           10     6 (average)
  3383                           ; direct_byte           12     6 (fixed)
  3384                           ; jumptable            260     6 (fixed)
  3385                           ;	Chosen strategy is simple_byte
  3386  1693  3A00               	xorlw	0	; case 0
  3387  1694  1903               	skipnz
  3388  1695  2E84               	goto	l5631
  3389  1696  3A01               	xorlw	1	; case 1
  3390  1697  1903               	skipnz
  3391  1698  2E9D               	goto	l18
  3392  1699  3A03               	xorlw	3	; case 2
  3393  169A  1903               	skipnz
  3394  169B  2E9D               	goto	l18
  3395  169C  2E9D               	goto	l18
  3396  169D                     l18:
  3397  169D  0008               	return
  3398  169E                     __end_of_SYSTEM_Initialize:
  3399                           
  3400                           	psect	text4
  3401  15F7                     __ptext4:	
  3402 ;; *************** function _LED_Enable *****************
  3403 ;; Defined at:
  3404 ;;		line 186 in file "../bsp/leds.c"
  3405 ;; Parameters:    Size  Location     Type
  3406 ;;  led             1    wreg     enum E2
  3407 ;; Auto vars:     Size  Location     Type
  3408 ;;  led             1    7[BANK1 ] enum E2
  3409 ;; Return value:  Size  Location     Type
  3410 ;;                  1    wreg      void 
  3411 ;; Registers used:
  3412 ;;		wreg, fsr0l, fsr0h, status,2, status,0
  3413 ;; Tracked objects:
  3414 ;;		On entry : 0/0
  3415 ;;		On exit  : 0/0
  3416 ;;		Unchanged: 0/0
  3417 ;; Data sizes:     COMMON   BANK0   BANK1   BANK2   BANK3   BANK4   BANK5   BANK6   BANK7   BANK8   BANK9  BANK10  BANK1
      +1  BANK12
  3418 ;;      Params:         0       0       0       0       0       0       0       0       0       0       0       0       
      +0       0
  3419 ;;      Locals:         0       0       1       0       0       0       0       0       0       0       0       0       
      +0       0
  3420 ;;      Temps:          0       0       0       0       0       0       0       0       0       0       0       0       
      +0       0
  3421 ;;      Totals:         0       0       1       0       0       0       0       0       0       0       0       0       
      +0       0
  3422 ;;Total ram usage:        1 bytes
  3423 ;; Hardware stack levels used:    1
  3424 ;; Hardware stack levels required when called:   11
  3425 ;; This function calls:
  3426 ;;		Nothing
  3427 ;; This function is called by:
  3428 ;;		_SYSTEM_Initialize
  3429 ;; This function uses a non-reentrant model
  3430 ;;
  3431                           
  3432                           
  3433                           ;psect for function _LED_Enable
  3434  15F7                     _LED_Enable:
  3435                           
  3436                           ;incstack = 0
  3437                           ; Regs used in _LED_Enable: [wreg-fsr0h+status,2+status,0]
  3438                           ;LED_Enable@led stored from wreg
  3439  15F7  0021               	movlb	1	; select bank1
  3440  15F8  00E7               	movwf	LED_Enable@led^(0+128)
  3441  15F9                     l5395:
  3442                           
  3443                           ;leds.c: 188: switch(led)
  3444  15F9  2DFE               	goto	l5399
  3445  15FA                     l271:	
  3446                           ;leds.c: 189: {;leds.c: 190: case LED_D1:
  3447                           
  3448                           
  3449                           ;leds.c: 191: TRISCbits.TRISC2 = 0;
  3450  15FA  110E               	bcf	14,2	;volatile
  3451                           
  3452                           ;leds.c: 192: break;
  3453  15FB  2E09               	goto	l275
  3454  15FC                     l273:	
  3455                           ;leds.c: 194: case LED_D2:
  3456                           
  3457                           
  3458                           ;leds.c: 195: TRISCbits.TRISC3 = 0;
  3459  15FC  118E               	bcf	14,3	;volatile
  3460                           
  3461                           ;leds.c: 196: break;
  3462  15FD  2E09               	goto	l275
  3463  15FE                     l5399:
  3464  15FE  0867               	movf	LED_Enable@led^(0+128),w
  3465                           
  3466                           ; Switch size 1, requested type "simple"
  3467                           ; Number of cases is 3, Range of values is 0 to 2
  3468                           ; switch strategies available:
  3469                           ; Name         Instructions Cycles
  3470                           ; simple_byte           10     6 (average)
  3471                           ; direct_byte           12     6 (fixed)
  3472                           ; jumptable            260     6 (fixed)
  3473                           ;	Chosen strategy is simple_byte
  3474  15FF  3A00               	xorlw	0	; case 0
  3475  1600  1903               	skipnz
  3476  1601  2E09               	goto	l275
  3477  1602  3A01               	xorlw	1	; case 1
  3478  1603  1903               	skipnz
  3479  1604  2DFA               	goto	l271
  3480  1605  3A03               	xorlw	3	; case 2
  3481  1606  1903               	skipnz
  3482  1607  2DFC               	goto	l273
  3483  1608  2E09               	goto	l275
  3484  1609                     l275:
  3485  1609  0008               	return
  3486  160A                     __end_of_LED_Enable:
  3487                           
  3488                           	psect	text5
  3489  0802                     __ptext5:	
  3490 ;; *************** function _BUTTON_Enable *****************
  3491 ;; Defined at:
  3492 ;;		line 89 in file "../bsp/buttons.c"
  3493 ;; Parameters:    Size  Location     Type
  3494 ;;  button          1    wreg     enum E2159
  3495 ;; Auto vars:     Size  Location     Type
  3496 ;;  button          1    7[BANK1 ] enum E2159
  3497 ;; Return value:  Size  Location     Type
  3498 ;;                  1    wreg      void 
  3499 ;; Registers used:
  3500 ;;		wreg, fsr0l, fsr0h, status,2, status,0
  3501 ;; Tracked objects:
  3502 ;;		On entry : 0/0
  3503 ;;		On exit  : 0/0
  3504 ;;		Unchanged: 0/0
  3505 ;; Data sizes:     COMMON   BANK0   BANK1   BANK2   BANK3   BANK4   BANK5   BANK6   BANK7   BANK8   BANK9  BANK10  BANK1
      +1  BANK12
  3506 ;;      Params:         0       0       0       0       0       0       0       0       0       0       0       0       
      +0       0
  3507 ;;      Locals:         0       0       1       0       0       0       0       0       0       0       0       0       
      +0       0
  3508 ;;      Temps:          0       0       0       0       0       0       0       0       0       0       0       0       
      +0       0
  3509 ;;      Totals:         0       0       1       0       0       0       0       0       0       0       0       0       
      +0       0
  3510 ;;Total ram usage:        1 bytes
  3511 ;; Hardware stack levels used:    1
  3512 ;; Hardware stack levels required when called:   11
  3513 ;; This function calls:
  3514 ;;		Nothing
  3515 ;; This function is called by:
  3516 ;;		_SYSTEM_Initialize
  3517 ;; This function uses a non-reentrant model
  3518 ;;
  3519                           
  3520                           
  3521                           ;psect for function _BUTTON_Enable
  3522  0802                     _BUTTON_Enable:
  3523                           
  3524                           ;incstack = 0
  3525                           ; Regs used in _BUTTON_Enable: [wreg-fsr0h+status,2+status,0]
  3526                           ;BUTTON_Enable@button stored from wreg
  3527  0802  0021               	movlb	1	; select bank1
  3528  0803  00E7               	movwf	BUTTON_Enable@button^(0+128)
  3529  0804                     l5401:
  3530  0804                     l5405:	
  3531                           ;buttons.c: 91: switch(button)
  3532                           
  3533  0804  0867               	movf	BUTTON_Enable@button^(0+128),w
  3534                           
  3535                           ; Switch size 1, requested type "simple"
  3536                           ; Number of cases is 3, Range of values is 0 to 2
  3537                           ; switch strategies available:
  3538                           ; Name         Instructions Cycles
  3539                           ; simple_byte           10     6 (average)
  3540                           ; direct_byte           12     6 (fixed)
  3541                           ; jumptable            260     6 (fixed)
  3542                           ;	Chosen strategy is simple_byte
  3543  0805  3A00               	xorlw	0	; case 0
  3544  0806  1903               	skipnz
  3545  0807  280F               	goto	l231
  3546  0808  3A01               	xorlw	1	; case 1
  3547  0809  1903               	skipnz
  3548  080A  280F               	goto	l231
  3549  080B  3A03               	xorlw	3	; case 2
  3550  080C  1903               	skipnz
  3551  080D  280F               	goto	l231
  3552  080E  280F               	goto	l231
  3553  080F                     l231:
  3554  080F  0008               	return
  3555  0810                     __end_of_BUTTON_Enable:
  3556                           
  3557                           	psect	text6
  3558  15D9                     __ptext6:	
  3559 ;; *************** function _InitSPI_MAX6675 *****************
  3560 ;; Defined at:
  3561 ;;		line 5 in file "../src/SPI_MAX6675.c"
  3562 ;; Parameters:    Size  Location     Type
  3563 ;;		None
  3564 ;; Auto vars:     Size  Location     Type
  3565 ;;		None
  3566 ;; Return value:  Size  Location     Type
  3567 ;;                  1    wreg      void 
  3568 ;; Registers used:
  3569 ;;		wreg, status,2
  3570 ;; Tracked objects:
  3571 ;;		On entry : 0/0
  3572 ;;		On exit  : 0/0
  3573 ;;		Unchanged: 0/0
  3574 ;; Data sizes:     COMMON   BANK0   BANK1   BANK2   BANK3   BANK4   BANK5   BANK6   BANK7   BANK8   BANK9  BANK10  BANK1
      +1  BANK12
  3575 ;;      Params:         0       0       0       0       0       0       0       0       0       0       0       0       
      +0       0
  3576 ;;      Locals:         0       0       0       0       0       0       0       0       0       0       0       0       
      +0       0
  3577 ;;      Temps:          0       0       0       0       0       0       0       0       0       0       0       0       
      +0       0
  3578 ;;      Totals:         0       0       0       0       0       0       0       0       0       0       0       0       
      +0       0
  3579 ;;Total ram usage:        0 bytes
  3580 ;; Hardware stack levels used:    1
  3581 ;; Hardware stack levels required when called:   11
  3582 ;; This function calls:
  3583 ;;		Nothing
  3584 ;; This function is called by:
  3585 ;;		_main
  3586 ;; This function uses a non-reentrant model
  3587 ;;
  3588                           
  3589                           
  3590                           ;psect for function _InitSPI_MAX6675
  3591  15D9                     _InitSPI_MAX6675:
  3592  15D9                     l5927:	
  3593                           ;incstack = 0
  3594                           ; Regs used in _InitSPI_MAX6675: [wreg+status,2]
  3595                           
  3596                           
  3597                           ;SPI_MAX6675.c: 6: SSP1STAT = 0b00000000;
  3598  15D9  0024               	movlb	4	; select bank4
  3599  15DA  0194               	clrf	20	;volatile
  3600  15DB                     l5929:
  3601                           
  3602                           ;SPI_MAX6675.c: 7: SSP1CON1 = 0b00100010;
  3603  15DB  3022               	movlw	34
  3604  15DC  0095               	movwf	21	;volatile
  3605  15DD                     l198:
  3606  15DD  0008               	return
  3607  15DE                     __end_of_InitSPI_MAX6675:
  3608                           
  3609                           	psect	text7
  3610  161E                     __ptext7:	
  3611 ;; *************** function _InitIO *****************
  3612 ;; Defined at:
  3613 ;;		line 36 in file "../src/IO.c"
  3614 ;; Parameters:    Size  Location     Type
  3615 ;;		None
  3616 ;; Auto vars:     Size  Location     Type
  3617 ;;		None
  3618 ;; Return value:  Size  Location     Type
  3619 ;;                  1    wreg      void 
  3620 ;; Registers used:
  3621 ;;		status,2
  3622 ;; Tracked objects:
  3623 ;;		On entry : 0/0
  3624 ;;		On exit  : 0/0
  3625 ;;		Unchanged: 0/0
  3626 ;; Data sizes:     COMMON   BANK0   BANK1   BANK2   BANK3   BANK4   BANK5   BANK6   BANK7   BANK8   BANK9  BANK10  BANK1
      +1  BANK12
  3627 ;;      Params:         0       0       0       0       0       0       0       0       0       0       0       0       
      +0       0
  3628 ;;      Locals:         0       0       0       0       0       0       0       0       0       0       0       0       
      +0       0
  3629 ;;      Temps:          0       0       0       0       0       0       0       0       0       0       0       0       
      +0       0
  3630 ;;      Totals:         0       0       0       0       0       0       0       0       0       0       0       0       
      +0       0
  3631 ;;Total ram usage:        0 bytes
  3632 ;; Hardware stack levels used:    1
  3633 ;; Hardware stack levels required when called:   11
  3634 ;; This function calls:
  3635 ;;		Nothing
  3636 ;; This function is called by:
  3637 ;;		_main
  3638 ;; This function uses a non-reentrant model
  3639 ;;
  3640                           
  3641                           
  3642                           ;psect for function _InitIO
  3643  161E                     _InitIO:
  3644  161E                     l5899:	
  3645                           ;incstack = 0
  3646                           ; Regs used in _InitIO: [status,2]
  3647                           
  3648                           
  3649                           ;IO.c: 39: ANSELA = 0b00000000;
  3650  161E  0023               	movlb	3	; select bank3
  3651  161F  018C               	clrf	12	;volatile
  3652                           
  3653                           ;IO.c: 40: ANSELB = 0b00000000;
  3654  1620  018D               	clrf	13	;volatile
  3655                           
  3656                           ;IO.c: 41: ANSELC = 0b00000000;
  3657  1621  018E               	clrf	14	;volatile
  3658  1622                     l5901:
  3659                           
  3660                           ;IO.c: 43: TRISAbits.TRISA4 = 1;
  3661  1622  0021               	movlb	1	; select bank1
  3662  1623  160C               	bsf	12,4	;volatile
  3663  1624                     l5903:
  3664                           
  3665                           ;IO.c: 44: TRISAbits.TRISA5 = 1;
  3666  1624  168C               	bsf	12,5	;volatile
  3667  1625                     l5905:
  3668                           
  3669                           ;IO.c: 46: TRISBbits.TRISB4 = 1;
  3670  1625  160D               	bsf	13,4	;volatile
  3671  1626                     l5907:
  3672                           
  3673                           ;IO.c: 47: TRISBbits.TRISB6 = 0;
  3674  1626  130D               	bcf	13,6	;volatile
  3675  1627                     l5909:
  3676                           
  3677                           ;IO.c: 49: TRISCbits.TRISC2 = 0;
  3678  1627  110E               	bcf	14,2	;volatile
  3679  1628                     l5911:
  3680                           
  3681                           ;IO.c: 50: TRISCbits.TRISC3 = 0;
  3682  1628  118E               	bcf	14,3	;volatile
  3683  1629                     l5913:
  3684                           
  3685                           ;IO.c: 51: TRISCbits.TRISC4 = 0;
  3686  1629  120E               	bcf	14,4	;volatile
  3687  162A                     l5915:
  3688                           
  3689                           ;IO.c: 52: TRISCbits.TRISC5 = 0;
  3690  162A  128E               	bcf	14,5	;volatile
  3691  162B                     l5917:
  3692                           
  3693                           ;IO.c: 53: TRISCbits.TRISC7 = 0;
  3694  162B  138E               	bcf	14,7	;volatile
  3695  162C                     l5919:
  3696                           
  3697                           ;IO.c: 55: LATCbits.LATC2 = 0;
  3698  162C  0022               	movlb	2	; select bank2
  3699  162D  110E               	bcf	14,2	;volatile
  3700  162E                     l5921:
  3701                           
  3702                           ;IO.c: 56: LATCbits.LATC3 = 0;
  3703  162E  118E               	bcf	14,3	;volatile
  3704  162F                     l5923:
  3705                           
  3706                           ;IO.c: 58: LATCbits.LATC4 = 1;
  3707  162F  160E               	bsf	14,4	;volatile
  3708  1630                     l5925:
  3709                           
  3710                           ;IO.c: 59: LATCbits.LATC5 = 1;
  3711  1630  168E               	bsf	14,5	;volatile
  3712  1631                     l187:
  3713  1631  0008               	return
  3714  1632                     __end_of_InitIO:
  3715                           
  3716                           	psect	text8
  3717  0036                     __ptext8:	
  3718 ;; *************** function _APP_DeviceCDCEmulatorTasks *****************
  3719 ;; Defined at:
  3720 ;;		line 81 in file "../src/app_device_cdc_basic.c"
  3721 ;; Parameters:    Size  Location     Type
  3722 ;;		None
  3723 ;; Auto vars:     Size  Location     Type
  3724 ;;  max_6675_tem    8    7[BANK3 ] unsigned char [8]
  3725 ;;  max_6675        2   18[BANK3 ] int 
  3726 ;;  max_6675_tem    2   15[BANK3 ] int 
  3727 ;;  i               1   20[BANK3 ] unsigned char 
  3728 ;;  numBytesRead    1   17[BANK3 ] unsigned char 
  3729 ;; Return value:  Size  Location     Type
  3730 ;;                  1    wreg      void 
  3731 ;; Registers used:
  3732 ;;		wreg, fsr0l, fsr0h, fsr1l, fsr1h, status,2, status,0, pclath, cstack
  3733 ;; Tracked objects:
  3734 ;;		On entry : 0/0
  3735 ;;		On exit  : 0/0
  3736 ;;		Unchanged: 0/0
  3737 ;; Data sizes:     COMMON   BANK0   BANK1   BANK2   BANK3   BANK4   BANK5   BANK6   BANK7   BANK8   BANK9  BANK10  BANK1
      +1  BANK12
  3738 ;;      Params:         0       0       0       0       0       0       0       0       0       0       0       0       
      +0       0
  3739 ;;      Locals:         0       0       0       0      14       0       0       0       0       0       0       0       
      +0       0
  3740 ;;      Temps:          0       0       0       0       2       0       0       0       0       0       0       0       
      +0       0
  3741 ;;      Totals:         0       0       0       0      16       0       0       0       0       0       0       0       
      +0       0
  3742 ;;Total ram usage:       16 bytes
  3743 ;; Hardware stack levels used:    1
  3744 ;; Hardware stack levels required when called:   13
  3745 ;; This function calls:
  3746 ;;		_CDCTxService
  3747 ;;		_Check_MAX6675_NC
  3748 ;;		_Get_MAX6675
  3749 ;;		_Get_MAX6675_Temp
  3750 ;;		_getsUSBUSART
  3751 ;;		_my_itoa
  3752 ;;		_my_strlen
  3753 ;;		_putUSBUSART
  3754 ;;		_putsUSBUSART
  3755 ;; This function is called by:
  3756 ;;		_main
  3757 ;; This function uses a non-reentrant model
  3758 ;;
  3759                           
  3760                           
  3761                           ;psect for function _APP_DeviceCDCEmulatorTasks
  3762  0036                     _APP_DeviceCDCEmulatorTasks:
  3763  0036                     l5743:	
  3764                           ;incstack = 0
  3765                           ; Regs used in _APP_DeviceCDCEmulatorTasks: [wreg-fsr1h+status,2+status,0+pclath+cstack]
  3766                           
  3767                           
  3768                           ;app_device_cdc_basic.c: 86: if( USBDeviceState < CONFIGURED_STATE )
  3769  0036  3020               	movlw	32
  3770  0037  0023               	movlb	3	; select bank3
  3771  0038  0251               	subwf	_USBDeviceState^(0+384),w	;volatile
  3772  0039  1803               	skipnc
  3773  003A  283C               	goto	u5311
  3774  003B  283D               	goto	u5310
  3775  003C                     u5311:
  3776  003C  283E               	goto	l63
  3777  003D                     u5310:
  3778  003D  298B               	goto	l64
  3779  003E                     l63:
  3780                           
  3781                           ;app_device_cdc_basic.c: 89: };app_device_cdc_basic.c: 95: if( UCONbits.SUSPND== 1 )
  3782  003E  003D               	movlb	29	; select bank29
  3783  003F  1C8E               	btfss	14,1	;volatile
  3784  0040  2842               	goto	u5321
  3785  0041  2843               	goto	u5320
  3786  0042                     u5321:
  3787  0042  2844               	goto	l5749
  3788  0043                     u5320:
  3789  0043  298B               	goto	l64
  3790  0044                     l5749:
  3791                           
  3792                           ;app_device_cdc_basic.c: 98: };app_device_cdc_basic.c: 104: if( (cdc_trf_state == 0) == 
      +                          1)
  3793  0044  0023               	movlb	3	; select bank3
  3794  0045  0850               	movf	_cdc_trf_state^(0+384),w
  3795  0046  1D03               	btfss	3,2
  3796  0047  2849               	goto	u5331
  3797  0048  284A               	goto	u5330
  3798  0049                     u5331:
  3799  0049  2988               	goto	l5801
  3800  004A                     u5330:
  3801  004A                     l5751:
  3802                           
  3803                           ;app_device_cdc_basic.c: 105: {;app_device_cdc_basic.c: 106: uint8_t i;;app_device_cdc_b
      +                          asic.c: 107: uint8_t numBytesRead;;app_device_cdc_basic.c: 109: char max_6675_temp_str[8
      +                          ];;app_device_cdc_basic.c: 110: int max_6675, max_6675_temp;;app_device_cdc_basic.c: 112
      +                          : numBytesRead = getsUSBUSART(readBuffer, sizeof(readBuffer));
  3804  004A  3040               	movlw	64
  3805  004B  00DA               	movwf	??_APP_DeviceCDCEmulatorTasks^(0+384)
  3806  004C  085A               	movf	??_APP_DeviceCDCEmulatorTasks^(0+384),w
  3807  004D  0022               	movlb	2	; select bank2
  3808  004E  00E6               	movwf	getsUSBUSART@len^(0+256)
  3809  004F  30A0               	movlw	(low (_readBuffer| (0+512)))& (0+255)
  3810  0050  318B  23A6  3180   	fcall	_getsUSBUSART
  3811  0053  0023               	movlb	3	; select bank3
  3812  0054  00DB               	movwf	(??_APP_DeviceCDCEmulatorTasks+1)^(0+384)
  3813  0055  085B               	movf	(??_APP_DeviceCDCEmulatorTasks+1)^(0+384),w
  3814  0056  00E6               	movwf	APP_DeviceCDCEmulatorTasks@numBytesRead^(0+384)
  3815  0057                     l5753:
  3816                           
  3817                           ;app_device_cdc_basic.c: 115: for(i=0; i<numBytesRead; i++)
  3818  0057  01E9               	clrf	APP_DeviceCDCEmulatorTasks@i^(0+384)
  3819  0058  2974               	goto	l5795
  3820  0059                     l70:	
  3821                           ;app_device_cdc_basic.c: 118: {;app_device_cdc_basic.c: 119: case 'A':
  3822                           
  3823                           
  3824                           ;app_device_cdc_basic.c: 120: LATCbits.LATC2 = 1;
  3825  0059  0022               	movlb	2	; select bank2
  3826  005A  150E               	bsf	14,2	;volatile
  3827                           
  3828                           ;app_device_cdc_basic.c: 121: break;
  3829  005B  296F               	goto	l5793
  3830  005C                     l72:	
  3831                           ;app_device_cdc_basic.c: 122: case 'a':
  3832                           
  3833                           
  3834                           ;app_device_cdc_basic.c: 123: LATCbits.LATC2 = 0;
  3835  005C  0022               	movlb	2	; select bank2
  3836  005D  110E               	bcf	14,2	;volatile
  3837                           
  3838                           ;app_device_cdc_basic.c: 124: break;
  3839  005E  296F               	goto	l5793
  3840  005F                     l73:	
  3841                           ;app_device_cdc_basic.c: 126: case 'B':
  3842                           
  3843                           
  3844                           ;app_device_cdc_basic.c: 127: LATCbits.LATC3 = 1;
  3845  005F  0022               	movlb	2	; select bank2
  3846  0060  158E               	bsf	14,3	;volatile
  3847                           
  3848                           ;app_device_cdc_basic.c: 128: break;
  3849  0061  296F               	goto	l5793
  3850  0062                     l74:	
  3851                           ;app_device_cdc_basic.c: 129: case 'b':
  3852                           
  3853                           
  3854                           ;app_device_cdc_basic.c: 130: LATCbits.LATC3 = 0;
  3855  0062  0022               	movlb	2	; select bank2
  3856  0063  118E               	bcf	14,3	;volatile
  3857                           
  3858                           ;app_device_cdc_basic.c: 131: break;
  3859  0064  296F               	goto	l5793
  3860  0065                     l75:	
  3861                           ;app_device_cdc_basic.c: 133: case '0':
  3862                           
  3863                           
  3864                           ;app_device_cdc_basic.c: 134: LATCbits.LATC4 = 0;
  3865  0065  0022               	movlb	2	; select bank2
  3866  0066  120E               	bcf	14,4	;volatile
  3867  0067                     l5755:
  3868                           
  3869                           ;app_device_cdc_basic.c: 135: max_6675 = Get_MAX6675();
  3870  0067  3188  2010  3180   	fcall	_Get_MAX6675
  3871  006A  0022               	movlb	2	; select bank2
  3872  006B  0861               	movf	(?_Get_MAX6675+1)^(0+256),w
  3873  006C  0023               	movlb	3	; select bank3
  3874  006D  00E8               	movwf	(APP_DeviceCDCEmulatorTasks@max_6675+1)^(0+384)
  3875  006E  0022               	movlb	2	; select bank2
  3876  006F  0860               	movf	?_Get_MAX6675^(0+256),w
  3877  0070  0023               	movlb	3	; select bank3
  3878  0071  00E7               	movwf	APP_DeviceCDCEmulatorTasks@max_6675^(0+384)
  3879  0072                     l5757:
  3880                           
  3881                           ;app_device_cdc_basic.c: 136: LATCbits.LATC4 = 1;
  3882  0072  0022               	movlb	2	; select bank2
  3883  0073  160E               	bsf	14,4	;volatile
  3884                           
  3885                           ;app_device_cdc_basic.c: 138: if(Check_MAX6675_NC(max_6675)){
  3886  0074  0023               	movlb	3	; select bank3
  3887  0075  0868               	movf	(APP_DeviceCDCEmulatorTasks@max_6675+1)^(0+384),w
  3888  0076  0022               	movlb	2	; select bank2
  3889  0077  00E1               	movwf	(Check_MAX6675_NC@aMAX6675+1)^(0+256)
  3890  0078  0023               	movlb	3	; select bank3
  3891  0079  0867               	movf	APP_DeviceCDCEmulatorTasks@max_6675^(0+384),w
  3892  007A  0022               	movlb	2	; select bank2
  3893  007B  00E0               	movwf	Check_MAX6675_NC@aMAX6675^(0+256)
  3894  007C  3196  260A  3180   	fcall	_Check_MAX6675_NC
  3895  007F  0022               	movlb	2	; select bank2
  3896  0080  0860               	movf	?_Check_MAX6675_NC^(0+256),w
  3897  0081  0461               	iorwf	(?_Check_MAX6675_NC+1)^(0+256),w
  3898  0082  1903               	btfsc	3,2
  3899  0083  2885               	goto	u5341
  3900  0084  2886               	goto	u5340
  3901  0085                     u5341:
  3902  0085  288E               	goto	l5761
  3903  0086                     u5340:
  3904  0086                     l5759:
  3905                           
  3906                           ;app_device_cdc_basic.c: 139: putsUSBUSART("NC\r\n");
  3907  0086  3016               	movlw	low (STR_1| (0+32768))
  3908  0087  00E0               	movwf	putsUSBUSART@data^(0+256)
  3909  0088  3098               	movlw	high (STR_1| (0+32768))
  3910  0089  00E1               	movwf	(putsUSBUSART@data^(0+256)+1)
  3911  008A  3188  20F9  3180   	fcall	_putsUSBUSART
  3912                           
  3913                           ;app_device_cdc_basic.c: 140: }
  3914  008D  296F               	goto	l5793
  3915  008E                     l5761:
  3916                           
  3917                           ;app_device_cdc_basic.c: 141: else{;app_device_cdc_basic.c: 142: max_6675_temp = Get_MAX
      +                          6675_Temp(max_6675);
  3918  008E  0023               	movlb	3	; select bank3
  3919  008F  0868               	movf	(APP_DeviceCDCEmulatorTasks@max_6675+1)^(0+384),w
  3920  0090  0022               	movlb	2	; select bank2
  3921  0091  00E9               	movwf	(Get_MAX6675_Temp@aMAX6675+1)^(0+256)
  3922  0092  0023               	movlb	3	; select bank3
  3923  0093  0867               	movf	APP_DeviceCDCEmulatorTasks@max_6675^(0+384),w
  3924  0094  0022               	movlb	2	; select bank2
  3925  0095  00E8               	movwf	Get_MAX6675_Temp@aMAX6675^(0+256)
  3926  0096  3197  2747  3180   	fcall	_Get_MAX6675_Temp
  3927  0099  0022               	movlb	2	; select bank2
  3928  009A  0869               	movf	(?_Get_MAX6675_Temp+1)^(0+256),w
  3929  009B  0023               	movlb	3	; select bank3
  3930  009C  00E5               	movwf	(APP_DeviceCDCEmulatorTasks@max_6675_temp+1)^(0+384)
  3931  009D  0022               	movlb	2	; select bank2
  3932  009E  0868               	movf	?_Get_MAX6675_Temp^(0+256),w
  3933  009F  0023               	movlb	3	; select bank3
  3934  00A0  00E4               	movwf	APP_DeviceCDCEmulatorTasks@max_6675_temp^(0+384)
  3935  00A1                     l5763:
  3936                           
  3937                           ;app_device_cdc_basic.c: 143: my_itoa(max_6675_temp, max_6675_temp_str, 10);
  3938  00A1  0865               	movf	(APP_DeviceCDCEmulatorTasks@max_6675_temp+1)^(0+384),w
  3939  00A2  0022               	movlb	2	; select bank2
  3940  00A3  00E8               	movwf	(my_itoa@val+1)^(0+256)
  3941  00A4  0023               	movlb	3	; select bank3
  3942  00A5  0864               	movf	APP_DeviceCDCEmulatorTasks@max_6675_temp^(0+384),w
  3943  00A6  0022               	movlb	2	; select bank2
  3944  00A7  00E7               	movwf	my_itoa@val^(0+256)
  3945  00A8  30DC               	movlw	(low (APP_DeviceCDCEmulatorTasks@max_6675_temp_str| (0+256)))& (0+255)
  3946  00A9  0023               	movlb	3	; select bank3
  3947  00AA  00DA               	movwf	??_APP_DeviceCDCEmulatorTasks^(0+384)
  3948  00AB  085A               	movf	??_APP_DeviceCDCEmulatorTasks^(0+384),w
  3949  00AC  0022               	movlb	2	; select bank2
  3950  00AD  00E9               	movwf	my_itoa@a^(0+256)
  3951  00AE  300A               	movlw	10
  3952  00AF  00EA               	movwf	my_itoa@radix^(0+256)
  3953  00B0  3000               	movlw	0
  3954  00B1  00EB               	movwf	(my_itoa@radix^(0+256)+1)
  3955  00B2  3184  24E4  3180   	fcall	_my_itoa
  3956  00B5                     l5765:
  3957                           
  3958                           ;app_device_cdc_basic.c: 144: max_6675_temp_str[my_strlen(max_6675_temp_str)] = '\r';
  3959  00B5  300D               	movlw	13
  3960  00B6  0023               	movlb	3	; select bank3
  3961  00B7  00DA               	movwf	??_APP_DeviceCDCEmulatorTasks^(0+384)
  3962  00B8  30DC               	movlw	(low (APP_DeviceCDCEmulatorTasks@max_6675_temp_str| (0+256)))& (0+255)
  3963  00B9  3196  2632  3180   	fcall	_my_strlen
  3964  00BC  3EDC               	addlw	(low (APP_DeviceCDCEmulatorTasks@max_6675_temp_str| (0+256)))& (0+255)
  3965  00BD  0086               	movwf	6
  3966  00BE  3001               	movlw	1	; select bank3/4
  3967  00BF  0087               	movwf	7
  3968  00C0  0023               	movlb	3	; select bank3
  3969  00C1  085A               	movf	??_APP_DeviceCDCEmulatorTasks^(0+384),w
  3970  00C2  0081               	movwf	1
  3971  00C3                     l5767:
  3972                           
  3973                           ;app_device_cdc_basic.c: 145: max_6675_temp_str[my_strlen(max_6675_temp_str) + 1] = '\n'
      +                          ;
  3974  00C3  300A               	movlw	10
  3975  00C4  00DA               	movwf	??_APP_DeviceCDCEmulatorTasks^(0+384)
  3976  00C5  30DC               	movlw	(low (APP_DeviceCDCEmulatorTasks@max_6675_temp_str| (0+256)))& (0+255)
  3977  00C6  3196  2632  3180   	fcall	_my_strlen
  3978  00C9  3E01               	addlw	1
  3979  00CA  3EDC               	addlw	(low (APP_DeviceCDCEmulatorTasks@max_6675_temp_str| (0+256)))& (0+255)
  3980  00CB  0086               	movwf	6
  3981  00CC  3001               	movlw	1	; select bank3/4
  3982  00CD  0087               	movwf	7
  3983  00CE  0023               	movlb	3	; select bank3
  3984  00CF  085A               	movf	??_APP_DeviceCDCEmulatorTasks^(0+384),w
  3985  00D0  0081               	movwf	1
  3986  00D1                     l5769:
  3987                           
  3988                           ;app_device_cdc_basic.c: 146: putsUSBUSART(max_6675_temp_str);
  3989  00D1  30DC               	movlw	low APP_DeviceCDCEmulatorTasks@max_6675_temp_str
  3990  00D2  0022               	movlb	2	; select bank2
  3991  00D3  00E0               	movwf	putsUSBUSART@data^(0+256)
  3992  00D4  3001               	movlw	high APP_DeviceCDCEmulatorTasks@max_6675_temp_str
  3993  00D5  00E1               	movwf	(putsUSBUSART@data+1)^(0+256)
  3994  00D6  3188  20F9  3180   	fcall	_putsUSBUSART
  3995  00D9  296F               	goto	l5793
  3996  00DA                     l78:	
  3997                           ;app_device_cdc_basic.c: 150: case '1':
  3998                           
  3999                           
  4000                           ;app_device_cdc_basic.c: 151: LATCbits.LATC5 = 0;
  4001  00DA  0022               	movlb	2	; select bank2
  4002  00DB  128E               	bcf	14,5	;volatile
  4003  00DC                     l5771:
  4004                           
  4005                           ;app_device_cdc_basic.c: 152: max_6675 = Get_MAX6675();
  4006  00DC  3188  2010  3180   	fcall	_Get_MAX6675
  4007  00DF  0022               	movlb	2	; select bank2
  4008  00E0  0861               	movf	(?_Get_MAX6675+1)^(0+256),w
  4009  00E1  0023               	movlb	3	; select bank3
  4010  00E2  00E8               	movwf	(APP_DeviceCDCEmulatorTasks@max_6675+1)^(0+384)
  4011  00E3  0022               	movlb	2	; select bank2
  4012  00E4  0860               	movf	?_Get_MAX6675^(0+256),w
  4013  00E5  0023               	movlb	3	; select bank3
  4014  00E6  00E7               	movwf	APP_DeviceCDCEmulatorTasks@max_6675^(0+384)
  4015  00E7                     l5773:
  4016                           
  4017                           ;app_device_cdc_basic.c: 153: LATCbits.LATC5 = 1;
  4018  00E7  0022               	movlb	2	; select bank2
  4019  00E8  168E               	bsf	14,5	;volatile
  4020                           
  4021                           ;app_device_cdc_basic.c: 155: if(Check_MAX6675_NC(max_6675)){
  4022  00E9  0023               	movlb	3	; select bank3
  4023  00EA  0868               	movf	(APP_DeviceCDCEmulatorTasks@max_6675+1)^(0+384),w
  4024  00EB  0022               	movlb	2	; select bank2
  4025  00EC  00E1               	movwf	(Check_MAX6675_NC@aMAX6675+1)^(0+256)
  4026  00ED  0023               	movlb	3	; select bank3
  4027  00EE  0867               	movf	APP_DeviceCDCEmulatorTasks@max_6675^(0+384),w
  4028  00EF  0022               	movlb	2	; select bank2
  4029  00F0  00E0               	movwf	Check_MAX6675_NC@aMAX6675^(0+256)
  4030  00F1  3196  260A  3180   	fcall	_Check_MAX6675_NC
  4031  00F4  0022               	movlb	2	; select bank2
  4032  00F5  0860               	movf	?_Check_MAX6675_NC^(0+256),w
  4033  00F6  0461               	iorwf	(?_Check_MAX6675_NC+1)^(0+256),w
  4034  00F7  1903               	btfsc	3,2
  4035  00F8  28FA               	goto	u5351
  4036  00F9  28FB               	goto	u5350
  4037  00FA                     u5351:
  4038  00FA  2903               	goto	l5777
  4039  00FB                     u5350:
  4040  00FB                     l5775:
  4041                           
  4042                           ;app_device_cdc_basic.c: 156: putsUSBUSART("NC\r\n");
  4043  00FB  3016               	movlw	low (STR_1| (0+32768))
  4044  00FC  00E0               	movwf	putsUSBUSART@data^(0+256)
  4045  00FD  3098               	movlw	high (STR_1| (0+32768))
  4046  00FE  00E1               	movwf	(putsUSBUSART@data^(0+256)+1)
  4047  00FF  3188  20F9  3180   	fcall	_putsUSBUSART
  4048                           
  4049                           ;app_device_cdc_basic.c: 157: }
  4050  0102  296F               	goto	l5793
  4051  0103                     l5777:
  4052                           
  4053                           ;app_device_cdc_basic.c: 158: else{;app_device_cdc_basic.c: 159: max_6675_temp = Get_MAX
      +                          6675_Temp(max_6675);
  4054  0103  0023               	movlb	3	; select bank3
  4055  0104  0868               	movf	(APP_DeviceCDCEmulatorTasks@max_6675+1)^(0+384),w
  4056  0105  0022               	movlb	2	; select bank2
  4057  0106  00E9               	movwf	(Get_MAX6675_Temp@aMAX6675+1)^(0+256)
  4058  0107  0023               	movlb	3	; select bank3
  4059  0108  0867               	movf	APP_DeviceCDCEmulatorTasks@max_6675^(0+384),w
  4060  0109  0022               	movlb	2	; select bank2
  4061  010A  00E8               	movwf	Get_MAX6675_Temp@aMAX6675^(0+256)
  4062  010B  3197  2747  3180   	fcall	_Get_MAX6675_Temp
  4063  010E  0022               	movlb	2	; select bank2
  4064  010F  0869               	movf	(?_Get_MAX6675_Temp+1)^(0+256),w
  4065  0110  0023               	movlb	3	; select bank3
  4066  0111  00E5               	movwf	(APP_DeviceCDCEmulatorTasks@max_6675_temp+1)^(0+384)
  4067  0112  0022               	movlb	2	; select bank2
  4068  0113  0868               	movf	?_Get_MAX6675_Temp^(0+256),w
  4069  0114  0023               	movlb	3	; select bank3
  4070  0115  00E4               	movwf	APP_DeviceCDCEmulatorTasks@max_6675_temp^(0+384)
  4071  0116                     l5779:
  4072                           
  4073                           ;app_device_cdc_basic.c: 160: my_itoa(max_6675_temp, max_6675_temp_str, 10);
  4074  0116  0865               	movf	(APP_DeviceCDCEmulatorTasks@max_6675_temp+1)^(0+384),w
  4075  0117  0022               	movlb	2	; select bank2
  4076  0118  00E8               	movwf	(my_itoa@val+1)^(0+256)
  4077  0119  0023               	movlb	3	; select bank3
  4078  011A  0864               	movf	APP_DeviceCDCEmulatorTasks@max_6675_temp^(0+384),w
  4079  011B  0022               	movlb	2	; select bank2
  4080  011C  00E7               	movwf	my_itoa@val^(0+256)
  4081  011D  30DC               	movlw	(low (APP_DeviceCDCEmulatorTasks@max_6675_temp_str| (0+256)))& (0+255)
  4082  011E  0023               	movlb	3	; select bank3
  4083  011F  00DA               	movwf	??_APP_DeviceCDCEmulatorTasks^(0+384)
  4084  0120  085A               	movf	??_APP_DeviceCDCEmulatorTasks^(0+384),w
  4085  0121  0022               	movlb	2	; select bank2
  4086  0122  00E9               	movwf	my_itoa@a^(0+256)
  4087  0123  300A               	movlw	10
  4088  0124  00EA               	movwf	my_itoa@radix^(0+256)
  4089  0125  3000               	movlw	0
  4090  0126  00EB               	movwf	(my_itoa@radix^(0+256)+1)
  4091  0127  3184  24E4  3180   	fcall	_my_itoa
  4092  012A                     l5781:
  4093                           
  4094                           ;app_device_cdc_basic.c: 161: max_6675_temp_str[my_strlen(max_6675_temp_str)] = '\r';
  4095  012A  300D               	movlw	13
  4096  012B  0023               	movlb	3	; select bank3
  4097  012C  00DA               	movwf	??_APP_DeviceCDCEmulatorTasks^(0+384)
  4098  012D  30DC               	movlw	(low (APP_DeviceCDCEmulatorTasks@max_6675_temp_str| (0+256)))& (0+255)
  4099  012E  3196  2632  3180   	fcall	_my_strlen
  4100  0131  3EDC               	addlw	(low (APP_DeviceCDCEmulatorTasks@max_6675_temp_str| (0+256)))& (0+255)
  4101  0132  0086               	movwf	6
  4102  0133  3001               	movlw	1	; select bank3/4
  4103  0134  0087               	movwf	7
  4104  0135  0023               	movlb	3	; select bank3
  4105  0136  085A               	movf	??_APP_DeviceCDCEmulatorTasks^(0+384),w
  4106  0137  0081               	movwf	1
  4107  0138                     l5783:
  4108                           
  4109                           ;app_device_cdc_basic.c: 162: max_6675_temp_str[my_strlen(max_6675_temp_str) + 1] = '\n'
      +                          ;
  4110  0138  300A               	movlw	10
  4111  0139  00DA               	movwf	??_APP_DeviceCDCEmulatorTasks^(0+384)
  4112  013A  30DC               	movlw	(low (APP_DeviceCDCEmulatorTasks@max_6675_temp_str| (0+256)))& (0+255)
  4113  013B  3196  2632  3180   	fcall	_my_strlen
  4114  013E  3E01               	addlw	1
  4115  013F  3EDC               	addlw	(low (APP_DeviceCDCEmulatorTasks@max_6675_temp_str| (0+256)))& (0+255)
  4116  0140  0086               	movwf	6
  4117  0141  3001               	movlw	1	; select bank3/4
  4118  0142  0087               	movwf	7
  4119  0143  0023               	movlb	3	; select bank3
  4120  0144  085A               	movf	??_APP_DeviceCDCEmulatorTasks^(0+384),w
  4121  0145  0081               	movwf	1
  4122  0146  28D1               	goto	l5769
  4123  0147                     l5787:
  4124                           
  4125                           ;app_device_cdc_basic.c: 183: writeBuffer[i] = readBuffer[i];
  4126  0147  0869               	movf	APP_DeviceCDCEmulatorTasks@i^(0+384),w
  4127  0148  3EA0               	addlw	(low (_readBuffer| (0+512)))& (0+255)
  4128  0149  0086               	movwf	6
  4129  014A  3002               	movlw	2	; select bank5/6
  4130  014B  0087               	movwf	7
  4131  014C  0801               	movf	1,w
  4132  014D  00DA               	movwf	??_APP_DeviceCDCEmulatorTasks^(0+384)
  4133  014E  0869               	movf	APP_DeviceCDCEmulatorTasks@i^(0+384),w
  4134  014F  3E20               	addlw	(low (_writeBuffer| (0+768)))& (0+255)
  4135  0150  0086               	movwf	6
  4136  0151  3003               	movlw	3	; select bank6/7
  4137  0152  0087               	movwf	7
  4138  0153  085A               	movf	??_APP_DeviceCDCEmulatorTasks^(0+384),w
  4139  0154  0081               	movwf	1
  4140                           
  4141                           ;app_device_cdc_basic.c: 185: break;
  4142  0155  296F               	goto	l5793
  4143  0156                     l5791:
  4144  0156  0869               	movf	APP_DeviceCDCEmulatorTasks@i^(0+384),w
  4145  0157  3EA0               	addlw	(low (_readBuffer| (0+512)))& (0+255)
  4146  0158  0086               	movwf	6
  4147  0159  3002               	movlw	2	; select bank5/6
  4148  015A  0087               	movwf	7
  4149  015B  0801               	movf	1,w
  4150                           
  4151                           ; Switch size 1, requested type "simple"
  4152                           ; Number of cases is 6, Range of values is 48 to 98
  4153                           ; switch strategies available:
  4154                           ; Name         Instructions Cycles
  4155                           ; simple_byte           19    10 (average)
  4156                           ; direct_byte          111     9 (fixed)
  4157                           ; jumptable            263     9 (fixed)
  4158                           ;	Chosen strategy is simple_byte
  4159  015C  3A30               	xorlw	48	; case 48
  4160  015D  1903               	skipnz
  4161  015E  2865               	goto	l75
  4162  015F  3A01               	xorlw	1	; case 49
  4163  0160  1903               	skipnz
  4164  0161  28DA               	goto	l78
  4165  0162  3A70               	xorlw	112	; case 65
  4166  0163  1903               	skipnz
  4167  0164  2859               	goto	l70
  4168  0165  3A03               	xorlw	3	; case 66
  4169  0166  1903               	skipnz
  4170  0167  285F               	goto	l73
  4171  0168  3A23               	xorlw	35	; case 97
  4172  0169  1903               	skipnz
  4173  016A  285C               	goto	l72
  4174  016B  3A03               	xorlw	3	; case 98
  4175  016C  1903               	skipnz
  4176  016D  2862               	goto	l74
  4177  016E  2947               	goto	l5787
  4178  016F                     l5793:
  4179  016F  3001               	movlw	1
  4180  0170  0023               	movlb	3	; select bank3
  4181  0171  00DA               	movwf	??_APP_DeviceCDCEmulatorTasks^(0+384)
  4182  0172  085A               	movf	??_APP_DeviceCDCEmulatorTasks^(0+384),w
  4183  0173  07E9               	addwf	APP_DeviceCDCEmulatorTasks@i^(0+384),f
  4184  0174                     l5795:
  4185  0174  0866               	movf	APP_DeviceCDCEmulatorTasks@numBytesRead^(0+384),w
  4186  0175  0269               	subwf	APP_DeviceCDCEmulatorTasks@i^(0+384),w
  4187  0176  1C03               	skipc
  4188  0177  2979               	goto	u5361
  4189  0178  297A               	goto	u5360
  4190  0179                     u5361:
  4191  0179  2956               	goto	l5791
  4192  017A                     u5360:
  4193  017A                     l5797:
  4194                           
  4195                           ;app_device_cdc_basic.c: 187: };app_device_cdc_basic.c: 189: if(numBytesRead > 0)
  4196  017A  0866               	movf	APP_DeviceCDCEmulatorTasks@numBytesRead^(0+384),w
  4197  017B  1903               	btfsc	3,2
  4198  017C  297E               	goto	u5371
  4199  017D  297F               	goto	u5370
  4200  017E                     u5371:
  4201  017E  2988               	goto	l5801
  4202  017F                     u5370:
  4203  017F                     l5799:
  4204                           
  4205                           ;app_device_cdc_basic.c: 190: {;app_device_cdc_basic.c: 194: putUSBUSART(writeBuffer,num
      +                          BytesRead);
  4206  017F  0866               	movf	APP_DeviceCDCEmulatorTasks@numBytesRead^(0+384),w
  4207  0180  00DA               	movwf	??_APP_DeviceCDCEmulatorTasks^(0+384)
  4208  0181  085A               	movf	??_APP_DeviceCDCEmulatorTasks^(0+384),w
  4209  0182  0022               	movlb	2	; select bank2
  4210  0183  00E0               	movwf	putUSBUSART@length^(0+256)
  4211  0184  3020               	movlw	(low (_writeBuffer| (0+768)))& (0+255)
  4212  0185  3196  2664  3180   	fcall	_putUSBUSART
  4213  0188                     l5801:
  4214                           
  4215                           ;app_device_cdc_basic.c: 195: };app_device_cdc_basic.c: 197: };app_device_cdc_basic.c: 1
      +                          98: CDCTxService();
  4216  0188  3183  23F2  3180   	fcall	_CDCTxService
  4217  018B                     l64:
  4218  018B  0008               	return
  4219  018C                     __end_of_APP_DeviceCDCEmulatorTasks:
  4220                           
  4221                           	psect	text9
  4222  08F9                     __ptext9:	
  4223 ;; *************** function _putsUSBUSART *****************
  4224 ;; Defined at:
  4225 ;;		line 686 in file "../usb/src/usb_device_cdc.c"
  4226 ;; Parameters:    Size  Location     Type
  4227 ;;  data            2    0[BANK2 ] PTR unsigned char 
  4228 ;;		 -> STR_2(5), APP_DeviceCDCEmulatorTasks@max_6675_temp_str(8), STR_1(5), 
  4229 ;; Auto vars:     Size  Location     Type
  4230 ;;  pData           2    5[BANK2 ] PTR unsigned char 
  4231 ;;		 -> STR_2(5), APP_DeviceCDCEmulatorTasks@max_6675_temp_str(8), STR_1(5), 
  4232 ;;  len             1    7[BANK2 ] unsigned char 
  4233 ;; Return value:  Size  Location     Type
  4234 ;;                  1    wreg      void 
