:020000040000FA
:0400000080310B2818
:100008007E1480318231CD2280317E10090080310A
:100018000D282100E901EA01EB01EC01A030840080
:100028000130850035309531DE258031203084005F
:10003800023085001D309531DE258031A0308400E6
:100048000230850040309531DE2580312030840033
:100058000330850040309531DE2580317E10200048
:100068009631FE2E20302300510203183C283D28EB
:100078003E288B293D008E1C4228432844288B2982
:1000880023005008031D49284A2888294030DA00EF
:100098005A082200E600A0308B31A62380312300C5
:1000A800DB005B08E600E901742922000E156F29C0
:1000B80022000E116F2922008E156F2922008E1141
:1000C8006F2922000E128831102080312200610829
:1000D8002300E800220060082300E70022000E1633
:1000E800230068082200E100230067082200E000DE
:1000F80096310A2680312200600861040319852898
:1001080086288E281630E0009830E1008831F920E2
:1001180080316F29230068082200E900230067085E
:100128002200E80097314727803122006908230020
:10013800E500220068082300E40065082200E800C2
:10014800230064082200E700DC302300DA005A08A4
:100158002200E9000A30EA000030EB008431E42490
:1001680080310D302300DA00DC30963132268031C0
:10017800DC3E86000130870023005A0881000A30DF
:10018800DA00DC30963132268031013EDC3E8600D2
:100198000130870023005A088100DC302200E0008B
:1001A8000130E1008831F92080316F2922008E1258
:1001B800883110208031220061082300E8002200E5
:1001C80060082300E70022008E162300680822003A
:1001D800E100230067082200E00096310A268031FA
:1001E8002200600861040319FA28FB280329163045
:1001F800E0009830E1008831F92080316F29230030
:1002080068082200E900230067082200E800973107
:1002180047278031220069082300E500220068088A
:100228002300E40065082200E80023006408220097
:10023800E700DC302300DA005A082200E9000A301F
:10024800EA000030EB008431E42480310D302300D3
:10025800DA00DC30963132268031DC3E860001300F
:10026800870023005A0881000A30DA00DC30963112
:1002780032268031013EDC3E8600013087002300B3
:100288005A088100D1286908A03E860002308700FC
:100298000108DA006908203E8600033087005A0802
:1002A80081006F296908A03E860002308700010896
:1002B800303A03196528013A0319DA28703A031904
:1002C8005928033A03195F28233A03195C28033A8B
:1002D80003196228472901302300DA005A08E90780
:1002E80066086902031C79297A29562966080319C0
:1002F8007E297F2988296608DA005A082200E0004A
:1003080020309631642680318331F2238031080011
:1003180020005203031D91299229AA2950081F3948
:10032800003A031D98299929AA292300A9170330FF
:1003380020005106031DA129A229A8290130E8009F
:1003480068082300CD00AA292300CD012000520807
:10035800031DAF29B029CC2A50081F39023A031DC2
:10036800B629B729CC2A54080F39003A0319BD29F0
:10037800BE29CC2A54080F39E80003306802031854
:10038800C629C729CC2A203023005106031DCD29B0
:10039800CE29CC2AA9172000D41BD329D429E9298E
:1003A80054080F39B53E8600013087000108E8007F
:1003B8006808ED0054080F39AC3E8600013087000C
:1003C8000108E8006808EC00FD2954080F39B23E1E
:1003D8008600013087000108E8006808ED0054082D
:1003E8000F39AF3E8600013087000108E800680831
:1003F800EC006C18002A012A062AFB30E80068087D
:10040800ED05072A6D15D41B0A2A0B2A162A6D0832
:10041800E80054080F39B53E8600013087006808A7
:100428008100202A6D08E80054080F39B23E860082
:10043800013087006808810003305106031D252A12
:10044800262A492A6D0886008701811F2C2A2D2A11
:10045800402AD41B302A312A392A54080F39AC3E95
:100468008600013087008114402A54080F39AF3EB6
:1004780086000130870081146D0886008701011508
:100488006D08860087018117CC2A0430E8006808C7
:10049800ED066D0886008701811F532A542A712AA8
:1004A8007F30E8006D0886008701680881056D08BF
:1004B8008600870101170030E3000530E2006D086F
:1004C800E400FF39031D0030E5000130E60000308C
:1004D800E70097319A278131752A6D0886008701D0
:1004E800011704302000E8006808ED06EC187D2AA2
:1004F8007E2A852A6D0886008701811F842A852A1D
:10050800B12AD41B882A892A912A54080F39AC3E6B
:100518008600013087008110982A54080F39AF3EB1
:1005280086000130870081103B30E8006D088600A6
:100538008701680881050030E3000530E2006D0896
:10054800E400FF39031D0030E5000130E60000300B
:10055800E70097319A278131B82A3B30E8006D08C7
:100568008600870168088105200054080F39983EE5
:10057800E800E9010E30E93D6808EA006908EB0087
:10058800FE30E8006A0886006B0887006808810565
:10059800080023005103031DD22AD32AE12A3D0073
:1005A8008E1AD72AD82AE12A90011214121602307C
:1005B8002100E40064082300D1003D00101DE52A55
:1005C800E62AF32A121DE92AEA2AF32AFB30210037
:1005D800E40064083D0090059631BD2682313D0057
:1005E8008E1CF72AF82AFB2A20001211F12B101C66
:1005F800FE2AFF2A132B121C022B032B132B8631E6
:10060800E4268231210012150430E4006408230036
:10061800D100FE302100E40064083D009005101E62
:10062800162B172B242B121E1A2B1B2B242B96311F
:100638009E268231EF302100E40064083D009005D9
:10064800101F272B282B522B121F2B2B2C2B3C2B0C
:1006580073302000E2000030E3000030E400003096
:10066800E5000130E6000030E70097319A27823133
:10067800BF302100E40064083D00900523004908CC
:100688000319472B482B4A2B0130C9024908031D7F
:100698004E2B4F2B522B8C31832482313D00901EE0
:1006A800562B572B5E2B921E5A2B5B2B5E2B9731AA
:1006B8006E2782313D00901C622B632B792B921C94
:1006C800662B672B792BFF302000E2007F30E30098
:1006D8000030E4000030E5000130E6000030E700BB
:1006E80097319A2782313D0093010430230051024B
:1006F80003187F2B802B832B20001211F12B3D0038
:10070800921D872B882BEF2B2100E6013D00901DC1
:100718008E2B8F2BEF2B0F082100E4006408EC00D0
:100728006C0CE400E40C640C0F39E5006508230048
:10073800CB00F7302100E40064083D00900521005B
:100748006C19A72BA82BBA2B23004B08AC3E8600AC
:1007580001308700010801392100E4000130E40676
:1007680001086406FE3964068100CB2B23004B0880
:10077800AF3E860001308700010801392100E400FE
:100788000130E40601086406FE396406810023008E
:100798004B08031DD02BD12BD52B8C31F62482315D
:1007A800E42B72302000E2000030E300EC30E4007B
:1007B8000030E5000030E600E70097319A278231E3
:1007C80001302100E4006408E60704306602031CD7
:1007D800EE2BEF2B8A2B200012110800210012119A
:1007E80023003F080319F92BFA2B082C3F08860031
:1007F8008701010D010D01392200E600E7016608B5
:10080800E8006708E9000B2C2200E801E901680804
:1008180069040319102C112C142C21001215E32C37
:10082800033023005006031D1A2C1B2C1C2CD0014E
:100838005008031D202C212C242C21001215E32CF8
:1008480002305006031D292C2A2C422C2200E001DC
:10085800E00A0030E1000030E200E30102308D31AF
:100868006C2583312200E60066082300BF000330B0
:100878002200E60066082300D000E12C5003031D87
:10088800462C472CE12C41304202031C4C2C4D2CA9
:10089800532C40302200E6006608EB00582C420832
:1008A8002200E6006608EB006B08230042022200E3
:1008B800E60066082300C200A0302200E6006608B1
:1008C8002300B80022006B08E6006608EA0023004F
:1008D8004108031D702C712CAF2C8D2C23003A0875
:1008E80084003B08850000082200E6002300380841
:1008F800860087012200660881000130E60066084C
:100908002300B8070130BA070030BB3D0130220090
:10091800EA0222006A08031D922C932C722CB52C33
:1009280023003A0884003B08850000082200E600FE
:1009380023003808860087012200660881000130FC
:10094800E60066082300B8070130BA070030BB3D4F
:1009580001302200EA0222006A08031DB42CB52CDB
:10096800942C23004208031DBA2CBB2CCD2C4030FC
:1009780022006B06031DC12CC22CC82C0230E600D5
:1009880066082300D000CD2C0330E600660823005B
:10099800D0002200E001E00AA030E1000030E200CF
:1009A8006B08E6006608E30002308D316C25833160
:1009B8002200E70067082300BF0021001215080085
:1009C800220068082300D900220067082300D80005
:1009D8000130D5000030D6000D2D22006B08E10053
:1009E8006A08E000230059082200E30023005808A1
:1009F8002200E2008831BA208431220061082300F5
:100A0800D900220060082300D8000130D507003043
:100A1800D63D22006B0823005902031D172D220022
:100A28006A082300580203181A2D1B2DF12C2200E6
:100A38006908230055072200EC006C082300D70042
:100A4800220068082300D900220067082300D80084
:100A58005708860001308700810101302300D70242
:100A680022006B08E1006A08E00023005908220010
:100A7800E300230058082200E20088317F208431F7
:100A880022006008303EEC00230057088600013041
:100A9800870022006C088100230057088600013077
:100AA80087003A300102031C5A2D5B2D772D220056
:100AB8006B08E1006A08E000230059082200E300FF
:100AC800230058082200E20088317F208431220068
:100AD8006008373EEC002300570886000130870085
:100AE80022006C08810022006B08E1006A08E0001F
:100AF800230059082200E300230058082200E200DE
:100B08008831BA208431220061082300D9002200EC
:100B180060082300D800570822006906031D952D98
:100B2800962D312D0800210012113D0093019001EE
:100B380098010E302200E1009930E000E2016008DF
:100B480086006108870081010130E0070030E13D3F
:100B580001302100E70067082200E2070230620244
:100B6800031CB72DB82DA32D16303D0091009F30E2
:100B780097007B3092002200E30163082100E70020
:100B88000130E735FF3E031DC52D6735203E860041
:100B980087010030C03F0030C13FC23FC33F013032
:100BA800E70067082200E3070C306302031CDD2D11
:100BB800DE2DC12D3D000E1796010E120E13EF2DDE
:100BC800F7302100E70067083D0090052300A901E0
:100BD800A201A301A4013D009019F32DF42DE42DE9
:100BE80001302100E70067082300C7000130210019
:100BF800E70067082300C600C501C401CC01220034
:100C0800E3016308B23E8600013087008101630872
:100C1800B53E86000130870081016308AF3E86003B
:100C28000130870081016308AC3E860001308700EF
:100C3800810101302100E70067082200E307033043
:100C48006302031C282E292E052E28302100E700D8
:100C580067082300B20016303D00980000302000DD
:100C6800A3005030A2000830A10004302100E700A2
:100C780067082000A000A0172300D401D1010800B4
:100C880021006B0886008701413FF5007508F200D6
:100C9800F301730823002402031D542E7208230253
:100CA8000318572E582E5C2E2308F2007208F50000
:100CB8007508F200F3017208A3027308A43BF4015B
:100CC800792E7408583E860087010108F200200832
:100CD800860002308700720881000130F200720835
:100CE800A0070130F2007208F40775087402031CAB
:100CF8007E2E7F2E652E230824040319842E852E2C
:100D0800B82E0830F20021006A0A860087017208AE
:100D180081005830F2000030F3006A08023E860075
:100D280087017208C03F7308C13F6B0886008701BE
:100D3800011B9F2EA02EAC2E4830F2006A088600B8
:100D48008701720881006A08860087018117E32EEF
:100D58000830F2006A0886008701720881006A0874
:100D6800860087018117E32E0830F20021006A0A05
:100D780086008701720881005030F2000030F300CD
:100D88006A08023E860087017208C03F7308C13FA7
:100D98000430F2006A0886008701720881006A0838
:100DA800860087018117230025082608A213480812
:100DB800031DDF2EE02EE32E8C31832486310800BC
:100DC800210012113D009301900198010E30F200AC
:100DD8009930F100F30171088600720887008101DB
:100DE8000130F1070030F23D0130F0007008F307E0
:100DF80002307302031C012F022FEF2E16303D0024
:100E080091009F3097007B309200F4017408F00045
:100E18000130F035FF3E031D0D2F7035203E860052
:100E280087010030C03F0030C13FC23FC33F01309F
:100E3800F0007008F4070C307402031C242F252FCF
:100E48000A2F3D000E1796010E120E13342FF7309D
:100E5800F000700890052300A901A201A301A401D4
:100E68003D009019382F392F2B2F0130F0007008D2
:100E78002300C7000130F0007008C600C501C40196
:100E8800CC01F4017408B23E86000130870081016C
:100E98007408B53E86000130870081017408AF3EB2
:100EA80086000130870081017408AC3E860001305D
:100EB800870081010130F0007008F40703307402E4
:100EC800031C672F682F462F2830F0007008230076
:100ED800B20016303D00980000302000A3005030CA
:100EE800A2000830A1000430F0007008A000A0178C
:100EF8002300D401D10108002000500E890C0339C9
:100F0800003A0319882F892FDC2FFF2F2300A917F8
:100F180008302000EE006E082300D100FF2F8E312C
:100F28005A268731FF2F8E31DD268731FF2FD430A7
:100F38002300A7000130A800291401302000EE008A
:100F48006E082300AA00A917FF2F8A3123228731B0
:100F5800FF2F81318C218731FF2F5408D23E230087
:100F6800A7000130A800291401302000EE006E0807
:100F78002300AA00A917FF2F2300A9172000520851
:100F8800EE005408D23E8600013087006E088100CA
:100F9800FF2F0030E3000230E2000030E4000030B0
:100FA800E5000030E600E70097319A278731FF2FE8
:100FB8005108003A0319A92F013A0319AD2F023A33
:100FC8000319AD2F063A03198A2F033A0319932FF1
:100FD800013A0319CD2F0F3A03199B2F013A031930
:100FE800972F033A0319B12F013A0319C02F073A73
:080FF8000319FF2FFF2F080071
:101004002100E7006708003A03190F28013A031981
:101014000F28033A03190F280F280800FF30240073
:101024009100141C16281728132811082200E20026
:10103400E3016208E5006308E600FF302400910044
:10104400141C25282628222811082200E200E30186
:101054006208E7006308E8006608E3006508E20048
:101064006208E300E2016208E9006308EA00670835
:101074006907E90068086A3DEA006A08E10069084E
:10108400E000080000302400B9000030B8004B3004
:10109400B7000030B600BA01BB0108302000E00000
:1010A40060082400BC002300C3011A302000E000C3
:1010B4006008F70001309731222788311E30200064
:1010C400E0006008F7000230973122278831F001F0
:1010D4002030F1000130F20040302000E0006008D0
:1010E400F30002308A317E2288312000E100610859
:1010F4002300C000BF01D001080022006008610481
:10110400031985288628B4282100E801E80A9428D0
:101114000130E035E10D890B8B2801302100E70017
:101124006708E8072200E11F982899288A282200E6
:1011340061086302031DA02860086202031CA3283F
:10114400A428A8286008E2026108E33B0130E136E4
:10115400E00C890BA92801302100E802031DB32803
:10116400B428992822006308E1006208E00008001E
:101174002200E501E601600861040319C228C328BE
:10118400F428E401E40AD1280130E035E10D890BAB
:10119400C72801302100E70067082200E407E11FA7
:1011A400D428D528C6280130E535E60D890BD62884
:1011B40061086302031DE02860086202031CE3283F
:1011C400E428E9286008E2026108E33B6514013081
:1011D400E136E00C890BEA280130E402031DF32810
:1011E400F428D5286608E1006508E000080021001D
:1011F4001211230050080319002901290429210090
:10120400121537292200E7016108E6006008E500AD
:101214000130E2006208E707670A031D1229132957
:10122400142924296608E3006508E200E50A031985
:10123400E60A62088400630885001200031D23295E
:1012440024290A2961082300BB0022006008230026
:10125400BA0022006708E20062082300C200C1014C
:10126400C10AD001D00A210012150800F50020306F
:10127400F1007108F6007008F1000130F135890BB6
:1012840040297508F2000130F235FF3E031D46295E
:1012940072357107F3000130F335FF3E031D4E290B
:1012A4007335F4007408F607760886008701811305
:1012B4007008031D5E295F2969297608F100750805
:1012C400B53E8600013087007108810072297608D6
:1012D400F1007508B23E8600013087007108810074
:1012E40076088600870101137608043E860087018C
:1012F400011708002300CF01C801C501C401CA01B8
:101304002100E9017F302000EF002300320886002D
:10131400870120006F0881050430EF006F08230067
:10132400B2067F302000EF002300320886008701D8
:1013340020006F0881050430EF006F082300B20617
:101344007F302000EF0021006A088600870120001A
:101354006F0881052300A901AA01AB01A201A30121
:10136400A40187318027893100302000E300033055
:10137400E2000030E4000030E5000030E600E70061
:1013840097319A2789318F316B27893108002300DF
:10139400C501C401023021006906031DD229D329E5
:1013A400F2290830F3006A0A860087017308810075
:1013B4005830F3000030F4006A08023E86008701CA
:1013C4007308C03F7408C13F4830F3006A088600C0
:1013D4008701730881006A08860087018117222A21
:1013E40023002B0820005702031DFC2923002A0890
:1013F400200056020318FF29002A072A5708230051
:10140400AB00200056082300AA008C311124893136
:101414005830F3000030F40023003208023E860006
:1014240087017308C03F7408C13F4830F300320895
:1014340086008701730881003208860087018117BE
:1014440008002000D801D901632A2300A9174D03FD
:10145400031D2D2A2E2A6F2A2000D8146F2A230058
:10146400A9176F2A2300A9172000D41B3A2A3B2A64
:10147400462A54080F39B53E86000130870001081A
:10148400F0007008F100502A54080F39B23E86006B
:10149400013087000108F0007008F100710886002F
:1014A4008701811F562A572A6F2A710886008701EF
:1014B400011D5D2A5E2A6F2A0130F0007008D800F1
:1014C4006F2A50081F39003A0319272A013A0319D1
:1014D400312A033A0319342A6F2A2300A91F732AD5
:1014E400742A7D2A5830A7000030A800291402303D
:1014F400F0007008AA000800F60070080319832A97
:10150400842A8E2A7608B23E8600013087000108BC
:10151400F4007408F700972A7608B53E8600013077
:1015240087000108F4007408F7007708031D9B2A5C
:101534009C2A9E2A0030DB2AFF307105F4007F309C
:101544007205F5007708023E860087017408C03FE3
:101554007508C13F7308F400770A86008701740890
:1015640081004030F4007708860087017408810503
:10157400770886008701811577088600870181171F
:1015840070080319C62AC72AD12A0430F400760841
:10159400B23E86000130870074088106DA2A0430DE
:1015A400F4007608B53E8600013087007408810691
:1015B400770808002200E501E11FE12AE22AE92A6E
:1015C400E009E109E00A0319E10AE501E50AE31F7C
:1015D400EC2AED2AF82AE209E309E20A0319E30AEC
:1015E40001302100E70067082200E506E601E70173
:1015F400600861040319FF2A002B312BE401E40A7B
:101604000E2B0130E035E10D890B042B0130210054
:10161400E70067082200E407E11F112B122B032BBC
:101624000130E635E70D890B132B61086302031DB6
:101634001D2B60086202031C202B212B262B600823
:10164400E2026108E33B66140130E136E00C890BE9
:10165400272B0130E402031D302B312B122B65089C
:101664000319352B362B3B2BE609E709E60A031948
:10167400E70A6708E1006608E00008002000500857
:101684001F39013A0319472B482B492BA52B500E20
:10169400890C0339013A0319502B512B522BA52BDA
:1016A40054080319562B572B942B540303195B2B03
:1016B4005C2B942BA52B2E302300A7000230A8000E
:1016C4000030AB000830AA002914A917A52B2E302E
:1016D4002300A7000230A800A917A52B5708230050
:1016E400A400200056082300A3003630F000700840
:1016F400A000A501A601A217A52B36302300A70040
:101704000230A8000030AB000730AA00C130F0005E
:101714007008A900A52B5208F00070082300BE0031
:10172400A917A52B5108003A03195D2B013A031997
:10173400692B213A0319702B013A03197F2B033AC1
:1017440003198D2BA52B08002200E9002300C301F7
:1017540040080319AE2BAF2BBD2B40088600870130
:10176400010D010D01392200E700E8016708EA00D4
:101774006808EB00C02B2200EA01EB016A086B0445
:10178400031DC52BC62B0E2C2300400A860087019F
:101794002200660801020318D02BD12BD82B23007A
:1017A400400886008701413F2200E6002300C30170
:1017B400F32B4308203E86000130870001082200F5
:1017C400E7002300430822006907E8006808860050
:1017D40002308700670881000130E70067082300B2
:1017E400C3072200660823004302031CFA2BFB2BC9
:1017F400DB2B2200E0012030E1000130E200403028
:10180400E7006708E30002308D316C258B3122003C
:10181400E80068082300C0002300430808000830DB
:10182400F0007008F200003023002B020830031986
:101834002A0203181E2C1F2C362C2A08F0007008CC
:10184400F2004F08031D272C282C2D2C0130F0000A
:101854007008CF00362C4F03031D312C322C362C4C
:101864000230F0007008CF007208F000F101700837
:10187400AA027108AB3B7208F000320A86008701A5
:10188400700881005830F0007008CE0029184B2CE5
:101894004C2C7D2C622C2708840028088500000825
:1018A400F0004E0886008701700881000130A70708
:1018B4000030A83D0130F0007008CE070130F2027C
:1018C4007208031D662C672C4D2C822C270884007B
:1018D400280885000008F0004E088600870170087B
:1018E40081000130A7070030A83D0130F0007008E6
:1018F400CE070130F2027208031D812C822C682C61
:10190400080023004708031D882C892CF52C01307E
:10191400F0007008C7004608031D912C922CF52C8A
:101924000130F0007008C600023021006906031D72
:101934009C2C9D2CAE2C2300320A86008701810149
:101944004830F000320886008701700881003208B0
:10195400860087018117F52C6903031DB22CB32C73
:10196400F52C2300CA010830F00021006B0A860020
:101974008701700881005030F0000030F1006B08DE
:10198400023E860087017008C03F7108C13F0430E1
:10199400F0006B0886008701700881006B088600E0
:1019A400870181170130F00070082300CA00083055
:1019B400F00021006A0A8600870170088100503017
:1019C400F0000030F1006A08023E860087017008CA
:1019D400C03F7108C13F8030F0006A08860087016B
:1019E40070088100F52C08002D302100E00060080B
:1019F4002300C90021006C08FD39031D022D032DAD
:101A04005F2D6C363F39E0000130E035FF3E031DA9
:101A1400072D6035203EE1006108EB006B08E00013
:101A24006008EA000430E0006008EA066B088600FB
:101A34008701010C890C0F390D3A031D222D232D2A
:101A44005B2DE3016B08023E86008701403FE00006
:101A5400413FE10060088600610887000108E20058
:101A64006308503E86008701620881006B08023ECD
:101A7400860087010130810741310318810A013052
:101A8400E0006008E30708306302031C4A2D4B2D75
:101A9400242D5030E0000030E1006B08023E860047
:101AA40087016008C03F6108C13F89317C218C31C6
:101AB4006B2D9731CC278C316B2DFD306C05E000FC
:101AC40004306006031D672D682D6B2D8D31E225D2
:101AD4008C3108002200E40060080319722D732D74
:101AE4007F2D6408B23E8600013087000108210082
:101AF400E70067082200E5008A2D6408B53E8600E9
:101B04000130870001082100E70067082200E50092
:101B14006508031D8E2D8F2D912D0030E12DFF3092
:101B240061052100E7007F30220062052100E80002
:101B340022006508023E8600870121006708C03F35
:101B44006808C13F220063082100E7002200650AFB
:101B5400860087012100670881004030E7002200E9
:101B64006508860087012100670881052200650851
:101B74008600870181156508860087018117600842
:101B84000319C52DC62DD32D04302100E7002200F2
:101B94006408B23E86000130870021006708810690
:101BA400DF2D04302100E70022006408B53E8600E2
:101BB40001308700210067088106220065080800BB
:101BC40023003208860087010030011B0130F50034
:101BD4000430F3007308B20608305106031DF32DD8
:101BE400F42D092E200052087F393D009600160876
:101BF4000319FD2DFE2D042E1030F300730823006D
:101C0400D100092E0430F30073082300D100210011
:101C14006903031D0E2E0F2E4F2E5830F300003093
:101C2400F40023003208023E860087017308C03F97
:101C34007408C13F8C3111248D31023023004F06CA
:101C4400031D252E262E322E0430F3003208860082
:101C54008701730881003208860087018117592E95
:101C64007508031D362E372E432E4830F3003208F4
:101C74008600870173088100320886008701811776
:101C8400592E0830F300320886008701730881005A
:101C94003208860087018117592E2300A21F532E74
:101CA400542E572E25082608A2132100E901080006
:101CB400803020005006031D602E612EDC2EC030C3
:101CC400F00070082300A900D02E00302300A700E4
:101CD4009830A8000030AB001230AA00DC2E520865
:101CE400031D752E762EA52E5208F000F101F03555
:101CF400F10D2130700784009830713D8500003F5C
:101D04002300A700013FA8002808F1002708F000DD
:101D140002307007840071080318710A85000008F6
:101D2400F2007208AA002808F1002708F000033026
:101D34007007840071080318710A85000008F20016
:101D44007208AB00DC2E2300A901DC2E0330520202
:101D54000318AD2EAE2ECA2E5208F000F101F03554
:101D6400F10D1B30700784009830713D8500003FF1
:101D74002300A700013FA800270884002808850045
:101D84000008F000F1017008AA007108AB00DC2E15
:101D94002300A901DC2E2300A901DC2E2000530816
:101DA400013A0319672E033A0319712E013A0319F4
:101DB400A82ECD2E08002300A9170E302000EA001B
:101DC4009930E900EB01690886006A0887008101FF
:101DD4000130E9070030EA3D0130E8006808EB070C
:101DE40002306B02031CF72EF82EE52E2030F00093
:101DF4000030F1000030F200F3003030F400003025
:101E0400F500963148268E313D000E172000EC0176
:101E14006C08AF3E86000130870081016C08AC3E3F
:101E240086000130870081010130E8006808EC0772
:101E340003306C02031C1F2F202F0A2FD230F00016
:101E44000130F1000030F200F3000230F400003001
:101E5400F500963148268E313D000E1328302000BF
:101E6400E80068082300B20020302000E800680879
:101E74002100EB006B082000E80068082100EA005C
:101E840020005208E80068082300D4005408031D09
:101E94004C2F4D2F542F10302000E80068082300E9
:101EA400D1006A2F00302000E3000130E200D4307A
:101EB400E4000130E5000130E6000030E70097312E
:101EC4009A278E3120302000E80068082300D100D2
:101ED40008003D000E122300A91B712F722FB42F8E
:101EE400A21F752F762F882F0230F5007508210068
:101EF400E90023004408031D802F812F842F89319A
:101F0400C9218F312300C601C701FF2F0830F50016
:101F140021006A0A86008701750881005030F500A7
:101F24000030F6006A08023E860087017508C03F4B
:101F34007608C13F0C30F5006A08860087017508F1
:101F440081006A088600870181170430F5002300A8
:101F540032088600870175088100320886008701EF
:101F64008117FF2F2000D01FB82FB92FD32F013096
:101F7400F50075082100E90023004508031DC32F5F
:101F8400C42FC72F8931C9218F312300C601C7014E
:101F94004808031DCE2FCF2FFF2F8C3183248F3180
:101FA400FF2F0230F50075082100E9000830F50024
:101FB4006A0A86008701750881005030F5000030F8
:101FC400F6006A08023E860087017508C03F76085D
:101FD400C13F0430F5006A08860087017508810056
:101FE4006A088600870181172300C601C7014808D3
:101FF400031DFD2FFE2FFF2FCF2F080009340234BD
:1020040043340034023401340034C03432340934EB
:102014000434003400340134023402340134003412
:1020240005342434003410340134043424340234A8
:1020340002340534243406340034013405342434A1
:102044000134003401340734053481340334083452
:1020540000340234093404340134003402340A34C0
:10206400003400340034073405340234023440347C
:1020740000340034073405348234023440340034EC
:1020840000343434033443340034443400344334AB
:1020940000342034003452340034533400342D34AA
:1020A40000343234003433340034323400342034D5
:1020B4000034453400346D340034753400346C34E9
:1020C40000346134003474340034693400346F34BF
:1020D40000346E3400342034003444340034653425
:1020E40000346D3400346F340034343403344D34EC
:1020F40000346934003463340034723400346F348F
:102104000034633400346834003469340034703487
:1021140000342034003454340034653400346334DF
:102124000034683400346E3400346F3400346C345A
:1021340000346F340034673400347934003420348C
:102144000034493400346E340034633400342E34A3
:02215400003455
:102BB2002400940122309500080064008001013154
:102BC200890BDF2D00348831442095312400BA016D
:102BD2000830FD007D08BC00BB010030B9000030A8
:102BE200B8002530B7008030B60008002100E700A9
:102BF200FE2D0E11092E8E11092E6708003A0319B7
:102C0200092E013A0319FA2D033A0319FC2D092E54
:102C120008002200600804392100E700670822004A
:102C2200E20062082100E700E80167082200E000F4
:102C3200210068082200E100080023008C018D01B8
:102C42008E0121000C168C160D160D130E118E110D
:102C52000E128E128E1322000E118E110E168E1669
:102C620008002200E100E0013C2E01302100E700D3
:102C720067082200E0076108860001308700E10A48
:102C82000108031D452E462E362E600808007108E5
:102C9200F7007008F600572E76088600770887003E
:102CA200720881000130F6070030F73D0130F4026E
:102CB2000030F53B740A031D622E750A031D622E55
:102CC200632E4D2E08002100E80012112300500847
:102CD200031D6C2E6D2E7E2E210068082300BA0083
:102CE2000330BB00220060082100E70067082300D0
:102CF200C200C101C10AD001D00A21001215080088
:102D02002100E800922EFC309900903027009B00B1
:102D120001309531F7259631013088310220963104
:102D22009D2E6808003A0319842E013A03199D2E3C
:102D3200033A03199D2E9D2E08003D001215EF3017
:102D42002000E80068083D0090058E140130200044
:102D5200E80068082300CC0075302000E200003053
:102D6200E3000030E4000030E5000030E600E70058
:102D720097319A27963108002300CC017430200045
:102D8200E2000030E3000030E4000030E5000030F3
:102D9200E600E70097319A2796313D008E10121116
:102DA200D82EFB302000E80068083D00900510197D
:102DB200DB2EDC2ED22E080023005108031DE22E4A
:102DC200E32EFD2E3D008E019201163091009F30C0
:102DD20097007B309200210012150B178B17F22EF1
:102DE2008E153D008E1DF62EF72EF12E013021009C
:102DF200E70067082300D1000800003096318126E1
:102E020096318531972596319631DD269631963168
:102E12001E2696319531D925963120302300510254
:102E22000318142F152F162F0E2F3D008E1C1A2F4C
:102E32001B2F1C2F0E2F8031362096310E2F803102
:102E42000B28FC00771D262F272F2C2FF0017C0842
:102E5200893138219731F71C2F2F302F362FF0016F
:102E6200F00A7C088931382197317C08983EF800B5
:102E7200F9010E30F93D7808FA007908FB007A086A
:102E820086007B0887007708810008002200690815
:102E9200EB006808EA006B0DEB0CEA0C6B0DEB0C17
:102EA200EA0C6B0DEB0CEA0C6A08EC006B08ED0007
:102EB2000430E0000030E1006D08E3006C08E2003D
:102EC2008A31DC22973122006108EF006008EE00AF
:102ED2006F08E9006E08E80008003D00181C722F18
:102EE200732F952F21006B08860087018030010621
:102EF200031D7C2F7D2F932F23003208860087012C
:102F020084300106031D862F872F932F0C30F0008B
:102F120021006B0886008701700881006B0886001B
:102F2200870181173D001810DF30F000700890050E
:102F32000800A32F9531E4259731CB2F8B31402305
:102F42009731CB2F20006308003A0319AC2F7F3A48
:102F52000319C62FCB2F6208013A03199B2F033A9C
:102F62000319CB2F013A03199F2F063A0319CB2FCE
:102F7200773A0319CB2F013A0319CB2F073A0319DA
:102F8200CB2F013A0319CB2FCB2F6208FF3A03193B
:102F9200CB2FCB2F0800023021006906031DD22F50
:102FA200D32FD72F863144269731FF2FE9012300F3
:102FB2004A08031DDD2FDE2FFE2F0830F600210008
:102FC2006A0A86008701760881005030F6000030D8
:102FD200F7006A08023E860087017608C03F77083C
:102FE200C13F0C30F6006A0886008701760881002E
:102FF2006A08860087018117FF2FCA010800123470
:103002000134003402340234003400340834D83439
:1030120004340A34003400340134013402340034FC
:10302200013404340334093404344E3443340D344B
:103032000A34003412349834773490344334903460
:043042000034903492
:020000040001F9
:04000E00A40FCF1F4D
:00000001FF
