

Microchip MPLAB XC8 Assembler V2.20 build 20200408173844 
                                                                                               Wed Feb 23 16:40:27 2022

Microchip MPLAB XC8 C Compiler v2.20 (Free license) build 20200408173844 Og1 
     1                           	processor	16F1459
     2                           	pagewidth 120
     3                           	opt	flic
     4                           	psect	stringtext1,global,class=STRCODE,delta=2,noexec
     5                           	psect	stringtext2,global,class=STRCODE,delta=2,noexec
     6                           	psect	stringtext3,global,class=STRCODE,delta=2,noexec
     7                           	psect	stringtext4,global,class=STRCODE,delta=2,noexec
     8                           	psect	stringtext5,global,class=STRCODE,delta=2,noexec
     9                           	psect	stringtext6,global,class=STRCODE,delta=2,noexec
    10                           	psect	stringtext7,global,class=STRCODE,delta=2,noexec
    11                           	psect	nvBANK3,global,class=BANK3,space=1,delta=1,noexec
    12                           	psect	stringtext8,global,class=STRCODE,delta=2,noexec
    13                           	psect	stringtext9,global,class=STRCODE,delta=2,noexec
    14                           	psect	cinit,global,class=CODE,merge=1,delta=2
    15                           	psect	bssBANK1,global,class=BANK1,space=1,delta=1,noexec
    16                           	psect	bssBANK3,global,class=BANK3,space=1,delta=1,noexec
    17                           	psect	bssBANK4,global,class=BANK4,space=1,delta=1,noexec
    18                           	psect	bssBANK5,global,class=BANK5,space=1,delta=1,noexec
    19                           	psect	bssBANK6,global,class=BANK6,space=1,delta=1,noexec
    20                           	psect	clrtext,global,class=CODE,delta=2
    21                           	psect	cstackBANK3,global,class=BANK3,space=1,delta=1,noexec
    22                           	psect	cstackBANK2,global,class=BANK2,space=1,delta=1,noexec
    23                           	psect	cstackBANK1,global,class=BANK1,space=1,delta=1,noexec
    24                           	psect	cstackCOMMON,global,class=COMMON,space=1,delta=1,noexec
    25                           	psect	cstackBANK0,global,class=BANK0,space=1,delta=1,noexec
    26                           	psect	maintext,global,class=CODE,merge=1,split=1,delta=2
    27                           	psect	text1,local,class=CODE,merge=1,delta=2
    28                           	psect	text2,local,class=CODE,merge=1,delta=2
    29                           	psect	text3,local,class=CODE,merge=1,delta=2
    30                           	psect	text4,local,class=CODE,merge=1,delta=2
    31                           	psect	text5,local,class=CODE,merge=1,delta=2
    32                           	psect	text6,local,class=CODE,merge=1,delta=2
    33                           	psect	text7,local,class=CODE,merge=1,delta=2
    34                           	psect	text8,local,class=CODE,merge=1,delta=2
    35                           	psect	text9,local,class=CODE,merge=1,delta=2
    36                           	psect	text10,local,class=CODE,merge=1,delta=2
    37                           	psect	text11,local,class=CODE,merge=1,delta=2
    38                           	psect	text12,local,class=CODE,merge=1,delta=2
    39                           	psect	text13,local,class=CODE,merge=1,delta=2
    40                           	psect	text14,local,class=CODE,merge=1,delta=2
    41                           	psect	text15,local,class=CODE,merge=1,delta=2
    42                           	psect	text16,local,class=CODE,merge=1,delta=2
    43                           	psect	text17,local,class=CODE,merge=1,delta=2
    44                           	psect	text18,local,class=CODE,merge=1,delta=2,group=1
    45                           	psect	text19,local,class=CODE,merge=1,delta=2,group=1
    46                           	psect	text20,local,class=CODE,merge=1,delta=2
    47                           	psect	text21,local,class=CODE,merge=1,delta=2
    48                           	psect	text22,local,class=CODE,merge=1,delta=2,group=1
    49                           	psect	text23,local,class=CODE,merge=1,delta=2
    50                           	psect	text24,local,class=CODE,merge=1,delta=2
    51                           	psect	text25,local,class=CODE,merge=1,delta=2
    52                           	psect	text26,local,class=CODE,merge=1,delta=2
    53                           	psect	intentry,global,class=CODE,delta=2
    54                           	psect	text28,local,class=CODE,merge=1,delta=2
    55                           	psect	text29,local,class=CODE,merge=1,delta=2
    56                           	psect	text30,local,class=CODE,merge=1,delta=2
    57                           	psect	text31,local,class=CODE,merge=1,delta=2
    58                           	psect	text32,local,class=CODE,merge=1,delta=2
    59                           	psect	text33,local,class=CODE,merge=1,delta=2
    60                           	psect	text34,local,class=CODE,merge=1,delta=2
    61                           	psect	text35,local,class=CODE,merge=1,delta=2
    62                           	psect	text36,local,class=CODE,merge=1,delta=2
    63                           	psect	text37,local,class=CODE,merge=1,delta=2
    64                           	psect	text38,local,class=CODE,merge=1,delta=2
    65                           	psect	text39,local,class=CODE,merge=1,delta=2
    66                           	psect	text40,local,class=CODE,merge=1,delta=2,group=2
    67                           	psect	text41,local,class=CODE,merge=1,delta=2
    68                           	psect	text42,local,class=CODE,merge=1,delta=2
    69                           	psect	text43,local,class=CODE,merge=1,delta=2
    70                           	psect	text44,local,class=CODE,merge=1,delta=2
    71                           	psect	text45,local,class=CODE,merge=1,delta=2
    72                           	psect	text46,local,class=CODE,merge=1,delta=2
    73                           	psect	text47,local,class=CODE,merge=1,delta=2
    74                           	psect	text48,local,class=CODE,merge=1,delta=2
    75                           	psect	text49,local,class=CODE,merge=1,delta=2
    76                           	psect	text50,local,class=CODE,merge=1,delta=2
    77                           	psect	text51,local,class=CODE,merge=1,delta=2
    78                           	psect	text52,local,class=CODE,merge=1,delta=2
    79                           	psect	text53,local,class=CODE,merge=1,delta=2
    80                           	psect	text54,local,class=CODE,merge=1,delta=2
    81                           	psect	text55,local,class=CODE,merge=1,delta=2
    82                           	psect	config,global,abs,ovrld,class=CONFIG,space=4,delta=2,noexec
    83                           	dabs	1,0x20,48,_BDT
    84                           	dabs	1,0x58,8,_CtrlTrfData
    85                           	dabs	1,0x50,8,_SetupPkt
    86                           	dabs	1,0xA0,64,_cdc_data_tx
    87                           	dabs	1,0x120,64,_cdc_data_rx
    88                           	dabs	1,0x7E,2
    89  0000                     
    90                           ; Version 2.20
    91                           ; Generated 12/02/2020 GMT
    92                           ; 
    93                           ; Copyright © 2020, Microchip Technology Inc. and its subsidiaries ("Microchip")
    94                           ; All rights reserved.
    95                           ; 
    96                           ; This software is developed by Microchip Technology Inc. and its subsidiaries ("Microch
      +                          ip").
    97                           ; 
    98                           ; Redistribution and use in source and binary forms, with or without modification, are
    99                           ; permitted provided that the following conditions are met:
   100                           ; 
   101                           ;     1. Redistributions of source code must retain the above copyright notice, this lis
      +                          t of
   102                           ;        conditions and the following disclaimer.
   103                           ; 
   104                           ;     2. Redistributions in binary form must reproduce the above copyright notice, this 
      +                          list
   105                           ;        of conditions and the following disclaimer in the documentation and/or other
   106                           ;        materials provided with the distribution.
   107                           ; 
   108                           ;     3. Microchip's name may not be used to endorse or promote products derived from th
      +                          is
   109                           ;        software without specific prior written permission.
   110                           ; 
   111                           ; THIS SOFTWARE IS PROVIDED BY MICROCHIP "AS IS" AND ANY EXPRESS OR IMPLIED WARRANTIES,
   112                           ; INCLUDING, BUT NOT LIMITED TO, THE IMPLIED WARRANTIES OF MERCHANTABILITY AND FITNESS F
      +                          OR
   113                           ; PURPOSE ARE DISCLAIMED.  IN NO EVENT SHALL MICROCHIP BE LIABLE FOR ANY DIRECT, INDIREC
      +                          T,
   114                           ; INCIDENTAL, SPECIAL, EXEMPLARY, OR CONSEQUENTIAL DAMAGES (INCLUDING BUT NOT LIMITED TO
   115                           ; PROCUREMENT OF SUBSTITUTE GOODS OR SERVICES; LOSS OF USE, DATA OR PROFITS; OR BUSINESS
   116                           ; INTERRUPTION) HOWSOEVER CAUSED AND ON ANY THEORY OF LIABILITY, WHETHER IN CONTRACT, ST
      +                          RICT
   117                           ; LIABILITY, OR TORT (INCLUDING NEGLIGENCE OR OTHERWISE) ARISING IN ANY WAY OUT OF THE U
      +                          SE OF
   118                           ; THIS SOFTWARE, EVEN IF ADVISED OF THE POSSIBILITY OF SUCH DAMAGE.
   119                           ; 
   120                           ; 
   121                           ; Code-generator required, PIC16F1459 Definitions
   122                           ; 
   123                           ; SFR Addresses
   124  0000                     	;# 
   125  0001                     	;# 
   126  0002                     	;# 
   127  0003                     	;# 
   128  0004                     	;# 
   129  0005                     	;# 
   130  0006                     	;# 
   131  0007                     	;# 
   132  0008                     	;# 
   133  0009                     	;# 
   134  000A                     	;# 
   135  000B                     	;# 
   136  000C                     	;# 
   137  000D                     	;# 
   138  000E                     	;# 
   139  0011                     	;# 
   140  0012                     	;# 
   141  0015                     	;# 
   142  0016                     	;# 
   143  0016                     	;# 
   144  0017                     	;# 
   145  0018                     	;# 
   146  0019                     	;# 
   147  001A                     	;# 
   148  001B                     	;# 
   149  001C                     	;# 
   150  008C                     	;# 
   151  008D                     	;# 
   152  008E                     	;# 
   153  0091                     	;# 
   154  0092                     	;# 
   155  0095                     	;# 
   156  0096                     	;# 
   157  0097                     	;# 
   158  0098                     	;# 
   159  0099                     	;# 
   160  009A                     	;# 
   161  009B                     	;# 
   162  009B                     	;# 
   163  009C                     	;# 
   164  009D                     	;# 
   165  009E                     	;# 
   166  009F                     	;# 
   167  010C                     	;# 
   168  010D                     	;# 
   169  010E                     	;# 
   170  0111                     	;# 
   171  0112                     	;# 
   172  0113                     	;# 
   173  0114                     	;# 
   174  0115                     	;# 
   175  0116                     	;# 
   176  0117                     	;# 
   177  0118                     	;# 
   178  0119                     	;# 
   179  011D                     	;# 
   180  018C                     	;# 
   181  018D                     	;# 
   182  018E                     	;# 
   183  0191                     	;# 
   184  0191                     	;# 
   185  0192                     	;# 
   186  0193                     	;# 
   187  0193                     	;# 
   188  0194                     	;# 
   189  0195                     	;# 
   190  0196                     	;# 
   191  0197                     	;# 
   192  0199                     	;# 
   193  019A                     	;# 
   194  019B                     	;# 
   195  019B                     	;# 
   196  019C                     	;# 
   197  019D                     	;# 
   198  019E                     	;# 
   199  019F                     	;# 
   200  020C                     	;# 
   201  020D                     	;# 
   202  0211                     	;# 
   203  0211                     	;# 
   204  0212                     	;# 
   205  0212                     	;# 
   206  0213                     	;# 
   207  0213                     	;# 
   208  0214                     	;# 
   209  0214                     	;# 
   210  0215                     	;# 
   211  0215                     	;# 
   212  0215                     	;# 
   213  0216                     	;# 
   214  0216                     	;# 
   215  0217                     	;# 
   216  0217                     	;# 
   217  0391                     	;# 
   218  0392                     	;# 
   219  0393                     	;# 
   220  0394                     	;# 
   221  0395                     	;# 
   222  0396                     	;# 
   223  039A                     	;# 
   224  039B                     	;# 
   225  0611                     	;# 
   226  0612                     	;# 
   227  0613                     	;# 
   228  0613                     	;# 
   229  0614                     	;# 
   230  0615                     	;# 
   231  0616                     	;# 
   232  0616                     	;# 
   233  0691                     	;# 
   234  0692                     	;# 
   235  0693                     	;# 
   236  0694                     	;# 
   237  0695                     	;# 
   238  0E8E                     	;# 
   239  0E8F                     	;# 
   240  0E90                     	;# 
   241  0E91                     	;# 
   242  0E92                     	;# 
   243  0E93                     	;# 
   244  0E94                     	;# 
   245  0E94                     	;# 
   246  0E95                     	;# 
   247  0E96                     	;# 
   248  0E97                     	;# 
   249  0E98                     	;# 
   250  0E99                     	;# 
   251  0E9A                     	;# 
   252  0E9B                     	;# 
   253  0E9C                     	;# 
   254  0E9D                     	;# 
   255  0E9E                     	;# 
   256  0E9F                     	;# 
   257  0FE4                     	;# 
   258  0FE5                     	;# 
   259  0FE6                     	;# 
   260  0FE7                     	;# 
   261  0FE8                     	;# 
   262  0FE9                     	;# 
   263  0FEA                     	;# 
   264  0FEB                     	;# 
   265  0FED                     	;# 
   266  0FEE                     	;# 
   267  0FEF                     	;# 
   268  0000                     	;# 
   269  0001                     	;# 
   270  0002                     	;# 
   271  0003                     	;# 
   272  0004                     	;# 
   273  0005                     	;# 
   274  0006                     	;# 
   275  0007                     	;# 
   276  0008                     	;# 
   277  0009                     	;# 
   278  000A                     	;# 
   279  000B                     	;# 
   280  000C                     	;# 
   281  000D                     	;# 
   282  000E                     	;# 
   283  0011                     	;# 
   284  0012                     	;# 
   285  0015                     	;# 
   286  0016                     	;# 
   287  0016                     	;# 
   288  0017                     	;# 
   289  0018                     	;# 
   290  0019                     	;# 
   291  001A                     	;# 
   292  001B                     	;# 
   293  001C                     	;# 
   294  008C                     	;# 
   295  008D                     	;# 
   296  008E                     	;# 
   297  0091                     	;# 
   298  0092                     	;# 
   299  0095                     	;# 
   300  0096                     	;# 
   301  0097                     	;# 
   302  0098                     	;# 
   303  0099                     	;# 
   304  009A                     	;# 
   305  009B                     	;# 
   306  009B                     	;# 
   307  009C                     	;# 
   308  009D                     	;# 
   309  009E                     	;# 
   310  009F                     	;# 
   311  010C                     	;# 
   312  010D                     	;# 
   313  010E                     	;# 
   314  0111                     	;# 
   315  0112                     	;# 
   316  0113                     	;# 
   317  0114                     	;# 
   318  0115                     	;# 
   319  0116                     	;# 
   320  0117                     	;# 
   321  0118                     	;# 
   322  0119                     	;# 
   323  011D                     	;# 
   324  018C                     	;# 
   325  018D                     	;# 
   326  018E                     	;# 
   327  0191                     	;# 
   328  0191                     	;# 
   329  0192                     	;# 
   330  0193                     	;# 
   331  0193                     	;# 
   332  0194                     	;# 
   333  0195                     	;# 
   334  0196                     	;# 
   335  0197                     	;# 
   336  0199                     	;# 
   337  019A                     	;# 
   338  019B                     	;# 
   339  019B                     	;# 
   340  019C                     	;# 
   341  019D                     	;# 
   342  019E                     	;# 
   343  019F                     	;# 
   344  020C                     	;# 
   345  020D                     	;# 
   346  0211                     	;# 
   347  0211                     	;# 
   348  0212                     	;# 
   349  0212                     	;# 
   350  0213                     	;# 
   351  0213                     	;# 
   352  0214                     	;# 
   353  0214                     	;# 
   354  0215                     	;# 
   355  0215                     	;# 
   356  0215                     	;# 
   357  0216                     	;# 
   358  0216                     	;# 
   359  0217                     	;# 
   360  0217                     	;# 
   361  0391                     	;# 
   362  0392                     	;# 
   363  0393                     	;# 
   364  0394                     	;# 
   365  0395                     	;# 
   366  0396                     	;# 
   367  039A                     	;# 
   368  039B                     	;# 
   369  0611                     	;# 
   370  0612                     	;# 
   371  0613                     	;# 
   372  0613                     	;# 
   373  0614                     	;# 
   374  0615                     	;# 
   375  0616                     	;# 
   376  0616                     	;# 
   377  0691                     	;# 
   378  0692                     	;# 
   379  0693                     	;# 
   380  0694                     	;# 
   381  0695                     	;# 
   382  0E8E                     	;# 
   383  0E8F                     	;# 
   384  0E90                     	;# 
   385  0E91                     	;# 
   386  0E92                     	;# 
   387  0E93                     	;# 
   388  0E94                     	;# 
   389  0E94                     	;# 
   390  0E95                     	;# 
   391  0E96                     	;# 
   392  0E97                     	;# 
   393  0E98                     	;# 
   394  0E99                     	;# 
   395  0E9A                     	;# 
   396  0E9B                     	;# 
   397  0E9C                     	;# 
   398  0E9D                     	;# 
   399  0E9E                     	;# 
   400  0E9F                     	;# 
   401  0FE4                     	;# 
   402  0FE5                     	;# 
   403  0FE6                     	;# 
   404  0FE7                     	;# 
   405  0FE8                     	;# 
   406  0FE9                     	;# 
   407  0FEA                     	;# 
   408  0FEB                     	;# 
   409  0FED                     	;# 
   410  0FEE                     	;# 
   411  0FEF                     	;# 
   412  0000                     	;# 
   413  0001                     	;# 
   414  0002                     	;# 
   415  0003                     	;# 
   416  0004                     	;# 
   417  0005                     	;# 
   418  0006                     	;# 
   419  0007                     	;# 
   420  0008                     	;# 
   421  0009                     	;# 
   422  000A                     	;# 
   423  000B                     	;# 
   424  000C                     	;# 
   425  000D                     	;# 
   426  000E                     	;# 
   427  0011                     	;# 
   428  0012                     	;# 
   429  0015                     	;# 
   430  0016                     	;# 
   431  0016                     	;# 
   432  0017                     	;# 
   433  0018                     	;# 
   434  0019                     	;# 
   435  001A                     	;# 
   436  001B                     	;# 
   437  001C                     	;# 
   438  008C                     	;# 
   439  008D                     	;# 
   440  008E                     	;# 
   441  0091                     	;# 
   442  0092                     	;# 
   443  0095                     	;# 
   444  0096                     	;# 
   445  0097                     	;# 
   446  0098                     	;# 
   447  0099                     	;# 
   448  009A                     	;# 
   449  009B                     	;# 
   450  009B                     	;# 
   451  009C                     	;# 
   452  009D                     	;# 
   453  009E                     	;# 
   454  009F                     	;# 
   455  010C                     	;# 
   456  010D                     	;# 
   457  010E                     	;# 
   458  0111                     	;# 
   459  0112                     	;# 
   460  0113                     	;# 
   461  0114                     	;# 
   462  0115                     	;# 
   463  0116                     	;# 
   464  0117                     	;# 
   465  0118                     	;# 
   466  0119                     	;# 
   467  011D                     	;# 
   468  018C                     	;# 
   469  018D                     	;# 
   470  018E                     	;# 
   471  0191                     	;# 
   472  0191                     	;# 
   473  0192                     	;# 
   474  0193                     	;# 
   475  0193                     	;# 
   476  0194                     	;# 
   477  0195                     	;# 
   478  0196                     	;# 
   479  0197                     	;# 
   480  0199                     	;# 
   481  019A                     	;# 
   482  019B                     	;# 
   483  019B                     	;# 
   484  019C                     	;# 
   485  019D                     	;# 
   486  019E                     	;# 
   487  019F                     	;# 
   488  020C                     	;# 
   489  020D                     	;# 
   490  0211                     	;# 
   491  0211                     	;# 
   492  0212                     	;# 
   493  0212                     	;# 
   494  0213                     	;# 
   495  0213                     	;# 
   496  0214                     	;# 
   497  0214                     	;# 
   498  0215                     	;# 
   499  0215                     	;# 
   500  0215                     	;# 
   501  0216                     	;# 
   502  0216                     	;# 
   503  0217                     	;# 
   504  0217                     	;# 
   505  0391                     	;# 
   506  0392                     	;# 
   507  0393                     	;# 
   508  0394                     	;# 
   509  0395                     	;# 
   510  0396                     	;# 
   511  039A                     	;# 
   512  039B                     	;# 
   513  0611                     	;# 
   514  0612                     	;# 
   515  0613                     	;# 
   516  0613                     	;# 
   517  0614                     	;# 
   518  0615                     	;# 
   519  0616                     	;# 
   520  0616                     	;# 
   521  0691                     	;# 
   522  0692                     	;# 
   523  0693                     	;# 
   524  0694                     	;# 
   525  0695                     	;# 
   526  0E8E                     	;# 
   527  0E8F                     	;# 
   528  0E90                     	;# 
   529  0E91                     	;# 
   530  0E92                     	;# 
   531  0E93                     	;# 
   532  0E94                     	;# 
   533  0E94                     	;# 
   534  0E95                     	;# 
   535  0E96                     	;# 
   536  0E97                     	;# 
   537  0E98                     	;# 
   538  0E99                     	;# 
   539  0E9A                     	;# 
   540  0E9B                     	;# 
   541  0E9C                     	;# 
   542  0E9D                     	;# 
   543  0E9E                     	;# 
   544  0E9F                     	;# 
   545  0FE4                     	;# 
   546  0FE5                     	;# 
   547  0FE6                     	;# 
   548  0FE7                     	;# 
   549  0FE8                     	;# 
   550  0FE9                     	;# 
   551  0FEA                     	;# 
   552  0FEB                     	;# 
   553  0FED                     	;# 
   554  0FEE                     	;# 
   555  0FEF                     	;# 
   556  0000                     	;# 
   557  0001                     	;# 
   558  0002                     	;# 
   559  0003                     	;# 
   560  0004                     	;# 
   561  0005                     	;# 
   562  0006                     	;# 
   563  0007                     	;# 
   564  0008                     	;# 
   565  0009                     	;# 
   566  000A                     	;# 
   567  000B                     	;# 
   568  000C                     	;# 
   569  000D                     	;# 
   570  000E                     	;# 
   571  0011                     	;# 
   572  0012                     	;# 
   573  0015                     	;# 
   574  0016                     	;# 
   575  0016                     	;# 
   576  0017                     	;# 
   577  0018                     	;# 
   578  0019                     	;# 
   579  001A                     	;# 
   580  001B                     	;# 
   581  001C                     	;# 
   582  008C                     	;# 
   583  008D                     	;# 
   584  008E                     	;# 
   585  0091                     	;# 
   586  0092                     	;# 
   587  0095                     	;# 
   588  0096                     	;# 
   589  0097                     	;# 
   590  0098                     	;# 
   591  0099                     	;# 
   592  009A                     	;# 
   593  009B                     	;# 
   594  009B                     	;# 
   595  009C                     	;# 
   596  009D                     	;# 
   597  009E                     	;# 
   598  009F                     	;# 
   599  010C                     	;# 
   600  010D                     	;# 
   601  010E                     	;# 
   602  0111                     	;# 
   603  0112                     	;# 
   604  0113                     	;# 
   605  0114                     	;# 
   606  0115                     	;# 
   607  0116                     	;# 
   608  0117                     	;# 
   609  0118                     	;# 
   610  0119                     	;# 
   611  011D                     	;# 
   612  018C                     	;# 
   613  018D                     	;# 
   614  018E                     	;# 
   615  0191                     	;# 
   616  0191                     	;# 
   617  0192                     	;# 
   618  0193                     	;# 
   619  0193                     	;# 
   620  0194                     	;# 
   621  0195                     	;# 
   622  0196                     	;# 
   623  0197                     	;# 
   624  0199                     	;# 
   625  019A                     	;# 
   626  019B                     	;# 
   627  019B                     	;# 
   628  019C                     	;# 
   629  019D                     	;# 
   630  019E                     	;# 
   631  019F                     	;# 
   632  020C                     	;# 
   633  020D                     	;# 
   634  0211                     	;# 
   635  0211                     	;# 
   636  0212                     	;# 
   637  0212                     	;# 
   638  0213                     	;# 
   639  0213                     	;# 
   640  0214                     	;# 
   641  0214                     	;# 
   642  0215                     	;# 
   643  0215                     	;# 
   644  0215                     	;# 
   645  0216                     	;# 
   646  0216                     	;# 
   647  0217                     	;# 
   648  0217                     	;# 
   649  0391                     	;# 
   650  0392                     	;# 
   651  0393                     	;# 
   652  0394                     	;# 
   653  0395                     	;# 
   654  0396                     	;# 
   655  039A                     	;# 
   656  039B                     	;# 
   657  0611                     	;# 
   658  0612                     	;# 
   659  0613                     	;# 
   660  0613                     	;# 
   661  0614                     	;# 
   662  0615                     	;# 
   663  0616                     	;# 
   664  0616                     	;# 
   665  0691                     	;# 
   666  0692                     	;# 
   667  0693                     	;# 
   668  0694                     	;# 
   669  0695                     	;# 
   670  0E8E                     	;# 
   671  0E8F                     	;# 
   672  0E90                     	;# 
   673  0E91                     	;# 
   674  0E92                     	;# 
   675  0E93                     	;# 
   676  0E94                     	;# 
   677  0E94                     	;# 
   678  0E95                     	;# 
   679  0E96                     	;# 
   680  0E97                     	;# 
   681  0E98                     	;# 
   682  0E99                     	;# 
   683  0E9A                     	;# 
   684  0E9B                     	;# 
   685  0E9C                     	;# 
   686  0E9D                     	;# 
   687  0E9E                     	;# 
   688  0E9F                     	;# 
   689  0FE4                     	;# 
   690  0FE5                     	;# 
   691  0FE6                     	;# 
   692  0FE7                     	;# 
   693  0FE8                     	;# 
   694  0FE9                     	;# 
   695  0FEA                     	;# 
   696  0FEB                     	;# 
   697  0FED                     	;# 
   698  0FEE                     	;# 
   699  0FEF                     	;# 
   700  0000                     	;# 
   701  0001                     	;# 
   702  0002                     	;# 
   703  0003                     	;# 
   704  0004                     	;# 
   705  0005                     	;# 
   706  0006                     	;# 
   707  0007                     	;# 
   708  0008                     	;# 
   709  0009                     	;# 
   710  000A                     	;# 
   711  000B                     	;# 
   712  000C                     	;# 
   713  000D                     	;# 
   714  000E                     	;# 
   715  0011                     	;# 
   716  0012                     	;# 
   717  0015                     	;# 
   718  0016                     	;# 
   719  0016                     	;# 
   720  0017                     	;# 
   721  0018                     	;# 
   722  0019                     	;# 
   723  001A                     	;# 
   724  001B                     	;# 
   725  001C                     	;# 
   726  008C                     	;# 
   727  008D                     	;# 
   728  008E                     	;# 
   729  0091                     	;# 
   730  0092                     	;# 
   731  0095                     	;# 
   732  0096                     	;# 
   733  0097                     	;# 
   734  0098                     	;# 
   735  0099                     	;# 
   736  009A                     	;# 
   737  009B                     	;# 
   738  009B                     	;# 
   739  009C                     	;# 
   740  009D                     	;# 
   741  009E                     	;# 
   742  009F                     	;# 
   743  010C                     	;# 
   744  010D                     	;# 
   745  010E                     	;# 
   746  0111                     	;# 
   747  0112                     	;# 
   748  0113                     	;# 
   749  0114                     	;# 
   750  0115                     	;# 
   751  0116                     	;# 
   752  0117                     	;# 
   753  0118                     	;# 
   754  0119                     	;# 
   755  011D                     	;# 
   756  018C                     	;# 
   757  018D                     	;# 
   758  018E                     	;# 
   759  0191                     	;# 
   760  0191                     	;# 
   761  0192                     	;# 
   762  0193                     	;# 
   763  0193                     	;# 
   764  0194                     	;# 
   765  0195                     	;# 
   766  0196                     	;# 
   767  0197                     	;# 
   768  0199                     	;# 
   769  019A                     	;# 
   770  019B                     	;# 
   771  019B                     	;# 
   772  019C                     	;# 
   773  019D                     	;# 
   774  019E                     	;# 
   775  019F                     	;# 
   776  020C                     	;# 
   777  020D                     	;# 
   778  0211                     	;# 
   779  0211                     	;# 
   780  0212                     	;# 
   781  0212                     	;# 
   782  0213                     	;# 
   783  0213                     	;# 
   784  0214                     	;# 
   785  0214                     	;# 
   786  0215                     	;# 
   787  0215                     	;# 
   788  0215                     	;# 
   789  0216                     	;# 
   790  0216                     	;# 
   791  0217                     	;# 
   792  0217                     	;# 
   793  0391                     	;# 
   794  0392                     	;# 
   795  0393                     	;# 
   796  0394                     	;# 
   797  0395                     	;# 
   798  0396                     	;# 
   799  039A                     	;# 
   800  039B                     	;# 
   801  0611                     	;# 
   802  0612                     	;# 
   803  0613                     	;# 
   804  0613                     	;# 
   805  0614                     	;# 
   806  0615                     	;# 
   807  0616                     	;# 
   808  0616                     	;# 
   809  0691                     	;# 
   810  0692                     	;# 
   811  0693                     	;# 
   812  0694                     	;# 
   813  0695                     	;# 
   814  0E8E                     	;# 
   815  0E8F                     	;# 
   816  0E90                     	;# 
   817  0E91                     	;# 
   818  0E92                     	;# 
   819  0E93                     	;# 
   820  0E94                     	;# 
   821  0E94                     	;# 
   822  0E95                     	;# 
   823  0E96                     	;# 
   824  0E97                     	;# 
   825  0E98                     	;# 
   826  0E99                     	;# 
   827  0E9A                     	;# 
   828  0E9B                     	;# 
   829  0E9C                     	;# 
   830  0E9D                     	;# 
   831  0E9E                     	;# 
   832  0E9F                     	;# 
   833  0FE4                     	;# 
   834  0FE5                     	;# 
   835  0FE6                     	;# 
   836  0FE7                     	;# 
   837  0FE8                     	;# 
   838  0FE9                     	;# 
   839  0FEA                     	;# 
   840  0FEB                     	;# 
   841  0FED                     	;# 
   842  0FEE                     	;# 
   843  0FEF                     	;# 
   844  0000                     	;# 
   845  0001                     	;# 
   846  0002                     	;# 
   847  0003                     	;# 
   848  0004                     	;# 
   849  0005                     	;# 
   850  0006                     	;# 
   851  0007                     	;# 
   852  0008                     	;# 
   853  0009                     	;# 
   854  000A                     	;# 
   855  000B                     	;# 
   856  000C                     	;# 
   857  000D                     	;# 
   858  000E                     	;# 
   859  0011                     	;# 
   860  0012                     	;# 
   861  0015                     	;# 
   862  0016                     	;# 
   863  0016                     	;# 
   864  0017                     	;# 
   865  0018                     	;# 
   866  0019                     	;# 
   867  001A                     	;# 
   868  001B                     	;# 
   869  001C                     	;# 
   870  008C                     	;# 
   871  008D                     	;# 
   872  008E                     	;# 
   873  0091                     	;# 
   874  0092                     	;# 
   875  0095                     	;# 
   876  0096                     	;# 
   877  0097                     	;# 
   878  0098                     	;# 
   879  0099                     	;# 
   880  009A                     	;# 
   881  009B                     	;# 
   882  009B                     	;# 
   883  009C                     	;# 
   884  009D                     	;# 
   885  009E                     	;# 
   886  009F                     	;# 
   887  010C                     	;# 
   888  010D                     	;# 
   889  010E                     	;# 
   890  0111                     	;# 
   891  0112                     	;# 
   892  0113                     	;# 
   893  0114                     	;# 
   894  0115                     	;# 
   895  0116                     	;# 
   896  0117                     	;# 
   897  0118                     	;# 
   898  0119                     	;# 
   899  011D                     	;# 
   900  018C                     	;# 
   901  018D                     	;# 
   902  018E                     	;# 
   903  0191                     	;# 
   904  0191                     	;# 
   905  0192                     	;# 
   906  0193                     	;# 
   907  0193                     	;# 
   908  0194                     	;# 
   909  0195                     	;# 
   910  0196                     	;# 
   911  0197                     	;# 
   912  0199                     	;# 
   913  019A                     	;# 
   914  019B                     	;# 
   915  019B                     	;# 
   916  019C                     	;# 
   917  019D                     	;# 
   918  019E                     	;# 
   919  019F                     	;# 
   920  020C                     	;# 
   921  020D                     	;# 
   922  0211                     	;# 
   923  0211                     	;# 
   924  0212                     	;# 
   925  0212                     	;# 
   926  0213                     	;# 
   927  0213                     	;# 
   928  0214                     	;# 
   929  0214                     	;# 
   930  0215                     	;# 
   931  0215                     	;# 
   932  0215                     	;# 
   933  0216                     	;# 
   934  0216                     	;# 
   935  0217                     	;# 
   936  0217                     	;# 
   937  0391                     	;# 
   938  0392                     	;# 
   939  0393                     	;# 
   940  0394                     	;# 
   941  0395                     	;# 
   942  0396                     	;# 
   943  039A                     	;# 
   944  039B                     	;# 
   945  0611                     	;# 
   946  0612                     	;# 
   947  0613                     	;# 
   948  0613                     	;# 
   949  0614                     	;# 
   950  0615                     	;# 
   951  0616                     	;# 
   952  0616                     	;# 
   953  0691                     	;# 
   954  0692                     	;# 
   955  0693                     	;# 
   956  0694                     	;# 
   957  0695                     	;# 
   958  0E8E                     	;# 
   959  0E8F                     	;# 
   960  0E90                     	;# 
   961  0E91                     	;# 
   962  0E92                     	;# 
   963  0E93                     	;# 
   964  0E94                     	;# 
   965  0E94                     	;# 
   966  0E95                     	;# 
   967  0E96                     	;# 
   968  0E97                     	;# 
   969  0E98                     	;# 
   970  0E99                     	;# 
   971  0E9A                     	;# 
   972  0E9B                     	;# 
   973  0E9C                     	;# 
   974  0E9D                     	;# 
   975  0E9E                     	;# 
   976  0E9F                     	;# 
   977  0FE4                     	;# 
   978  0FE5                     	;# 
   979  0FE6                     	;# 
   980  0FE7                     	;# 
   981  0FE8                     	;# 
   982  0FE9                     	;# 
   983  0FEA                     	;# 
   984  0FEB                     	;# 
   985  0FED                     	;# 
   986  0FEE                     	;# 
   987  0FEF                     	;# 
   988  0000                     	;# 
   989  0001                     	;# 
   990  0002                     	;# 
   991  0003                     	;# 
   992  0004                     	;# 
   993  0005                     	;# 
   994  0006                     	;# 
   995  0007                     	;# 
   996  0008                     	;# 
   997  0009                     	;# 
   998  000A                     	;# 
   999  000B                     	;# 
  1000  000C                     	;# 
  1001  000D                     	;# 
  1002  000E                     	;# 
  1003  0011                     	;# 
  1004  0012                     	;# 
  1005  0015                     	;# 
  1006  0016                     	;# 
  1007  0016                     	;# 
  1008  0017                     	;# 
  1009  0018                     	;# 
  1010  0019                     	;# 
  1011  001A                     	;# 
  1012  001B                     	;# 
  1013  001C                     	;# 
  1014  008C                     	;# 
  1015  008D                     	;# 
  1016  008E                     	;# 
  1017  0091                     	;# 
  1018  0092                     	;# 
  1019  0095                     	;# 
  1020  0096                     	;# 
  1021  0097                     	;# 
  1022  0098                     	;# 
  1023  0099                     	;# 
  1024  009A                     	;# 
  1025  009B                     	;# 
  1026  009B                     	;# 
  1027  009C                     	;# 
  1028  009D                     	;# 
  1029  009E                     	;# 
  1030  009F                     	;# 
  1031  010C                     	;# 
  1032  010D                     	;# 
  1033  010E                     	;# 
  1034  0111                     	;# 
  1035  0112                     	;# 
  1036  0113                     	;# 
  1037  0114                     	;# 
  1038  0115                     	;# 
  1039  0116                     	;# 
  1040  0117                     	;# 
  1041  0118                     	;# 
  1042  0119                     	;# 
  1043  011D                     	;# 
  1044  018C                     	;# 
  1045  018D                     	;# 
  1046  018E                     	;# 
  1047  0191                     	;# 
  1048  0191                     	;# 
  1049  0192                     	;# 
  1050  0193                     	;# 
  1051  0193                     	;# 
  1052  0194                     	;# 
  1053  0195                     	;# 
  1054  0196                     	;# 
  1055  0197                     	;# 
  1056  0199                     	;# 
  1057  019A                     	;# 
  1058  019B                     	;# 
  1059  019B                     	;# 
  1060  019C                     	;# 
  1061  019D                     	;# 
  1062  019E                     	;# 
  1063  019F                     	;# 
  1064  020C                     	;# 
  1065  020D                     	;# 
  1066  0211                     	;# 
  1067  0211                     	;# 
  1068  0212                     	;# 
  1069  0212                     	;# 
  1070  0213                     	;# 
  1071  0213                     	;# 
  1072  0214                     	;# 
  1073  0214                     	;# 
  1074  0215                     	;# 
  1075  0215                     	;# 
  1076  0215                     	;# 
  1077  0216                     	;# 
  1078  0216                     	;# 
  1079  0217                     	;# 
  1080  0217                     	;# 
  1081  0391                     	;# 
  1082  0392                     	;# 
  1083  0393                     	;# 
  1084  0394                     	;# 
  1085  0395                     	;# 
  1086  0396                     	;# 
  1087  039A                     	;# 
  1088  039B                     	;# 
  1089  0611                     	;# 
  1090  0612                     	;# 
  1091  0613                     	;# 
  1092  0613                     	;# 
  1093  0614                     	;# 
  1094  0615                     	;# 
  1095  0616                     	;# 
  1096  0616                     	;# 
  1097  0691                     	;# 
  1098  0692                     	;# 
  1099  0693                     	;# 
  1100  0694                     	;# 
  1101  0695                     	;# 
  1102  0E8E                     	;# 
  1103  0E8F                     	;# 
  1104  0E90                     	;# 
  1105  0E91                     	;# 
  1106  0E92                     	;# 
  1107  0E93                     	;# 
  1108  0E94                     	;# 
  1109  0E94                     	;# 
  1110  0E95                     	;# 
  1111  0E96                     	;# 
  1112  0E97                     	;# 
  1113  0E98                     	;# 
  1114  0E99                     	;# 
  1115  0E9A                     	;# 
  1116  0E9B                     	;# 
  1117  0E9C                     	;# 
  1118  0E9D                     	;# 
  1119  0E9E                     	;# 
  1120  0E9F                     	;# 
  1121  0FE4                     	;# 
  1122  0FE5                     	;# 
  1123  0FE6                     	;# 
  1124  0FE7                     	;# 
  1125  0FE8                     	;# 
  1126  0FE9                     	;# 
  1127  0FEA                     	;# 
  1128  0FEB                     	;# 
  1129  0FED                     	;# 
  1130  0FEE                     	;# 
  1131  0FEF                     	;# 
  1132  0000                     	;# 
  1133  0001                     	;# 
  1134  0002                     	;# 
  1135  0003                     	;# 
  1136  0004                     	;# 
  1137  0005                     	;# 
  1138  0006                     	;# 
  1139  0007                     	;# 
  1140  0008                     	;# 
  1141  0009                     	;# 
  1142  000A                     	;# 
  1143  000B                     	;# 
  1144  000C                     	;# 
  1145  000D                     	;# 
  1146  000E                     	;# 
  1147  0011                     	;# 
  1148  0012                     	;# 
  1149  0015                     	;# 
  1150  0016                     	;# 
  1151  0016                     	;# 
  1152  0017                     	;# 
  1153  0018                     	;# 
  1154  0019                     	;# 
  1155  001A                     	;# 
  1156  001B                     	;# 
  1157  001C                     	;# 
  1158  008C                     	;# 
  1159  008D                     	;# 
  1160  008E                     	;# 
  1161  0091                     	;# 
  1162  0092                     	;# 
  1163  0095                     	;# 
  1164  0096                     	;# 
  1165  0097                     	;# 
  1166  0098                     	;# 
  1167  0099                     	;# 
  1168  009A                     	;# 
  1169  009B                     	;# 
  1170  009B                     	;# 
  1171  009C                     	;# 
  1172  009D                     	;# 
  1173  009E                     	;# 
  1174  009F                     	;# 
  1175  010C                     	;# 
  1176  010D                     	;# 
  1177  010E                     	;# 
  1178  0111                     	;# 
  1179  0112                     	;# 
  1180  0113                     	;# 
  1181  0114                     	;# 
  1182  0115                     	;# 
  1183  0116                     	;# 
  1184  0117                     	;# 
  1185  0118                     	;# 
  1186  0119                     	;# 
  1187  011D                     	;# 
  1188  018C                     	;# 
  1189  018D                     	;# 
  1190  018E                     	;# 
  1191  0191                     	;# 
  1192  0191                     	;# 
  1193  0192                     	;# 
  1194  0193                     	;# 
  1195  0193                     	;# 
  1196  0194                     	;# 
  1197  0195                     	;# 
  1198  0196                     	;# 
  1199  0197                     	;# 
  1200  0199                     	;# 
  1201  019A                     	;# 
  1202  019B                     	;# 
  1203  019B                     	;# 
  1204  019C                     	;# 
  1205  019D                     	;# 
  1206  019E                     	;# 
  1207  019F                     	;# 
  1208  020C                     	;# 
  1209  020D                     	;# 
  1210  0211                     	;# 
  1211  0211                     	;# 
  1212  0212                     	;# 
  1213  0212                     	;# 
  1214  0213                     	;# 
  1215  0213                     	;# 
  1216  0214                     	;# 
  1217  0214                     	;# 
  1218  0215                     	;# 
  1219  0215                     	;# 
  1220  0215                     	;# 
  1221  0216                     	;# 
  1222  0216                     	;# 
  1223  0217                     	;# 
  1224  0217                     	;# 
  1225  0391                     	;# 
  1226  0392                     	;# 
  1227  0393                     	;# 
  1228  0394                     	;# 
  1229  0395                     	;# 
  1230  0396                     	;# 
  1231  039A                     	;# 
  1232  039B                     	;# 
  1233  0611                     	;# 
  1234  0612                     	;# 
  1235  0613                     	;# 
  1236  0613                     	;# 
  1237  0614                     	;# 
  1238  0615                     	;# 
  1239  0616                     	;# 
  1240  0616                     	;# 
  1241  0691                     	;# 
  1242  0692                     	;# 
  1243  0693                     	;# 
  1244  0694                     	;# 
  1245  0695                     	;# 
  1246  0E8E                     	;# 
  1247  0E8F                     	;# 
  1248  0E90                     	;# 
  1249  0E91                     	;# 
  1250  0E92                     	;# 
  1251  0E93                     	;# 
  1252  0E94                     	;# 
  1253  0E94                     	;# 
  1254  0E95                     	;# 
  1255  0E96                     	;# 
  1256  0E97                     	;# 
  1257  0E98                     	;# 
  1258  0E99                     	;# 
  1259  0E9A                     	;# 
  1260  0E9B                     	;# 
  1261  0E9C                     	;# 
  1262  0E9D                     	;# 
  1263  0E9E                     	;# 
  1264  0E9F                     	;# 
  1265  0FE4                     	;# 
  1266  0FE5                     	;# 
  1267  0FE6                     	;# 
  1268  0FE7                     	;# 
  1269  0FE8                     	;# 
  1270  0FE9                     	;# 
  1271  0FEA                     	;# 
  1272  0FEB                     	;# 
  1273  0FED                     	;# 
  1274  0FEE                     	;# 
  1275  0FEF                     	;# 
  1276  0000                     	;# 
  1277  0001                     	;# 
  1278  0002                     	;# 
  1279  0003                     	;# 
  1280  0004                     	;# 
  1281  0005                     	;# 
  1282  0006                     	;# 
  1283  0007                     	;# 
  1284  0008                     	;# 
  1285  0009                     	;# 
  1286  000A                     	;# 
  1287  000B                     	;# 
  1288  000C                     	;# 
  1289  000D                     	;# 
  1290  000E                     	;# 
  1291  0011                     	;# 
  1292  0012                     	;# 
  1293  0015                     	;# 
  1294  0016                     	;# 
  1295  0016                     	;# 
  1296  0017                     	;# 
  1297  0018                     	;# 
  1298  0019                     	;# 
  1299  001A                     	;# 
  1300  001B                     	;# 
  1301  001C                     	;# 
  1302  008C                     	;# 
  1303  008D                     	;# 
  1304  008E                     	;# 
  1305  0091                     	;# 
  1306  0092                     	;# 
  1307  0095                     	;# 
  1308  0096                     	;# 
  1309  0097                     	;# 
  1310  0098                     	;# 
  1311  0099                     	;# 
  1312  009A                     	;# 
  1313  009B                     	;# 
  1314  009B                     	;# 
  1315  009C                     	;# 
  1316  009D                     	;# 
  1317  009E                     	;# 
  1318  009F                     	;# 
  1319  010C                     	;# 
  1320  010D                     	;# 
  1321  010E                     	;# 
  1322  0111                     	;# 
  1323  0112                     	;# 
  1324  0113                     	;# 
  1325  0114                     	;# 
  1326  0115                     	;# 
  1327  0116                     	;# 
  1328  0117                     	;# 
  1329  0118                     	;# 
  1330  0119                     	;# 
  1331  011D                     	;# 
  1332  018C                     	;# 
  1333  018D                     	;# 
  1334  018E                     	;# 
  1335  0191                     	;# 
  1336  0191                     	;# 
  1337  0192                     	;# 
  1338  0193                     	;# 
  1339  0193                     	;# 
  1340  0194                     	;# 
  1341  0195                     	;# 
  1342  0196                     	;# 
  1343  0197                     	;# 
  1344  0199                     	;# 
  1345  019A                     	;# 
  1346  019B                     	;# 
  1347  019B                     	;# 
  1348  019C                     	;# 
  1349  019D                     	;# 
  1350  019E                     	;# 
  1351  019F                     	;# 
  1352  020C                     	;# 
  1353  020D                     	;# 
  1354  0211                     	;# 
  1355  0211                     	;# 
  1356  0212                     	;# 
  1357  0212                     	;# 
  1358  0213                     	;# 
  1359  0213                     	;# 
  1360  0214                     	;# 
  1361  0214                     	;# 
  1362  0215                     	;# 
  1363  0215                     	;# 
  1364  0215                     	;# 
  1365  0216                     	;# 
  1366  0216                     	;# 
  1367  0217                     	;# 
  1368  0217                     	;# 
  1369  0391                     	;# 
  1370  0392                     	;# 
  1371  0393                     	;# 
  1372  0394                     	;# 
  1373  0395                     	;# 
  1374  0396                     	;# 
  1375  039A                     	;# 
  1376  039B                     	;# 
  1377  0611                     	;# 
  1378  0612                     	;# 
  1379  0613                     	;# 
  1380  0613                     	;# 
  1381  0614                     	;# 
  1382  0615                     	;# 
  1383  0616                     	;# 
  1384  0616                     	;# 
  1385  0691                     	;# 
  1386  0692                     	;# 
  1387  0693                     	;# 
  1388  0694                     	;# 
  1389  0695                     	;# 
  1390  0E8E                     	;# 
  1391  0E8F                     	;# 
  1392  0E90                     	;# 
  1393  0E91                     	;# 
  1394  0E92                     	;# 
  1395  0E93                     	;# 
  1396  0E94                     	;# 
  1397  0E94                     	;# 
  1398  0E95                     	;# 
  1399  0E96                     	;# 
  1400  0E97                     	;# 
  1401  0E98                     	;# 
  1402  0E99                     	;# 
  1403  0E9A                     	;# 
  1404  0E9B                     	;# 
  1405  0E9C                     	;# 
  1406  0E9D                     	;# 
  1407  0E9E                     	;# 
  1408  0E9F                     	;# 
  1409  0FE4                     	;# 
  1410  0FE5                     	;# 
  1411  0FE6                     	;# 
  1412  0FE7                     	;# 
  1413  0FE8                     	;# 
  1414  0FE9                     	;# 
  1415  0FEA                     	;# 
  1416  0FEB                     	;# 
  1417  0FED                     	;# 
  1418  0FEE                     	;# 
  1419  0FEF                     	;# 
  1420  0000                     	;# 
  1421  0001                     	;# 
  1422  0002                     	;# 
  1423  0003                     	;# 
  1424  0004                     	;# 
  1425  0005                     	;# 
  1426  0006                     	;# 
  1427  0007                     	;# 
  1428  0008                     	;# 
  1429  0009                     	;# 
  1430  000A                     	;# 
  1431  000B                     	;# 
  1432  000C                     	;# 
  1433  000D                     	;# 
  1434  000E                     	;# 
  1435  0011                     	;# 
  1436  0012                     	;# 
  1437  0015                     	;# 
  1438  0016                     	;# 
  1439  0016                     	;# 
  1440  0017                     	;# 
  1441  0018                     	;# 
  1442  0019                     	;# 
  1443  001A                     	;# 
  1444  001B                     	;# 
  1445  001C                     	;# 
  1446  008C                     	;# 
  1447  008D                     	;# 
  1448  008E                     	;# 
  1449  0091                     	;# 
  1450  0092                     	;# 
  1451  0095                     	;# 
  1452  0096                     	;# 
  1453  0097                     	;# 
  1454  0098                     	;# 
  1455  0099                     	;# 
  1456  009A                     	;# 
  1457  009B                     	;# 
  1458  009B                     	;# 
  1459  009C                     	;# 
  1460  009D                     	;# 
  1461  009E                     	;# 
  1462  009F                     	;# 
  1463  010C                     	;# 
  1464  010D                     	;# 
  1465  010E                     	;# 
  1466  0111                     	;# 
  1467  0112                     	;# 
  1468  0113                     	;# 
  1469  0114                     	;# 
  1470  0115                     	;# 
  1471  0116                     	;# 
  1472  0117                     	;# 
  1473  0118                     	;# 
  1474  0119                     	;# 
  1475  011D                     	;# 
  1476  018C                     	;# 
  1477  018D                     	;# 
  1478  018E                     	;# 
  1479  0191                     	;# 
  1480  0191                     	;# 
  1481  0192                     	;# 
  1482  0193                     	;# 
  1483  0193                     	;# 
  1484  0194                     	;# 
  1485  0195                     	;# 
  1486  0196                     	;# 
  1487  0197                     	;# 
  1488  0199                     	;# 
  1489  019A                     	;# 
  1490  019B                     	;# 
  1491  019B                     	;# 
  1492  019C                     	;# 
  1493  019D                     	;# 
  1494  019E                     	;# 
  1495  019F                     	;# 
  1496  020C                     	;# 
  1497  020D                     	;# 
  1498  0211                     	;# 
  1499  0211                     	;# 
  1500  0212                     	;# 
  1501  0212                     	;# 
  1502  0213                     	;# 
  1503  0213                     	;# 
  1504  0214                     	;# 
  1505  0214                     	;# 
  1506  0215                     	;# 
  1507  0215                     	;# 
  1508  0215                     	;# 
  1509  0216                     	;# 
  1510  0216                     	;# 
  1511  0217                     	;# 
  1512  0217                     	;# 
  1513  0391                     	;# 
  1514  0392                     	;# 
  1515  0393                     	;# 
  1516  0394                     	;# 
  1517  0395                     	;# 
  1518  0396                     	;# 
  1519  039A                     	;# 
  1520  039B                     	;# 
  1521  0611                     	;# 
  1522  0612                     	;# 
  1523  0613                     	;# 
  1524  0613                     	;# 
  1525  0614                     	;# 
  1526  0615                     	;# 
  1527  0616                     	;# 
  1528  0616                     	;# 
  1529  0691                     	;# 
  1530  0692                     	;# 
  1531  0693                     	;# 
  1532  0694                     	;# 
  1533  0695                     	;# 
  1534  0E8E                     	;# 
  1535  0E8F                     	;# 
  1536  0E90                     	;# 
  1537  0E91                     	;# 
  1538  0E92                     	;# 
  1539  0E93                     	;# 
  1540  0E94                     	;# 
  1541  0E94                     	;# 
  1542  0E95                     	;# 
  1543  0E96                     	;# 
  1544  0E97                     	;# 
  1545  0E98                     	;# 
  1546  0E99                     	;# 
  1547  0E9A                     	;# 
  1548  0E9B                     	;# 
  1549  0E9C                     	;# 
  1550  0E9D                     	;# 
  1551  0E9E                     	;# 
  1552  0E9F                     	;# 
  1553  0FE4                     	;# 
  1554  0FE5                     	;# 
  1555  0FE6                     	;# 
  1556  0FE7                     	;# 
  1557  0FE8                     	;# 
  1558  0FE9                     	;# 
  1559  0FEA                     	;# 
  1560  0FEB                     	;# 
  1561  0FED                     	;# 
  1562  0FEE                     	;# 
  1563  0FEF                     	;# 
  1564  0000                     	;# 
  1565  0001                     	;# 
  1566  0002                     	;# 
  1567  0003                     	;# 
  1568  0004                     	;# 
  1569  0005                     	;# 
  1570  0006                     	;# 
  1571  0007                     	;# 
  1572  0008                     	;# 
  1573  0009                     	;# 
  1574  000A                     	;# 
  1575  000B                     	;# 
  1576  000C                     	;# 
  1577  000D                     	;# 
  1578  000E                     	;# 
  1579  0011                     	;# 
  1580  0012                     	;# 
  1581  0015                     	;# 
  1582  0016                     	;# 
  1583  0016                     	;# 
  1584  0017                     	;# 
  1585  0018                     	;# 
  1586  0019                     	;# 
  1587  001A                     	;# 
  1588  001B                     	;# 
  1589  001C                     	;# 
  1590  008C                     	;# 
  1591  008D                     	;# 
  1592  008E                     	;# 
  1593  0091                     	;# 
  1594  0092                     	;# 
  1595  0095                     	;# 
  1596  0096                     	;# 
  1597  0097                     	;# 
  1598  0098                     	;# 
  1599  0099                     	;# 
  1600  009A                     	;# 
  1601  009B                     	;# 
  1602  009B                     	;# 
  1603  009C                     	;# 
  1604  009D                     	;# 
  1605  009E                     	;# 
  1606  009F                     	;# 
  1607  010C                     	;# 
  1608  010D                     	;# 
  1609  010E                     	;# 
  1610  0111                     	;# 
  1611  0112                     	;# 
  1612  0113                     	;# 
  1613  0114                     	;# 
  1614  0115                     	;# 
  1615  0116                     	;# 
  1616  0117                     	;# 
  1617  0118                     	;# 
  1618  0119                     	;# 
  1619  011D                     	;# 
  1620  018C                     	;# 
  1621  018D                     	;# 
  1622  018E                     	;# 
  1623  0191                     	;# 
  1624  0191                     	;# 
  1625  0192                     	;# 
  1626  0193                     	;# 
  1627  0193                     	;# 
  1628  0194                     	;# 
  1629  0195                     	;# 
  1630  0196                     	;# 
  1631  0197                     	;# 
  1632  0199                     	;# 
  1633  019A                     	;# 
  1634  019B                     	;# 
  1635  019B                     	;# 
  1636  019C                     	;# 
  1637  019D                     	;# 
  1638  019E                     	;# 
  1639  019F                     	;# 
  1640  020C                     	;# 
  1641  020D                     	;# 
  1642  0211                     	;# 
  1643  0211                     	;# 
  1644  0212                     	;# 
  1645  0212                     	;# 
  1646  0213                     	;# 
  1647  0213                     	;# 
  1648  0214                     	;# 
  1649  0214                     	;# 
  1650  0215                     	;# 
  1651  0215                     	;# 
  1652  0215                     	;# 
  1653  0216                     	;# 
  1654  0216                     	;# 
  1655  0217                     	;# 
  1656  0217                     	;# 
  1657  0391                     	;# 
  1658  0392                     	;# 
  1659  0393                     	;# 
  1660  0394                     	;# 
  1661  0395                     	;# 
  1662  0396                     	;# 
  1663  039A                     	;# 
  1664  039B                     	;# 
  1665  0611                     	;# 
  1666  0612                     	;# 
  1667  0613                     	;# 
  1668  0613                     	;# 
  1669  0614                     	;# 
  1670  0615                     	;# 
  1671  0616                     	;# 
  1672  0616                     	;# 
  1673  0691                     	;# 
  1674  0692                     	;# 
  1675  0693                     	;# 
  1676  0694                     	;# 
  1677  0695                     	;# 
  1678  0E8E                     	;# 
  1679  0E8F                     	;# 
  1680  0E90                     	;# 
  1681  0E91                     	;# 
  1682  0E92                     	;# 
  1683  0E93                     	;# 
  1684  0E94                     	;# 
  1685  0E94                     	;# 
  1686  0E95                     	;# 
  1687  0E96                     	;# 
  1688  0E97                     	;# 
  1689  0E98                     	;# 
  1690  0E99                     	;# 
  1691  0E9A                     	;# 
  1692  0E9B                     	;# 
  1693  0E9C                     	;# 
  1694  0E9D                     	;# 
  1695  0E9E                     	;# 
  1696  0E9F                     	;# 
  1697  0FE4                     	;# 
  1698  0FE5                     	;# 
  1699  0FE6                     	;# 
  1700  0FE7                     	;# 
  1701  0FE8                     	;# 
  1702  0FE9                     	;# 
  1703  0FEA                     	;# 
  1704  0FEB                     	;# 
  1705  0FED                     	;# 
  1706  0FEE                     	;# 
  1707  0FEF                     	;# 
  1708  0000                     	;# 
  1709  0001                     	;# 
  1710  0002                     	;# 
  1711  0003                     	;# 
  1712  0004                     	;# 
  1713  0005                     	;# 
  1714  0006                     	;# 
  1715  0007                     	;# 
  1716  0008                     	;# 
  1717  0009                     	;# 
  1718  000A                     	;# 
  1719  000B                     	;# 
  1720  000C                     	;# 
  1721  000D                     	;# 
  1722  000E                     	;# 
  1723  0011                     	;# 
  1724  0012                     	;# 
  1725  0015                     	;# 
  1726  0016                     	;# 
  1727  0016                     	;# 
  1728  0017                     	;# 
  1729  0018                     	;# 
  1730  0019                     	;# 
  1731  001A                     	;# 
  1732  001B                     	;# 
  1733  001C                     	;# 
  1734  008C                     	;# 
  1735  008D                     	;# 
  1736  008E                     	;# 
  1737  0091                     	;# 
  1738  0092                     	;# 
  1739  0095                     	;# 
  1740  0096                     	;# 
  1741  0097                     	;# 
  1742  0098                     	;# 
  1743  0099                     	;# 
  1744  009A                     	;# 
  1745  009B                     	;# 
  1746  009B                     	;# 
  1747  009C                     	;# 
  1748  009D                     	;# 
  1749  009E                     	;# 
  1750  009F                     	;# 
  1751  010C                     	;# 
  1752  010D                     	;# 
  1753  010E                     	;# 
  1754  0111                     	;# 
  1755  0112                     	;# 
  1756  0113                     	;# 
  1757  0114                     	;# 
  1758  0115                     	;# 
  1759  0116                     	;# 
  1760  0117                     	;# 
  1761  0118                     	;# 
  1762  0119                     	;# 
  1763  011D                     	;# 
  1764  018C                     	;# 
  1765  018D                     	;# 
  1766  018E                     	;# 
  1767  0191                     	;# 
  1768  0191                     	;# 
  1769  0192                     	;# 
  1770  0193                     	;# 
  1771  0193                     	;# 
  1772  0194                     	;# 
  1773  0195                     	;# 
  1774  0196                     	;# 
  1775  0197                     	;# 
  1776  0199                     	;# 
  1777  019A                     	;# 
  1778  019B                     	;# 
  1779  019B                     	;# 
  1780  019C                     	;# 
  1781  019D                     	;# 
  1782  019E                     	;# 
  1783  019F                     	;# 
  1784  020C                     	;# 
  1785  020D                     	;# 
  1786  0211                     	;# 
  1787  0211                     	;# 
  1788  0212                     	;# 
  1789  0212                     	;# 
  1790  0213                     	;# 
  1791  0213                     	;# 
  1792  0214                     	;# 
  1793  0214                     	;# 
  1794  0215                     	;# 
  1795  0215                     	;# 
  1796  0215                     	;# 
  1797  0216                     	;# 
  1798  0216                     	;# 
  1799  0217                     	;# 
  1800  0217                     	;# 
  1801  0391                     	;# 
  1802  0392                     	;# 
  1803  0393                     	;# 
  1804  0394                     	;# 
  1805  0395                     	;# 
  1806  0396                     	;# 
  1807  039A                     	;# 
  1808  039B                     	;# 
  1809  0611                     	;# 
  1810  0612                     	;# 
  1811  0613                     	;# 
  1812  0613                     	;# 
  1813  0614                     	;# 
  1814  0615                     	;# 
  1815  0616                     	;# 
  1816  0616                     	;# 
  1817  0691                     	;# 
  1818  0692                     	;# 
  1819  0693                     	;# 
  1820  0694                     	;# 
  1821  0695                     	;# 
  1822  0E8E                     	;# 
  1823  0E8F                     	;# 
  1824  0E90                     	;# 
  1825  0E91                     	;# 
  1826  0E92                     	;# 
  1827  0E93                     	;# 
  1828  0E94                     	;# 
  1829  0E94                     	;# 
  1830  0E95                     	;# 
  1831  0E96                     	;# 
  1832  0E97                     	;# 
  1833  0E98                     	;# 
  1834  0E99                     	;# 
  1835  0E9A                     	;# 
  1836  0E9B                     	;# 
  1837  0E9C                     	;# 
  1838  0E9D                     	;# 
  1839  0E9E                     	;# 
  1840  0E9F                     	;# 
  1841  0FE4                     	;# 
  1842  0FE5                     	;# 
  1843  0FE6                     	;# 
  1844  0FE7                     	;# 
  1845  0FE8                     	;# 
  1846  0FE9                     	;# 
  1847  0FEA                     	;# 
  1848  0FEB                     	;# 
  1849  0FED                     	;# 
  1850  0FEE                     	;# 
  1851  0FEF                     	;# 
  1852  0000                     	;# 
  1853  0001                     	;# 
  1854  0002                     	;# 
  1855  0003                     	;# 
  1856  0004                     	;# 
  1857  0005                     	;# 
  1858  0006                     	;# 
  1859  0007                     	;# 
  1860  0008                     	;# 
  1861  0009                     	;# 
  1862  000A                     	;# 
  1863  000B                     	;# 
  1864  000C                     	;# 
  1865  000D                     	;# 
  1866  000E                     	;# 
  1867  0011                     	;# 
  1868  0012                     	;# 
  1869  0015                     	;# 
  1870  0016                     	;# 
  1871  0016                     	;# 
  1872  0017                     	;# 
  1873  0018                     	;# 
  1874  0019                     	;# 
  1875  001A                     	;# 
  1876  001B                     	;# 
  1877  001C                     	;# 
  1878  008C                     	;# 
  1879  008D                     	;# 
  1880  008E                     	;# 
  1881  0091                     	;# 
  1882  0092                     	;# 
  1883  0095                     	;# 
  1884  0096                     	;# 
  1885  0097                     	;# 
  1886  0098                     	;# 
  1887  0099                     	;# 
  1888  009A                     	;# 
  1889  009B                     	;# 
  1890  009B                     	;# 
  1891  009C                     	;# 
  1892  009D                     	;# 
  1893  009E                     	;# 
  1894  009F                     	;# 
  1895  010C                     	;# 
  1896  010D                     	;# 
  1897  010E                     	;# 
  1898  0111                     	;# 
  1899  0112                     	;# 
  1900  0113                     	;# 
  1901  0114                     	;# 
  1902  0115                     	;# 
  1903  0116                     	;# 
  1904  0117                     	;# 
  1905  0118                     	;# 
  1906  0119                     	;# 
  1907  011D                     	;# 
  1908  018C                     	;# 
  1909  018D                     	;# 
  1910  018E                     	;# 
  1911  0191                     	;# 
  1912  0191                     	;# 
  1913  0192                     	;# 
  1914  0193                     	;# 
  1915  0193                     	;# 
  1916  0194                     	;# 
  1917  0195                     	;# 
  1918  0196                     	;# 
  1919  0197                     	;# 
  1920  0199                     	;# 
  1921  019A                     	;# 
  1922  019B                     	;# 
  1923  019B                     	;# 
  1924  019C                     	;# 
  1925  019D                     	;# 
  1926  019E                     	;# 
  1927  019F                     	;# 
  1928  020C                     	;# 
  1929  020D                     	;# 
  1930  0211                     	;# 
  1931  0211                     	;# 
  1932  0212                     	;# 
  1933  0212                     	;# 
  1934  0213                     	;# 
  1935  0213                     	;# 
  1936  0214                     	;# 
  1937  0214                     	;# 
  1938  0215                     	;# 
  1939  0215                     	;# 
  1940  0215                     	;# 
  1941  0216                     	;# 
  1942  0216                     	;# 
  1943  0217                     	;# 
  1944  0217                     	;# 
  1945  0391                     	;# 
  1946  0392                     	;# 
  1947  0393                     	;# 
  1948  0394                     	;# 
  1949  0395                     	;# 
  1950  0396                     	;# 
  1951  039A                     	;# 
  1952  039B                     	;# 
  1953  0611                     	;# 
  1954  0612                     	;# 
  1955  0613                     	;# 
  1956  0613                     	;# 
  1957  0614                     	;# 
  1958  0615                     	;# 
  1959  0616                     	;# 
  1960  0616                     	;# 
  1961  0691                     	;# 
  1962  0692                     	;# 
  1963  0693                     	;# 
  1964  0694                     	;# 
  1965  0695                     	;# 
  1966  0E8E                     	;# 
  1967  0E8F                     	;# 
  1968  0E90                     	;# 
  1969  0E91                     	;# 
  1970  0E92                     	;# 
  1971  0E93                     	;# 
  1972  0E94                     	;# 
  1973  0E94                     	;# 
  1974  0E95                     	;# 
  1975  0E96                     	;# 
  1976  0E97                     	;# 
  1977  0E98                     	;# 
  1978  0E99                     	;# 
  1979  0E9A                     	;# 
  1980  0E9B                     	;# 
  1981  0E9C                     	;# 
  1982  0E9D                     	;# 
  1983  0E9E                     	;# 
  1984  0E9F                     	;# 
  1985  0FE4                     	;# 
  1986  0FE5                     	;# 
  1987  0FE6                     	;# 
  1988  0FE7                     	;# 
  1989  0FE8                     	;# 
  1990  0FE9                     	;# 
  1991  0FEA                     	;# 
  1992  0FEB                     	;# 
  1993  0FED                     	;# 
  1994  0FEE                     	;# 
  1995  0FEF                     	;# 
  1996  0000                     	;# 
  1997  0001                     	;# 
  1998  0002                     	;# 
  1999  0003                     	;# 
  2000  0004                     	;# 
  2001  0005                     	;# 
  2002  0006                     	;# 
  2003  0007                     	;# 
  2004  0008                     	;# 
  2005  0009                     	;# 
  2006  000A                     	;# 
  2007  000B                     	;# 
  2008  000C                     	;# 
  2009  000D                     	;# 
  2010  000E                     	;# 
  2011  0011                     	;# 
  2012  0012                     	;# 
  2013  0015                     	;# 
  2014  0016                     	;# 
  2015  0016                     	;# 
  2016  0017                     	;# 
  2017  0018                     	;# 
  2018  0019                     	;# 
  2019  001A                     	;# 
  2020  001B                     	;# 
  2021  001C                     	;# 
  2022  008C                     	;# 
  2023  008D                     	;# 
  2024  008E                     	;# 
  2025  0091                     	;# 
  2026  0092                     	;# 
  2027  0095                     	;# 
  2028  0096                     	;# 
  2029  0097                     	;# 
  2030  0098                     	;# 
  2031  0099                     	;# 
  2032  009A                     	;# 
  2033  009B                     	;# 
  2034  009B                     	;# 
  2035  009C                     	;# 
  2036  009D                     	;# 
  2037  009E                     	;# 
  2038  009F                     	;# 
  2039  010C                     	;# 
  2040  010D                     	;# 
  2041  010E                     	;# 
  2042  0111                     	;# 
  2043  0112                     	;# 
  2044  0113                     	;# 
  2045  0114                     	;# 
  2046  0115                     	;# 
  2047  0116                     	;# 
  2048  0117                     	;# 
  2049  0118                     	;# 
  2050  0119                     	;# 
  2051  011D                     	;# 
  2052  018C                     	;# 
  2053  018D                     	;# 
  2054  018E                     	;# 
  2055  0191                     	;# 
  2056  0191                     	;# 
  2057  0192                     	;# 
  2058  0193                     	;# 
  2059  0193                     	;# 
  2060  0194                     	;# 
  2061  0195                     	;# 
  2062  0196                     	;# 
  2063  0197                     	;# 
  2064  0199                     	;# 
  2065  019A                     	;# 
  2066  019B                     	;# 
  2067  019B                     	;# 
  2068  019C                     	;# 
  2069  019D                     	;# 
  2070  019E                     	;# 
  2071  019F                     	;# 
  2072  020C                     	;# 
  2073  020D                     	;# 
  2074  0211                     	;# 
  2075  0211                     	;# 
  2076  0212                     	;# 
  2077  0212                     	;# 
  2078  0213                     	;# 
  2079  0213                     	;# 
  2080  0214                     	;# 
  2081  0214                     	;# 
  2082  0215                     	;# 
  2083  0215                     	;# 
  2084  0215                     	;# 
  2085  0216                     	;# 
  2086  0216                     	;# 
  2087  0217                     	;# 
  2088  0217                     	;# 
  2089  0391                     	;# 
  2090  0392                     	;# 
  2091  0393                     	;# 
  2092  0394                     	;# 
  2093  0395                     	;# 
  2094  0396                     	;# 
  2095  039A                     	;# 
  2096  039B                     	;# 
  2097  0611                     	;# 
  2098  0612                     	;# 
  2099  0613                     	;# 
  2100  0613                     	;# 
  2101  0614                     	;# 
  2102  0615                     	;# 
  2103  0616                     	;# 
  2104  0616                     	;# 
  2105  0691                     	;# 
  2106  0692                     	;# 
  2107  0693                     	;# 
  2108  0694                     	;# 
  2109  0695                     	;# 
  2110  0E8E                     	;# 
  2111  0E8F                     	;# 
  2112  0E90                     	;# 
  2113  0E91                     	;# 
  2114  0E92                     	;# 
  2115  0E93                     	;# 
  2116  0E94                     	;# 
  2117  0E94                     	;# 
  2118  0E95                     	;# 
  2119  0E96                     	;# 
  2120  0E97                     	;# 
  2121  0E98                     	;# 
  2122  0E99                     	;# 
  2123  0E9A                     	;# 
  2124  0E9B                     	;# 
  2125  0E9C                     	;# 
  2126  0E9D                     	;# 
  2127  0E9E                     	;# 
  2128  0E9F                     	;# 
  2129  0FE4                     	;# 
  2130  0FE5                     	;# 
  2131  0FE6                     	;# 
  2132  0FE7                     	;# 
  2133  0FE8                     	;# 
  2134  0FE9                     	;# 
  2135  0FEA                     	;# 
  2136  0FEB                     	;# 
  2137  0FED                     	;# 
  2138  0FEE                     	;# 
  2139  0FEF                     	;# 
  2140                           
  2141                           	psect	stringtext1
  2142  187A                     __pstringtext1:
  2143  187A                     _USB_SD_Ptr:
  2144  187A  3485               	retlw	low (_sd000| (0+32768))
  2145  187B  3498               	retlw	high (_sd000| (0+32768))
  2146  187C  3434               	retlw	low (_sd001| (0+32768))
  2147  187D  3498               	retlw	high (_sd001| (0+32768))
  2148  187E  3400               	retlw	low (_sd002| (0+32768))
  2149  187F  3498               	retlw	high (_sd002| (0+32768))
  2150  1880                     __end_of_USB_SD_Ptr:
  2151                           
  2152                           	psect	stringtext2
  2153  1889                     __pstringtext2:
  2154  1889                     _USB_CD_Ptr:
  2155  1889  3400               	retlw	low (_configDescriptor1| (0+32768))
  2156  188A  3490               	retlw	high (_configDescriptor1| (0+32768))
  2157  188B                     __end_of_USB_CD_Ptr:
  2158                           
  2159                           	psect	stringtext3
  2160  1000                     __pstringtext3:
  2161  1000                     _configDescriptor1:
  2162  1000  3409               	retlw	9
  2163  1001  3402               	retlw	2
  2164  1002  3443               	retlw	67
  2165  1003  3400               	retlw	0
  2166  1004  3402               	retlw	2
  2167  1005  3401               	retlw	1
  2168  1006  3400               	retlw	0
  2169  1007  34C0               	retlw	192
  2170  1008  3432               	retlw	50
  2171  1009  3409               	retlw	9
  2172  100A  3404               	retlw	4
  2173  100B  3400               	retlw	0
  2174  100C  3400               	retlw	0
  2175  100D  3401               	retlw	1
  2176  100E  3402               	retlw	2
  2177  100F  3402               	retlw	2
  2178  1010  3401               	retlw	1
  2179  1011  3400               	retlw	0
  2180  1012  3405               	retlw	5
  2181  1013  3424               	retlw	36
  2182  1014  3400               	retlw	0
  2183  1015  3410               	retlw	16
  2184  1016  3401               	retlw	1
  2185  1017  3404               	retlw	4
  2186  1018  3424               	retlw	36
  2187  1019  3402               	retlw	2
  2188  101A  3402               	retlw	2
  2189  101B  3405               	retlw	5
  2190  101C  3424               	retlw	36
  2191  101D  3406               	retlw	6
  2192  101E  3400               	retlw	0
  2193  101F  3401               	retlw	1
  2194  1020  3405               	retlw	5
  2195  1021  3424               	retlw	36
  2196  1022  3401               	retlw	1
  2197  1023  3400               	retlw	0
  2198  1024  3401               	retlw	1
  2199  1025  3407               	retlw	7
  2200  1026  3405               	retlw	5
  2201  1027  3481               	retlw	129
  2202  1028  3403               	retlw	3
  2203  1029  3408               	retlw	8
  2204  102A  3400               	retlw	0
  2205  102B  3402               	retlw	2
  2206  102C  3409               	retlw	9
  2207  102D  3404               	retlw	4
  2208  102E  3401               	retlw	1
  2209  102F  3400               	retlw	0
  2210  1030  3402               	retlw	2
  2211  1031  340A               	retlw	10
  2212  1032  3400               	retlw	0
  2213  1033  3400               	retlw	0
  2214  1034  3400               	retlw	0
  2215  1035  3407               	retlw	7
  2216  1036  3405               	retlw	5
  2217  1037  3402               	retlw	2
  2218  1038  3402               	retlw	2
  2219  1039  3440               	retlw	64
  2220  103A  3400               	retlw	0
  2221  103B  3400               	retlw	0
  2222  103C  3407               	retlw	7
  2223  103D  3405               	retlw	5
  2224  103E  3482               	retlw	130
  2225  103F  3402               	retlw	2
  2226  1040  3440               	retlw	64
  2227  1041  3400               	retlw	0
  2228  1042  3400               	retlw	0
  2229  1043                     __end_of_configDescriptor1:
  2230                           
  2231                           	psect	stringtext4
  2232  1800                     __pstringtext4:
  2233  1800                     _sd002:
  2234  1800  3434               	retlw	52
  2235  1801  3403               	retlw	3
  2236  1802  3443               	retlw	67
  2237  1803  3400               	retlw	0
  2238  1804  3444               	retlw	68
  2239  1805  3400               	retlw	0
  2240  1806  3443               	retlw	67
  2241  1807  3400               	retlw	0
  2242  1808  3420               	retlw	32
  2243  1809  3400               	retlw	0
  2244  180A  3452               	retlw	82
  2245  180B  3400               	retlw	0
  2246  180C  3453               	retlw	83
  2247  180D  3400               	retlw	0
  2248  180E  342D               	retlw	45
  2249  180F  3400               	retlw	0
  2250  1810  3432               	retlw	50
  2251  1811  3400               	retlw	0
  2252  1812  3433               	retlw	51
  2253  1813  3400               	retlw	0
  2254  1814  3432               	retlw	50
  2255  1815  3400               	retlw	0
  2256  1816  3420               	retlw	32
  2257  1817  3400               	retlw	0
  2258  1818  3445               	retlw	69
  2259  1819  3400               	retlw	0
  2260  181A  346D               	retlw	109
  2261  181B  3400               	retlw	0
  2262  181C  3475               	retlw	117
  2263  181D  3400               	retlw	0
  2264  181E  346C               	retlw	108
  2265  181F  3400               	retlw	0
  2266  1820  3461               	retlw	97
  2267  1821  3400               	retlw	0
  2268  1822  3474               	retlw	116
  2269  1823  3400               	retlw	0
  2270  1824  3469               	retlw	105
  2271  1825  3400               	retlw	0
  2272  1826  346F               	retlw	111
  2273  1827  3400               	retlw	0
  2274  1828  346E               	retlw	110
  2275  1829  3400               	retlw	0
  2276  182A  3420               	retlw	32
  2277  182B  3400               	retlw	0
  2278  182C  3444               	retlw	68
  2279  182D  3400               	retlw	0
  2280  182E  3465               	retlw	101
  2281  182F  3400               	retlw	0
  2282  1830  346D               	retlw	109
  2283  1831  3400               	retlw	0
  2284  1832  346F               	retlw	111
  2285  1833  3400               	retlw	0
  2286  1834                     __end_of_sd002:
  2287                           
  2288                           	psect	stringtext5
  2289  1834                     __pstringtext5:
  2290  1834                     _sd001:
  2291  1834  3434               	retlw	52
  2292  1835  3403               	retlw	3
  2293  1836  344D               	retlw	77
  2294  1837  3400               	retlw	0
  2295  1838  3469               	retlw	105
  2296  1839  3400               	retlw	0
  2297  183A  3463               	retlw	99
  2298  183B  3400               	retlw	0
  2299  183C  3472               	retlw	114
  2300  183D  3400               	retlw	0
  2301  183E  346F               	retlw	111
  2302  183F  3400               	retlw	0
  2303  1840  3463               	retlw	99
  2304  1841  3400               	retlw	0
  2305  1842  3468               	retlw	104
  2306  1843  3400               	retlw	0
  2307  1844  3469               	retlw	105
  2308  1845  3400               	retlw	0
  2309  1846  3470               	retlw	112
  2310  1847  3400               	retlw	0
  2311  1848  3420               	retlw	32
  2312  1849  3400               	retlw	0
  2313  184A  3454               	retlw	84
  2314  184B  3400               	retlw	0
  2315  184C  3465               	retlw	101
  2316  184D  3400               	retlw	0
  2317  184E  3463               	retlw	99
  2318  184F  3400               	retlw	0
  2319  1850  3468               	retlw	104
  2320  1851  3400               	retlw	0
  2321  1852  346E               	retlw	110
  2322  1853  3400               	retlw	0
  2323  1854  346F               	retlw	111
  2324  1855  3400               	retlw	0
  2325  1856  346C               	retlw	108
  2326  1857  3400               	retlw	0
  2327  1858  346F               	retlw	111
  2328  1859  3400               	retlw	0
  2329  185A  3467               	retlw	103
  2330  185B  3400               	retlw	0
  2331  185C  3479               	retlw	121
  2332  185D  3400               	retlw	0
  2333  185E  3420               	retlw	32
  2334  185F  3400               	retlw	0
  2335  1860  3449               	retlw	73
  2336  1861  3400               	retlw	0
  2337  1862  346E               	retlw	110
  2338  1863  3400               	retlw	0
  2339  1864  3463               	retlw	99
  2340  1865  3400               	retlw	0
  2341  1866  342E               	retlw	46
  2342  1867  3400               	retlw	0
  2343  1868                     __end_of_sd001:
  2344                           
  2345                           	psect	stringtext6
  2346  1868                     __pstringtext6:
  2347  1868                     _device_dsc:
  2348  1868  3412               	retlw	18
  2349  1869  3401               	retlw	1
  2350  186A  3400               	retlw	0
  2351  186B  3402               	retlw	2
  2352  186C  3402               	retlw	2
  2353  186D  3400               	retlw	0
  2354  186E  3400               	retlw	0
  2355  186F  3408               	retlw	8
  2356  1870  34D8               	retlw	216
  2357  1871  3404               	retlw	4
  2358  1872  340A               	retlw	10
  2359  1873  3400               	retlw	0
  2360  1874  3400               	retlw	0
  2361  1875  3401               	retlw	1
  2362  1876  3401               	retlw	1
  2363  1877  3402               	retlw	2
  2364  1878  3400               	retlw	0
  2365  1879  3401               	retlw	1
  2366  187A                     __end_of_device_dsc:
  2367                           
  2368                           	psect	stringtext7
  2369  1885                     __pstringtext7:
  2370  1885                     _sd000:
  2371  1885  3404               	retlw	4
  2372  1886  3403               	retlw	3
  2373  1887  3409               	retlw	9
  2374  1888  3404               	retlw	4
  2375  1889                     __end_of_sd000:
  2376                           
  2377                           	psect	nvBANK3
  2378  01ED                     __pnvBANK3:
  2379  01ED                     _gSwMode:
  2380  01ED                     	ds	1
  2381  000B                     _INTCONbits	set	11
  2382  0012                     _PIR2bits	set	18
  2383  000C                     _PORTAbits	set	12
  2384  008C                     _TXIF	set	140
  2385  008D                     _RCIF	set	141
  2386  005F                     _GIE	set	95
  2387  005E                     _PEIE	set	94
  2388  0092                     _PIE2bits	set	146
  2389  008E                     _TRISCbits	set	142
  2390  008D                     _TRISBbits	set	141
  2391  008C                     _TRISAbits	set	140
  2392  0099                     _OSCCON	set	153
  2393  048D                     _RCIE	set	1165
  2394  04AF                     _nWPUEN	set	1199
  2395  010E                     _LATCbits	set	270
  2396  019B                     _SPBRG	set	411
  2397  019A                     _TXREG	set	410
  2398  019F                     _BAUDCON	set	415
  2399  019E                     _TXSTA	set	414
  2400  019D                     _RCSTA	set	413
  2401  0199                     _RCREG	set	409
  2402  018E                     _ANSELC	set	398
  2403  018D                     _ANSELB	set	397
  2404  018C                     _ANSELA	set	396
  2405  0214                     _SSPSTATbits	set	532
  2406  0211                     _SSPBUF	set	529
  2407  0215                     _SSP1CON1	set	533
  2408  0214                     _SSP1STAT	set	532
  2409  1065                     _WPUA5	set	4197
  2410  039B                     _ACTCON	set	923
  2411  0E98                     _UEP0bits	set	3736
  2412  0E8E                     _UCON	set	3726
  2413  0E8F                     _USTAT	set	3727
  2414  0E92                     _UIEbits	set	3730
  2415  0E90                     _UIRbits	set	3728
  2416  0E96                     _UADDR	set	3734
  2417  0E92                     _UIE	set	3730
  2418  0E97                     _UEIE	set	3735
  2419  0E91                     _UCFG	set	3729
  2420  0E90                     _UIR	set	3728
  2421  0E93                     _UEIR	set	3731
  2422  0E8E                     _UCONbits	set	3726
  2423  0E99                     _UEP1	set	3737
  2424  0E98                     _UEP0	set	3736
  2425                           
  2426                           	psect	stringtext8
  2427  1880                     __pstringtext8:
  2428  1880                     STR_1:
  2429  1880  344E               	retlw	78	;'N'
  2430  1881  3443               	retlw	67	;'C'
  2431  1882  340D               	retlw	13
  2432  1883  340A               	retlw	10
  2433  1884  3400               	retlw	0
  2434                           
  2435                           	psect	stringtext9
  2436  0000                     __pstringtext9:
  2437  1882                     
  2438                           	psect	cinit
  2439  0017                     start_initialization:	
  2440                           ; #config settings
  2441                           
  2442  0017                     __initialization:
  2443                           
  2444                           ; Clear objects allocated to BANK1
  2445  0017  0021               	movlb	1	; select bank1
  2446  0018  01E9               	clrf	__pbssBANK1& (0+127)
  2447  0019  01EA               	clrf	(__pbssBANK1+1)& (0+127)
  2448  001A  01EB               	clrf	(__pbssBANK1+2)& (0+127)
  2449  001B  01EC               	clrf	(__pbssBANK1+3)& (0+127)
  2450                           
  2451                           ; Clear objects allocated to BANK3
  2452  001C  30A0               	movlw	low __pbssBANK3
  2453  001D  0084               	movwf	4
  2454  001E  3001               	movlw	high __pbssBANK3
  2455  001F  0085               	movwf	5
  2456  0020  3036               	movlw	54
  2457  0021  3194  2492  3180   	fcall	clear_ram0
  2458                           
  2459                           ; Clear objects allocated to BANK4
  2460  0024  3020               	movlw	low __pbssBANK4
  2461  0025  0084               	movwf	4
  2462  0026  3002               	movlw	high __pbssBANK4
  2463  0027  0085               	movwf	5
  2464  0028  301D               	movlw	29
  2465  0029  3194  2492  3180   	fcall	clear_ram0
  2466                           
  2467                           ; Clear objects allocated to BANK5
  2468  002C  30A0               	movlw	low __pbssBANK5
  2469  002D  0084               	movwf	4
  2470  002E  3002               	movlw	high __pbssBANK5
  2471  002F  0085               	movwf	5
  2472  0030  3040               	movlw	64
  2473  0031  3194  2492  3180   	fcall	clear_ram0
  2474                           
  2475                           ; Clear objects allocated to BANK6
  2476  0034  3020               	movlw	low __pbssBANK6
  2477  0035  0084               	movwf	4
  2478  0036  3003               	movlw	high __pbssBANK6
  2479  0037  0085               	movwf	5
  2480  0038  3040               	movlw	64
  2481  0039  3194  2492  3180   	fcall	clear_ram0
  2482  003C                     end_of_initialization:	
  2483                           ;End of C runtime variable initialization code
  2484                           
  2485  003C                     __end_of__initialization:
  2486  003C  107E               	bcf	int$flags,0	;clear compiler interrupt flag (level 1)
  2487  003D  0020               	movlb	0
  2488  003E  3197  2FBF         	ljmp	_main	;jump to C main() function
  2489                           
  2490                           	psect	bssBANK1
  2491  00E9                     __pbssBANK1:
  2492  00E9                     _controlTransferState:
  2493  00E9                     	ds	1
  2494  00EA                     _pBDTEntryEP0OutNext:
  2495  00EA                     	ds	1
  2496  00EB                     _pBDTEntryEP0OutCurrent:
  2497  00EB                     	ds	1
  2498  00EC                     _USTATcopy:
  2499  00EC                     	ds	1
  2500                           
  2501                           	psect	bssBANK3
  2502  01A0                     __pbssBANK3:
  2503  01A0                     _outPipes:
  2504  01A0                     	ds	7
  2505  01A7                     _inPipes:
  2506  01A7                     	ds	5
  2507  01AC                     _ep_data_out:
  2508  01AC                     	ds	3
  2509  01AF                     _ep_data_in:
  2510  01AF                     	ds	3
  2511  01B2                     _pBDTEntryIn:
  2512  01B2                     	ds	3
  2513  01B5                     _pBDTEntryOut:
  2514  01B5                     	ds	3
  2515  01B8                     _pCDCDst:
  2516  01B8                     	ds	2
  2517  01BA                     _pCDCSrc:
  2518  01BA                     	ds	2
  2519  01BC                     APP_LEDUpdateUSBStatus@ledCount:
  2520  01BC                     	ds	2
  2521  01BE                     _control_signal_bitmap:
  2522  01BE                     	ds	1
  2523  01BF                     _CDCDataInHandle:
  2524  01BF                     	ds	1
  2525  01C0                     _CDCDataOutHandle:
  2526  01C0                     	ds	1
  2527  01C1                     _cdc_mem_type:
  2528  01C1                     	ds	1
  2529  01C2                     _cdc_tx_len:
  2530  01C2                     	ds	1
  2531  01C3                     _cdc_rx_len:
  2532  01C3                     	ds	1
  2533  01C4                     _USBDeferOUTDataStagePackets:
  2534  01C4                     	ds	1
  2535  01C5                     _USBDeferINDataStagePackets:
  2536  01C5                     	ds	1
  2537  01C6                     _USBStatusStageEnabledFlag2:
  2538  01C6                     	ds	1
  2539  01C7                     _USBStatusStageEnabledFlag1:
  2540  01C7                     	ds	1
  2541  01C8                     _USBDeferStatusStagePacket:
  2542  01C8                     	ds	1
  2543  01C9                     _USBStatusStageTimeoutCounter:
  2544  01C9                     	ds	1
  2545  01CA                     _BothEP0OutUOWNsSet:
  2546  01CA                     	ds	1
  2547  01CB                     _endpoint_number:
  2548  01CB                     	ds	1
  2549  01CC                     _USBBusIsSuspended:
  2550  01CC                     	ds	1
  2551  01CD                     _RemoteWakeup:
  2552  01CD                     	ds	1
  2553  01CE                     _pDst:
  2554  01CE                     	ds	1
  2555  01CF                     _shortPacketStatus:
  2556  01CF                     	ds	1
  2557  01D0                     _gRxChar:
  2558  01D0                     	ds	1
  2559  01D1                     _cdc_trf_state:
  2560  01D1                     	ds	1
  2561  01D2                     _USBDeviceState:
  2562  01D2                     	ds	1
  2563  01D3                     _USBAlternateInterface:
  2564  01D3                     	ds	2
  2565  01D5                     _USBActiveConfiguration:
  2566  01D5                     	ds	1
  2567                           
  2568                           	psect	bssBANK4
  2569  0220                     __pbssBANK4:
  2570  0220                     _cdc_notice:
  2571  0220                     	ds	10
  2572  022A                     _BaudRateGen:
  2573  022A                     	ds	4
  2574  022E                     _dummy_encapsulated_cmd_response:
  2575  022E                     	ds	8
  2576  0236                     _line_coding:
  2577  0236                     	ds	7
  2578                           
  2579                           	psect	bssBANK5
  2580  02A0                     __pbssBANK5:
  2581  02A0                     _readBuffer:
  2582  02A0                     	ds	64
  2583                           
  2584                           	psect	bssBANK6
  2585  0320                     __pbssBANK6:
  2586  0320                     _writeBuffer:
  2587  0320                     	ds	64
  2588                           
  2589                           	psect	clrtext
  2590  1492                     clear_ram0:	
  2591                           ;	Called with FSR0 containing the base address, and
  2592                           ;	WREG with the size to clear
  2593                           
  2594  1492  0064               	clrwdt	;clear the watchdog before getting into this loop
  2595  1493                     clrloop0:
  2596  1493  0180               	clrf	0	;clear RAM location pointed to by FSR
  2597  1494  3101               	addfsr 0,1
  2598  1495  0B89               	decfsz	9,f	;Have we reached the end of clearing yet?
  2599  1496  2C93               	goto	clrloop0	;have we reached the end yet?
  2600  1497  3400               	retlw	0	;all done for this memory range, return
  2601                           
  2602                           	psect	cstackBANK3
  2603  01D6                     __pcstackBANK3:
  2604  01D6                     my_itoa@n:
  2605                           
  2606                           ; 2 bytes @ 0x0
  2607  01D6                     	ds	2
  2608  01D8                     my_itoa@p:
  2609                           
  2610                           ; 1 bytes @ 0x2
  2611  01D8                     	ds	1
  2612  01D9                     my_itoa@v:
  2613                           
  2614                           ; 2 bytes @ 0x3
  2615  01D9                     	ds	2
  2616  01DB                     ??_shell:
  2617  01DB                     ??_APP_DeviceCDCEmulatorTasks:	
  2618                           ; 1 bytes @ 0x5
  2619                           
  2620                           
  2621                           ; 1 bytes @ 0x5
  2622  01DB                     	ds	1
  2623  01DC                     shell@max_6675_temp_str:
  2624                           
  2625                           ; 8 bytes @ 0x6
  2626  01DC                     	ds	1
  2627  01DD                     APP_DeviceCDCEmulatorTasks@max_6675_temp_str:
  2628                           
  2629                           ; 8 bytes @ 0x7
  2630  01DD                     	ds	7
  2631  01E4                     shell@max_6675_temp:
  2632                           
  2633                           ; 2 bytes @ 0xE
  2634  01E4                     	ds	1
  2635  01E5                     APP_DeviceCDCEmulatorTasks@max_6675_temp:
  2636                           
  2637                           ; 2 bytes @ 0xF
  2638  01E5                     	ds	1
  2639  01E6                     shell@max_6675:
  2640                           
  2641                           ; 2 bytes @ 0x10
  2642  01E6                     	ds	1
  2643  01E7                     APP_DeviceCDCEmulatorTasks@i:
  2644                           
  2645                           ; 1 bytes @ 0x11
  2646  01E7                     	ds	1
  2647  01E8                     APP_DeviceCDCEmulatorTasks@numBytesRead:
  2648                           
  2649                           ; 1 bytes @ 0x12
  2650  01E8                     	ds	1
  2651  01E9                     APP_DeviceCDCEmulatorTasks@j:
  2652                           
  2653                           ; 1 bytes @ 0x13
  2654  01E9                     	ds	1
  2655  01EA                     APP_DeviceCDCEmulatorTasks@max_6675:
  2656                           
  2657                           ; 2 bytes @ 0x14
  2658  01EA                     	ds	2
  2659  01EC                     APP_DeviceCDCEmulatorTasks@max_6675_temp_str_len:
  2660                           
  2661                           ; 1 bytes @ 0x16
  2662  01EC                     	ds	1
  2663                           
  2664                           	psect	cstackBANK2
  2665  0160                     __pcstackBANK2:
  2666  0160                     ?_putsUSBUSART:
  2667  0160                     ?_putUSBUSART:	
  2668                           ; 1 bytes @ 0x0
  2669                           
  2670  0160                     ?_strOutFromUSART:	
  2671                           ; 1 bytes @ 0x0
  2672                           
  2673  0160                     ?_USBTransferOnePacket:	
  2674                           ; 1 bytes @ 0x0
  2675                           
  2676  0160                     ?_Get_MAX6675:	
  2677                           ; 1 bytes @ 0x0
  2678                           
  2679  0160                     ?_Check_MAX6675_NC:	
  2680                           ; 2 bytes @ 0x0
  2681                           
  2682  0160                     ?___awdiv:	
  2683                           ; 2 bytes @ 0x0
  2684                           
  2685  0160                     ?___lwdiv:	
  2686                           ; 2 bytes @ 0x0
  2687                           
  2688  0160                     ?___lwmod:	
  2689                           ; 2 bytes @ 0x0
  2690                           
  2691  0160                     my_strlen@aStr:	
  2692                           ; 2 bytes @ 0x0
  2693                           
  2694  0160                     USBTransferOnePacket@dir:	
  2695                           ; 1 bytes @ 0x0
  2696                           
  2697  0160                     putUSBUSART@length:	
  2698                           ; 1 bytes @ 0x0
  2699                           
  2700  0160                     Check_MAX6675_NC@aMAX6675:	
  2701                           ; 1 bytes @ 0x0
  2702                           
  2703  0160                     strOutFromUSART@str:	
  2704                           ; 2 bytes @ 0x0
  2705                           
  2706  0160                     USBDeviceInit@p:	
  2707                           ; 2 bytes @ 0x0
  2708                           
  2709  0160                     putsUSBUSART@data:	
  2710                           ; 2 bytes @ 0x0
  2711                           
  2712  0160                     ___awdiv@divisor:	
  2713                           ; 2 bytes @ 0x0
  2714                           
  2715  0160                     ___lwdiv@divisor:	
  2716                           ; 2 bytes @ 0x0
  2717                           
  2718  0160                     ___lwmod@divisor:	
  2719                           ; 2 bytes @ 0x0
  2720                           
  2721                           
  2722                           ; 2 bytes @ 0x0
  2723  0160                     	ds	1
  2724  0161                     my_strlen@length:
  2725  0161                     USBTransferOnePacket@data:	
  2726                           ; 1 bytes @ 0x1
  2727                           
  2728                           
  2729                           ; 2 bytes @ 0x1
  2730  0161                     	ds	1
  2731  0162                     ??_Get_MAX6675:
  2732  0162                     ??_putsUSBUSART:	
  2733                           ; 1 bytes @ 0x2
  2734                           
  2735  0162                     Check_MAX6675_NC@ConnectionOrNot:	
  2736                           ; 1 bytes @ 0x2
  2737                           
  2738  0162                     USBDeviceInit@i_1363:	
  2739                           ; 1 bytes @ 0x2
  2740                           
  2741  0162                     ___awdiv@dividend:	
  2742                           ; 1 bytes @ 0x2
  2743                           
  2744  0162                     ___lwdiv@dividend:	
  2745                           ; 2 bytes @ 0x2
  2746                           
  2747  0162                     ___lwmod@dividend:	
  2748                           ; 2 bytes @ 0x2
  2749                           
  2750                           
  2751                           ; 2 bytes @ 0x2
  2752  0162                     	ds	1
  2753  0163                     USBDeviceInit@i:
  2754  0163                     USBTransferOnePacket@len:	
  2755                           ; 1 bytes @ 0x3
  2756                           
  2757                           
  2758                           ; 1 bytes @ 0x3
  2759  0163                     	ds	1
  2760  0164                     USBTransferOnePacket@ep:
  2761  0164                     ___awdiv@counter:	
  2762                           ; 1 bytes @ 0x4
  2763                           
  2764  0164                     ___lwdiv@counter:	
  2765                           ; 1 bytes @ 0x4
  2766                           
  2767                           
  2768                           ; 1 bytes @ 0x4
  2769  0164                     	ds	1
  2770  0165                     USBTransferOnePacket@handle:
  2771  0165                     ___awdiv@sign:	
  2772                           ; 1 bytes @ 0x5
  2773                           
  2774  0165                     Get_MAX6675@msb:	
  2775                           ; 1 bytes @ 0x5
  2776                           
  2777  0165                     putsUSBUSART@pData:	
  2778                           ; 2 bytes @ 0x5
  2779                           
  2780  0165                     ___lwdiv@quotient:	
  2781                           ; 2 bytes @ 0x5
  2782                           
  2783                           
  2784                           ; 2 bytes @ 0x5
  2785  0165                     	ds	1
  2786  0166                     ?_getsUSBUSART:
  2787  0166                     ??_CDCTxService:	
  2788                           ; 1 bytes @ 0x6
  2789                           
  2790  0166                     getsUSBUSART@len:	
  2791                           ; 1 bytes @ 0x6
  2792                           
  2793  0166                     ___awdiv@quotient:	
  2794                           ; 1 bytes @ 0x6
  2795                           
  2796                           
  2797                           ; 2 bytes @ 0x6
  2798  0166                     	ds	1
  2799  0167                     ??_getsUSBUSART:
  2800  0167                     ?_my_itoa:	
  2801                           ; 1 bytes @ 0x7
  2802                           
  2803  0167                     putsUSBUSART@len:	
  2804                           ; 1 bytes @ 0x7
  2805                           
  2806  0167                     Get_MAX6675@lsb:	
  2807                           ; 1 bytes @ 0x7
  2808                           
  2809  0167                     my_itoa@val:	
  2810                           ; 2 bytes @ 0x7
  2811                           
  2812                           
  2813                           ; 2 bytes @ 0x7
  2814  0167                     	ds	1
  2815  0168                     ?_Get_MAX6675_Temp:
  2816  0168                     Get_MAX6675_Temp@aMAX6675:	
  2817                           ; 2 bytes @ 0x8
  2818                           
  2819  0168                     _CDCTxService$2859:	
  2820                           ; 2 bytes @ 0x8
  2821                           
  2822                           
  2823                           ; 2 bytes @ 0x8
  2824  0168                     	ds	1
  2825  0169                     my_itoa@a:
  2826  0169                     getsUSBUSART@buffer:	
  2827                           ; 1 bytes @ 0x9
  2828                           
  2829  0169                     Get_MAX6675@msblsb:	
  2830                           ; 1 bytes @ 0x9
  2831                           
  2832                           
  2833                           ; 2 bytes @ 0x9
  2834  0169                     	ds	1
  2835  016A                     ??_Get_MAX6675_Temp:
  2836  016A                     CDCTxService@i:	
  2837                           ; 1 bytes @ 0xA
  2838                           
  2839  016A                     my_itoa@radix:	
  2840                           ; 1 bytes @ 0xA
  2841                           
  2842  016A                     _getsUSBUSART$2811:	
  2843                           ; 2 bytes @ 0xA
  2844                           
  2845                           
  2846                           ; 2 bytes @ 0xA
  2847  016A                     	ds	1
  2848  016B                     CDCTxService@byte_to_send:
  2849                           
  2850                           ; 1 bytes @ 0xB
  2851  016B                     	ds	1
  2852  016C                     ??_my_itoa:
  2853  016C                     Get_MAX6675_Temp@temp:	
  2854                           ; 1 bytes @ 0xC
  2855                           
  2856                           
  2857                           ; 2 bytes @ 0xC
  2858  016C                     	ds	2
  2859  016E                     Get_MAX6675_Temp@temparature:
  2860                           
  2861                           ; 2 bytes @ 0xE
  2862  016E                     	ds	2
  2863                           
  2864                           	psect	cstackBANK1
  2865  00E0                     __pcstackBANK1:
  2866  00E0                     ??_USBCtrlEPService:
  2867                           
  2868                           ; 1 bytes @ 0x0
  2869  00E0                     	ds	3
  2870  00E3                     USBCtrlEPService@setup_cnt:
  2871                           
  2872                           ; 1 bytes @ 0x3
  2873  00E3                     	ds	1
  2874  00E4                     ??_USBDeviceTasks:
  2875                           
  2876                           ; 1 bytes @ 0x4
  2877  00E4                     	ds	2
  2878  00E6                     USBDeviceTasks@i:
  2879                           
  2880                           ; 1 bytes @ 0x6
  2881  00E6                     	ds	1
  2882  00E7                     ??_LED_Enable:
  2883  00E7                     ??_BUTTON_Enable:	
  2884                           ; 1 bytes @ 0x7
  2885                           
  2886  00E7                     ??_Check_MAX6675_NC:	
  2887                           ; 1 bytes @ 0x7
  2888                           
  2889  00E7                     ??_my_strlen:	
  2890                           ; 1 bytes @ 0x7
  2891                           
  2892  00E7                     ??_putUSBUSART:	
  2893                           ; 1 bytes @ 0x7
  2894                           
  2895  00E7                     ??_InitIO:	
  2896                           ; 1 bytes @ 0x7
  2897                           
  2898  00E7                     ??_USBDeviceInit:	
  2899                           ; 1 bytes @ 0x7
  2900                           
  2901  00E7                     ??_USBDeviceAttach:	
  2902                           ; 1 bytes @ 0x7
  2903                           
  2904  00E7                     ??_InitUSART:	
  2905                           ; 1 bytes @ 0x7
  2906                           
  2907  00E7                     ??_InitISR:	
  2908                           ; 1 bytes @ 0x7
  2909                           
  2910  00E7                     ??_InitSPI_MAX6675:	
  2911                           ; 1 bytes @ 0x7
  2912                           
  2913  00E7                     ??_USBTransferOnePacket:	
  2914                           ; 1 bytes @ 0x7
  2915                           
  2916  00E7                     ??_putch:	
  2917                           ; 1 bytes @ 0x7
  2918                           
  2919  00E7                     ??___awdiv:	
  2920                           ; 1 bytes @ 0x7
  2921                           
  2922  00E7                     ??___lwdiv:	
  2923                           ; 1 bytes @ 0x7
  2924                           
  2925  00E7                     ??___lwmod:	
  2926                           ; 1 bytes @ 0x7
  2927                           
  2928  00E7                     putch@byte:	
  2929                           ; 1 bytes @ 0x7
  2930                           
  2931  00E7                     BUTTON_Enable@button:	
  2932                           ; 1 bytes @ 0x7
  2933                           
  2934  00E7                     LED_Enable@led:	
  2935                           ; 1 bytes @ 0x7
  2936                           
  2937                           
  2938                           ; 1 bytes @ 0x7
  2939  00E7                     	ds	1
  2940  00E8                     ??_strOutFromUSART:
  2941  00E8                     ??_SYSTEM_Initialize:	
  2942                           ; 1 bytes @ 0x8
  2943                           
  2944  00E8                     SYSTEM_Initialize@state:	
  2945                           ; 1 bytes @ 0x8
  2946                           
  2947  00E8                     putUSBUSART@data:	
  2948                           ; 1 bytes @ 0x8
  2949                           
  2950  00E8                     ___lwmod@counter:	
  2951                           ; 1 bytes @ 0x8
  2952                           
  2953                           
  2954                           ; 1 bytes @ 0x8
  2955  00E8                     	ds	1
  2956  00E9                     ??_main:
  2957                           
  2958                           	psect	cstackCOMMON
  2959  0070                     __pcstackCOMMON:	
  2960                           ; 1 bytes @ 0x9
  2961                           
  2962  0070                     ?_LED_Enable:
  2963  0070                     ?_BUTTON_Enable:	
  2964                           ; 1 bytes @ 0x0
  2965                           
  2966  0070                     ?_USBDeviceTasks:	
  2967                           ; 1 bytes @ 0x0
  2968                           
  2969  0070                     ?_isr:	
  2970                           ; 1 bytes @ 0x0
  2971                           
  2972  0070                     ??_isr:	
  2973                           ; 1 bytes @ 0x0
  2974                           
  2975  0070                     ?_CDCInitEP:	
  2976                           ; 1 bytes @ 0x0
  2977                           
  2978  0070                     ?_my_strlen:	
  2979                           ; 1 bytes @ 0x0
  2980                           
  2981  0070                     ?_CDCTxService:	
  2982                           ; 1 bytes @ 0x0
  2983                           
  2984  0070                     ?_InitIO:	
  2985                           ; 1 bytes @ 0x0
  2986                           
  2987  0070                     ?_USBDeviceInit:	
  2988                           ; 1 bytes @ 0x0
  2989                           
  2990  0070                     ?_USBDeviceAttach:	
  2991                           ; 1 bytes @ 0x0
  2992                           
  2993  0070                     ?_InitUSART:	
  2994                           ; 1 bytes @ 0x0
  2995                           
  2996  0070                     ?_InitISR:	
  2997                           ; 1 bytes @ 0x0
  2998                           
  2999  0070                     ?_InitSPI_MAX6675:	
  3000                           ; 1 bytes @ 0x0
  3001                           
  3002  0070                     ?_shell:	
  3003                           ; 1 bytes @ 0x0
  3004                           
  3005  0070                     ?_USBCheckCDCRequest:	
  3006                           ; 1 bytes @ 0x0
  3007                           
  3008  0070                     ??_USBCheckCDCRequest:	
  3009                           ; 1 bytes @ 0x0
  3010                           
  3011  0070                     ?_USBWakeFromSuspend:	
  3012                           ; 1 bytes @ 0x0
  3013                           
  3014  0070                     ?_USBSuspend:	
  3015                           ; 1 bytes @ 0x0
  3016                           
  3017  0070                     ?_USBCtrlEPAllowStatusStage:	
  3018                           ; 1 bytes @ 0x0
  3019                           
  3020  0070                     ??_USBCtrlEPAllowStatusStage:	
  3021                           ; 1 bytes @ 0x0
  3022                           
  3023  0070                     ?_USBStallHandler:	
  3024                           ; 1 bytes @ 0x0
  3025                           
  3026  0070                     ??_USBStallHandler:	
  3027                           ; 1 bytes @ 0x0
  3028                           
  3029  0070                     ?_USBCtrlEPService:	
  3030                           ; 1 bytes @ 0x0
  3031                           
  3032  0070                     ?_USBConfigureEndpoint:	
  3033                           ; 1 bytes @ 0x0
  3034                           
  3035  0070                     ?_USBCtrlTrfTxService:	
  3036                           ; 1 bytes @ 0x0
  3037                           
  3038  0070                     ??_USBCtrlTrfTxService:	
  3039                           ; 1 bytes @ 0x0
  3040                           
  3041  0070                     ?_USBCtrlTrfSetupHandler:	
  3042                           ; 1 bytes @ 0x0
  3043                           
  3044  0070                     ?_USBCtrlTrfOutHandler:	
  3045                           ; 1 bytes @ 0x0
  3046                           
  3047  0070                     ?_USBCtrlTrfInHandler:	
  3048                           ; 1 bytes @ 0x0
  3049                           
  3050  0070                     ?_USBCheckStdRequest:	
  3051                           ; 1 bytes @ 0x0
  3052                           
  3053  0070                     ?_USBStdFeatureReqHandler:	
  3054                           ; 1 bytes @ 0x0
  3055                           
  3056  0070                     ?_SYSTEM_Initialize:	
  3057                           ; 1 bytes @ 0x0
  3058                           
  3059  0070                     ?_SYS_InterruptHigh:	
  3060                           ; 1 bytes @ 0x0
  3061                           
  3062  0070                     ?_APP_DeviceCDCEmulatorInitialize:	
  3063                           ; 1 bytes @ 0x0
  3064                           
  3065  0070                     ?_APP_DeviceCDCEmulatorTasks:	
  3066                           ; 1 bytes @ 0x0
  3067                           
  3068  0070                     ?_main:	
  3069                           ; 1 bytes @ 0x0
  3070                           
  3071  0070                     ?_putch:	
  3072                           ; 1 bytes @ 0x0
  3073                           
  3074  0070                     ?_USBCtrlEPAllowDataStage:	
  3075                           ; 1 bytes @ 0x0
  3076                           
  3077  0070                     ?_USBCtrlEPServiceComplete:	
  3078                           ; 1 bytes @ 0x0
  3079                           
  3080  0070                     ?_USBCtrlTrfRxService:	
  3081                           ; 1 bytes @ 0x0
  3082                           
  3083  0070                     ?_USBStdSetCfgHandler:	
  3084                           ; 1 bytes @ 0x0
  3085                           
  3086  0070                     ?_USBStdGetDscHandler:	
  3087                           ; 1 bytes @ 0x0
  3088                           
  3089  0070                     ??_USBStdGetDscHandler:	
  3090                           ; 1 bytes @ 0x0
  3091                           
  3092  0070                     ?_USBStdGetStatusHandler:	
  3093                           ; 1 bytes @ 0x0
  3094                           
  3095  0070                     ??_USBStdGetStatusHandler:	
  3096                           ; 1 bytes @ 0x0
  3097                           
  3098  0070                     ?i1_USBDeviceInit:	
  3099                           ; 1 bytes @ 0x0
  3100                           
  3101  0070                     ??i1_USBDeviceInit:	
  3102                           ; 1 bytes @ 0x0
  3103                           
  3104  0070                     ?i1_USBTransferOnePacket:	
  3105                           ; 1 bytes @ 0x0
  3106                           
  3107  0070                     ?_memset:	
  3108                           ; 1 bytes @ 0x0
  3109                           
  3110  0070                     USBConfigureEndpoint@direction:	
  3111                           ; 2 bytes @ 0x0
  3112                           
  3113  0070                     i1USBTransferOnePacket@dir:	
  3114                           ; 1 bytes @ 0x0
  3115                           
  3116  0070                     memset@p1:	
  3117                           ; 1 bytes @ 0x0
  3118                           
  3119                           
  3120                           ; 2 bytes @ 0x0
  3121  0070                     	ds	1
  3122  0071                     ??_USBConfigureEndpoint:
  3123  0071                     USBStdGetStatusHandler@p:	
  3124                           ; 1 bytes @ 0x1
  3125                           
  3126  0071                     i1USBDeviceInit@p:	
  3127                           ; 1 bytes @ 0x1
  3128                           
  3129  0071                     i1USBTransferOnePacket@data:	
  3130                           ; 2 bytes @ 0x1
  3131                           
  3132                           
  3133                           ; 2 bytes @ 0x1
  3134  0071                     	ds	1
  3135  0072                     ??_USBCtrlTrfRxService:
  3136  0072                     USBCtrlTrfTxService@byteToSend:	
  3137                           ; 1 bytes @ 0x2
  3138                           
  3139  0072                     memset@c:	
  3140                           ; 1 bytes @ 0x2
  3141                           
  3142                           
  3143                           ; 2 bytes @ 0x2
  3144  0072                     	ds	1
  3145  0073                     ??_USBCtrlTrfInHandler:
  3146  0073                     ??_USBCtrlEPAllowDataStage:	
  3147                           ; 1 bytes @ 0x3
  3148                           
  3149  0073                     i1USBDeviceInit@i_1363:	
  3150                           ; 1 bytes @ 0x3
  3151                           
  3152  0073                     i1USBTransferOnePacket@len:	
  3153                           ; 1 bytes @ 0x3
  3154                           
  3155                           
  3156                           ; 1 bytes @ 0x3
  3157  0073                     	ds	1
  3158  0074                     ??i1_USBTransferOnePacket:
  3159  0074                     USBCtrlTrfRxService@i:	
  3160                           ; 1 bytes @ 0x4
  3161                           
  3162  0074                     i1USBDeviceInit@i:	
  3163                           ; 1 bytes @ 0x4
  3164                           
  3165  0074                     memset@n:	
  3166                           ; 1 bytes @ 0x4
  3167                           
  3168                           
  3169                           ; 2 bytes @ 0x4
  3170  0074                     	ds	1
  3171  0075                     ??_USBCtrlEPServiceComplete:
  3172  0075                     USBConfigureEndpoint@EPNum:	
  3173                           ; 1 bytes @ 0x5
  3174                           
  3175  0075                     USBCtrlTrfRxService@byteToRead:	
  3176                           ; 1 bytes @ 0x5
  3177                           
  3178  0075                     USBCtrlTrfInHandler@lastDTS:	
  3179                           ; 1 bytes @ 0x5
  3180                           
  3181                           
  3182                           ; 1 bytes @ 0x5
  3183  0075                     	ds	1
  3184  0076                     ??_memset:
  3185  0076                     ??_USBCtrlTrfOutHandler:	
  3186                           ; 1 bytes @ 0x6
  3187                           
  3188  0076                     USBConfigureEndpoint@handle:	
  3189                           ; 1 bytes @ 0x6
  3190                           
  3191  0076                     i1USBTransferOnePacket@ep:	
  3192                           ; 1 bytes @ 0x6
  3193                           
  3194  0076                     memset@p:	
  3195                           ; 1 bytes @ 0x6
  3196                           
  3197                           
  3198                           ; 2 bytes @ 0x6
  3199  0076                     	ds	1
  3200  0077                     ?_USBEnableEndpoint:
  3201  0077                     USBEnableEndpoint@options:	
  3202                           ; 1 bytes @ 0x7
  3203                           
  3204  0077                     i1USBTransferOnePacket@handle:	
  3205                           ; 1 bytes @ 0x7
  3206                           
  3207                           
  3208                           ; 1 bytes @ 0x7
  3209  0077                     	ds	1
  3210  0078                     ??_USBEnableEndpoint:
  3211                           
  3212                           ; 1 bytes @ 0x8
  3213  0078                     	ds	2
  3214  007A                     USBEnableEndpoint@p:
  3215                           
  3216                           ; 2 bytes @ 0xA
  3217  007A                     	ds	2
  3218  007C                     USBEnableEndpoint@ep:
  3219                           
  3220                           ; 1 bytes @ 0xC
  3221  007C                     	ds	1
  3222  007D                     ??_APP_DeviceCDCEmulatorInitialize:
  3223                           
  3224                           ; 1 bytes @ 0xD
  3225  007D                     	ds	1
  3226  007E                     ??_SYS_InterruptHigh:
  3227  007E                     ??_USER_USB_CALLBACK_EVENT_HANDLER:	
  3228                           ; 1 bytes @ 0xE
  3229                           
  3230                           
  3231                           	psect	cstackBANK0
  3232  0060                     __pcstackBANK0:	
  3233                           ; 1 bytes @ 0xE
  3234                           
  3235  0060                     ??_CDCInitEP:
  3236                           
  3237                           ; 1 bytes @ 0x0
  3238  0060                     	ds	2
  3239  0062                     ?_USER_USB_CALLBACK_EVENT_HANDLER:
  3240  0062                     USER_USB_CALLBACK_EVENT_HANDLER@event:	
  3241                           ; 1 bytes @ 0x2
  3242                           
  3243                           
  3244                           ; 2 bytes @ 0x2
  3245  0062                     	ds	2
  3246  0064                     USER_USB_CALLBACK_EVENT_HANDLER@pdata:
  3247                           
  3248                           ; 2 bytes @ 0x4
  3249  0064                     	ds	2
  3250  0066                     USER_USB_CALLBACK_EVENT_HANDLER@size:
  3251                           
  3252                           ; 2 bytes @ 0x6
  3253  0066                     	ds	2
  3254  0068                     ??_USBWakeFromSuspend:
  3255  0068                     ??_USBSuspend:	
  3256                           ; 1 bytes @ 0x8
  3257                           
  3258  0068                     ??_USBStdFeatureReqHandler:	
  3259                           ; 1 bytes @ 0x8
  3260                           
  3261  0068                     ??_USBStdSetCfgHandler:	
  3262                           ; 1 bytes @ 0x8
  3263                           
  3264                           
  3265                           ; 1 bytes @ 0x8
  3266  0068                     	ds	1
  3267  0069                     USBStdSetCfgHandler@p:
  3268                           
  3269                           ; 2 bytes @ 0x9
  3270  0069                     	ds	1
  3271  006A                     USBStdFeatureReqHandler@pUEP:
  3272                           
  3273                           ; 2 bytes @ 0xA
  3274  006A                     	ds	1
  3275  006B                     USBStdSetCfgHandler@i_2105:
  3276                           
  3277                           ; 1 bytes @ 0xB
  3278  006B                     	ds	1
  3279  006C                     USBStdSetCfgHandler@i:
  3280  006C                     USBStdFeatureReqHandler@current_ep_data:	
  3281                           ; 1 bytes @ 0xC
  3282                           
  3283                           
  3284                           ; 1 bytes @ 0xC
  3285  006C                     	ds	1
  3286  006D                     USBStdFeatureReqHandler@p:
  3287                           
  3288                           ; 1 bytes @ 0xD
  3289  006D                     	ds	1
  3290  006E                     ??_USBCheckStdRequest:
  3291                           
  3292                           ; 1 bytes @ 0xE
  3293  006E                     	ds	1
  3294  006F                     ??_USBCtrlTrfSetupHandler:
  3295                           
  3296                           ; 1 bytes @ 0xF
  3297  006F                     	ds	1
  3298                           
  3299                           	psect	maintext
  3300  17BF                     __pmaintext:	
  3301 ;;
  3302 ;;Main: autosize = 0, tempsize = 0, incstack = 0, save=0
  3303 ;;
  3304 ;; *************** function _main *****************
  3305 ;; Defined at:
  3306 ;;		line 56 in file "../src/main.c"
  3307 ;; Parameters:    Size  Location     Type
  3308 ;;		None
  3309 ;; Auto vars:     Size  Location     Type
  3310 ;;		None
  3311 ;; Return value:  Size  Location     Type
  3312 ;;                  1    wreg      void 
  3313 ;; Registers used:
  3314 ;;		wreg, fsr0l, fsr0h, fsr1l, fsr1h, status,2, status,0, pclath, cstack
  3315 ;; Tracked objects:
  3316 ;;		On entry : B1F/0
  3317 ;;		On exit  : 0/0
  3318 ;;		Unchanged: 0/0
  3319 ;; Data sizes:     COMMON   BANK0   BANK1   BANK2   BANK3   BANK4   BANK5   BANK6   BANK7   BANK8   BANK9  BANK10  BANK1
      +1  BANK12
  3320 ;;      Params:         0       0       0       0       0       0       0       0       0       0       0       0       
      +0       0
  3321 ;;      Locals:         0       0       0       0       0       0       0       0       0       0       0       0       
      +0       0
  3322 ;;      Temps:          0       0       0       0       0       0       0       0       0       0       0       0       
      +0       0
  3323 ;;      Totals:         0       0       0       0       0       0       0       0       0       0       0       0       
      +0       0
  3324 ;;Total ram usage:        0 bytes
  3325 ;; Hardware stack levels required when called:   14
  3326 ;; This function calls:
  3327 ;;		_APP_DeviceCDCEmulatorTasks
  3328 ;;		_InitIO
  3329 ;;		_InitISR
  3330 ;;		_InitSPI_MAX6675
  3331 ;;		_InitUSART
  3332 ;;		_SYSTEM_Initialize
  3333 ;;		_USBDeviceAttach
  3334 ;;		_USBDeviceInit
  3335 ;;		_shell
  3336 ;; This function is called by:
  3337 ;;		Startup code after reset
  3338 ;; This function uses a non-reentrant model
  3339 ;;
  3340                           
  3341                           
  3342                           ;psect for function _main
  3343  17BF                     _main:
  3344  17BF                     l6108:	
  3345                           ;incstack = 0
  3346                           ; Regs used in _main: [wreg-fsr1h+status,2+status,0+pclath+cstack]
  3347                           
  3348                           
  3349                           ;main.c: 58: gSwMode = 1;
  3350  17BF  0023               	movlb	3	; select bank3
  3351  17C0  01ED               	clrf	_gSwMode^(0+384)
  3352  17C1  0AED               	incf	_gSwMode^(0+384),f
  3353  17C2                     l6110:
  3354                           
  3355                           ;main.c: 60: InitIO();
  3356  17C2  3195  2539  3197   	fcall	_InitIO
  3357  17C5                     l6112:
  3358                           
  3359                           ;main.c: 61: if(PORTAbits.RA4){
  3360  17C5  0020               	movlb	0	; select bank0
  3361  17C6  1E0C               	btfss	12,4	;volatile
  3362  17C7  2FC9               	goto	u5351
  3363  17C8  2FCA               	goto	u5350
  3364  17C9                     u5351:
  3365  17C9  2FD8               	goto	l6122
  3366  17CA                     u5350:
  3367  17CA                     l6114:
  3368                           
  3369                           ;main.c: 62: gSwMode = 1;
  3370  17CA  0023               	movlb	3	; select bank3
  3371  17CB  01ED               	clrf	_gSwMode^(0+384)
  3372  17CC  0AED               	incf	_gSwMode^(0+384),f
  3373  17CD                     l6116:
  3374                           
  3375                           ;main.c: 64: SYSTEM_Initialize(SYSTEM_STATE_USB_START);
  3376  17CD  3000               	movlw	0
  3377  17CE  3195  2570  3197   	fcall	_SYSTEM_Initialize
  3378  17D1                     l6118:
  3379                           
  3380                           ;main.c: 65: USBDeviceInit();
  3381  17D1  3186  267A  3197   	fcall	_USBDeviceInit
  3382  17D4                     l6120:
  3383                           
  3384                           ;main.c: 66: USBDeviceAttach();
  3385  17D4  3195  25CC  3197   	fcall	_USBDeviceAttach
  3386                           
  3387                           ;main.c: 67: }
  3388  17D7  2FE0               	goto	l6128
  3389  17D8                     l6122:
  3390                           
  3391                           ;main.c: 68: else{;main.c: 69: gSwMode = 0;
  3392  17D8  0023               	movlb	3	; select bank3
  3393  17D9  01ED               	clrf	_gSwMode^(0+384)
  3394  17DA                     l6124:
  3395                           
  3396                           ;main.c: 71: InitUSART();
  3397  17DA  3194  24C0  3197   	fcall	_InitUSART
  3398  17DD                     l6126:
  3399                           
  3400                           ;main.c: 72: InitISR();
  3401  17DD  3194  248D  3197   	fcall	_InitISR
  3402  17E0                     l6128:
  3403                           
  3404                           ;main.c: 73: };main.c: 75: InitSPI_MAX6675();
  3405  17E0  3187  27FB  3197   	fcall	_InitSPI_MAX6675
  3406  17E3                     l6130:
  3407                           
  3408                           ;main.c: 78: {;main.c: 79: if (gSwMode){
  3409  17E3  0023               	movlb	3	; select bank3
  3410  17E4  086D               	movf	_gSwMode^(0+384),w
  3411  17E5  1903               	btfsc	3,2
  3412  17E6  2FE8               	goto	u5361
  3413  17E7  2FE9               	goto	u5360
  3414  17E8                     u5361:
  3415  17E8  2FFA               	goto	l6140
  3416  17E9                     u5360:
  3417  17E9                     l6132:
  3418                           
  3419                           ;main.c: 80: ;;main.c: 102: if( USBDeviceState < CONFIGURED_STATE ){
  3420  17E9  3020               	movlw	32
  3421  17EA  0252               	subwf	_USBDeviceState^(0+384),w	;volatile
  3422  17EB  1803               	skipnc
  3423  17EC  2FEE               	goto	u5371
  3424  17ED  2FEF               	goto	u5370
  3425  17EE                     u5371:
  3426  17EE  2FF0               	goto	l160
  3427  17EF                     u5370:
  3428  17EF  2FE3               	goto	l6130
  3429  17F0                     l160:
  3430                           
  3431                           ;main.c: 105: };main.c: 111: if( UCONbits.SUSPND== 1 ){
  3432  17F0  003D               	movlb	29	; select bank29
  3433  17F1  1C8E               	btfss	14,1	;volatile
  3434  17F2  2FF4               	goto	u5381
  3435  17F3  2FF5               	goto	u5380
  3436  17F4                     u5381:
  3437  17F4  2FF6               	goto	l6138
  3438  17F5                     u5380:
  3439  17F5  2FE3               	goto	l6130
  3440  17F6                     l6138:
  3441                           
  3442                           ;main.c: 114: };main.c: 117: APP_DeviceCDCEmulatorTasks();
  3443  17F6  3180  2040  3197   	fcall	_APP_DeviceCDCEmulatorTasks
  3444                           
  3445                           ;main.c: 118: }
  3446  17F9  2FE3               	goto	l6130
  3447  17FA                     l6140:
  3448                           
  3449                           ;main.c: 119: else{;main.c: 120: shell();
  3450  17FA  3184  24DC  3197   	fcall	_shell
  3451  17FD  2FE3               	goto	l6130
  3452  17FE  3180  2815         	ljmp	start
  3453  1800                     __end_of_main:
  3454                           
  3455                           	psect	text1
  3456  04DC                     __ptext1:	
  3457 ;; *************** function _shell *****************
  3458 ;; Defined at:
  3459 ;;		line 39 in file "../src/shell.c"
  3460 ;; Parameters:    Size  Location     Type
  3461 ;;		None
  3462 ;; Auto vars:     Size  Location     Type
  3463 ;;  max_6675_tem    8    6[BANK3 ] unsigned char [8]
  3464 ;;  max_6675        2   16[BANK3 ] int 
  3465 ;;  max_6675_tem    2   14[BANK3 ] int 
  3466 ;;  max_6675_tem    1    0        unsigned char 
  3467 ;; Return value:  Size  Location     Type
  3468 ;;                  1    wreg      void 
  3469 ;; Registers used:
  3470 ;;		wreg, fsr0l, fsr0h, fsr1l, fsr1h, status,2, status,0, pclath, cstack
  3471 ;; Tracked objects:
  3472 ;;		On entry : 0/0
  3473 ;;		On exit  : 0/0
  3474 ;;		Unchanged: 0/0
  3475 ;; Data sizes:     COMMON   BANK0   BANK1   BANK2   BANK3   BANK4   BANK5   BANK6   BANK7   BANK8   BANK9  BANK10  BANK1
      +1  BANK12
  3476 ;;      Params:         0       0       0       0       0       0       0       0       0       0       0       0       
      +0       0
  3477 ;;      Locals:         0       0       0       0      12       0       0       0       0       0       0       0       
      +0       0
  3478 ;;      Temps:          0       0       0       0       1       0       0       0       0       0       0       0       
      +0       0
  3479 ;;      Totals:         0       0       0       0      13       0       0       0       0       0       0       0       
      +0       0
  3480 ;;Total ram usage:       13 bytes
  3481 ;; Hardware stack levels used:    1
  3482 ;; Hardware stack levels required when called:   13
  3483 ;; This function calls:
  3484 ;;		_Check_MAX6675_NC
  3485 ;;		_Get_MAX6675
  3486 ;;		_Get_MAX6675_Temp
  3487 ;;		_my_itoa
  3488 ;;		_strOutFromUSART
  3489 ;; This function is called by:
  3490 ;;		_main
  3491 ;; This function uses a non-reentrant model
  3492 ;;
  3493                           
  3494                           
  3495                           ;psect for function _shell
  3496  04DC                     _shell:
  3497  04DC                     l6056:	
  3498                           ;incstack = 0
  3499                           ; Regs used in _shell: [wreg-fsr1h+status,2+status,0+pclath+cstack]
  3500                           
  3501                           
  3502                           ;shell.c: 41: char max_6675_temp_str[8], max_6675_temp_str_len;;shell.c: 42: int max_667
      +                          5, max_6675_temp;;shell.c: 44: switch (gRxChar) {
  3503  04DC  2DB1               	goto	l6100
  3504  04DD                     l293:	
  3505                           ;shell.c: 45: case 'A':
  3506                           
  3507                           
  3508                           ;shell.c: 46: LATCbits.LATC2 = 1;
  3509  04DD  0022               	movlb	2	; select bank2
  3510  04DE  150E               	bsf	14,2	;volatile
  3511                           
  3512                           ;shell.c: 47: break;
  3513  04DF  2DC6               	goto	l305
  3514  04E0                     l295:	
  3515                           ;shell.c: 48: case 'a':
  3516                           
  3517                           
  3518                           ;shell.c: 49: LATCbits.LATC2 = 0;
  3519  04E0  0022               	movlb	2	; select bank2
  3520  04E1  110E               	bcf	14,2	;volatile
  3521                           
  3522                           ;shell.c: 50: break;
  3523  04E2  2DC6               	goto	l305
  3524  04E3                     l296:	
  3525                           ;shell.c: 52: case 'B':
  3526                           
  3527                           
  3528                           ;shell.c: 53: LATCbits.LATC3 = 1;
  3529  04E3  0022               	movlb	2	; select bank2
  3530  04E4  158E               	bsf	14,3	;volatile
  3531                           
  3532                           ;shell.c: 54: break;
  3533  04E5  2DC6               	goto	l305
  3534  04E6                     l297:	
  3535                           ;shell.c: 55: case 'b':
  3536                           
  3537                           
  3538                           ;shell.c: 56: LATCbits.LATC3 = 0;
  3539  04E6  0022               	movlb	2	; select bank2
  3540  04E7  118E               	bcf	14,3	;volatile
  3541                           
  3542                           ;shell.c: 57: break;
  3543  04E8  2DC6               	goto	l305
  3544  04E9                     l6058:
  3545                           
  3546                           ;shell.c: 60: gRxChar = 0;
  3547  04E9  01D0               	clrf	_gRxChar^(0+384)
  3548  04EA                     l6060:
  3549                           
  3550                           ;shell.c: 61: LATCbits.LATC4 = 0;
  3551  04EA  0022               	movlb	2	; select bank2
  3552  04EB  120E               	bcf	14,4	;volatile
  3553  04EC                     l6062:
  3554                           
  3555                           ;shell.c: 62: max_6675 = Get_MAX6675();
  3556  04EC  3187  27C7  3184   	fcall	_Get_MAX6675
  3557  04EF  0022               	movlb	2	; select bank2
  3558  04F0  0861               	movf	(?_Get_MAX6675+1)^(0+256),w
  3559  04F1  0023               	movlb	3	; select bank3
  3560  04F2  00E7               	movwf	(shell@max_6675+1)^(0+384)
  3561  04F3  0022               	movlb	2	; select bank2
  3562  04F4  0860               	movf	?_Get_MAX6675^(0+256),w
  3563  04F5  0023               	movlb	3	; select bank3
  3564  04F6  00E6               	movwf	shell@max_6675^(0+384)
  3565  04F7                     l6064:
  3566                           
  3567                           ;shell.c: 63: LATCbits.LATC4 = 1;
  3568  04F7  0022               	movlb	2	; select bank2
  3569  04F8  160E               	bsf	14,4	;volatile
  3570  04F9                     l6066:
  3571                           
  3572                           ;shell.c: 65: if(Check_MAX6675_NC(max_6675)){
  3573  04F9  0023               	movlb	3	; select bank3
  3574  04FA  0867               	movf	(shell@max_6675+1)^(0+384),w
  3575  04FB  0022               	movlb	2	; select bank2
  3576  04FC  00E1               	movwf	(Check_MAX6675_NC@aMAX6675+1)^(0+256)
  3577  04FD  0023               	movlb	3	; select bank3
  3578  04FE  0866               	movf	shell@max_6675^(0+384),w
  3579  04FF  0022               	movlb	2	; select bank2
  3580  0500  00E0               	movwf	Check_MAX6675_NC@aMAX6675^(0+256)
  3581  0501  3194  24F6  3184   	fcall	_Check_MAX6675_NC
  3582  0504  0022               	movlb	2	; select bank2
  3583  0505  0860               	movf	?_Check_MAX6675_NC^(0+256),w
  3584  0506  0461               	iorwf	(?_Check_MAX6675_NC+1)^(0+256),w
  3585  0507  1903               	btfsc	3,2
  3586  0508  2D0A               	goto	u5321
  3587  0509  2D0B               	goto	u5320
  3588  050A                     u5321:
  3589  050A  2D13               	goto	l6070
  3590  050B                     u5320:
  3591  050B                     l6068:
  3592                           
  3593                           ;shell.c: 66: strOutFromUSART("NC\r\n");
  3594  050B  3080               	movlw	low (STR_1| (0+32768))
  3595  050C  00E0               	movwf	strOutFromUSART@str^(0+256)
  3596  050D  3098               	movlw	high (STR_1| (0+32768))
  3597  050E  00E1               	movwf	(strOutFromUSART@str^(0+256)+1)
  3598  050F  3195  2520  3184   	fcall	_strOutFromUSART
  3599                           
  3600                           ;shell.c: 67: }
  3601  0512  2DC6               	goto	l305
  3602  0513                     l6070:
  3603                           
  3604                           ;shell.c: 68: else{;shell.c: 69: max_6675_temp = Get_MAX6675_Temp(max_6675);
  3605  0513  0023               	movlb	3	; select bank3
  3606  0514  0867               	movf	(shell@max_6675+1)^(0+384),w
  3607  0515  0022               	movlb	2	; select bank2
  3608  0516  00E9               	movwf	(Get_MAX6675_Temp@aMAX6675+1)^(0+256)
  3609  0517  0023               	movlb	3	; select bank3
  3610  0518  0866               	movf	shell@max_6675^(0+384),w
  3611  0519  0022               	movlb	2	; select bank2
  3612  051A  00E8               	movwf	Get_MAX6675_Temp@aMAX6675^(0+256)
  3613  051B  3196  2612  3184   	fcall	_Get_MAX6675_Temp
  3614  051E  0022               	movlb	2	; select bank2
  3615  051F  0869               	movf	(?_Get_MAX6675_Temp+1)^(0+256),w
  3616  0520  0023               	movlb	3	; select bank3
  3617  0521  00E5               	movwf	(shell@max_6675_temp+1)^(0+384)
  3618  0522  0022               	movlb	2	; select bank2
  3619  0523  0868               	movf	?_Get_MAX6675_Temp^(0+256),w
  3620  0524  0023               	movlb	3	; select bank3
  3621  0525  00E4               	movwf	shell@max_6675_temp^(0+384)
  3622  0526                     l6072:
  3623                           
  3624                           ;shell.c: 70: my_itoa(max_6675_temp, max_6675_temp_str, 10);
  3625  0526  0865               	movf	(shell@max_6675_temp+1)^(0+384),w
  3626  0527  0022               	movlb	2	; select bank2
  3627  0528  00E8               	movwf	(my_itoa@val+1)^(0+256)
  3628  0529  0023               	movlb	3	; select bank3
  3629  052A  0864               	movf	shell@max_6675_temp^(0+384),w
  3630  052B  0022               	movlb	2	; select bank2
  3631  052C  00E7               	movwf	my_itoa@val^(0+256)
  3632  052D  30DC               	movlw	(low (shell@max_6675_temp_str| (0+256)))& (0+255)
  3633  052E  0023               	movlb	3	; select bank3
  3634  052F  00DB               	movwf	??_shell^(0+384)
  3635  0530  085B               	movf	??_shell^(0+384),w
  3636  0531  0022               	movlb	2	; select bank2
  3637  0532  00E9               	movwf	my_itoa@a^(0+256)
  3638  0533  300A               	movlw	10
  3639  0534  00EA               	movwf	my_itoa@radix^(0+256)
  3640  0535  3000               	movlw	0
  3641  0536  00EB               	movwf	(my_itoa@radix^(0+256)+1)
  3642  0537  3185  25C7  3184   	fcall	_my_itoa
  3643  053A                     l6074:
  3644                           
  3645                           ;shell.c: 71: strOutFromUSART(max_6675_temp_str);
  3646  053A  30DC               	movlw	low shell@max_6675_temp_str
  3647  053B  0022               	movlb	2	; select bank2
  3648  053C  00E0               	movwf	strOutFromUSART@str^(0+256)
  3649  053D  3001               	movlw	high shell@max_6675_temp_str
  3650  053E  00E1               	movwf	(strOutFromUSART@str+1)^(0+256)
  3651  053F  3195  2520  3184   	fcall	_strOutFromUSART
  3652  0542                     l6076:
  3653                           
  3654                           ;shell.c: 72: strOutFromUSART("\r\n");
  3655  0542  3082               	movlw	low ((STR_1+2)| (0+32768))
  3656  0543  0022               	movlb	2	; select bank2
  3657  0544  00E0               	movwf	strOutFromUSART@str^(0+256)
  3658  0545  3098               	movlw	high ((STR_1+2)| (0+32768))
  3659  0546  00E1               	movwf	(strOutFromUSART@str^(0+256)+1)
  3660  0547  3195  2520  3184   	fcall	_strOutFromUSART
  3661  054A  2DC6               	goto	l305
  3662  054B                     l6078:
  3663                           
  3664                           ;shell.c: 77: gRxChar = 0;
  3665  054B  01D0               	clrf	_gRxChar^(0+384)
  3666  054C                     l6080:
  3667                           
  3668                           ;shell.c: 78: LATCbits.LATC5 = 0;
  3669  054C  0022               	movlb	2	; select bank2
  3670  054D  128E               	bcf	14,5	;volatile
  3671  054E                     l6082:
  3672                           
  3673                           ;shell.c: 79: max_6675 = Get_MAX6675();
  3674  054E  3187  27C7  3184   	fcall	_Get_MAX6675
  3675  0551  0022               	movlb	2	; select bank2
  3676  0552  0861               	movf	(?_Get_MAX6675+1)^(0+256),w
  3677  0553  0023               	movlb	3	; select bank3
  3678  0554  00E7               	movwf	(shell@max_6675+1)^(0+384)
  3679  0555  0022               	movlb	2	; select bank2
  3680  0556  0860               	movf	?_Get_MAX6675^(0+256),w
  3681  0557  0023               	movlb	3	; select bank3
  3682  0558  00E6               	movwf	shell@max_6675^(0+384)
  3683  0559                     l6084:
  3684                           
  3685                           ;shell.c: 80: LATCbits.LATC5 = 1;
  3686  0559  0022               	movlb	2	; select bank2
  3687  055A  168E               	bsf	14,5	;volatile
  3688  055B                     l6086:
  3689                           
  3690                           ;shell.c: 82: if(Check_MAX6675_NC(max_6675)){
  3691  055B  0023               	movlb	3	; select bank3
  3692  055C  0867               	movf	(shell@max_6675+1)^(0+384),w
  3693  055D  0022               	movlb	2	; select bank2
  3694  055E  00E1               	movwf	(Check_MAX6675_NC@aMAX6675+1)^(0+256)
  3695  055F  0023               	movlb	3	; select bank3
  3696  0560  0866               	movf	shell@max_6675^(0+384),w
  3697  0561  0022               	movlb	2	; select bank2
  3698  0562  00E0               	movwf	Check_MAX6675_NC@aMAX6675^(0+256)
  3699  0563  3194  24F6  3184   	fcall	_Check_MAX6675_NC
  3700  0566  0022               	movlb	2	; select bank2
  3701  0567  0860               	movf	?_Check_MAX6675_NC^(0+256),w
  3702  0568  0461               	iorwf	(?_Check_MAX6675_NC+1)^(0+256),w
  3703  0569  1903               	btfsc	3,2
  3704  056A  2D6C               	goto	u5331
  3705  056B  2D6D               	goto	u5330
  3706  056C                     u5331:
  3707  056C  2D75               	goto	l6090
  3708  056D                     u5330:
  3709  056D                     l6088:
  3710                           
  3711                           ;shell.c: 83: strOutFromUSART("NC\r\n");
  3712  056D  3080               	movlw	low (STR_1| (0+32768))
  3713  056E  00E0               	movwf	strOutFromUSART@str^(0+256)
  3714  056F  3098               	movlw	high (STR_1| (0+32768))
  3715  0570  00E1               	movwf	(strOutFromUSART@str^(0+256)+1)
  3716  0571  3195  2520  3184   	fcall	_strOutFromUSART
  3717                           
  3718                           ;shell.c: 84: }
  3719  0574  2DC6               	goto	l305
  3720  0575                     l6090:
  3721                           
  3722                           ;shell.c: 85: else{;shell.c: 86: max_6675_temp = Get_MAX6675_Temp(max_6675);
  3723  0575  0023               	movlb	3	; select bank3
  3724  0576  0867               	movf	(shell@max_6675+1)^(0+384),w
  3725  0577  0022               	movlb	2	; select bank2
  3726  0578  00E9               	movwf	(Get_MAX6675_Temp@aMAX6675+1)^(0+256)
  3727  0579  0023               	movlb	3	; select bank3
  3728  057A  0866               	movf	shell@max_6675^(0+384),w
  3729  057B  0022               	movlb	2	; select bank2
  3730  057C  00E8               	movwf	Get_MAX6675_Temp@aMAX6675^(0+256)
  3731  057D  3196  2612  3184   	fcall	_Get_MAX6675_Temp
  3732  0580  0022               	movlb	2	; select bank2
  3733  0581  0869               	movf	(?_Get_MAX6675_Temp+1)^(0+256),w
  3734  0582  0023               	movlb	3	; select bank3
  3735  0583  00E5               	movwf	(shell@max_6675_temp+1)^(0+384)
  3736  0584  0022               	movlb	2	; select bank2
  3737  0585  0868               	movf	?_Get_MAX6675_Temp^(0+256),w
  3738  0586  0023               	movlb	3	; select bank3
  3739  0587  00E4               	movwf	shell@max_6675_temp^(0+384)
  3740  0588                     l6092:
  3741                           
  3742                           ;shell.c: 87: my_itoa(max_6675_temp, max_6675_temp_str, 10);
  3743  0588  0865               	movf	(shell@max_6675_temp+1)^(0+384),w
  3744  0589  0022               	movlb	2	; select bank2
  3745  058A  00E8               	movwf	(my_itoa@val+1)^(0+256)
  3746  058B  0023               	movlb	3	; select bank3
  3747  058C  0864               	movf	shell@max_6675_temp^(0+384),w
  3748  058D  0022               	movlb	2	; select bank2
  3749  058E  00E7               	movwf	my_itoa@val^(0+256)
  3750  058F  30DC               	movlw	(low (shell@max_6675_temp_str| (0+256)))& (0+255)
  3751  0590  0023               	movlb	3	; select bank3
  3752  0591  00DB               	movwf	??_shell^(0+384)
  3753  0592  085B               	movf	??_shell^(0+384),w
  3754  0593  0022               	movlb	2	; select bank2
  3755  0594  00E9               	movwf	my_itoa@a^(0+256)
  3756  0595  300A               	movlw	10
  3757  0596  00EA               	movwf	my_itoa@radix^(0+256)
  3758  0597  3000               	movlw	0
  3759  0598  00EB               	movwf	(my_itoa@radix^(0+256)+1)
  3760  0599  3185  25C7  3184   	fcall	_my_itoa
  3761  059C                     l6094:
  3762                           
  3763                           ;shell.c: 88: strOutFromUSART(max_6675_temp_str);
  3764  059C  30DC               	movlw	low shell@max_6675_temp_str
  3765  059D  0022               	movlb	2	; select bank2
  3766  059E  00E0               	movwf	strOutFromUSART@str^(0+256)
  3767  059F  3001               	movlw	high shell@max_6675_temp_str
  3768  05A0  00E1               	movwf	(strOutFromUSART@str+1)^(0+256)
  3769  05A1  3195  2520  3184   	fcall	_strOutFromUSART
  3770  05A4                     l6096:
  3771                           
  3772                           ;shell.c: 89: strOutFromUSART("\r\n");
  3773  05A4  3082               	movlw	low ((STR_1+2)| (0+32768))
  3774  05A5  0022               	movlb	2	; select bank2
  3775  05A6  00E0               	movwf	strOutFromUSART@str^(0+256)
  3776  05A7  3098               	movlw	high ((STR_1+2)| (0+32768))
  3777  05A8  00E1               	movwf	(strOutFromUSART@str^(0+256)+1)
  3778  05A9  3195  2520  3184   	fcall	_strOutFromUSART
  3779  05AC  2DC6               	goto	l305
  3780  05AD                     l304:	
  3781                           ;shell.c: 93: default:
  3782                           
  3783                           
  3784                           ;shell.c: 94: LATCbits.LATC4 = 1;
  3785  05AD  0022               	movlb	2	; select bank2
  3786  05AE  160E               	bsf	14,4	;volatile
  3787                           
  3788                           ;shell.c: 95: LATCbits.LATC5 = 1;
  3789  05AF  168E               	bsf	14,5	;volatile
  3790                           
  3791                           ;shell.c: 96: break;
  3792  05B0  2DC6               	goto	l305
  3793  05B1                     l6100:
  3794  05B1  0023               	movlb	3	; select bank3
  3795  05B2  0850               	movf	_gRxChar^(0+384),w
  3796                           
  3797                           ; Switch size 1, requested type "simple"
  3798                           ; Number of cases is 6, Range of values is 48 to 98
  3799                           ; switch strategies available:
  3800                           ; Name         Instructions Cycles
  3801                           ; simple_byte           19    10 (average)
  3802                           ; direct_byte          111     9 (fixed)
  3803                           ; jumptable            263     9 (fixed)
  3804                           ;	Chosen strategy is simple_byte
  3805  05B3  3A30               	xorlw	48	; case 48
  3806  05B4  1903               	skipnz
  3807  05B5  2CE9               	goto	l6058
  3808  05B6  3A01               	xorlw	1	; case 49
  3809  05B7  1903               	skipnz
  3810  05B8  2D4B               	goto	l6078
  3811  05B9  3A70               	xorlw	112	; case 65
  3812  05BA  1903               	skipnz
  3813  05BB  2CDD               	goto	l293
  3814  05BC  3A03               	xorlw	3	; case 66
  3815  05BD  1903               	skipnz
  3816  05BE  2CE3               	goto	l296
  3817  05BF  3A23               	xorlw	35	; case 97
  3818  05C0  1903               	skipnz
  3819  05C1  2CE0               	goto	l295
  3820  05C2  3A03               	xorlw	3	; case 98
  3821  05C3  1903               	skipnz
  3822  05C4  2CE6               	goto	l297
  3823  05C5  2DAD               	goto	l304
  3824  05C6                     l305:
  3825  05C6  0008               	return
  3826  05C7                     __end_of_shell:
  3827                           
  3828                           	psect	text2
  3829  1520                     __ptext2:	
  3830 ;; *************** function _strOutFromUSART *****************
  3831 ;; Defined at:
  3832 ;;		line 68 in file "../src/USART.c"
  3833 ;; Parameters:    Size  Location     Type
  3834 ;;  str             2    0[BANK2 ] PTR const unsigned char 
  3835 ;;		 -> STR_6(3), STR_5(5), STR_4(3), shell@max_6675_temp_str(8), 
  3836 ;;		 -> STR_3(5), 
  3837 ;; Auto vars:     Size  Location     Type
  3838 ;;		None
  3839 ;; Return value:  Size  Location     Type
  3840 ;;                  1    wreg      void 
  3841 ;; Registers used:
  3842 ;;		wreg, fsr0l, fsr0h, status,2, status,0, pclath, cstack
  3843 ;; Tracked objects:
  3844 ;;		On entry : 0/0
  3845 ;;		On exit  : 0/0
  3846 ;;		Unchanged: 0/0
  3847 ;; Data sizes:     COMMON   BANK0   BANK1   BANK2   BANK3   BANK4   BANK5   BANK6   BANK7   BANK8   BANK9  BANK10  BANK1
      +1  BANK12
  3848 ;;      Params:         0       0       0       2       0       0       0       0       0       0       0       0       
      +0       0
  3849 ;;      Locals:         0       0       0       0       0       0       0       0       0       0       0       0       
      +0       0
  3850 ;;      Temps:          0       0       1       0       0       0       0       0       0       0       0       0       
      +0       0
  3851 ;;      Totals:         0       0       1       2       0       0       0       0       0       0       0       0       
      +0       0
  3852 ;;Total ram usage:        3 bytes
  3853 ;; Hardware stack levels used:    1
  3854 ;; Hardware stack levels required when called:   12
  3855 ;; This function calls:
  3856 ;;		_putch
  3857 ;; This function is called by:
  3858 ;;		_shell
  3859 ;; This function uses a non-reentrant model
  3860 ;;
  3861                           
  3862                           
  3863                           ;psect for function _strOutFromUSART
  3864  1520                     _strOutFromUSART:
  3865  1520                     l5662:	
  3866                           ;incstack = 0
  3867                           ; Regs used in _strOutFromUSART: [wreg-fsr0h+status,2+status,0+pclath+cstack]
  3868                           
  3869                           
  3870                           ;USART.c: 70: while(*str){
  3871  1520  2D2E               	goto	l5668
  3872  1521                     l5664:
  3873                           
  3874                           ;USART.c: 71: putch(*str++);
  3875  1521  0860               	movf	strOutFromUSART@str^(0+256),w
  3876  1522  0084               	movwf	4
  3877  1523  0861               	movf	(strOutFromUSART@str+1)^(0+256),w
  3878  1524  0085               	movwf	5
  3879  1525  0800               	movf	0,w	;code access
  3880  1526  3194  2498  3195   	fcall	_putch
  3881  1529                     l5666:
  3882  1529  3001               	movlw	1
  3883  152A  0022               	movlb	2	; select bank2
  3884  152B  07E0               	addwf	strOutFromUSART@str^(0+256),f
  3885  152C  3000               	movlw	0
  3886  152D  3DE1               	addwfc	(strOutFromUSART@str+1)^(0+256),f
  3887  152E                     l5668:
  3888  152E  0022               	movlb	2	; select bank2
  3889  152F  0860               	movf	strOutFromUSART@str^(0+256),w
  3890  1530  0084               	movwf	4
  3891  1531  0861               	movf	(strOutFromUSART@str+1)^(0+256),w
  3892  1532  0085               	movwf	5
  3893  1533  0012               	moviw fsr0++
  3894  1534  1D03               	btfss	3,2
  3895  1535  2D37               	goto	u4871
  3896  1536  2D38               	goto	u4870
  3897  1537                     u4871:
  3898  1537  2D21               	goto	l5664
  3899  1538                     u4870:
  3900  1538                     l349:
  3901  1538  0008               	return
  3902  1539                     __end_of_strOutFromUSART:
  3903                           
  3904                           	psect	text3
  3905  1498                     __ptext3:	
  3906 ;; *************** function _putch *****************
  3907 ;; Defined at:
  3908 ;;		line 48 in file "../src/USART.c"
  3909 ;; Parameters:    Size  Location     Type
  3910 ;;  byte            1    wreg     unsigned char 
  3911 ;; Auto vars:     Size  Location     Type
  3912 ;;  byte            1    7[BANK1 ] unsigned char 
  3913 ;; Return value:  Size  Location     Type
  3914 ;;                  1    wreg      void 
  3915 ;; Registers used:
  3916 ;;		wreg
  3917 ;; Tracked objects:
  3918 ;;		On entry : 0/0
  3919 ;;		On exit  : 0/0
  3920 ;;		Unchanged: 0/0
  3921 ;; Data sizes:     COMMON   BANK0   BANK1   BANK2   BANK3   BANK4   BANK5   BANK6   BANK7   BANK8   BANK9  BANK10  BANK1
      +1  BANK12
  3922 ;;      Params:         0       0       0       0       0       0       0       0       0       0       0       0       
      +0       0
  3923 ;;      Locals:         0       0       1       0       0       0       0       0       0       0       0       0       
      +0       0
  3924 ;;      Temps:          0       0       0       0       0       0       0       0       0       0       0       0       
      +0       0
  3925 ;;      Totals:         0       0       1       0       0       0       0       0       0       0       0       0       
      +0       0
  3926 ;;Total ram usage:        1 bytes
  3927 ;; Hardware stack levels used:    1
  3928 ;; Hardware stack levels required when called:   11
  3929 ;; This function calls:
  3930 ;;		Nothing
  3931 ;; This function is called by:
  3932 ;;		_strOutFromUSART
  3933 ;;		_getche
  3934 ;; This function uses a non-reentrant model
  3935 ;;
  3936                           
  3937                           
  3938                           ;psect for function _putch
  3939  1498                     _putch:
  3940                           
  3941                           ;incstack = 0
  3942                           ; Regs used in _putch: [wreg]
  3943                           ;putch@byte stored from wreg
  3944  1498  0021               	movlb	1	; select bank1
  3945  1499  00E7               	movwf	putch@byte^(0+128)
  3946  149A                     l5334:
  3947  149A                     l331:	
  3948                           ;USART.c: 50: while(!TXIF);
  3949                           
  3950  149A  0020               	movlb	0	; select bank0
  3951  149B  1E11               	btfss	17,4	;volatile
  3952  149C  2C9E               	goto	u4391
  3953  149D  2C9F               	goto	u4390
  3954  149E                     u4391:
  3955  149E  2C9A               	goto	l331
  3956  149F                     u4390:
  3957  149F                     l5336:
  3958                           
  3959                           ;USART.c: 51: TXREG = byte;
  3960  149F  0021               	movlb	1	; select bank1
  3961  14A0  0867               	movf	putch@byte^(0+128),w
  3962  14A1  0023               	movlb	3	; select bank3
  3963  14A2  009A               	movwf	26	;volatile
  3964  14A3                     l334:
  3965  14A3  0008               	return
  3966  14A4                     __end_of_putch:
  3967                           
  3968                           	psect	text4
  3969  067A                     __ptext4:	
  3970 ;; *************** function _USBDeviceInit *****************
  3971 ;; Defined at:
  3972 ;;		line 298 in file "../usb/src/usb_device.c"
  3973 ;; Parameters:    Size  Location     Type
  3974 ;;		None
  3975 ;; Auto vars:     Size  Location     Type
  3976 ;;  p               2    0[BANK2 ] PTR unsigned char 
  3977 ;;		 -> UEP1(1), 
  3978 ;;  i               1    2[BANK2 ] unsigned char 
  3979 ;;  i               1    3[BANK2 ] unsigned char 
  3980 ;; Return value:  Size  Location     Type
  3981 ;;                  1    wreg      void 
  3982 ;; Registers used:
  3983 ;;		wreg, fsr1l, fsr1h, status,2, status,0
  3984 ;; Tracked objects:
  3985 ;;		On entry : 0/0
  3986 ;;		On exit  : 0/0
  3987 ;;		Unchanged: 0/0
  3988 ;; Data sizes:     COMMON   BANK0   BANK1   BANK2   BANK3   BANK4   BANK5   BANK6   BANK7   BANK8   BANK9  BANK10  BANK1
      +1  BANK12
  3989 ;;      Params:         0       0       0       0       0       0       0       0       0       0       0       0       
      +0       0
  3990 ;;      Locals:         0       0       0       4       0       0       0       0       0       0       0       0       
      +0       0
  3991 ;;      Temps:          0       0       1       0       0       0       0       0       0       0       0       0       
      +0       0
  3992 ;;      Totals:         0       0       1       4       0       0       0       0       0       0       0       0       
      +0       0
  3993 ;;Total ram usage:        5 bytes
  3994 ;; Hardware stack levels used:    1
  3995 ;; Hardware stack levels required when called:   11
  3996 ;; This function calls:
  3997 ;;		Nothing
  3998 ;; This function is called by:
  3999 ;;		_main
  4000 ;; This function uses a non-reentrant model
  4001 ;;
  4002                           
  4003                           
  4004                           ;psect for function _USBDeviceInit
  4005  067A                     _USBDeviceInit:
  4006  067A                     l5950:	
  4007                           ;incstack = 0
  4008                           ; Regs used in _USBDeviceInit: [wreg+fsr1l+fsr1h+status,2+status,0]
  4009                           
  4010                           
  4011                           ;usb_device.c: 300: uint8_t i;;usb_device.c: 302: {PIE2bits.USBIE = 0;};
  4012  067A  0021               	movlb	1	; select bank1
  4013  067B  1112               	bcf	18,2	;volatile
  4014  067C                     l5952:
  4015                           
  4016                           ;usb_device.c: 305: {UEIR = 0;};
  4017  067C  003D               	movlb	29	; select bank29
  4018  067D  0193               	clrf	19	;volatile
  4019                           
  4020                           ;usb_device.c: 308: {UIR = 0;};
  4021  067E  0190               	clrf	16	;volatile
  4022                           
  4023                           ;usb_device.c: 311: UEP0 = 0;
  4024  067F  0198               	clrf	24	;volatile
  4025  0680                     l5954:
  4026                           
  4027                           ;usb_device.c: 313: { uint8_t i; uint8_t* p = (uint8_t*)&UEP1; for(i=0;i<2;i++) *p++ = 0
      +                          ; };
  4028  0680  300E               	movlw	14
  4029  0681  0022               	movlb	2	; select bank2
  4030  0682  00E1               	movwf	(USBDeviceInit@p+1)^(0+256)
  4031  0683  3099               	movlw	153
  4032  0684  00E0               	movwf	USBDeviceInit@p^(0+256)
  4033  0685  01E2               	clrf	USBDeviceInit@i_1363^(0+256)
  4034  0686                     l5960:
  4035  0686  0860               	movf	USBDeviceInit@p^(0+256),w
  4036  0687  0086               	movwf	6
  4037  0688  0861               	movf	(USBDeviceInit@p+1)^(0+256),w
  4038  0689  0087               	movwf	7
  4039  068A  0181               	clrf	1
  4040  068B                     l5962:
  4041  068B  3001               	movlw	1
  4042  068C  07E0               	addwf	USBDeviceInit@p^(0+256),f
  4043  068D  3000               	movlw	0
  4044  068E  3DE1               	addwfc	(USBDeviceInit@p+1)^(0+256),f
  4045  068F                     l5964:
  4046  068F  3001               	movlw	1
  4047  0690  0021               	movlb	1	; select bank1
  4048  0691  00E7               	movwf	??_USBDeviceInit^(0+128)
  4049  0692  0867               	movf	??_USBDeviceInit^(0+128),w
  4050  0693  0022               	movlb	2	; select bank2
  4051  0694  07E2               	addwf	USBDeviceInit@i_1363^(0+256),f
  4052  0695                     l5966:
  4053  0695  3002               	movlw	2
  4054  0696  0262               	subwf	USBDeviceInit@i_1363^(0+256),w
  4055  0697  1C03               	skipc
  4056  0698  2E9A               	goto	u5251
  4057  0699  2E9B               	goto	u5250
  4058  069A                     u5251:
  4059  069A  2E86               	goto	l5960
  4060  069B                     u5250:
  4061  069B                     l5968:
  4062                           
  4063                           ;usb_device.c: 315: { UCFG = 0x10 | 0x00 | 0x04 | 0x02; UEIE = 0x9F; UIE = 0x39 | 0x40 |
      +                           0x02; };
  4064  069B  3016               	movlw	22
  4065  069C  003D               	movlb	29	; select bank29
  4066  069D  0091               	movwf	17	;volatile
  4067  069E  309F               	movlw	159
  4068  069F  0097               	movwf	23	;volatile
  4069  06A0  307B               	movlw	123
  4070  06A1  0092               	movwf	18	;volatile
  4071  06A2                     l5970:
  4072                           
  4073                           ;usb_device.c: 318: ;;usb_device.c: 321: ;;usb_device.c: 324: for(i=0;i<(sizeof(BDT)/siz
      +                          eof(BDT_ENTRY));i++)
  4074  06A2  0022               	movlb	2	; select bank2
  4075  06A3  01E3               	clrf	USBDeviceInit@i^(0+256)
  4076  06A4                     l5976:
  4077                           
  4078                           ;usb_device.c: 325: {;usb_device.c: 326: BDT[i].Val = 0x00;
  4079  06A4  0863               	movf	USBDeviceInit@i^(0+256),w
  4080  06A5  0021               	movlb	1	; select bank1
  4081  06A6  00E7               	movwf	??_USBDeviceInit^(0+128)
  4082  06A7  3001               	movlw	1
  4083  06A8                     u5265:
  4084  06A8  35E7               	lslf	??_USBDeviceInit^(0+128),f
  4085  06A9  3EFF               	addlw	-1
  4086  06AA  1D03               	skipz
  4087  06AB  2EA8               	goto	u5265
  4088  06AC  3567               	lslf	??_USBDeviceInit^(0+128),w
  4089  06AD  3E20               	addlw	32
  4090  06AE  0086               	movwf	6
  4091  06AF  0187               	clrf	7
  4092  06B0  3000               	movlw	0
  4093  06B1  3FC0               	movwi [0]fsr1
  4094  06B2  3000               	movlw	0
  4095  06B3  3FC1               	movwi [1]fsr1
  4096  06B4  3FC2               	movwi [2]fsr1
  4097  06B5  3FC3               	movwi [3]fsr1
  4098  06B6                     l5978:
  4099  06B6  3001               	movlw	1
  4100  06B7  00E7               	movwf	??_USBDeviceInit^(0+128)
  4101  06B8  0867               	movf	??_USBDeviceInit^(0+128),w
  4102  06B9  0022               	movlb	2	; select bank2
  4103  06BA  07E3               	addwf	USBDeviceInit@i^(0+256),f
  4104  06BB                     l5980:
  4105  06BB  300C               	movlw	12
  4106  06BC  0263               	subwf	USBDeviceInit@i^(0+256),w
  4107  06BD  1C03               	skipc
  4108  06BE  2EC0               	goto	u5271
  4109  06BF  2EC1               	goto	u5270
  4110  06C0                     u5271:
  4111  06C0  2EA4               	goto	l5976
  4112  06C1                     u5270:
  4113  06C1                     l541:
  4114                           
  4115                           ;usb_device.c: 327: };usb_device.c: 330: UCONbits.PPBRST = 1;
  4116  06C1  003D               	movlb	29	; select bank29
  4117  06C2  170E               	bsf	14,6	;volatile
  4118  06C3                     l5982:
  4119                           
  4120                           ;usb_device.c: 333: UADDR = 0x00;
  4121  06C3  0196               	clrf	22	;volatile
  4122  06C4                     l5984:
  4123                           
  4124                           ;usb_device.c: 336: UCONbits.PKTDIS = 0;
  4125  06C4  120E               	bcf	14,4	;volatile
  4126  06C5                     l5986:
  4127                           
  4128                           ;usb_device.c: 339: UCONbits.PPBRST = 0;
  4129  06C5  130E               	bcf	14,6	;volatile
  4130                           
  4131                           ;usb_device.c: 342: while(UIRbits.TRNIF == 1)
  4132  06C6  2ED2               	goto	l5996
  4133  06C7                     l5988:
  4134                           
  4135                           ;usb_device.c: 343: {;usb_device.c: 344: (UIR &= 0xF7);
  4136  06C7  30F7               	movlw	247
  4137  06C8  0021               	movlb	1	; select bank1
  4138  06C9  00E7               	movwf	??_USBDeviceInit^(0+128)
  4139  06CA  0867               	movf	??_USBDeviceInit^(0+128),w
  4140  06CB  003D               	movlb	29	; select bank29
  4141  06CC  0590               	andwf	16,f	;volatile
  4142  06CD                     l5990:
  4143                           
  4144                           ;usb_device.c: 346: inPipes[0].info.Val = 0;
  4145  06CD  0023               	movlb	3	; select bank3
  4146  06CE  01A9               	clrf	(_inPipes^(0+384)+2)	;volatile
  4147  06CF                     l5992:
  4148                           
  4149                           ;usb_device.c: 347: outPipes[0].info.Val = 0;
  4150  06CF  01A2               	clrf	(_outPipes^(0+384)+2)	;volatile
  4151  06D0                     l5994:
  4152                           
  4153                           ;usb_device.c: 348: outPipes[0].wCount.Val = 0;
  4154  06D0  01A3               	clrf	(_outPipes^(0+384)+3)	;volatile
  4155  06D1  01A4               	clrf	((_outPipes+1)^(0+384)+3)	;volatile
  4156  06D2                     l5996:
  4157  06D2  003D               	movlb	29	; select bank29
  4158  06D3  1990               	btfsc	16,3	;volatile
  4159  06D4  2ED6               	goto	u5281
  4160  06D5  2ED7               	goto	u5280
  4161  06D6                     u5281:
  4162  06D6  2EC7               	goto	l5988
  4163  06D7                     u5280:
  4164  06D7                     l5998:
  4165                           
  4166                           ;usb_device.c: 349: };usb_device.c: 353: USBStatusStageEnabledFlag1 = 1;
  4167  06D7  3001               	movlw	1
  4168  06D8  0021               	movlb	1	; select bank1
  4169  06D9  00E7               	movwf	??_USBDeviceInit^(0+128)
  4170  06DA  0867               	movf	??_USBDeviceInit^(0+128),w
  4171  06DB  0023               	movlb	3	; select bank3
  4172  06DC  00C7               	movwf	_USBStatusStageEnabledFlag1^(0+384)	;volatile
  4173                           
  4174                           ;usb_device.c: 354: USBStatusStageEnabledFlag2 = 1;
  4175  06DD  3001               	movlw	1
  4176  06DE  0021               	movlb	1	; select bank1
  4177  06DF  00E7               	movwf	??_USBDeviceInit^(0+128)
  4178  06E0  0867               	movf	??_USBDeviceInit^(0+128),w
  4179  06E1  0023               	movlb	3	; select bank3
  4180  06E2  00C6               	movwf	_USBStatusStageEnabledFlag2^(0+384)	;volatile
  4181  06E3                     l6000:
  4182                           
  4183                           ;usb_device.c: 356: USBDeferINDataStagePackets = 0;
  4184  06E3  01C5               	clrf	_USBDeferINDataStagePackets^(0+384)	;volatile
  4185  06E4                     l6002:
  4186                           
  4187                           ;usb_device.c: 357: USBDeferOUTDataStagePackets = 0;
  4188  06E4  01C4               	clrf	_USBDeferOUTDataStagePackets^(0+384)	;volatile
  4189  06E5                     l6004:
  4190                           
  4191                           ;usb_device.c: 358: USBBusIsSuspended = 0;
  4192  06E5  01CC               	clrf	_USBBusIsSuspended^(0+384)	;volatile
  4193  06E6                     l6006:
  4194                           
  4195                           ;usb_device.c: 362: for(i = 0; i < (uint8_t)(2+1u); i++)
  4196  06E6  0022               	movlb	2	; select bank2
  4197  06E7  01E3               	clrf	USBDeviceInit@i^(0+256)
  4198  06E8                     l6010:
  4199                           
  4200                           ;usb_device.c: 363: {;usb_device.c: 364: pBDTEntryIn[i] = 0u;
  4201  06E8  0863               	movf	USBDeviceInit@i^(0+256),w
  4202  06E9  3EB2               	addlw	(low (_pBDTEntryIn| (0+256)))& (0+255)
  4203  06EA  0086               	movwf	6
  4204  06EB  3001               	movlw	1	; select bank3/4
  4205  06EC  0087               	movwf	7
  4206  06ED  0181               	clrf	1
  4207                           
  4208                           ;usb_device.c: 365: pBDTEntryOut[i] = 0u;
  4209  06EE  0863               	movf	USBDeviceInit@i^(0+256),w
  4210  06EF  3EB5               	addlw	(low (_pBDTEntryOut| (0+256)))& (0+255)
  4211  06F0  0086               	movwf	6
  4212  06F1  3001               	movlw	1	; select bank3/4
  4213  06F2  0087               	movwf	7
  4214  06F3  0181               	clrf	1
  4215                           
  4216                           ;usb_device.c: 366: ep_data_in[i].Val = 0u;
  4217  06F4  0863               	movf	USBDeviceInit@i^(0+256),w
  4218  06F5  3EAF               	addlw	(low (_ep_data_in| (0+256)))& (0+255)
  4219  06F6  0086               	movwf	6
  4220  06F7  3001               	movlw	1	; select bank3/4
  4221  06F8  0087               	movwf	7
  4222  06F9  0181               	clrf	1
  4223                           
  4224                           ;usb_device.c: 367: ep_data_out[i].Val = 0u;
  4225  06FA  0863               	movf	USBDeviceInit@i^(0+256),w
  4226  06FB  3EAC               	addlw	(low (_ep_data_out| (0+256)))& (0+255)
  4227  06FC  0086               	movwf	6
  4228  06FD  3001               	movlw	1	; select bank3/4
  4229  06FE  0087               	movwf	7
  4230  06FF  0181               	clrf	1
  4231  0700                     l6012:
  4232  0700  3001               	movlw	1
  4233  0701  0021               	movlb	1	; select bank1
  4234  0702  00E7               	movwf	??_USBDeviceInit^(0+128)
  4235  0703  0867               	movf	??_USBDeviceInit^(0+128),w
  4236  0704  0022               	movlb	2	; select bank2
  4237  0705  07E3               	addwf	USBDeviceInit@i^(0+256),f
  4238  0706                     l6014:
  4239  0706  3003               	movlw	3
  4240  0707  0263               	subwf	USBDeviceInit@i^(0+256),w
  4241  0708  1C03               	skipc
  4242  0709  2F0B               	goto	u5291
  4243  070A  2F0C               	goto	u5290
  4244  070B                     u5291:
  4245  070B  2EE8               	goto	l6010
  4246  070C                     u5290:
  4247  070C                     l6016:
  4248                           
  4249                           ;usb_device.c: 368: };usb_device.c: 371: pBDTEntryIn[0] = (volatile BDT_ENTRY*)&BDT[2];
  4250  070C  3028               	movlw	40
  4251  070D  0021               	movlb	1	; select bank1
  4252  070E  00E7               	movwf	??_USBDeviceInit^(0+128)
  4253  070F  0867               	movf	??_USBDeviceInit^(0+128),w
  4254  0710  0023               	movlb	3	; select bank3
  4255  0711  00B2               	movwf	_pBDTEntryIn^(0+384)
  4256                           
  4257                           ;usb_device.c: 373: UEP0 = 0x06|0x10;
  4258  0712  3016               	movlw	22
  4259  0713  003D               	movlb	29	; select bank29
  4260  0714  0098               	movwf	24	;volatile
  4261  0715                     l6018:
  4262                           
  4263                           ;usb_device.c: 375: BDT[0].ADR = (((uint16_t)(&SetupPkt)) & 0x7FFF);
  4264  0715  3000               	movlw	0
  4265  0716  0020               	movlb	0	; select bank0
  4266  0717  00A3               	movwf	35	;volatile
  4267  0718  3050               	movlw	80
  4268  0719  00A2               	movwf	34	;volatile
  4269  071A                     l6020:
  4270                           
  4271                           ;usb_device.c: 376: BDT[0].CNT = 8;
  4272  071A  3008               	movlw	8
  4273  071B  00A1               	movwf	33	;volatile
  4274                           
  4275                           ;usb_device.c: 377: BDT[0].STAT.Val = 0x00|0x04;
  4276  071C  3004               	movlw	4
  4277  071D  0021               	movlb	1	; select bank1
  4278  071E  00E7               	movwf	??_USBDeviceInit^(0+128)
  4279  071F  0867               	movf	??_USBDeviceInit^(0+128),w
  4280  0720  0020               	movlb	0	; select bank0
  4281  0721  00A0               	movwf	32	;volatile
  4282  0722                     l6022:
  4283                           
  4284                           ;usb_device.c: 378: BDT[0].STAT.Val |= 0x80;
  4285  0722  17A0               	bsf	32,7	;volatile
  4286  0723                     l6024:
  4287                           
  4288                           ;usb_device.c: 381: USBActiveConfiguration = 0;
  4289  0723  0023               	movlb	3	; select bank3
  4290  0724  01D5               	clrf	_USBActiveConfiguration^(0+384)	;volatile
  4291  0725                     l6026:
  4292                           
  4293                           ;usb_device.c: 384: USBDeviceState = DETACHED_STATE;
  4294  0725  01D2               	clrf	_USBDeviceState^(0+384)	;volatile
  4295  0726                     l547:
  4296  0726  0008               	return
  4297  0727                     __end_of_USBDeviceInit:
  4298                           
  4299                           	psect	text5
  4300  15CC                     __ptext5:	
  4301 ;; *************** function _USBDeviceAttach *****************
  4302 ;; Defined at:
  4303 ;;		line 1352 in file "../usb/src/usb_device.c"
  4304 ;; Parameters:    Size  Location     Type
  4305 ;;		None
  4306 ;; Auto vars:     Size  Location     Type
  4307 ;;		None
  4308 ;; Return value:  Size  Location     Type
  4309 ;;                  1    wreg      void 
  4310 ;; Registers used:
  4311 ;;		wreg, status,2, status,0
  4312 ;; Tracked objects:
  4313 ;;		On entry : 0/0
  4314 ;;		On exit  : 0/0
  4315 ;;		Unchanged: 0/0
  4316 ;; Data sizes:     COMMON   BANK0   BANK1   BANK2   BANK3   BANK4   BANK5   BANK6   BANK7   BANK8   BANK9  BANK10  BANK1
      +1  BANK12
  4317 ;;      Params:         0       0       0       0       0       0       0       0       0       0       0       0       
      +0       0
  4318 ;;      Locals:         0       0       0       0       0       0       0       0       0       0       0       0       
      +0       0
  4319 ;;      Temps:          0       0       1       0       0       0       0       0       0       0       0       0       
      +0       0
  4320 ;;      Totals:         0       0       1       0       0       0       0       0       0       0       0       0       
      +0       0
  4321 ;;Total ram usage:        1 bytes
  4322 ;; Hardware stack levels used:    1
  4323 ;; Hardware stack levels required when called:   11
  4324 ;; This function calls:
  4325 ;;		Nothing
  4326 ;; This function is called by:
  4327 ;;		_main
  4328 ;; This function uses a non-reentrant model
  4329 ;;
  4330                           
  4331                           
  4332                           ;psect for function _USBDeviceAttach
  4333  15CC                     _USBDeviceAttach:
  4334  15CC                     l6028:	
  4335                           ;incstack = 0
  4336                           ; Regs used in _USBDeviceAttach: [wreg+status,2+status,0]
  4337                           
  4338                           
  4339                           ;usb_device.c: 1356: {;usb_device.c: 1357: if(1 == 1)
  4340  15CC  0023               	movlb	3	; select bank3
  4341  15CD  0852               	movf	_USBDeviceState^(0+384),w	;volatile
  4342  15CE  1D03               	btfss	3,2
  4343  15CF  2DD1               	goto	u5301
  4344  15D0  2DD2               	goto	u5300
  4345  15D1                     u5301:
  4346  15D1  2DEC               	goto	l605
  4347  15D2                     u5300:
  4348  15D2                     l6030:
  4349                           
  4350                           ;usb_device.c: 1358: {;usb_device.c: 1360: UCON = 0;
  4351  15D2  003D               	movlb	29	; select bank29
  4352  15D3  018E               	clrf	14	;volatile
  4353                           
  4354                           ;usb_device.c: 1363: UIE = 0;
  4355  15D4  0192               	clrf	18	;volatile
  4356  15D5                     l6032:
  4357                           
  4358                           ;usb_device.c: 1367: { UCFG = 0x10 | 0x00 | 0x04 | 0x02; UEIE = 0x9F; UIE = 0x39 | 0x40 
      +                          | 0x02; };
  4359  15D5  3016               	movlw	22
  4360  15D6  0091               	movwf	17	;volatile
  4361  15D7                     l6034:
  4362  15D7  309F               	movlw	159
  4363  15D8  0097               	movwf	23	;volatile
  4364  15D9                     l6036:
  4365  15D9  307B               	movlw	123
  4366  15DA  0092               	movwf	18	;volatile
  4367  15DB                     l6038:
  4368                           
  4369                           ;usb_device.c: 1369: {PIE2bits.USBIE = 1;INTCONbits.PEIE = 1; INTCONbits.GIE = 1;};
  4370  15DB  0021               	movlb	1	; select bank1
  4371  15DC  1512               	bsf	18,2	;volatile
  4372  15DD                     l6040:
  4373  15DD  170B               	bsf	11,6	;volatile
  4374  15DE                     l6042:
  4375  15DE  178B               	bsf	11,7	;volatile
  4376                           
  4377                           ;usb_device.c: 1372: while(!UCONbits.USBEN){UCONbits.USBEN = 1;}
  4378  15DF  2DE1               	goto	l602
  4379  15E0                     l603:
  4380  15E0  158E               	bsf	14,3	;volatile
  4381  15E1                     l602:
  4382  15E1  003D               	movlb	29	; select bank29
  4383  15E2  1D8E               	btfss	14,3	;volatile
  4384  15E3  2DE5               	goto	u5311
  4385  15E4  2DE6               	goto	u5310
  4386  15E5                     u5311:
  4387  15E5  2DE0               	goto	l603
  4388  15E6                     u5310:
  4389  15E6                     l6044:
  4390                           
  4391                           ;usb_device.c: 1375: USBDeviceState = ATTACHED_STATE;
  4392  15E6  3001               	movlw	1
  4393  15E7  0021               	movlb	1	; select bank1
  4394  15E8  00E7               	movwf	??_USBDeviceAttach^(0+128)
  4395  15E9  0867               	movf	??_USBDeviceAttach^(0+128),w
  4396  15EA  0023               	movlb	3	; select bank3
  4397  15EB  00D2               	movwf	_USBDeviceState^(0+384)	;volatile
  4398  15EC                     l605:
  4399  15EC  0008               	return
  4400  15ED                     __end_of_USBDeviceAttach:
  4401                           
  4402                           	psect	text6
  4403  1570                     __ptext6:	
  4404 ;; *************** function _SYSTEM_Initialize *****************
  4405 ;; Defined at:
  4406 ;;		line 89 in file "../src/system_config/system.c"
  4407 ;; Parameters:    Size  Location     Type
  4408 ;;  state           1    wreg     enum E2189
  4409 ;; Auto vars:     Size  Location     Type
  4410 ;;  state           1    8[BANK1 ] enum E2189
  4411 ;; Return value:  Size  Location     Type
  4412 ;;                  1    wreg      void 
  4413 ;; Registers used:
  4414 ;;		wreg, fsr0l, fsr0h, status,2, status,0, pclath, cstack
  4415 ;; Tracked objects:
  4416 ;;		On entry : 0/0
  4417 ;;		On exit  : 0/0
  4418 ;;		Unchanged: 0/0
  4419 ;; Data sizes:     COMMON   BANK0   BANK1   BANK2   BANK3   BANK4   BANK5   BANK6   BANK7   BANK8   BANK9  BANK10  BANK1
      +1  BANK12
  4420 ;;      Params:         0       0       0       0       0       0       0       0       0       0       0       0       
      +0       0
  4421 ;;      Locals:         0       0       1       0       0       0       0       0       0       0       0       0       
      +0       0
