:040000008031122811
:100008007E14803120007F082100E80081313F21E3
:10001800210068082000FF007E10090080311428A4
:10002800E93084000030850007309731DE278031C1
:10003800A0308400013085004C309731DE278031B4
:10004800203084000230850048309731DE27803127
:10005800A03084000230850040309731DE277E10C2
:1000680020008831322820005208013A031D502808
:1000780050081F390038031D50282100ED172000B3
:100088005108033A031D4E280130E900690823008E
:10009800C40050282300C40120005208031D080092
:1000A80050081F39023A031D080054080F39003A56
:1000B8000319080054080F39E900033069020318CE
:1000C800080021006908203A031D0800ED172000E8
:1000D800D41B7C2854080F39B43E860001308700B1
:1000E8000108E9006908EE0054080F39AE3E892876
:1000F80054080F39B13E8600013087000108E90035
:100108006908EE0054080F39AB3E860001308700BD
:100118000108E9006908ED006D189728FB30E9002F
:100128006908EE0598286E15D41BA0286E08E9000A
:1001380054080F39B43EA5286E08E90054080F3951
:10014800B13E860001308700690881005108033AF2
:10015800031DC9286E0886008701811FC028D41B8B
:10016800B92854080F39AE3EBC2854080F39AB3EA5
:1001780086000130870081146E088600870101150A
:100188006E0886008701811708000430E9006908B5
:10019800EE066E0886008701811FED287F30E90092
:1001A8006E0886008701690881056E088600870148
:1001B80001170530E3000030E4006E08E500003068
:1001C800E6000130E7000030E8008931F021803195
:1001D800F22820006E0886008701011704302000ED
:1001E800E9006908EE06ED18FE286E08860087010A
:1001F800811F2229D41B042954080F39AE3E072930
:1002080054080F39AB3E86000130870081103B301F
:10021800E9006E0886008701690881050530E3005A
:100228000030E4006E08E5000030E6000130E70029
:100238000030E8008931F02180312A293B30200044
:10024800E9006E08860087016908810520005408C6
:100258000F39983EE900EA010E30EA3D6908EB00E3
:100268006A08EC00FE30E9006B0886006C0887001D
:1002780069088105080021006908013A031D4F2912
:100288003D008E1A4F2990011214121602302100D7
:10029800E5006508E9003D001019121D5C29FB30D6
:1002A8002100E50065083D0090058831EA2081318C
:1002B8003D008E1C62292000121108001018121C23
:1002C800732985317C258131210012150430E50020
:1002D8006508E900FE30E50065083D009005101A44
:1002E800121E7F29893126218131EF302100E50056
:1002F80065083D009005101FA529121F932973302A
:100308002000E3000030E4000030E5000030E600A3
:100318000130E7000030E8008931F0218131BF3039
:100328002100E50065083D00900523004B080319EE
:100338009F290130CB02CB08031DA5298D31C32588
:1003480081313D00901A921EAC2989316521813195
:100358003D009018921CC229FF302000E3007F3036
:10036800E4000030E5000030E6000130E70000302E
:10037800E8008931F02181313D00930104302100EA
:1003880069020318CA292000121108003D00921DB5
:10039800212A2100E7011A2A0F082100E500650833
:1003A8002300EB006B0C2100E500E50C650C0F3910
:1003B800E60066082300D200F7302100E500650852
:1003C8003D00900523006B19EC295208AE3EEF2939
:1003D80023005208AB3E860001308700010801392E
:1003E8002100E5000130E50601086506FE396506CD
:1003F80081002300D208031D052A8F310627813189
:10040800152A72302000E3000030E400EB30E500EC
:100418000130E6000030E7000030E8008931F021C3
:10042800813101302100E5006508E70704306702E3
:100438000318212A3D009019D02920001211080024
:100448002100121123003E080319382A3E088600AD
:100458008701010D010D01392200E800E901680852
:10046800EA006908EB003B2A2200EA01EB016B086D
:100478006A040319422A21001215080023004E08B5
:10048800033A0319CE01CE08031D4D2A2100121587
:10049800080023004E08023A031D6A2A2200E001E0
:1004A800E00A0030E1000030E200E30102308B3165
:1004B800542382312200E80068082300BE0003307C
:1004C8002200E80068082300CE00FA2A4E08013A04
:1004D800031DFA2A41304F02031C742A4030762A41
:1004E80023004F082200E8006808ED006D03FF3A7A
:1004F80023004F072200E80068082300CF00A0303F
:100508002200E80068082300B90022006D08E8000E
:100518006808EC002300CC080319B02AD22A23006B
:100528003B0886000230870001082200E80023000B
:100538003908860087012200680881000130E80038
:1005480068082300B90701302200E8006808230082
:10055800BB0701302200EC022200EC080319D62A5E
:10056800932A23003B0886000230870001082200F6
:10057800E800230039088600870122006808810006
:100588000130E80068082300B90701302200E800BC
:1005980068082300BB0701302200EC022200EC08A7
:1005A800031DB52A2300CF08031DE72A22006D0882
:1005B800403A031DE12A0230E32A03302200E80012
:1005C80068082300CE002200E001E00AA030E10024
:1005D8000030E2006D08E8006808E30002308B3163
:1005E80054232200E90069082300BE0021001215E7
:1005F80008002300540886008701413F2000EB00D3
:100608006B08E800E901690823002402031D102B88
:1006180020006808230023020318172B2308200052
:10062800E8006808EB0020006B08E800E9016808AA
:100638002300A302200069082300A43B2000EA014C
:100648006B086A020318412B6A08583E8600870126
:100658000108E800230020088600013087002000F8
:10066800680881000130E80068082300A00701300D
:100678002000E8006808EA07242B0330A03E860023
:1006880001308700160001040319872B0830E800A1
:1006980021006A0A86008701200068088100583016
:1006A800E8000030E90021006A08023E8600870160
:1006B80020006808C03F6908C13F2300540886002D
:1006C8008701011B772B48302000E80021006A08C9
:1006D8008600870120006808810021006A088600DA
:1006E80087018117080008302000E80021006A0807
:1006F8008600870120006808810021006A088600BA
:1007080087018117080008302000E80021006A0AE4
:10071800860087012000680881005030E80000301A
:10072800E90021006A08023E860087012000680867
:10073800C03F6908C13F0430E80021006A0886000C
:10074800870120006808810021006A088600870167
:1007580081170530A03E860001308700160001048D
:100768000319C02B0530A03E860001308700413FA9
:100778008A00403F0A0083312300A213C808031DE2
:1007880008008D31C325080023005008023A031DD4
:10079800D02B8231FD2208002300D001BD08031DA3
:1007A800FC2B08302000EC0021006A0A8600870133
:1007B80020006C0881005030EC000030ED00210072
:1007C8006A08023E8600870120006C08C03F6D0859
:1007D800C13F0C30EC0021006A0886008701200028
:1007E8006C08810021006A088600870181170800CB
:0607F8002300BD01080012
:10080000C53484344B3484347F34843408348434A1
:100810000934023443340034023401340034C03427
:1008200032340934043400340034013402340234E4
:1008300001340034053424340034103401340434D9
:1008400024340234023405342434063400340134B0
:100850000534243401340034013407340534813440
:1008600003340834003402340934043401340034CD
:1008700002340A34003400340034073405340234BE
:1008800002344034003400340734053482340234F6
:10089000403400340034343403344D34003469348B
:1008A000003463340034723400346F340034633401
:1008B0000034683400346934003470340034203437
:1008C0000034543400346534003463340034683404
:1008D00000346E3400346F3400346C3400346F34C0
:1008E000003467340034793400342034003449341F
:1008F00000346E340034633400342E340034343425
:10090000033443340034443400344334003420345A
:10091000003452340034533400342D340034323433
:10092000003433340034323400342034003445345D
:1009300000346D340034753400346C340034613468
:10094000003474340034693400346F3400346E344D
:1009500000342034003444340034653400346D34C1
:1009600000346F3400341234013400340234023461
:10097000003400340834D83404340A3400340034E9
:1009800001340134023400340134043403340934B2
:100990000434210012113D009301900198010E30A2
:1009A0002200E3009930E200E401023064020318FF
:1009B000EA2C620886006308870081010130E207A3
:1009C0000030E33D0130E0006008E40702306402DB
:1009D000031CD92C16303D0091009F3097007B30CE
:1009E00092002200E5010C3065020318102D650805
:1009F000E0000130E035FF3E031DFA2C6035203E5B
:100A0000860087010030C03F0030C13FC23FC33F76
:100A10000130E0006008E5070C306502031CF72C8C
:100A20003D000E1796010E120E133D00901D252D50
:100A3000F7302200E00060083D0090052100ED0144
:100A40002300A201A301A401152D01302200E00022
:100A500060082300C90001302200E0006008230084
:100A6000CA00C601C701C5012200E50103306502C5
:100A700003185A2D6508B13E8600013087008101B8
:100A80006508B43E86000130870081016508AB3EF1
:100A900086000130870081016508AE3E8600013086
:100AA000870081010130E0006008E507033065023E
:100AB000031C3A2D2830E00060082300B1001630F6
:100AC0003D00980050302200E0000030E100600856
:100AD0002000A200220061082000A3000830A1002D
:100AE00004302200E00060082000A000A0172300CE
:100AF000EA012100E9010800210012113D009301E3
:100B0000900198010E30F3009930F200F4010230A8
:100B1000740203189C2D72088600730887008101F7
:100B20000130F2070030F33D0130F0007008F407A7
:100B300002307402031C8B2D16303D0091009F3053
:100B400097007B309200F5010C3075020318C12D1F
:100B50007508F0000130F035FF3E031DAB2D7035F8
:100B6000203E860087010030C03F0030C13FC23FB9
:100B7000C33F0130F0007008F5070C307502031C0C
:100B8000A82D3D000E1796010E120E133D00901D6C
:100B9000D42DF730F000700890052100ED012300FE
:100BA000A201A301A401C62D0130F00070082300AA
:100BB000C9000130F0007008CA00C601C701C501B4
:100BC000F501033075020318052E7508B13E860045
:100BD0000130870081017508B43E8600013087002E
:100BE00081017508AB3E86000130870081017508E0
:100BF000AE3E86000130870081010130F0007008B0
:100C0000F50703307502031CE52D2830F00070084D
:100C10002300B10016303D0098005030F000003045
:100C2000F10070082000A2007108A3000830A100A4
:100C30000430F0007008A000A0172300EA01210092
:100C4000E90108002100ED170E302000EB0099307B
:100C5000EA00EC0102306C0203183F2E6A0886009D
:100C60006B08870081010130EA070030EB3D01305D
:100C7000E9006908EC0702306C02031C2E2E2030BC
:100C8000F0000030F1000030F2000030F3003030AE
:100C9000F4000030F5008831B02086313D000E1799
:100CA0002000ED0103306D0203186A2E6D08AB3E83
:100CB00086000130870081016D08AE3E860001305C
:100CC000870081010130E9006908ED0703306D02FA
:100CD000031C562EE830F0000130F1000030F20025
:100CE0000030F3000230F4000030F5008831B0200D
:100CF00086313D000E1328302000E90069082300EA
:100D0000B10020302000E90069082300D400540815
:100D10002000E90069082100EA0020005208E900EB
:100D200069082300EA00EA08031D9D2E1030200008
:100D3000E90069082100E900080001302000E30013
:100D40000030E400EA30E5000130E6000130E70061
:100D50000030E8008931F02120302000E9006908E6
:100D60002100E900080023003108860087010030D7
:100D7000011B01302000EA000430E800680823006D
:100D8000B10621006908083A031DD62E200052083A
:100D90007F393D00960016080319D02E1030D12E51
:100DA00004302000E80068082100E9002300500812
:100DB000013A031D252F58302000E8000030E900DB
:100DC00023003108023E8600870120006808C03FEA
:100DD0006908C13F8E319626863123005608023AB3
:100DE000031D022F04302000E80023003108860094
:100DF00087012000680881002300310886008701F0
:100E0000811708002000EA08031D152F4830E8006C
:100E10002300310886008701200068088100230034
:100E20003108860087018117080008302000E8009B
:100E30002300310886008701200068088100230014
:100E400031088600870181170800A21F3C2F05305A
:100E5000A03E8600013087001600010403193A2FD6
:100E60000530A03E860001308700413F8A00403FA8
:100E70000A0087312300A213D00108003D000E12A2
:100E80002100ED1B7F2F2300A21F532F0230F500FE
:100E90007508D000C708031D4F2F8C314224230052
:100EA000CA01C90108000830F50021006A0A86005D
:100EB0008701750881005030F5000030F6006A089F
:100EC000023E860087017508C03F7608C13F0C309E
:100ED000F5006A0886008701750881006A088600A7
:100EE000870181170430F50023003108860087014F
:100EF00075088100310886008701811708002000ED
:100F0000D01F962F0130F50075082300D000C608C9
:100F1000031D8D2F8C31422487312300CA01C90162
:100F2000C808031D08008D31C32508000230F500F4
:100F300075082300D0000830F50021006A0A8600F9
:100F40008701750881005030F5000030F6006A080E
:100F5000023E860087017508C03F7608C13F043015
:100F6000F5006A0886008701750881006A08860016
:100F7000870181172300CA01C901C808031D0800A1
:100F80008D31C3250800F5002030F1007108F6000E
:100F90007008F1000130F135890BCB2F7508F20094
:100FA0000130F235FF3E031DD12F72357107F3007A
:100FB0000130F335FF3E031DD92F7335F40074085B
:100FC000F6077608860087018113F008031DED2FD0
:100FD0007608F1007508B43EF12F7608F100750827
:100FE000B13E8600013087007108810076088600D6
:100FF000870101137608043E860087010117080067
:101000008D31202D8D31232D8D315D2D8D31232D71
:101010008D315D2D8D31032D8D310C2D8D31432D75
:101020008D31122D8D310F2D8D31262D8D31362D97
:041030008D315D2D74
:10103C0023009D1C2A281D1219082200E0006008BC
:10104C00E10023001D162F2819082200E00060087B
:10105C00E100220061080800003089310821883144
:10106C008431C92488318831CD2088312030210049
:10107C006902031C3C283D008E183C288E31292621
:10108C0088313C28F000562822000E10080022005F
:10109C008E10080022000E11080022008E1108008C
:1010AC0070088400053004020318080090310435E0
:1010BC00143E82000800F0006F2822000E14080075
:1010CC0022008E14080022000E15080022008E1536
:1010DC0008007008840005300402031808009031E1
:1010EC0004350A3E820008002200E20021001211A1
:1010FC002300CE08031D922822006208E10061083B
:10110C002300BB0022006008E10061082300CF002F
:10111C00CC01CC0ACE01CE0A210012150800220007
:10112C00E000A42821000E10080021008E100800F9
:10113C0021000E11080021008E1108002200600809
:10114C008400053004020318080090310435003E79
:10115C00820008007108F701F7077008F601F6071E
:10116C000130F4020030F53BFF307506031DC0283A
:10117C00FF3074060319080076088600770887008C
:10118C00720881000130F6070030F73DB6282100C7
:10119C00E908031D08003D008E01920116309100F4
:1011AC009F3097007B309200210012150B178B1784
:1011BC003D008E19E3288E15DE2801302200E00058
:1011CC0060082100E90008002300C50174302000EC
:1011DC00E3000030E4000030E5000030E6000030B1
:1011EC00E7000030E8008931F02188313D008E1095
:1011FC001211101D0800FB302000E90069083D00A9
:10120C009005FF282200E1001929FC3021009900EB
:10121C00903027009B0001308831952089310130B6
:10122C009731E427080022006108003A03190B29C2
:10123C00013A03192529033A031925292529080000
:10124C003D001215EF302000E90069083D009005C3
:10125C008E1401302000E90069082300C5007530A8
:10126C002000E3000030E4000030E5000030E60030
:10127C000030E7000030E8008931F0210800FC0064
:10128C00771D4D29F0017C088731C3278931F71C64
:10129C005429F001F00A7C088731C3277C08983E5A
:1012AC00F800F9010E30F93D7808FA007908FB00D6
:1012BC007A0886007B0887007708810008003D00CB
:1012CC00181C842923005408860087010108803AE1
:1012DC00031D82293108860087010108843A031D09
:1012EC0082290C30F00054088600870170088100B8
:1012FC0054088600870181173D001810DF30F0007C
:10130C007008900508008931B72189312300E50167
:10131C000830FD007D08E700E6010030E4000030F5
:10132C00E3004B30E2000030E1009731EF278931C8
:10133C002000E201403062020318B2296208203E0C
:10134C0086000230870081010130FD007D08E20734
:10135C0040306202031CA4292300C101C001D30147
:10136C00080000302300E4000030E3004B30E200C2
:10137C000030E100E501E60108302000E0006008E3
:10138C002300E700CD011A302000E0006008F700D0
:10139C0001308931452189311E302000E000600880
:1013AC00F7000230893145218931F0012030F100FC
:1013BC000130F20040302000E0006008F300023001
:1013CC008A31BC222000E10061082300BF00BE016D
:1013DC00CE010800002A8B31A12308008B31A123F8
:1013EC0008008B31A12308008931892108008D3137
:1013FC005E25080020006408003A0319092A7F3A88
:10140C000319232A282A6308013A0319FA29033AF3
:10141C000319282A013A0319FD29063A0319282A27
:10142C00773A0319282A013A0319F129073A0319C3
:10143C00F729013A0319F429282A6308FF3A0319FA
:10144C00282A282A080023005A08E4005908E30037
:10145C005808E2005708E1006408F3006308F20042
:10146C006208F1006108F0000030F700B730F600B8
:10147C001B30F5000030F4008B31F0238A31FF3043
:10148C0070072000E400FF30713DE500FF30723D35
:10149C00E600FF30733DE7006408E000E1016008FE
:1014AC0023009B002000610823009C00200064089E
:1014BC00E0006508E1006608E2006708E300083018
:1014CC00E336E20CE10CE00C890B662A6008230081
:1014DC009C009731EF2708002300D601C801C601F4
:1014EC00C701BD01D0017F302100E000230031088D
:1014FC00860087012100600881050430E000600847
:10150C002300B1067F302100E00023003108860063
:10151C0087012100600881050430E0006008230089
:10152C00B1067F302100E0006A0886008701600860
:10153C008105ED01EE01EF012300A201A301A4013D
:10154C008C31FB248A3103302000E3000030E400AE
:10155C000030E5000030E6000030E7000030E80025
:10156C008931F0218A3187313E270800F600700856
:10157C000319C32A7608B13EC52A7608B43E860004
:10158C00013087000108F4007408F700F708031D08
:10159C00D12A00300800FF307105F4007F3072054D
:1015AC00F5007708023E860087017408C03F750875
:1015BC00C13F7308F400770A860087017408810024
:1015CC004030F4007708860087017408810577089D
:1015DC0086008701811577088600870181177008BE
:1015EC000319FD2A0430F4007608B13E012B0430B7
:1015FC00F4007608B43E860001308700740881063A
:10160C00770808002000D801D9013B2B2100ED17E9
:10161C0023004408013A031D472B2000D814472B04
:10162C002100ED17472B2100ED172000D41B222B96
:10163C0054080F39B43E252B54080F39B13E86009F
:10164C00013087000108F0007008F1007108860075
:10165C008701811F472B710886008701011D472BCD
:10166C000130F0007008D800472B50081F39003AA1
:10167C0003190C2B013A0319162B033A0319192BD6
:10168C00472B2100ED1F08005830EB000030EC0018
:10169C006D140230F0007008EE0008002200E60025
:1016AC00600803195C2B6608B13E5E2B6608B43EDD
:1016BC008600013087000108E4006408E700E708B1
:1016CC00031D6A2B00300800FF306105E4007F30F9
:1016DC006205E5006708023E860087016408C03F8A
:1016EC006508C13F6308E400670A86008701640847
:1016FC0081004030E400670886008701640881059A
:10170C0067088600870181156708860087018117A5
:10171C0060080319962B0430E4006608B13E9A2B3E
:10172C000430E4006608B43E86000130870064088B
:10173C008106670808003D008E1CE42B01308831BF
:10174C00482008000130230037063804031DB32B52
:10175C000130883161208B31EA2B4B302300370666
:10176C003804031DBE2B0130883148208B31EA2B05
:10177C000030230038029730DD2B01302300370670
:10178C003804031DCE2B0130883161208B31EA2BBC
:10179C003230230037063804031DD92B0130883131
:1017AC0048208B31EA2B033023003802B730031961
:1017BC003702031CEA2BB701B801EA2B2100690898
:1017CC00203A0319A82BC32B01302300B707003094
:1017DC00B83D08000030FC000030FB000030FA007F
:1017EC000030F90073087204710470040319392C69
:1017FC00FD01FD0AF31B0E2C0130F035F10DF20D3D
:10180C00F30D890B032C0130F8007808FD07002C30
:10181C000130F935FA0DFB0DFC0D890B0F2C7308FB
:10182C007702031D232C72087602031D232C7108EA
:10183C007502031D232C70087402031C2E2C7008D7
:10184C00F4027108F53B7208F63B7308F73B791408
:10185C000130F336F20CF10CF00C890B2F2C01300B
:10186C00FD02031D0E2C7C08F3007B08F2007A08A5
:10187C00F1007908F00008002300C601C7015008E8
:10188C00023A031D692C0830F30021006A0A860015
:10189C008701730881005830F3000030F4006A08A7
:1018AC00023E860087017308C03F7408C13F483070
:1018BC00F3006A0886008701730881006A088600B5
:1018CC0087018117080021006F0820005702031DB3
:1018DC00732C21006E082000560203187E2C57082A
:1018EC002100EF01EF07200056082100EE01EE0762
:1018FC008E3196265830F3000030F4002300310866
:10190C00023E860087017308C03F7408C13F48300F
:10191C00F3003108860087017308810031088600C6
:10192C008701811708002200ED002300CD013F083C
:10193C000319AE2C3F0886008701010D010D0139FA
:10194C002200E900EA016908EB006A08EC00B12CFE
:10195C002200EB01EC016C086B04031DF82C230036
:10196C003F0A860087012200680801020318C52C73
:10197C0023003F0886008701413F2200E800230036
:10198C00CD012200680823004D020318E62C4D08F7
:10199C00203E86000130870001082200E900230068
:1019AC004D0822006D07EA006A08860002308700A5
:1019BC00690881000130E90069082300CD07C72CB4
:1019CC002200E0012030E1000130E2004030E9006B
:1019DC006908E30002308B3154232200EA006A08C4
:1019EC002300BF0023004D0808002000500E890C76
:1019FC000339003A031D0800522D2100ED17083061
:101A0C002000EF006F082100E90008008F318127CA
:101A1C000800863122260800EA302100EB00013054
:101A2C00EC006D1401302000EF006F082100EE0077
:101A3C00ED1708008B31082308008031372008008F
:101A4C0020005408E83E2100EB000130EC006D143E
:101A5C0001302000EF006F082100EE00ED170800A8
:101A6C002100ED1720005208EF005408E83E8600D4
:101A7C00013087006F08810008000230E30000305D
:101A8C00E4000030E5000030E6000030E7000030F4
:101A9C00E8008931F02108002000510884000D3045
:101AAC0004020318080088310435003E8200080047
:101ABC00200050081F39013A031D0800500E890CF4
:101ACC000339013A031D080054080319B02D5408BA
:101ADC00013A031D0800B02D60302100EB000230EC
:101AEC00EC000030EF000830EE006D14ED1708002C
:101AFC0060302100EB000230EC00ED1708002000F4
:101B0C0057082300A401A407200056082300A301B2
:101B1C00A307D730F0007008A0000A30A6002930C7
:101B2C00A500A2170800E1302100EB000130EC0009
:101B3C000030EF000730EE00C130F0007008ED000F
:101B4C00080020005208F00070082300D10021008A
:101B5C00ED17080020005108003A0319722D013AC4
:101B6C0003197E2D213A0319852D013A0319992D5C
:101B7C00033A0319A72DC22D08002300C908031D21
:101B8C0008000130F0007008C900CA08031D0800E5
:101B9C000130F0007008CA005008023A031DE62D0F
:101BAC00310A8600870181014830F0003108860037
:101BBC0087017008810031088600870181170800B1
:101BCC005008013A031D0800BD010830F000540A0A
:101BDC0086008701700881005030F0000030F10061
:101BEC005408023E860087017008C03F7108C13F4F
:101BFC000430F000540886008701700881005408F6
:101C0C008600870181170130F0007008BD00083094
:101C1C00F00021006A0A86008701700881005030AC
:101C2C00F0000030F1006A08023E8600870170085F
:101C3C00C03F7108C13F8030F0006A088600870100
:101C4C00700881000800203021006902031C080084
:101C5C003D008E1808002300C208031D492E403099
:101C6C002200EE006E08E800A0308C3199248E31F1
:101C7C002200EF006F082300C00040080319492E12
:101C8C00C201C20AC3014208031D9E1C602E4308F8
:101C9C00A03E86000230870001089731D8278E318C
:101CAC0001302200EE006E082300C30743084006F3
:101CBC000319C2012000911E812E3F3023004102E6
:101CCC000318812E88311E208E312200EE00230055
:101CDC004108203E86000230870022006E088100F9
:101CEC000130EE006E082300C1074108203E86003B
:101CFC000230870081012300CE08031D932E41087A
:101D0C000319932E41082200EE006E08E0002030EB
:101D1C0088317A208E312300C101823124220800BF
:101D2C000830F0007008F200003021006F0208301B
:101D3C0003196E020318B42E6E08F0007008F2003E
:101D4C002300D608031DAC2E0130B12E5608013AE3
:101D5C00031DB42E0230F0007008D6007208F0009B
:101D6C00F10170082100EE027108EF3B7208F000DF
:101D7C002300310A86008701700881005830F0007A
:101D8C007008D50021006D1CE52E022F21006B0878
:101D9C0084006C0885000008F000230055088600BC
:101DAC0087017008810001302100EB070030EC3D09
:101DBC000130F00070082300D5070130F202F20860
:101DCC0003190800CC2E21006B0884006C088500D8
:101DDC000008F00023005508860087017008810078
:101DEC0001302100EB070030EC3D0130F0007008B1
:101DFC002300D5070130F202F20803190800E92E7E
:101E0C002D302100E10061082300CB006B08FD3967
:101E1C00031D752F6B363F392100E1000130E13590
:101E2C00FF3E031D152F6135203EE20062082300A2
:101E3C00D40054082100E1006108EA000430E100FC
:101E4C006108EA062300540886008701010C890CFE
:101E5C000F390D3A031D722F2100E4010830640282
:101E6C000318612F23005408023E86008701403F6F
:101E7C002100E100413FE200610886006208870012
:101E8C000108E3006408503E860087016308810066
:101E9C0023005408023E860087010130810741313E
:101EAC000318810A01302100E1006108E4070830C1
:101EBC006402031C382F5030E1000030E200230094
:101ECC005408023E8600870121006108C03F620869
:101EDC00C13F8A31722208008331C8230800FD30CB
:101EEC0023006B052100E1006108043A031D080082
:101EFC008631B326080020005008803A031D0800E4
:101F0C00C030F00070082100ED00F32FB330210039
:101F1C00EB008430EC000030EF001230EE000800D3
:101F2C0020005208031DC92F5208F000F101F035B2
:101F3C00F10D0630700784008430713D8500003F40
:101F4C002100EB00013FEC006C08F1006B08F00085
:101F5C0002307007840071080318710A85000008AC
:101F6C00F2007208EE006C08F1006B08F000033010
:101F7C007007840071080318710A85000008F200CC
:101F8C007208EF0008002100ED010800033020006A
:101F9C0052020318ED2F5208F000F101F035F10D4B
:101FAC000030700784008430713D8500003F2100B3
:101FBC00EB00013FEC006B0884006C088500000806
:101FCC00F000F1017008EE007108EF00080021002C
:101FDC00ED0108002100ED01080020005308013A32
:101FEC0003198C2F033A0319962F013A0319CC2F9E
:101FFC00F02F08008831AF288831982888319B2829
:10200C0088319E288831A128883179288831632825
:10201C00883166288831692888316C288831602895
:10202C0088314A2888314D288831502888315328E6
:102FB0002200E000600823009A00080064008001FD
:102FC0000131890BDF2F00342200E0006008003A55
:102FD0000319EE2F013A0319EE2FEE2F08002300FC
:102FE0008D1221008D168D13243023009E00903009
:102FF0009D0008309F001908F0007008F1000800DB
:020000040001F9
:04000E00A4CFCFDFCD
:00000001FF
