

Microchip MPLAB XC8 Assembler V2.20 build 20200408173844 
                                                                                               Wed Feb  2 15:39:45 2022

Microchip MPLAB XC8 C Compiler v2.20 (Free license) build 20200408173844 Og1 
     1                           	processor	16F1459
     2                           	pagewidth 120
     3                           	opt	flic
     4                           	psect	stringtext1,global,class=STRCODE,delta=2,noexec
     5                           	psect	stringtext2,global,class=STRCODE,delta=2,noexec
     6                           	psect	stringtext3,global,class=STRCODE,delta=2,noexec
     7                           	psect	stringtext4,global,class=STRCODE,delta=2,noexec
     8                           	psect	stringtext5,global,class=STRCODE,delta=2,noexec
     9                           	psect	stringtext6,global,class=STRCODE,delta=2,noexec
    10                           	psect	stringtext7,global,class=STRCODE,delta=2,noexec
    11                           	psect	cinit,global,class=CODE,merge=1,delta=2
    12                           	psect	bssBANK1,global,class=BANK1,space=1,delta=1,noexec
    13                           	psect	bssBANK3,global,class=BANK3,space=1,delta=1,noexec
    14                           	psect	bssBANK4,global,class=BANK4,space=1,delta=1,noexec
    15                           	psect	bssBANK5,global,class=BANK5,space=1,delta=1,noexec
    16                           	psect	clrtext,global,class=CODE,delta=2
    17                           	psect	cstackBANK2,global,class=BANK2,space=1,delta=1,noexec
    18                           	psect	cstackBANK1,global,class=BANK1,space=1,delta=1,noexec
    19                           	psect	cstackCOMMON,global,class=COMMON,space=1,delta=1,noexec
    20                           	psect	cstackBANK0,global,class=BANK0,space=1,delta=1,noexec
    21                           	psect	maintext,global,class=CODE,merge=1,split=1,delta=2
    22                           	psect	text1,local,class=CODE,merge=1,delta=2
    23                           	psect	text2,local,class=CODE,merge=1,delta=2
    24                           	psect	text3,local,class=CODE,merge=1,delta=2
    25                           	psect	text4,local,class=CODE,merge=1,delta=2
    26                           	psect	text5,local,class=CODE,merge=1,delta=2
    27                           	psect	text6,local,class=CODE,merge=1,delta=2
    28                           	psect	text7,local,class=CODE,merge=1,delta=2
    29                           	psect	text8,local,class=CODE,merge=1,delta=2
    30                           	psect	text9,local,class=CODE,merge=1,delta=2
    31                           	psect	text10,local,class=CODE,merge=1,delta=2
    32                           	psect	text11,local,class=CODE,merge=1,delta=2
    33                           	psect	text12,local,class=CODE,merge=1,delta=2
    34                           	psect	intentry,global,class=CODE,delta=2
    35                           	psect	text14,local,class=CODE,merge=1,delta=2
    36                           	psect	text15,local,class=CODE,merge=1,delta=2
    37                           	psect	text16,local,class=CODE,merge=1,delta=2
    38                           	psect	text17,local,class=CODE,merge=1,delta=2
    39                           	psect	text18,local,class=CODE,merge=1,delta=2
    40                           	psect	text19,local,class=CODE,merge=1,delta=2
    41                           	psect	text20,local,class=CODE,merge=1,delta=2
    42                           	psect	text21,local,class=CODE,merge=1,delta=2
    43                           	psect	text22,local,class=CODE,merge=1,delta=2
    44                           	psect	text23,local,class=CODE,merge=1,delta=2
    45                           	psect	text24,local,class=CODE,merge=1,delta=2
    46                           	psect	text25,local,class=CODE,merge=1,delta=2,group=2
    47                           	psect	text26,local,class=CODE,merge=1,delta=2
    48                           	psect	text27,local,class=CODE,merge=1,delta=2
    49                           	psect	text28,local,class=CODE,merge=1,delta=2
    50                           	psect	text29,local,class=CODE,merge=1,delta=2
    51                           	psect	text30,local,class=CODE,merge=1,delta=2
    52                           	psect	text31,local,class=CODE,merge=1,delta=2
    53                           	psect	text32,local,class=CODE,merge=1,delta=2
    54                           	psect	text33,local,class=CODE,merge=1,delta=2
    55                           	psect	text34,local,class=CODE,merge=1,delta=2
    56                           	psect	text35,local,class=CODE,merge=1,delta=2
    57                           	psect	text36,local,class=CODE,merge=1,delta=2
    58                           	psect	text37,local,class=CODE,merge=1,delta=2
    59                           	psect	text38,local,class=CODE,merge=1,delta=2
    60                           	psect	text39,local,class=CODE,merge=1,delta=2
    61                           	psect	text40,local,class=CODE,merge=1,delta=2
    62                           	psect	text41,local,class=CODE,merge=1,delta=2
    63                           	psect	text42,local,class=CODE,merge=1,delta=2
    64                           	psect	text43,local,class=CODE,merge=1,delta=2
    65                           	psect	text44,local,class=CODE,merge=1,delta=2
    66                           	psect	text45,local,class=CODE,merge=1,delta=2,group=1
    67                           	psect	text46,local,class=CODE,merge=1,delta=2
    68                           	psect	config,global,abs,ovrld,class=CONFIG,space=4,delta=2,noexec
    69                           	dabs	1,0x20,48,_BDT
    70                           	dabs	1,0x58,8,_CtrlTrfData
    71                           	dabs	1,0x50,8,_SetupPkt
    72                           	dabs	1,0xA0,64,_cdc_data_tx
    73                           	dabs	1,0x120,64,_cdc_data_rx
    74                           	dabs	1,0x7E,2
    75  0000                     
    76                           ; Version 2.20
    77                           ; Generated 12/02/2020 GMT
    78                           ; 
    79                           ; Copyright © 2020, Microchip Technology Inc. and its subsidiaries ("Microchip")
    80                           ; All rights reserved.
    81                           ; 
    82                           ; This software is developed by Microchip Technology Inc. and its subsidiaries ("Microch
      +                          ip").
    83                           ; 
    84                           ; Redistribution and use in source and binary forms, with or without modification, are
    85                           ; permitted provided that the following conditions are met:
    86                           ; 
    87                           ;     1. Redistributions of source code must retain the above copyright notice, this lis
      +                          t of
    88                           ;        conditions and the following disclaimer.
    89                           ; 
    90                           ;     2. Redistributions in binary form must reproduce the above copyright notice, this 
      +                          list
    91                           ;        of conditions and the following disclaimer in the documentation and/or other
    92                           ;        materials provided with the distribution.
    93                           ; 
    94                           ;     3. Microchip's name may not be used to endorse or promote products derived from th
      +                          is
    95                           ;        software without specific prior written permission.
    96                           ; 
    97                           ; THIS SOFTWARE IS PROVIDED BY MICROCHIP "AS IS" AND ANY EXPRESS OR IMPLIED WARRANTIES,
    98                           ; INCLUDING, BUT NOT LIMITED TO, THE IMPLIED WARRANTIES OF MERCHANTABILITY AND FITNESS F
      +                          OR
    99                           ; PURPOSE ARE DISCLAIMED.  IN NO EVENT SHALL MICROCHIP BE LIABLE FOR ANY DIRECT, INDIREC
      +                          T,
   100                           ; INCIDENTAL, SPECIAL, EXEMPLARY, OR CONSEQUENTIAL DAMAGES (INCLUDING BUT NOT LIMITED TO
   101                           ; PROCUREMENT OF SUBSTITUTE GOODS OR SERVICES; LOSS OF USE, DATA OR PROFITS; OR BUSINESS
   102                           ; INTERRUPTION) HOWSOEVER CAUSED AND ON ANY THEORY OF LIABILITY, WHETHER IN CONTRACT, ST
      +                          RICT
   103                           ; LIABILITY, OR TORT (INCLUDING NEGLIGENCE OR OTHERWISE) ARISING IN ANY WAY OUT OF THE U
      +                          SE OF
   104                           ; THIS SOFTWARE, EVEN IF ADVISED OF THE POSSIBILITY OF SUCH DAMAGE.
   105                           ; 
   106                           ; 
   107                           ; Code-generator required, PIC16F1459 Definitions
   108                           ; 
   109                           ; SFR Addresses
   110  0000                     	;# 
   111  0001                     	;# 
   112  0002                     	;# 
   113  0003                     	;# 
   114  0004                     	;# 
   115  0005                     	;# 
   116  0006                     	;# 
   117  0007                     	;# 
   118  0008                     	;# 
   119  0009                     	;# 
   120  000A                     	;# 
   121  000B                     	;# 
   122  000C                     	;# 
   123  000D                     	;# 
   124  000E                     	;# 
   125  0011                     	;# 
   126  0012                     	;# 
   127  0015                     	;# 
   128  0016                     	;# 
   129  0016                     	;# 
   130  0017                     	;# 
   131  0018                     	;# 
   132  0019                     	;# 
   133  001A                     	;# 
   134  001B                     	;# 
   135  001C                     	;# 
   136  008C                     	;# 
   137  008D                     	;# 
   138  008E                     	;# 
   139  0091                     	;# 
   140  0092                     	;# 
   141  0095                     	;# 
   142  0096                     	;# 
   143  0097                     	;# 
   144  0098                     	;# 
   145  0099                     	;# 
   146  009A                     	;# 
   147  009B                     	;# 
   148  009B                     	;# 
   149  009C                     	;# 
   150  009D                     	;# 
   151  009E                     	;# 
   152  009F                     	;# 
   153  010C                     	;# 
   154  010D                     	;# 
   155  010E                     	;# 
   156  0111                     	;# 
   157  0112                     	;# 
   158  0113                     	;# 
   159  0114                     	;# 
   160  0115                     	;# 
   161  0116                     	;# 
   162  0117                     	;# 
   163  0118                     	;# 
   164  0119                     	;# 
   165  011D                     	;# 
   166  018C                     	;# 
   167  018D                     	;# 
   168  018E                     	;# 
   169  0191                     	;# 
   170  0191                     	;# 
   171  0192                     	;# 
   172  0193                     	;# 
   173  0193                     	;# 
   174  0194                     	;# 
   175  0195                     	;# 
   176  0196                     	;# 
   177  0197                     	;# 
   178  0199                     	;# 
   179  019A                     	;# 
   180  019B                     	;# 
   181  019B                     	;# 
   182  019C                     	;# 
   183  019D                     	;# 
   184  019E                     	;# 
   185  019F                     	;# 
   186  020C                     	;# 
   187  020D                     	;# 
   188  0211                     	;# 
   189  0211                     	;# 
   190  0212                     	;# 
   191  0212                     	;# 
   192  0213                     	;# 
   193  0213                     	;# 
   194  0214                     	;# 
   195  0214                     	;# 
   196  0215                     	;# 
   197  0215                     	;# 
   198  0215                     	;# 
   199  0216                     	;# 
   200  0216                     	;# 
   201  0217                     	;# 
   202  0217                     	;# 
   203  0391                     	;# 
   204  0392                     	;# 
   205  0393                     	;# 
   206  0394                     	;# 
   207  0395                     	;# 
   208  0396                     	;# 
   209  039A                     	;# 
   210  039B                     	;# 
   211  0611                     	;# 
   212  0612                     	;# 
   213  0613                     	;# 
   214  0613                     	;# 
   215  0614                     	;# 
   216  0615                     	;# 
   217  0616                     	;# 
   218  0616                     	;# 
   219  0691                     	;# 
   220  0692                     	;# 
   221  0693                     	;# 
   222  0694                     	;# 
   223  0695                     	;# 
   224  0E8E                     	;# 
   225  0E8F                     	;# 
   226  0E90                     	;# 
   227  0E91                     	;# 
   228  0E92                     	;# 
   229  0E93                     	;# 
   230  0E94                     	;# 
   231  0E94                     	;# 
   232  0E95                     	;# 
   233  0E96                     	;# 
   234  0E97                     	;# 
   235  0E98                     	;# 
   236  0E99                     	;# 
   237  0E9A                     	;# 
   238  0E9B                     	;# 
   239  0E9C                     	;# 
   240  0E9D                     	;# 
   241  0E9E                     	;# 
   242  0E9F                     	;# 
   243  0FE4                     	;# 
   244  0FE5                     	;# 
   245  0FE6                     	;# 
   246  0FE7                     	;# 
   247  0FE8                     	;# 
   248  0FE9                     	;# 
   249  0FEA                     	;# 
   250  0FEB                     	;# 
   251  0FED                     	;# 
   252  0FEE                     	;# 
   253  0FEF                     	;# 
   254  0000                     	;# 
   255  0001                     	;# 
   256  0002                     	;# 
   257  0003                     	;# 
   258  0004                     	;# 
   259  0005                     	;# 
   260  0006                     	;# 
   261  0007                     	;# 
   262  0008                     	;# 
   263  0009                     	;# 
   264  000A                     	;# 
   265  000B                     	;# 
   266  000C                     	;# 
   267  000D                     	;# 
   268  000E                     	;# 
   269  0011                     	;# 
   270  0012                     	;# 
   271  0015                     	;# 
   272  0016                     	;# 
   273  0016                     	;# 
   274  0017                     	;# 
   275  0018                     	;# 
   276  0019                     	;# 
   277  001A                     	;# 
   278  001B                     	;# 
   279  001C                     	;# 
   280  008C                     	;# 
   281  008D                     	;# 
   282  008E                     	;# 
   283  0091                     	;# 
   284  0092                     	;# 
   285  0095                     	;# 
   286  0096                     	;# 
   287  0097                     	;# 
   288  0098                     	;# 
   289  0099                     	;# 
   290  009A                     	;# 
   291  009B                     	;# 
   292  009B                     	;# 
   293  009C                     	;# 
   294  009D                     	;# 
   295  009E                     	;# 
   296  009F                     	;# 
   297  010C                     	;# 
   298  010D                     	;# 
   299  010E                     	;# 
   300  0111                     	;# 
   301  0112                     	;# 
   302  0113                     	;# 
   303  0114                     	;# 
   304  0115                     	;# 
   305  0116                     	;# 
   306  0117                     	;# 
   307  0118                     	;# 
   308  0119                     	;# 
   309  011D                     	;# 
   310  018C                     	;# 
   311  018D                     	;# 
   312  018E                     	;# 
   313  0191                     	;# 
   314  0191                     	;# 
   315  0192                     	;# 
   316  0193                     	;# 
   317  0193                     	;# 
   318  0194                     	;# 
   319  0195                     	;# 
   320  0196                     	;# 
   321  0197                     	;# 
   322  0199                     	;# 
   323  019A                     	;# 
   324  019B                     	;# 
   325  019B                     	;# 
   326  019C                     	;# 
   327  019D                     	;# 
   328  019E                     	;# 
   329  019F                     	;# 
   330  020C                     	;# 
   331  020D                     	;# 
   332  0211                     	;# 
   333  0211                     	;# 
   334  0212                     	;# 
   335  0212                     	;# 
   336  0213                     	;# 
   337  0213                     	;# 
   338  0214                     	;# 
   339  0214                     	;# 
   340  0215                     	;# 
   341  0215                     	;# 
   342  0215                     	;# 
   343  0216                     	;# 
   344  0216                     	;# 
   345  0217                     	;# 
   346  0217                     	;# 
   347  0391                     	;# 
   348  0392                     	;# 
   349  0393                     	;# 
   350  0394                     	;# 
   351  0395                     	;# 
   352  0396                     	;# 
   353  039A                     	;# 
   354  039B                     	;# 
   355  0611                     	;# 
   356  0612                     	;# 
   357  0613                     	;# 
   358  0613                     	;# 
   359  0614                     	;# 
   360  0615                     	;# 
   361  0616                     	;# 
   362  0616                     	;# 
   363  0691                     	;# 
   364  0692                     	;# 
   365  0693                     	;# 
   366  0694                     	;# 
   367  0695                     	;# 
   368  0E8E                     	;# 
   369  0E8F                     	;# 
   370  0E90                     	;# 
   371  0E91                     	;# 
   372  0E92                     	;# 
   373  0E93                     	;# 
   374  0E94                     	;# 
   375  0E94                     	;# 
   376  0E95                     	;# 
   377  0E96                     	;# 
   378  0E97                     	;# 
   379  0E98                     	;# 
   380  0E99                     	;# 
   381  0E9A                     	;# 
   382  0E9B                     	;# 
   383  0E9C                     	;# 
   384  0E9D                     	;# 
   385  0E9E                     	;# 
   386  0E9F                     	;# 
   387  0FE4                     	;# 
   388  0FE5                     	;# 
   389  0FE6                     	;# 
   390  0FE7                     	;# 
   391  0FE8                     	;# 
   392  0FE9                     	;# 
   393  0FEA                     	;# 
   394  0FEB                     	;# 
   395  0FED                     	;# 
   396  0FEE                     	;# 
   397  0FEF                     	;# 
   398  0000                     	;# 
   399  0001                     	;# 
   400  0002                     	;# 
   401  0003                     	;# 
   402  0004                     	;# 
   403  0005                     	;# 
   404  0006                     	;# 
   405  0007                     	;# 
   406  0008                     	;# 
   407  0009                     	;# 
   408  000A                     	;# 
   409  000B                     	;# 
   410  000C                     	;# 
   411  000D                     	;# 
   412  000E                     	;# 
   413  0011                     	;# 
   414  0012                     	;# 
   415  0015                     	;# 
   416  0016                     	;# 
   417  0016                     	;# 
   418  0017                     	;# 
   419  0018                     	;# 
   420  0019                     	;# 
   421  001A                     	;# 
   422  001B                     	;# 
   423  001C                     	;# 
   424  008C                     	;# 
   425  008D                     	;# 
   426  008E                     	;# 
   427  0091                     	;# 
   428  0092                     	;# 
   429  0095                     	;# 
   430  0096                     	;# 
   431  0097                     	;# 
   432  0098                     	;# 
   433  0099                     	;# 
   434  009A                     	;# 
   435  009B                     	;# 
   436  009B                     	;# 
   437  009C                     	;# 
   438  009D                     	;# 
   439  009E                     	;# 
   440  009F                     	;# 
   441  010C                     	;# 
   442  010D                     	;# 
   443  010E                     	;# 
   444  0111                     	;# 
   445  0112                     	;# 
   446  0113                     	;# 
   447  0114                     	;# 
   448  0115                     	;# 
   449  0116                     	;# 
   450  0117                     	;# 
   451  0118                     	;# 
   452  0119                     	;# 
   453  011D                     	;# 
   454  018C                     	;# 
   455  018D                     	;# 
   456  018E                     	;# 
   457  0191                     	;# 
   458  0191                     	;# 
   459  0192                     	;# 
   460  0193                     	;# 
   461  0193                     	;# 
   462  0194                     	;# 
   463  0195                     	;# 
   464  0196                     	;# 
   465  0197                     	;# 
   466  0199                     	;# 
   467  019A                     	;# 
   468  019B                     	;# 
   469  019B                     	;# 
   470  019C                     	;# 
   471  019D                     	;# 
   472  019E                     	;# 
   473  019F                     	;# 
   474  020C                     	;# 
   475  020D                     	;# 
   476  0211                     	;# 
   477  0211                     	;# 
   478  0212                     	;# 
   479  0212                     	;# 
   480  0213                     	;# 
   481  0213                     	;# 
   482  0214                     	;# 
   483  0214                     	;# 
   484  0215                     	;# 
   485  0215                     	;# 
   486  0215                     	;# 
   487  0216                     	;# 
   488  0216                     	;# 
   489  0217                     	;# 
   490  0217                     	;# 
   491  0391                     	;# 
   492  0392                     	;# 
   493  0393                     	;# 
   494  0394                     	;# 
   495  0395                     	;# 
   496  0396                     	;# 
   497  039A                     	;# 
   498  039B                     	;# 
   499  0611                     	;# 
   500  0612                     	;# 
   501  0613                     	;# 
   502  0613                     	;# 
   503  0614                     	;# 
   504  0615                     	;# 
   505  0616                     	;# 
   506  0616                     	;# 
   507  0691                     	;# 
   508  0692                     	;# 
   509  0693                     	;# 
   510  0694                     	;# 
   511  0695                     	;# 
   512  0E8E                     	;# 
   513  0E8F                     	;# 
   514  0E90                     	;# 
   515  0E91                     	;# 
   516  0E92                     	;# 
   517  0E93                     	;# 
   518  0E94                     	;# 
   519  0E94                     	;# 
   520  0E95                     	;# 
   521  0E96                     	;# 
   522  0E97                     	;# 
   523  0E98                     	;# 
   524  0E99                     	;# 
   525  0E9A                     	;# 
   526  0E9B                     	;# 
   527  0E9C                     	;# 
   528  0E9D                     	;# 
   529  0E9E                     	;# 
   530  0E9F                     	;# 
   531  0FE4                     	;# 
   532  0FE5                     	;# 
   533  0FE6                     	;# 
   534  0FE7                     	;# 
   535  0FE8                     	;# 
   536  0FE9                     	;# 
   537  0FEA                     	;# 
   538  0FEB                     	;# 
   539  0FED                     	;# 
   540  0FEE                     	;# 
   541  0FEF                     	;# 
   542  0000                     	;# 
   543  0001                     	;# 
   544  0002                     	;# 
   545  0003                     	;# 
   546  0004                     	;# 
   547  0005                     	;# 
   548  0006                     	;# 
   549  0007                     	;# 
   550  0008                     	;# 
   551  0009                     	;# 
   552  000A                     	;# 
   553  000B                     	;# 
   554  000C                     	;# 
   555  000D                     	;# 
   556  000E                     	;# 
   557  0011                     	;# 
   558  0012                     	;# 
   559  0015                     	;# 
   560  0016                     	;# 
   561  0016                     	;# 
   562  0017                     	;# 
   563  0018                     	;# 
   564  0019                     	;# 
   565  001A                     	;# 
   566  001B                     	;# 
   567  001C                     	;# 
   568  008C                     	;# 
   569  008D                     	;# 
   570  008E                     	;# 
   571  0091                     	;# 
   572  0092                     	;# 
   573  0095                     	;# 
   574  0096                     	;# 
   575  0097                     	;# 
   576  0098                     	;# 
   577  0099                     	;# 
   578  009A                     	;# 
   579  009B                     	;# 
   580  009B                     	;# 
   581  009C                     	;# 
   582  009D                     	;# 
   583  009E                     	;# 
   584  009F                     	;# 
   585  010C                     	;# 
   586  010D                     	;# 
   587  010E                     	;# 
   588  0111                     	;# 
   589  0112                     	;# 
   590  0113                     	;# 
   591  0114                     	;# 
   592  0115                     	;# 
   593  0116                     	;# 
   594  0117                     	;# 
   595  0118                     	;# 
   596  0119                     	;# 
   597  011D                     	;# 
   598  018C                     	;# 
   599  018D                     	;# 
   600  018E                     	;# 
   601  0191                     	;# 
   602  0191                     	;# 
   603  0192                     	;# 
   604  0193                     	;# 
   605  0193                     	;# 
   606  0194                     	;# 
   607  0195                     	;# 
   608  0196                     	;# 
   609  0197                     	;# 
   610  0199                     	;# 
   611  019A                     	;# 
   612  019B                     	;# 
   613  019B                     	;# 
   614  019C                     	;# 
   615  019D                     	;# 
   616  019E                     	;# 
   617  019F                     	;# 
   618  020C                     	;# 
   619  020D                     	;# 
   620  0211                     	;# 
   621  0211                     	;# 
   622  0212                     	;# 
   623  0212                     	;# 
   624  0213                     	;# 
   625  0213                     	;# 
   626  0214                     	;# 
   627  0214                     	;# 
   628  0215                     	;# 
   629  0215                     	;# 
   630  0215                     	;# 
   631  0216                     	;# 
   632  0216                     	;# 
   633  0217                     	;# 
   634  0217                     	;# 
   635  0391                     	;# 
   636  0392                     	;# 
   637  0393                     	;# 
   638  0394                     	;# 
   639  0395                     	;# 
   640  0396                     	;# 
   641  039A                     	;# 
   642  039B                     	;# 
   643  0611                     	;# 
   644  0612                     	;# 
   645  0613                     	;# 
   646  0613                     	;# 
   647  0614                     	;# 
   648  0615                     	;# 
   649  0616                     	;# 
   650  0616                     	;# 
   651  0691                     	;# 
   652  0692                     	;# 
   653  0693                     	;# 
   654  0694                     	;# 
   655  0695                     	;# 
   656  0E8E                     	;# 
   657  0E8F                     	;# 
   658  0E90                     	;# 
   659  0E91                     	;# 
   660  0E92                     	;# 
   661  0E93                     	;# 
   662  0E94                     	;# 
   663  0E94                     	;# 
   664  0E95                     	;# 
   665  0E96                     	;# 
   666  0E97                     	;# 
   667  0E98                     	;# 
   668  0E99                     	;# 
   669  0E9A                     	;# 
   670  0E9B                     	;# 
   671  0E9C                     	;# 
   672  0E9D                     	;# 
   673  0E9E                     	;# 
   674  0E9F                     	;# 
   675  0FE4                     	;# 
   676  0FE5                     	;# 
   677  0FE6                     	;# 
   678  0FE7                     	;# 
   679  0FE8                     	;# 
   680  0FE9                     	;# 
   681  0FEA                     	;# 
   682  0FEB                     	;# 
   683  0FED                     	;# 
   684  0FEE                     	;# 
   685  0FEF                     	;# 
   686  0000                     	;# 
   687  0001                     	;# 
   688  0002                     	;# 
   689  0003                     	;# 
   690  0004                     	;# 
   691  0005                     	;# 
   692  0006                     	;# 
   693  0007                     	;# 
   694  0008                     	;# 
   695  0009                     	;# 
   696  000A                     	;# 
   697  000B                     	;# 
   698  000C                     	;# 
   699  000D                     	;# 
   700  000E                     	;# 
   701  0011                     	;# 
   702  0012                     	;# 
   703  0015                     	;# 
   704  0016                     	;# 
   705  0016                     	;# 
   706  0017                     	;# 
   707  0018                     	;# 
   708  0019                     	;# 
   709  001A                     	;# 
   710  001B                     	;# 
   711  001C                     	;# 
   712  008C                     	;# 
   713  008D                     	;# 
   714  008E                     	;# 
   715  0091                     	;# 
   716  0092                     	;# 
   717  0095                     	;# 
   718  0096                     	;# 
   719  0097                     	;# 
   720  0098                     	;# 
   721  0099                     	;# 
   722  009A                     	;# 
   723  009B                     	;# 
   724  009B                     	;# 
   725  009C                     	;# 
   726  009D                     	;# 
   727  009E                     	;# 
   728  009F                     	;# 
   729  010C                     	;# 
   730  010D                     	;# 
   731  010E                     	;# 
   732  0111                     	;# 
   733  0112                     	;# 
   734  0113                     	;# 
   735  0114                     	;# 
   736  0115                     	;# 
   737  0116                     	;# 
   738  0117                     	;# 
   739  0118                     	;# 
   740  0119                     	;# 
   741  011D                     	;# 
   742  018C                     	;# 
   743  018D                     	;# 
   744  018E                     	;# 
   745  0191                     	;# 
   746  0191                     	;# 
   747  0192                     	;# 
   748  0193                     	;# 
   749  0193                     	;# 
   750  0194                     	;# 
   751  0195                     	;# 
   752  0196                     	;# 
   753  0197                     	;# 
   754  0199                     	;# 
   755  019A                     	;# 
   756  019B                     	;# 
   757  019B                     	;# 
   758  019C                     	;# 
   759  019D                     	;# 
   760  019E                     	;# 
   761  019F                     	;# 
   762  020C                     	;# 
   763  020D                     	;# 
   764  0211                     	;# 
   765  0211                     	;# 
   766  0212                     	;# 
   767  0212                     	;# 
   768  0213                     	;# 
   769  0213                     	;# 
   770  0214                     	;# 
   771  0214                     	;# 
   772  0215                     	;# 
   773  0215                     	;# 
   774  0215                     	;# 
   775  0216                     	;# 
   776  0216                     	;# 
   777  0217                     	;# 
   778  0217                     	;# 
   779  0391                     	;# 
   780  0392                     	;# 
   781  0393                     	;# 
   782  0394                     	;# 
   783  0395                     	;# 
   784  0396                     	;# 
   785  039A                     	;# 
   786  039B                     	;# 
   787  0611                     	;# 
   788  0612                     	;# 
   789  0613                     	;# 
   790  0613                     	;# 
   791  0614                     	;# 
   792  0615                     	;# 
   793  0616                     	;# 
   794  0616                     	;# 
   795  0691                     	;# 
   796  0692                     	;# 
   797  0693                     	;# 
   798  0694                     	;# 
   799  0695                     	;# 
   800  0E8E                     	;# 
   801  0E8F                     	;# 
   802  0E90                     	;# 
   803  0E91                     	;# 
   804  0E92                     	;# 
   805  0E93                     	;# 
   806  0E94                     	;# 
   807  0E94                     	;# 
   808  0E95                     	;# 
   809  0E96                     	;# 
   810  0E97                     	;# 
   811  0E98                     	;# 
   812  0E99                     	;# 
   813  0E9A                     	;# 
   814  0E9B                     	;# 
   815  0E9C                     	;# 
   816  0E9D                     	;# 
   817  0E9E                     	;# 
   818  0E9F                     	;# 
   819  0FE4                     	;# 
   820  0FE5                     	;# 
   821  0FE6                     	;# 
   822  0FE7                     	;# 
   823  0FE8                     	;# 
   824  0FE9                     	;# 
   825  0FEA                     	;# 
   826  0FEB                     	;# 
   827  0FED                     	;# 
   828  0FEE                     	;# 
   829  0FEF                     	;# 
   830  0000                     	;# 
   831  0001                     	;# 
   832  0002                     	;# 
   833  0003                     	;# 
   834  0004                     	;# 
   835  0005                     	;# 
   836  0006                     	;# 
   837  0007                     	;# 
   838  0008                     	;# 
   839  0009                     	;# 
   840  000A                     	;# 
   841  000B                     	;# 
   842  000C                     	;# 
   843  000D                     	;# 
   844  000E                     	;# 
   845  0011                     	;# 
   846  0012                     	;# 
   847  0015                     	;# 
   848  0016                     	;# 
   849  0016                     	;# 
   850  0017                     	;# 
   851  0018                     	;# 
   852  0019                     	;# 
   853  001A                     	;# 
   854  001B                     	;# 
   855  001C                     	;# 
   856  008C                     	;# 
   857  008D                     	;# 
   858  008E                     	;# 
   859  0091                     	;# 
   860  0092                     	;# 
   861  0095                     	;# 
   862  0096                     	;# 
   863  0097                     	;# 
   864  0098                     	;# 
   865  0099                     	;# 
   866  009A                     	;# 
   867  009B                     	;# 
   868  009B                     	;# 
   869  009C                     	;# 
   870  009D                     	;# 
   871  009E                     	;# 
   872  009F                     	;# 
   873  010C                     	;# 
   874  010D                     	;# 
   875  010E                     	;# 
   876  0111                     	;# 
   877  0112                     	;# 
   878  0113                     	;# 
   879  0114                     	;# 
   880  0115                     	;# 
   881  0116                     	;# 
   882  0117                     	;# 
   883  0118                     	;# 
   884  0119                     	;# 
   885  011D                     	;# 
   886  018C                     	;# 
   887  018D                     	;# 
   888  018E                     	;# 
   889  0191                     	;# 
   890  0191                     	;# 
   891  0192                     	;# 
   892  0193                     	;# 
   893  0193                     	;# 
   894  0194                     	;# 
   895  0195                     	;# 
   896  0196                     	;# 
   897  0197                     	;# 
   898  0199                     	;# 
   899  019A                     	;# 
   900  019B                     	;# 
   901  019B                     	;# 
   902  019C                     	;# 
   903  019D                     	;# 
   904  019E                     	;# 
   905  019F                     	;# 
   906  020C                     	;# 
   907  020D                     	;# 
   908  0211                     	;# 
   909  0211                     	;# 
   910  0212                     	;# 
   911  0212                     	;# 
   912  0213                     	;# 
   913  0213                     	;# 
   914  0214                     	;# 
   915  0214                     	;# 
   916  0215                     	;# 
   917  0215                     	;# 
   918  0215                     	;# 
   919  0216                     	;# 
   920  0216                     	;# 
   921  0217                     	;# 
   922  0217                     	;# 
   923  0391                     	;# 
   924  0392                     	;# 
   925  0393                     	;# 
   926  0394                     	;# 
   927  0395                     	;# 
   928  0396                     	;# 
   929  039A                     	;# 
   930  039B                     	;# 
   931  0611                     	;# 
   932  0612                     	;# 
   933  0613                     	;# 
   934  0613                     	;# 
   935  0614                     	;# 
   936  0615                     	;# 
   937  0616                     	;# 
   938  0616                     	;# 
   939  0691                     	;# 
   940  0692                     	;# 
   941  0693                     	;# 
   942  0694                     	;# 
   943  0695                     	;# 
   944  0E8E                     	;# 
   945  0E8F                     	;# 
   946  0E90                     	;# 
   947  0E91                     	;# 
   948  0E92                     	;# 
   949  0E93                     	;# 
   950  0E94                     	;# 
   951  0E94                     	;# 
   952  0E95                     	;# 
   953  0E96                     	;# 
   954  0E97                     	;# 
   955  0E98                     	;# 
   956  0E99                     	;# 
   957  0E9A                     	;# 
   958  0E9B                     	;# 
   959  0E9C                     	;# 
   960  0E9D                     	;# 
   961  0E9E                     	;# 
   962  0E9F                     	;# 
   963  0FE4                     	;# 
   964  0FE5                     	;# 
   965  0FE6                     	;# 
   966  0FE7                     	;# 
   967  0FE8                     	;# 
   968  0FE9                     	;# 
   969  0FEA                     	;# 
   970  0FEB                     	;# 
   971  0FED                     	;# 
   972  0FEE                     	;# 
   973  0FEF                     	;# 
   974  0000                     	;# 
   975  0001                     	;# 
   976  0002                     	;# 
   977  0003                     	;# 
   978  0004                     	;# 
   979  0005                     	;# 
   980  0006                     	;# 
   981  0007                     	;# 
   982  0008                     	;# 
   983  0009                     	;# 
   984  000A                     	;# 
   985  000B                     	;# 
   986  000C                     	;# 
   987  000D                     	;# 
   988  000E                     	;# 
   989  0011                     	;# 
   990  0012                     	;# 
   991  0015                     	;# 
   992  0016                     	;# 
   993  0016                     	;# 
   994  0017                     	;# 
   995  0018                     	;# 
   996  0019                     	;# 
   997  001A                     	;# 
   998  001B                     	;# 
   999  001C                     	;# 
  1000  008C                     	;# 
  1001  008D                     	;# 
  1002  008E                     	;# 
  1003  0091                     	;# 
  1004  0092                     	;# 
  1005  0095                     	;# 
  1006  0096                     	;# 
  1007  0097                     	;# 
  1008  0098                     	;# 
  1009  0099                     	;# 
  1010  009A                     	;# 
  1011  009B                     	;# 
  1012  009B                     	;# 
  1013  009C                     	;# 
  1014  009D                     	;# 
  1015  009E                     	;# 
  1016  009F                     	;# 
  1017  010C                     	;# 
  1018  010D                     	;# 
  1019  010E                     	;# 
  1020  0111                     	;# 
  1021  0112                     	;# 
  1022  0113                     	;# 
  1023  0114                     	;# 
  1024  0115                     	;# 
  1025  0116                     	;# 
  1026  0117                     	;# 
  1027  0118                     	;# 
  1028  0119                     	;# 
  1029  011D                     	;# 
  1030  018C                     	;# 
  1031  018D                     	;# 
  1032  018E                     	;# 
  1033  0191                     	;# 
  1034  0191                     	;# 
  1035  0192                     	;# 
  1036  0193                     	;# 
  1037  0193                     	;# 
  1038  0194                     	;# 
  1039  0195                     	;# 
  1040  0196                     	;# 
  1041  0197                     	;# 
  1042  0199                     	;# 
  1043  019A                     	;# 
  1044  019B                     	;# 
  1045  019B                     	;# 
  1046  019C                     	;# 
  1047  019D                     	;# 
  1048  019E                     	;# 
  1049  019F                     	;# 
  1050  020C                     	;# 
  1051  020D                     	;# 
  1052  0211                     	;# 
  1053  0211                     	;# 
  1054  0212                     	;# 
  1055  0212                     	;# 
  1056  0213                     	;# 
  1057  0213                     	;# 
  1058  0214                     	;# 
  1059  0214                     	;# 
  1060  0215                     	;# 
  1061  0215                     	;# 
  1062  0215                     	;# 
  1063  0216                     	;# 
  1064  0216                     	;# 
  1065  0217                     	;# 
  1066  0217                     	;# 
  1067  0391                     	;# 
  1068  0392                     	;# 
  1069  0393                     	;# 
  1070  0394                     	;# 
  1071  0395                     	;# 
  1072  0396                     	;# 
  1073  039A                     	;# 
  1074  039B                     	;# 
  1075  0611                     	;# 
  1076  0612                     	;# 
  1077  0613                     	;# 
  1078  0613                     	;# 
  1079  0614                     	;# 
  1080  0615                     	;# 
  1081  0616                     	;# 
  1082  0616                     	;# 
  1083  0691                     	;# 
  1084  0692                     	;# 
  1085  0693                     	;# 
  1086  0694                     	;# 
  1087  0695                     	;# 
  1088  0E8E                     	;# 
  1089  0E8F                     	;# 
  1090  0E90                     	;# 
  1091  0E91                     	;# 
  1092  0E92                     	;# 
  1093  0E93                     	;# 
  1094  0E94                     	;# 
  1095  0E94                     	;# 
  1096  0E95                     	;# 
  1097  0E96                     	;# 
  1098  0E97                     	;# 
  1099  0E98                     	;# 
  1100  0E99                     	;# 
  1101  0E9A                     	;# 
  1102  0E9B                     	;# 
  1103  0E9C                     	;# 
  1104  0E9D                     	;# 
  1105  0E9E                     	;# 
  1106  0E9F                     	;# 
  1107  0FE4                     	;# 
  1108  0FE5                     	;# 
  1109  0FE6                     	;# 
  1110  0FE7                     	;# 
  1111  0FE8                     	;# 
  1112  0FE9                     	;# 
  1113  0FEA                     	;# 
  1114  0FEB                     	;# 
  1115  0FED                     	;# 
  1116  0FEE                     	;# 
  1117  0FEF                     	;# 
  1118  0000                     	;# 
  1119  0001                     	;# 
  1120  0002                     	;# 
  1121  0003                     	;# 
  1122  0004                     	;# 
  1123  0005                     	;# 
  1124  0006                     	;# 
  1125  0007                     	;# 
  1126  0008                     	;# 
  1127  0009                     	;# 
  1128  000A                     	;# 
  1129  000B                     	;# 
  1130  000C                     	;# 
  1131  000D                     	;# 
  1132  000E                     	;# 
  1133  0011                     	;# 
  1134  0012                     	;# 
  1135  0015                     	;# 
  1136  0016                     	;# 
  1137  0016                     	;# 
  1138  0017                     	;# 
  1139  0018                     	;# 
  1140  0019                     	;# 
  1141  001A                     	;# 
  1142  001B                     	;# 
  1143  001C                     	;# 
  1144  008C                     	;# 
  1145  008D                     	;# 
  1146  008E                     	;# 
  1147  0091                     	;# 
  1148  0092                     	;# 
  1149  0095                     	;# 
  1150  0096                     	;# 
  1151  0097                     	;# 
  1152  0098                     	;# 
  1153  0099                     	;# 
  1154  009A                     	;# 
  1155  009B                     	;# 
  1156  009B                     	;# 
  1157  009C                     	;# 
  1158  009D                     	;# 
  1159  009E                     	;# 
  1160  009F                     	;# 
  1161  010C                     	;# 
  1162  010D                     	;# 
  1163  010E                     	;# 
  1164  0111                     	;# 
  1165  0112                     	;# 
  1166  0113                     	;# 
  1167  0114                     	;# 
  1168  0115                     	;# 
  1169  0116                     	;# 
  1170  0117                     	;# 
  1171  0118                     	;# 
  1172  0119                     	;# 
  1173  011D                     	;# 
  1174  018C                     	;# 
  1175  018D                     	;# 
  1176  018E                     	;# 
  1177  0191                     	;# 
  1178  0191                     	;# 
  1179  0192                     	;# 
  1180  0193                     	;# 
  1181  0193                     	;# 
  1182  0194                     	;# 
  1183  0195                     	;# 
  1184  0196                     	;# 
  1185  0197                     	;# 
  1186  0199                     	;# 
  1187  019A                     	;# 
  1188  019B                     	;# 
  1189  019B                     	;# 
  1190  019C                     	;# 
  1191  019D                     	;# 
  1192  019E                     	;# 
  1193  019F                     	;# 
  1194  020C                     	;# 
  1195  020D                     	;# 
  1196  0211                     	;# 
  1197  0211                     	;# 
  1198  0212                     	;# 
  1199  0212                     	;# 
  1200  0213                     	;# 
  1201  0213                     	;# 
  1202  0214                     	;# 
  1203  0214                     	;# 
  1204  0215                     	;# 
  1205  0215                     	;# 
  1206  0215                     	;# 
  1207  0216                     	;# 
  1208  0216                     	;# 
  1209  0217                     	;# 
  1210  0217                     	;# 
  1211  0391                     	;# 
  1212  0392                     	;# 
  1213  0393                     	;# 
  1214  0394                     	;# 
  1215  0395                     	;# 
  1216  0396                     	;# 
  1217  039A                     	;# 
  1218  039B                     	;# 
  1219  0611                     	;# 
  1220  0612                     	;# 
  1221  0613                     	;# 
  1222  0613                     	;# 
  1223  0614                     	;# 
  1224  0615                     	;# 
  1225  0616                     	;# 
  1226  0616                     	;# 
  1227  0691                     	;# 
  1228  0692                     	;# 
  1229  0693                     	;# 
  1230  0694                     	;# 
  1231  0695                     	;# 
  1232  0E8E                     	;# 
  1233  0E8F                     	;# 
  1234  0E90                     	;# 
  1235  0E91                     	;# 
  1236  0E92                     	;# 
  1237  0E93                     	;# 
  1238  0E94                     	;# 
  1239  0E94                     	;# 
  1240  0E95                     	;# 
  1241  0E96                     	;# 
  1242  0E97                     	;# 
  1243  0E98                     	;# 
  1244  0E99                     	;# 
  1245  0E9A                     	;# 
  1246  0E9B                     	;# 
  1247  0E9C                     	;# 
  1248  0E9D                     	;# 
  1249  0E9E                     	;# 
  1250  0E9F                     	;# 
  1251  0FE4                     	;# 
  1252  0FE5                     	;# 
  1253  0FE6                     	;# 
  1254  0FE7                     	;# 
  1255  0FE8                     	;# 
  1256  0FE9                     	;# 
  1257  0FEA                     	;# 
  1258  0FEB                     	;# 
  1259  0FED                     	;# 
  1260  0FEE                     	;# 
  1261  0FEF                     	;# 
  1262  0000                     	;# 
  1263  0001                     	;# 
  1264  0002                     	;# 
  1265  0003                     	;# 
  1266  0004                     	;# 
  1267  0005                     	;# 
  1268  0006                     	;# 
  1269  0007                     	;# 
  1270  0008                     	;# 
  1271  0009                     	;# 
  1272  000A                     	;# 
  1273  000B                     	;# 
  1274  000C                     	;# 
  1275  000D                     	;# 
  1276  000E                     	;# 
  1277  0011                     	;# 
  1278  0012                     	;# 
  1279  0015                     	;# 
  1280  0016                     	;# 
  1281  0016                     	;# 
  1282  0017                     	;# 
  1283  0018                     	;# 
  1284  0019                     	;# 
  1285  001A                     	;# 
  1286  001B                     	;# 
  1287  001C                     	;# 
  1288  008C                     	;# 
  1289  008D                     	;# 
  1290  008E                     	;# 
  1291  0091                     	;# 
  1292  0092                     	;# 
  1293  0095                     	;# 
  1294  0096                     	;# 
  1295  0097                     	;# 
  1296  0098                     	;# 
  1297  0099                     	;# 
  1298  009A                     	;# 
  1299  009B                     	;# 
  1300  009B                     	;# 
  1301  009C                     	;# 
  1302  009D                     	;# 
  1303  009E                     	;# 
  1304  009F                     	;# 
  1305  010C                     	;# 
  1306  010D                     	;# 
  1307  010E                     	;# 
  1308  0111                     	;# 
  1309  0112                     	;# 
  1310  0113                     	;# 
  1311  0114                     	;# 
  1312  0115                     	;# 
  1313  0116                     	;# 
  1314  0117                     	;# 
  1315  0118                     	;# 
  1316  0119                     	;# 
  1317  011D                     	;# 
  1318  018C                     	;# 
  1319  018D                     	;# 
  1320  018E                     	;# 
  1321  0191                     	;# 
  1322  0191                     	;# 
  1323  0192                     	;# 
  1324  0193                     	;# 
  1325  0193                     	;# 
  1326  0194                     	;# 
  1327  0195                     	;# 
  1328  0196                     	;# 
  1329  0197                     	;# 
  1330  0199                     	;# 
  1331  019A                     	;# 
  1332  019B                     	;# 
  1333  019B                     	;# 
  1334  019C                     	;# 
  1335  019D                     	;# 
  1336  019E                     	;# 
  1337  019F                     	;# 
  1338  020C                     	;# 
  1339  020D                     	;# 
  1340  0211                     	;# 
  1341  0211                     	;# 
  1342  0212                     	;# 
  1343  0212                     	;# 
  1344  0213                     	;# 
  1345  0213                     	;# 
  1346  0214                     	;# 
  1347  0214                     	;# 
  1348  0215                     	;# 
  1349  0215                     	;# 
  1350  0215                     	;# 
  1351  0216                     	;# 
  1352  0216                     	;# 
  1353  0217                     	;# 
  1354  0217                     	;# 
  1355  0391                     	;# 
  1356  0392                     	;# 
  1357  0393                     	;# 
  1358  0394                     	;# 
  1359  0395                     	;# 
  1360  0396                     	;# 
  1361  039A                     	;# 
  1362  039B                     	;# 
  1363  0611                     	;# 
  1364  0612                     	;# 
  1365  0613                     	;# 
  1366  0613                     	;# 
  1367  0614                     	;# 
  1368  0615                     	;# 
  1369  0616                     	;# 
  1370  0616                     	;# 
  1371  0691                     	;# 
  1372  0692                     	;# 
  1373  0693                     	;# 
  1374  0694                     	;# 
  1375  0695                     	;# 
  1376  0E8E                     	;# 
  1377  0E8F                     	;# 
  1378  0E90                     	;# 
  1379  0E91                     	;# 
  1380  0E92                     	;# 
  1381  0E93                     	;# 
  1382  0E94                     	;# 
  1383  0E94                     	;# 
  1384  0E95                     	;# 
  1385  0E96                     	;# 
  1386  0E97                     	;# 
  1387  0E98                     	;# 
  1388  0E99                     	;# 
  1389  0E9A                     	;# 
  1390  0E9B                     	;# 
  1391  0E9C                     	;# 
  1392  0E9D                     	;# 
  1393  0E9E                     	;# 
  1394  0E9F                     	;# 
  1395  0FE4                     	;# 
  1396  0FE5                     	;# 
  1397  0FE6                     	;# 
  1398  0FE7                     	;# 
  1399  0FE8                     	;# 
  1400  0FE9                     	;# 
  1401  0FEA                     	;# 
  1402  0FEB                     	;# 
  1403  0FED                     	;# 
  1404  0FEE                     	;# 
  1405  0FEF                     	;# 
  1406  0000                     	;# 
  1407  0001                     	;# 
  1408  0002                     	;# 
  1409  0003                     	;# 
  1410  0004                     	;# 
  1411  0005                     	;# 
  1412  0006                     	;# 
  1413  0007                     	;# 
  1414  0008                     	;# 
  1415  0009                     	;# 
  1416  000A                     	;# 
  1417  000B                     	;# 
  1418  000C                     	;# 
  1419  000D                     	;# 
  1420  000E                     	;# 
  1421  0011                     	;# 
  1422  0012                     	;# 
  1423  0015                     	;# 
  1424  0016                     	;# 
  1425  0016                     	;# 
  1426  0017                     	;# 
  1427  0018                     	;# 
  1428  0019                     	;# 
  1429  001A                     	;# 
  1430  001B                     	;# 
  1431  001C                     	;# 
  1432  008C                     	;# 
  1433  008D                     	;# 
  1434  008E                     	;# 
  1435  0091                     	;# 
  1436  0092                     	;# 
  1437  0095                     	;# 
  1438  0096                     	;# 
  1439  0097                     	;# 
  1440  0098                     	;# 
  1441  0099                     	;# 
  1442  009A                     	;# 
  1443  009B                     	;# 
  1444  009B                     	;# 
  1445  009C                     	;# 
  1446  009D                     	;# 
  1447  009E                     	;# 
  1448  009F                     	;# 
  1449  010C                     	;# 
  1450  010D                     	;# 
  1451  010E                     	;# 
  1452  0111                     	;# 
  1453  0112                     	;# 
  1454  0113                     	;# 
  1455  0114                     	;# 
  1456  0115                     	;# 
  1457  0116                     	;# 
  1458  0117                     	;# 
  1459  0118                     	;# 
  1460  0119                     	;# 
  1461  011D                     	;# 
  1462  018C                     	;# 
  1463  018D                     	;# 
  1464  018E                     	;# 
  1465  0191                     	;# 
  1466  0191                     	;# 
  1467  0192                     	;# 
  1468  0193                     	;# 
  1469  0193                     	;# 
  1470  0194                     	;# 
  1471  0195                     	;# 
  1472  0196                     	;# 
  1473  0197                     	;# 
  1474  0199                     	;# 
  1475  019A                     	;# 
  1476  019B                     	;# 
  1477  019B                     	;# 
  1478  019C                     	;# 
  1479  019D                     	;# 
  1480  019E                     	;# 
  1481  019F                     	;# 
  1482  020C                     	;# 
  1483  020D                     	;# 
  1484  0211                     	;# 
  1485  0211                     	;# 
  1486  0212                     	;# 
  1487  0212                     	;# 
  1488  0213                     	;# 
  1489  0213                     	;# 
  1490  0214                     	;# 
  1491  0214                     	;# 
  1492  0215                     	;# 
  1493  0215                     	;# 
  1494  0215                     	;# 
  1495  0216                     	;# 
  1496  0216                     	;# 
  1497  0217                     	;# 
  1498  0217                     	;# 
  1499  0391                     	;# 
  1500  0392                     	;# 
  1501  0393                     	;# 
  1502  0394                     	;# 
  1503  0395                     	;# 
  1504  0396                     	;# 
  1505  039A                     	;# 
  1506  039B                     	;# 
  1507  0611                     	;# 
  1508  0612                     	;# 
  1509  0613                     	;# 
  1510  0613                     	;# 
  1511  0614                     	;# 
  1512  0615                     	;# 
  1513  0616                     	;# 
  1514  0616                     	;# 
  1515  0691                     	;# 
  1516  0692                     	;# 
  1517  0693                     	;# 
  1518  0694                     	;# 
  1519  0695                     	;# 
  1520  0E8E                     	;# 
  1521  0E8F                     	;# 
  1522  0E90                     	;# 
  1523  0E91                     	;# 
  1524  0E92                     	;# 
  1525  0E93                     	;# 
  1526  0E94                     	;# 
  1527  0E94                     	;# 
  1528  0E95                     	;# 
  1529  0E96                     	;# 
  1530  0E97                     	;# 
  1531  0E98                     	;# 
  1532  0E99                     	;# 
  1533  0E9A                     	;# 
  1534  0E9B                     	;# 
  1535  0E9C                     	;# 
  1536  0E9D                     	;# 
  1537  0E9E                     	;# 
  1538  0E9F                     	;# 
  1539  0FE4                     	;# 
  1540  0FE5                     	;# 
  1541  0FE6                     	;# 
  1542  0FE7                     	;# 
  1543  0FE8                     	;# 
  1544  0FE9                     	;# 
  1545  0FEA                     	;# 
  1546  0FEB                     	;# 
  1547  0FED                     	;# 
  1548  0FEE                     	;# 
  1549  0FEF                     	;# 
  1550  0000                     	;# 
  1551  0001                     	;# 
  1552  0002                     	;# 
  1553  0003                     	;# 
  1554  0004                     	;# 
  1555  0005                     	;# 
  1556  0006                     	;# 
  1557  0007                     	;# 
  1558  0008                     	;# 
  1559  0009                     	;# 
  1560  000A                     	;# 
  1561  000B                     	;# 
  1562  000C                     	;# 
  1563  000D                     	;# 
  1564  000E                     	;# 
  1565  0011                     	;# 
  1566  0012                     	;# 
  1567  0015                     	;# 
  1568  0016                     	;# 
  1569  0016                     	;# 
  1570  0017                     	;# 
  1571  0018                     	;# 
  1572  0019                     	;# 
  1573  001A                     	;# 
  1574  001B                     	;# 
  1575  001C                     	;# 
  1576  008C                     	;# 
  1577  008D                     	;# 
  1578  008E                     	;# 
  1579  0091                     	;# 
  1580  0092                     	;# 
  1581  0095                     	;# 
  1582  0096                     	;# 
  1583  0097                     	;# 
  1584  0098                     	;# 
  1585  0099                     	;# 
  1586  009A                     	;# 
  1587  009B                     	;# 
  1588  009B                     	;# 
  1589  009C                     	;# 
  1590  009D                     	;# 
  1591  009E                     	;# 
  1592  009F                     	;# 
  1593  010C                     	;# 
  1594  010D                     	;# 
  1595  010E                     	;# 
  1596  0111                     	;# 
  1597  0112                     	;# 
  1598  0113                     	;# 
  1599  0114                     	;# 
  1600  0115                     	;# 
  1601  0116                     	;# 
  1602  0117                     	;# 
  1603  0118                     	;# 
  1604  0119                     	;# 
  1605  011D                     	;# 
  1606  018C                     	;# 
  1607  018D                     	;# 
  1608  018E                     	;# 
  1609  0191                     	;# 
  1610  0191                     	;# 
  1611  0192                     	;# 
  1612  0193                     	;# 
  1613  0193                     	;# 
  1614  0194                     	;# 
  1615  0195                     	;# 
  1616  0196                     	;# 
  1617  0197                     	;# 
  1618  0199                     	;# 
  1619  019A                     	;# 
  1620  019B                     	;# 
  1621  019B                     	;# 
  1622  019C                     	;# 
  1623  019D                     	;# 
  1624  019E                     	;# 
  1625  019F                     	;# 
  1626  020C                     	;# 
  1627  020D                     	;# 
  1628  0211                     	;# 
  1629  0211                     	;# 
  1630  0212                     	;# 
  1631  0212                     	;# 
  1632  0213                     	;# 
  1633  0213                     	;# 
  1634  0214                     	;# 
  1635  0214                     	;# 
  1636  0215                     	;# 
  1637  0215                     	;# 
  1638  0215                     	;# 
  1639  0216                     	;# 
  1640  0216                     	;# 
  1641  0217                     	;# 
  1642  0217                     	;# 
  1643  0391                     	;# 
  1644  0392                     	;# 
  1645  0393                     	;# 
  1646  0394                     	;# 
  1647  0395                     	;# 
  1648  0396                     	;# 
  1649  039A                     	;# 
  1650  039B                     	;# 
  1651  0611                     	;# 
  1652  0612                     	;# 
  1653  0613                     	;# 
  1654  0613                     	;# 
  1655  0614                     	;# 
  1656  0615                     	;# 
  1657  0616                     	;# 
  1658  0616                     	;# 
  1659  0691                     	;# 
  1660  0692                     	;# 
  1661  0693                     	;# 
  1662  0694                     	;# 
  1663  0695                     	;# 
  1664  0E8E                     	;# 
  1665  0E8F                     	;# 
  1666  0E90                     	;# 
  1667  0E91                     	;# 
  1668  0E92                     	;# 
  1669  0E93                     	;# 
  1670  0E94                     	;# 
  1671  0E94                     	;# 
  1672  0E95                     	;# 
  1673  0E96                     	;# 
  1674  0E97                     	;# 
  1675  0E98                     	;# 
  1676  0E99                     	;# 
  1677  0E9A                     	;# 
  1678  0E9B                     	;# 
  1679  0E9C                     	;# 
  1680  0E9D                     	;# 
  1681  0E9E                     	;# 
  1682  0E9F                     	;# 
  1683  0FE4                     	;# 
  1684  0FE5                     	;# 
  1685  0FE6                     	;# 
  1686  0FE7                     	;# 
  1687  0FE8                     	;# 
  1688  0FE9                     	;# 
  1689  0FEA                     	;# 
  1690  0FEB                     	;# 
  1691  0FED                     	;# 
  1692  0FEE                     	;# 
  1693  0FEF                     	;# 
  1694                           
  1695                           	psect	stringtext1
  1696  18BD                     __pstringtext1:
  1697  18BD                     _USB_SD_Ptr:
  1698  18BD  34C3               	retlw	low (_sd000| (0+32768))
  1699  18BE  3498               	retlw	high (_sd000| (0+32768))
  1700  18BF  3477               	retlw	low (_sd001| (0+32768))
  1701  18C0  3498               	retlw	high (_sd001| (0+32768))
  1702  18C1  3443               	retlw	low (_sd002| (0+32768))
  1703  18C2  3498               	retlw	high (_sd002| (0+32768))
  1704  18C3                     __end_of_USB_SD_Ptr:
  1705                           
  1706                           	psect	stringtext2
  1707  18C7                     __pstringtext2:
  1708  18C7                     _USB_CD_Ptr:
  1709  18C7  3400               	retlw	low (_configDescriptor1| (0+32768))
  1710  18C8  3498               	retlw	high (_configDescriptor1| (0+32768))
  1711  18C9                     __end_of_USB_CD_Ptr:
  1712                           
  1713                           	psect	stringtext3
  1714  1800                     __pstringtext3:
  1715  1800                     _configDescriptor1:
  1716  1800  3409               	retlw	9
  1717  1801  3402               	retlw	2
  1718  1802  3443               	retlw	67
  1719  1803  3400               	retlw	0
  1720  1804  3402               	retlw	2
  1721  1805  3401               	retlw	1
  1722  1806  3400               	retlw	0
  1723  1807  34C0               	retlw	192
  1724  1808  3432               	retlw	50
  1725  1809  3409               	retlw	9
  1726  180A  3404               	retlw	4
  1727  180B  3400               	retlw	0
  1728  180C  3400               	retlw	0
  1729  180D  3401               	retlw	1
  1730  180E  3402               	retlw	2
  1731  180F  3402               	retlw	2
  1732  1810  3401               	retlw	1
  1733  1811  3400               	retlw	0
  1734  1812  3405               	retlw	5
  1735  1813  3424               	retlw	36
  1736  1814  3400               	retlw	0
  1737  1815  3410               	retlw	16
  1738  1816  3401               	retlw	1
  1739  1817  3404               	retlw	4
  1740  1818  3424               	retlw	36
  1741  1819  3402               	retlw	2
  1742  181A  3402               	retlw	2
  1743  181B  3405               	retlw	5
  1744  181C  3424               	retlw	36
  1745  181D  3406               	retlw	6
  1746  181E  3400               	retlw	0
  1747  181F  3401               	retlw	1
  1748  1820  3405               	retlw	5
  1749  1821  3424               	retlw	36
  1750  1822  3401               	retlw	1
  1751  1823  3400               	retlw	0
  1752  1824  3401               	retlw	1
  1753  1825  3407               	retlw	7
  1754  1826  3405               	retlw	5
  1755  1827  3481               	retlw	129
  1756  1828  3403               	retlw	3
  1757  1829  3408               	retlw	8
  1758  182A  3400               	retlw	0
  1759  182B  3402               	retlw	2
  1760  182C  3409               	retlw	9
  1761  182D  3404               	retlw	4
  1762  182E  3401               	retlw	1
  1763  182F  3400               	retlw	0
  1764  1830  3402               	retlw	2
  1765  1831  340A               	retlw	10
  1766  1832  3400               	retlw	0
  1767  1833  3400               	retlw	0
  1768  1834  3400               	retlw	0
  1769  1835  3407               	retlw	7
  1770  1836  3405               	retlw	5
  1771  1837  3402               	retlw	2
  1772  1838  3402               	retlw	2
  1773  1839  3440               	retlw	64
  1774  183A  3400               	retlw	0
  1775  183B  3400               	retlw	0
  1776  183C  3407               	retlw	7
  1777  183D  3405               	retlw	5
  1778  183E  3482               	retlw	130
  1779  183F  3402               	retlw	2
  1780  1840  3440               	retlw	64
  1781  1841  3400               	retlw	0
  1782  1842  3400               	retlw	0
  1783  1843                     __end_of_configDescriptor1:
  1784                           
  1785                           	psect	stringtext4
  1786  1843                     __pstringtext4:
  1787  1843                     _sd002:
  1788  1843  3434               	retlw	52
  1789  1844  3403               	retlw	3
  1790  1845  3443               	retlw	67
  1791  1846  3400               	retlw	0
  1792  1847  3444               	retlw	68
  1793  1848  3400               	retlw	0
  1794  1849  3443               	retlw	67
  1795  184A  3400               	retlw	0
  1796  184B  3420               	retlw	32
  1797  184C  3400               	retlw	0
  1798  184D  3452               	retlw	82
  1799  184E  3400               	retlw	0
  1800  184F  3453               	retlw	83
  1801  1850  3400               	retlw	0
  1802  1851  342D               	retlw	45
  1803  1852  3400               	retlw	0
  1804  1853  3432               	retlw	50
  1805  1854  3400               	retlw	0
  1806  1855  3433               	retlw	51
  1807  1856  3400               	retlw	0
  1808  1857  3432               	retlw	50
  1809  1858  3400               	retlw	0
  1810  1859  3420               	retlw	32
  1811  185A  3400               	retlw	0
  1812  185B  3445               	retlw	69
  1813  185C  3400               	retlw	0
  1814  185D  346D               	retlw	109
  1815  185E  3400               	retlw	0
  1816  185F  3475               	retlw	117
  1817  1860  3400               	retlw	0
  1818  1861  346C               	retlw	108
  1819  1862  3400               	retlw	0
  1820  1863  3461               	retlw	97
  1821  1864  3400               	retlw	0
  1822  1865  3474               	retlw	116
  1823  1866  3400               	retlw	0
  1824  1867  3469               	retlw	105
  1825  1868  3400               	retlw	0
  1826  1869  346F               	retlw	111
  1827  186A  3400               	retlw	0
  1828  186B  346E               	retlw	110
  1829  186C  3400               	retlw	0
  1830  186D  3420               	retlw	32
  1831  186E  3400               	retlw	0
  1832  186F  3444               	retlw	68
  1833  1870  3400               	retlw	0
  1834  1871  3465               	retlw	101
  1835  1872  3400               	retlw	0
  1836  1873  346D               	retlw	109
  1837  1874  3400               	retlw	0
  1838  1875  346F               	retlw	111
  1839  1876  3400               	retlw	0
  1840  1877                     __end_of_sd002:
  1841                           
  1842                           	psect	stringtext5
  1843  1877                     __pstringtext5:
  1844  1877                     _sd001:
  1845  1877  3434               	retlw	52
  1846  1878  3403               	retlw	3
  1847  1879  344D               	retlw	77
  1848  187A  3400               	retlw	0
  1849  187B  3469               	retlw	105
  1850  187C  3400               	retlw	0
  1851  187D  3463               	retlw	99
  1852  187E  3400               	retlw	0
  1853  187F  3472               	retlw	114
  1854  1880  3400               	retlw	0
  1855  1881  346F               	retlw	111
  1856  1882  3400               	retlw	0
  1857  1883  3463               	retlw	99
  1858  1884  3400               	retlw	0
  1859  1885  3468               	retlw	104
  1860  1886  3400               	retlw	0
  1861  1887  3469               	retlw	105
  1862  1888  3400               	retlw	0
  1863  1889  3470               	retlw	112
  1864  188A  3400               	retlw	0
  1865  188B  3420               	retlw	32
  1866  188C  3400               	retlw	0
  1867  188D  3454               	retlw	84
  1868  188E  3400               	retlw	0
  1869  188F  3465               	retlw	101
  1870  1890  3400               	retlw	0
  1871  1891  3463               	retlw	99
  1872  1892  3400               	retlw	0
  1873  1893  3468               	retlw	104
  1874  1894  3400               	retlw	0
  1875  1895  346E               	retlw	110
  1876  1896  3400               	retlw	0
  1877  1897  346F               	retlw	111
  1878  1898  3400               	retlw	0
  1879  1899  346C               	retlw	108
  1880  189A  3400               	retlw	0
  1881  189B  346F               	retlw	111
  1882  189C  3400               	retlw	0
  1883  189D  3467               	retlw	103
  1884  189E  3400               	retlw	0
  1885  189F  3479               	retlw	121
  1886  18A0  3400               	retlw	0
  1887  18A1  3420               	retlw	32
  1888  18A2  3400               	retlw	0
  1889  18A3  3449               	retlw	73
  1890  18A4  3400               	retlw	0
  1891  18A5  346E               	retlw	110
  1892  18A6  3400               	retlw	0
  1893  18A7  3463               	retlw	99
  1894  18A8  3400               	retlw	0
  1895  18A9  342E               	retlw	46
  1896  18AA  3400               	retlw	0
  1897  18AB                     __end_of_sd001:
  1898                           
  1899                           	psect	stringtext6
  1900  18AB                     __pstringtext6:
  1901  18AB                     _device_dsc:
  1902  18AB  3412               	retlw	18
  1903  18AC  3401               	retlw	1
  1904  18AD  3400               	retlw	0
  1905  18AE  3402               	retlw	2
  1906  18AF  3402               	retlw	2
  1907  18B0  3400               	retlw	0
  1908  18B1  3400               	retlw	0
  1909  18B2  3408               	retlw	8
  1910  18B3  34D8               	retlw	216
  1911  18B4  3404               	retlw	4
  1912  18B5  340A               	retlw	10
  1913  18B6  3400               	retlw	0
  1914  18B7  3400               	retlw	0
  1915  18B8  3401               	retlw	1
  1916  18B9  3401               	retlw	1
  1917  18BA  3402               	retlw	2
  1918  18BB  3400               	retlw	0
  1919  18BC  3401               	retlw	1
  1920  18BD                     __end_of_device_dsc:
  1921                           
  1922                           	psect	stringtext7
  1923  18C3                     __pstringtext7:
  1924  18C3                     _sd000:
  1925  18C3  3404               	retlw	4
  1926  18C4  3403               	retlw	3
  1927  18C5  3409               	retlw	9
  1928  18C6  3404               	retlw	4
  1929  18C7                     __end_of_sd000:
  1930  000B                     _INTCONbits	set	11
  1931  0012                     _PIR2bits	set	18
  1932  000C                     _PORTAbits	set	12
  1933  0011                     _PIR1bits	set	17
  1934  0092                     _PIE2bits	set	146
  1935  008E                     _TRISCbits	set	142
  1936  009F                     _ADCON2	set	159
  1937  009E                     _ADCON1	set	158
  1938  009D                     _ADCON0	set	157
  1939  008D                     _TRISBbits	set	141
  1940  009B                     _ADRESL	set	155
  1941  009C                     _ADRESH	set	156
  1942  009D                     _ADCON0bits	set	157
  1943  0099                     _OSCCON	set	153
  1944  010E                     _LATCbits	set	270
  1945  019B                     _SPBRG	set	411
  1946  019D                     _RCSTAbits	set	413
  1947  019C                     _SPBRGH	set	412
  1948  019A                     _TXREG	set	410
  1949  0199                     _RCREG	set	409
  1950  019F                     _BAUDCON	set	415
  1951  019D                     _RCSTA	set	413
  1952  019E                     _TXSTA	set	414
  1953  018D                     _ANSELBbits	set	397
  1954  019E                     _TXSTAbits	set	414
  1955  039B                     _ACTCON	set	923
  1956  0E98                     _UEP0bits	set	3736
  1957  0E8E                     _UCON	set	3726
  1958  0E8F                     _USTAT	set	3727
  1959  0E92                     _UIEbits	set	3730
  1960  0E90                     _UIRbits	set	3728
  1961  0E96                     _UADDR	set	3734
  1962  0E92                     _UIE	set	3730
  1963  0E97                     _UEIE	set	3735
  1964  0E91                     _UCFG	set	3729
  1965  0E90                     _UIR	set	3728
  1966  0E93                     _UEIR	set	3731
  1967  0E8E                     _UCONbits	set	3726
  1968  0E99                     _UEP1	set	3737
  1969  0E98                     _UEP0	set	3736
  1970                           
  1971                           	psect	cinit
  1972  0912                     start_initialization:	
  1973                           ; #config settings
  1974                           
  1975  0912                     __initialization:
  1976                           
  1977                           ; Clear objects allocated to BANK1
  1978  0912  0021               	movlb	1	; select bank1
  1979  0913  01E8               	clrf	__pbssBANK1& (0+127)
  1980  0914  01E9               	clrf	(__pbssBANK1+1)& (0+127)
  1981  0915  01EA               	clrf	(__pbssBANK1+2)& (0+127)
  1982  0916  01EB               	clrf	(__pbssBANK1+3)& (0+127)
  1983                           
  1984                           ; Clear objects allocated to BANK3
  1985  0917  30A0               	movlw	low __pbssBANK3
  1986  0918  0084               	movwf	4
  1987  0919  3001               	movlw	high __pbssBANK3
  1988  091A  0085               	movwf	5
  1989  091B  304F               	movlw	79
  1990  091C  318F  27F8  3189   	fcall	clear_ram0
  1991                           
  1992                           ; Clear objects allocated to BANK4
  1993  091F  3020               	movlw	low __pbssBANK4
  1994  0920  0084               	movwf	4
  1995  0921  3002               	movlw	high __pbssBANK4
  1996  0922  0085               	movwf	5
  1997  0923  3048               	movlw	72
  1998  0924  318F  27F8  3189   	fcall	clear_ram0
  1999                           
  2000                           ; Clear objects allocated to BANK5
  2001  0927  30A0               	movlw	low __pbssBANK5
  2002  0928  0084               	movwf	4
  2003  0929  3002               	movlw	high __pbssBANK5
  2004  092A  0085               	movwf	5
  2005  092B  3040               	movlw	64
  2006  092C  318F  27F8  3189   	fcall	clear_ram0
  2007  092F                     end_of_initialization:	
  2008                           ;End of C runtime variable initialization code
  2009                           
  2010  092F                     __end_of__initialization:
  2011  092F  107E               	bcf	int$flags,0	;clear compiler interrupt flag (level 1)
  2012  0930  0020               	movlb	0
  2013  0931  319E  2ED0         	ljmp	_main	;jump to C main() function
  2014                           
  2015                           	psect	bssBANK1
  2016  00E8                     __pbssBANK1:
  2017  00E8                     _pBDTEntryEP0OutNext:
  2018  00E8                     	ds	1
  2019  00E9                     _pBDTEntryEP0OutCurrent:
  2020  00E9                     	ds	1
  2021  00EA                     _USBDeviceState:
  2022  00EA                     	ds	1
  2023  00EB                     _USTATcopy:
  2024  00EB                     	ds	1
  2025                           
  2026                           	psect	bssBANK3
  2027  01A0                     __pbssBANK3:
  2028  01A0                     _outPipes:
  2029  01A0                     	ds	7
  2030  01A7                     _inPipes:
  2031  01A7                     	ds	5
  2032  01AC                     _BaudRateGen:
  2033  01AC                     	ds	4
  2034  01B0                     _ep_data_out:
  2035  01B0                     	ds	3
  2036  01B3                     _ep_data_in:
  2037  01B3                     	ds	3
  2038  01B6                     _pBDTEntryIn:
  2039  01B6                     	ds	3
  2040  01B9                     _pBDTEntryOut:
  2041  01B9                     	ds	3
  2042  01BC                     _pCDCDst:
  2043  01BC                     	ds	2
  2044  01BE                     _pCDCSrc:
  2045  01BE                     	ds	2
  2046  01C0                     APP_LEDUpdateUSBStatus@ledCount:
  2047  01C0                     	ds	2
  2048  01C2                     _control_signal_bitmap:
  2049  01C2                     	ds	1
  2050  01C3                     _CDCDataInHandle:
  2051  01C3                     	ds	1
  2052  01C4                     _CDCDataOutHandle:
  2053  01C4                     	ds	1
  2054  01C5                     _cdc_mem_type:
  2055  01C5                     	ds	1
  2056  01C6                     _cdc_tx_len:
  2057  01C6                     	ds	1
  2058  01C7                     _cdc_rx_len:
  2059  01C7                     	ds	1
  2060  01C8                     _USBDeferOUTDataStagePackets:
  2061  01C8                     	ds	1
  2062  01C9                     _USBDeferINDataStagePackets:
  2063  01C9                     	ds	1
  2064  01CA                     _USBStatusStageEnabledFlag2:
  2065  01CA                     	ds	1
  2066  01CB                     _USBStatusStageEnabledFlag1:
  2067  01CB                     	ds	1
  2068  01CC                     _USBDeferStatusStagePacket:
  2069  01CC                     	ds	1
  2070  01CD                     _USBStatusStageTimeoutCounter:
  2071  01CD                     	ds	1
  2072  01CE                     _BothEP0OutUOWNsSet:
  2073  01CE                     	ds	1
  2074  01CF                     _endpoint_number:
  2075  01CF                     	ds	1
  2076  01D0                     _USBBusIsSuspended:
  2077  01D0                     	ds	1
  2078  01D1                     _RemoteWakeup:
  2079  01D1                     	ds	1
  2080  01D2                     _pDst:
  2081  01D2                     	ds	1
  2082  01D3                     _controlTransferState:
  2083  01D3                     	ds	1
  2084  01D4                     _shortPacketStatus:
  2085  01D4                     	ds	1
  2086  01D5                     _lastTransmission:
  2087  01D5                     	ds	1
  2088  01D6                     _RS232_Out_Data_Rdy:
  2089  01D6                     	ds	1
  2090  01D7                     _RS232cp:
  2091  01D7                     	ds	1
  2092  01D8                     _LastRS232Out:
  2093  01D8                     	ds	1
  2094  01D9                     _NextUSBOut:
  2095  01D9                     	ds	1
  2096  01DA                     _cdc_trf_state:
  2097  01DA                     	ds	1
  2098  01DB                     _cdc_notice:
  2099  01DB                     	ds	10
  2100  01E5                     _line_coding:
  2101  01E5                     	ds	7
  2102  01EC                     _USBAlternateInterface:
  2103  01EC                     	ds	2
  2104  01EE                     _USBActiveConfiguration:
  2105  01EE                     	ds	1
  2106                           
  2107                           	psect	bssBANK4
  2108  0220                     __pbssBANK4:
  2109  0220                     _USB_Out_Buffer:
  2110  0220                     	ds	64
  2111  0260                     _dummy_encapsulated_cmd_response:
  2112  0260                     	ds	8
  2113                           
  2114                           	psect	bssBANK5
  2115  02A0                     __pbssBANK5:
  2116  02A0                     _RS232_Out_Data:
  2117  02A0                     	ds	64
  2118                           
  2119                           	psect	clrtext
  2120  0FF8                     clear_ram0:	
  2121                           ;	Called with FSR0 containing the base address, and
  2122                           ;	WREG with the size to clear
  2123                           
  2124  0FF8  0064               	clrwdt	;clear the watchdog before getting into this loop
  2125  0FF9                     clrloop0:
  2126  0FF9  0180               	clrf	0	;clear RAM location pointed to by FSR
  2127  0FFA  3101               	addfsr 0,1
  2128  0FFB  0B89               	decfsz	9,f	;Have we reached the end of clearing yet?
  2129  0FFC  2FF9               	goto	clrloop0	;have we reached the end yet?
  2130  0FFD  3400               	retlw	0	;all done for this memory range, return
  2131                           
  2132                           	psect	cstackBANK2
  2133  0160                     __pcstackBANK2:
  2134  0160                     ??_USART_getcUSART:
  2135  0160                     ?_putUSBUSART:	
  2136                           ; 1 bytes @ 0x0
  2137                           
  2138  0160                     ??_USBDeviceInit:	
  2139                           ; 1 bytes @ 0x0
  2140                           
  2141  0160                     ??_USBDeviceAttach:	
  2142                           ; 1 bytes @ 0x0
  2143                           
  2144  0160                     ?_USBTransferOnePacket:	
  2145                           ; 1 bytes @ 0x0
  2146                           
  2147  0160                     BUTTON_Enable@button:	
  2148                           ; 1 bytes @ 0x0
  2149                           
  2150  0160                     LED_Enable@led:	
  2151                           ; 1 bytes @ 0x0
  2152                           
  2153  0160                     USART_putcUSART@c:	
  2154                           ; 1 bytes @ 0x0
  2155                           
  2156  0160                     USBTransferOnePacket@dir:	
  2157                           ; 1 bytes @ 0x0
  2158                           
  2159  0160                     putUSBUSART@length:	
  2160                           ; 1 bytes @ 0x0
  2161                           
  2162                           
  2163                           ; 1 bytes @ 0x0
  2164  0160                     	ds	1
  2165  0161                     ??_putUSBUSART:
  2166  0161                     SYSTEM_Initialize@state:	
  2167                           ; 1 bytes @ 0x1
  2168                           
  2169  0161                     USART_getcUSART@c:	
  2170                           ; 1 bytes @ 0x1
  2171                           
  2172  0161                     USBDeviceInit@p:	
  2173                           ; 1 bytes @ 0x1
  2174                           
  2175  0161                     USBTransferOnePacket@data:	
  2176                           ; 2 bytes @ 0x1
  2177                           
  2178                           
  2179                           ; 2 bytes @ 0x1
  2180  0161                     	ds	1
  2181  0162                     putUSBUSART@data:
  2182                           
  2183                           ; 1 bytes @ 0x2
  2184  0162                     	ds	1
  2185  0163                     USBDeviceInit@i_1387:
  2186  0163                     USBTransferOnePacket@len:	
  2187                           ; 1 bytes @ 0x3
  2188                           
  2189                           
  2190                           ; 1 bytes @ 0x3
  2191  0163                     	ds	1
  2192  0164                     ??_USBTransferOnePacket:
  2193  0164                     USBDeviceInit@i:	
  2194                           ; 1 bytes @ 0x4
  2195                           
  2196                           
  2197                           ; 1 bytes @ 0x4
  2198  0164                     	ds	2
  2199  0166                     USBTransferOnePacket@ep:
  2200                           
  2201                           ; 1 bytes @ 0x6
  2202  0166                     	ds	1
  2203  0167                     USBTransferOnePacket@handle:
  2204                           
  2205                           ; 1 bytes @ 0x7
  2206  0167                     	ds	1
  2207  0168                     ?_getsUSBUSART:
  2208  0168                     ??_CDCTxService:	
  2209                           ; 1 bytes @ 0x8
  2210                           
  2211  0168                     getsUSBUSART@len:	
  2212                           ; 1 bytes @ 0x8
  2213                           
  2214                           
  2215                           ; 1 bytes @ 0x8
  2216  0168                     	ds	1
  2217  0169                     ??_getsUSBUSART:
  2218                           
  2219                           ; 1 bytes @ 0x9
  2220  0169                     	ds	1
  2221  016A                     _CDCTxService$2866:
  2222                           
  2223                           ; 2 bytes @ 0xA
  2224  016A                     	ds	1
  2225  016B                     _getsUSBUSART$2818:
  2226                           
  2227                           ; 2 bytes @ 0xB
  2228  016B                     	ds	1
  2229  016C                     CDCTxService@i:
  2230                           
  2231                           ; 1 bytes @ 0xC
  2232  016C                     	ds	1
  2233  016D                     getsUSBUSART@buffer:
  2234  016D                     CDCTxService@byte_to_send:	
  2235                           ; 1 bytes @ 0xD
  2236                           
  2237                           
  2238                           ; 1 bytes @ 0xD
  2239  016D                     	ds	1
  2240  016E                     ??_APP_DeviceCDCEmulatorTasks:
  2241                           
  2242                           ; 1 bytes @ 0xE
  2243  016E                     	ds	2
  2244                           
  2245                           	psect	cstackBANK1
  2246  00E0                     __pcstackBANK1:
  2247  00E0                     ??_USBCtrlTrfSetupHandler:
  2248                           
  2249                           ; 1 bytes @ 0x0
  2250  00E0                     	ds	1
  2251  00E1                     ??_USBCtrlEPService:
  2252                           
  2253                           ; 1 bytes @ 0x1
  2254  00E1                     	ds	3
  2255  00E4                     USBCtrlEPService@setup_cnt:
  2256                           
  2257                           ; 1 bytes @ 0x4
  2258  00E4                     	ds	1
  2259  00E5                     ??_USBDeviceTasks:
  2260                           
  2261                           ; 1 bytes @ 0x5
  2262  00E5                     	ds	2
  2263  00E7                     USBDeviceTasks@i:
  2264                           
  2265                           ; 1 bytes @ 0x7
  2266  00E7                     	ds	1
  2267  00E8                     ??_LED_Enable:
  2268  00E8                     ??_BUTTON_Enable:	
  2269                           ; 1 bytes @ 0x8
  2270                           
  2271  00E8                     ??_USART_putcUSART:	
  2272                           ; 1 bytes @ 0x8
  2273                           
  2274  00E8                     ??_SYSTEM_Initialize:	
  2275                           ; 1 bytes @ 0x8
  2276                           
  2277  00E8                     ??_main:	
  2278                           ; 1 bytes @ 0x8
  2279                           
  2280                           
  2281                           	psect	cstackCOMMON
  2282  0070                     __pcstackCOMMON:	
  2283                           ; 1 bytes @ 0x8
  2284                           
  2285  0070                     ?_LED_Enable:
  2286  0070                     ?_BUTTON_Enable:	
  2287                           ; 1 bytes @ 0x0
  2288                           
  2289  0070                     ?_USBDeviceTasks:	
  2290                           ; 1 bytes @ 0x0
  2291                           
  2292  0070                     ?_CDCInitEP:	
  2293                           ; 1 bytes @ 0x0
  2294                           
  2295  0070                     ?_USART_Initialize:	
  2296                           ; 1 bytes @ 0x0
  2297                           
  2298  0070                     ??_USART_Initialize:	
  2299                           ; 1 bytes @ 0x0
  2300                           
  2301  0070                     ?_USART_putcUSART:	
  2302                           ; 1 bytes @ 0x0
  2303                           
  2304  0070                     ?_USART_getcUSART:	
  2305                           ; 1 bytes @ 0x0
  2306                           
  2307  0070                     ?_CDCTxService:	
  2308                           ; 1 bytes @ 0x0
  2309                           
  2310  0070                     ?_LED_Off:	
  2311                           ; 1 bytes @ 0x0
  2312                           
  2313  0070                     ??_LED_Off:	
  2314                           ; 1 bytes @ 0x0
  2315                           
  2316  0070                     ?_LED_On:	
  2317                           ; 1 bytes @ 0x0
  2318                           
  2319  0070                     ??_LED_On:	
  2320                           ; 1 bytes @ 0x0
  2321                           
  2322  0070                     ?_USBDeviceInit:	
  2323                           ; 1 bytes @ 0x0
  2324                           
  2325  0070                     ?_USBDeviceAttach:	
  2326                           ; 1 bytes @ 0x0
  2327                           
  2328  0070                     ?_USBCheckCDCRequest:	
  2329                           ; 1 bytes @ 0x0
  2330                           
  2331  0070                     ??_USBCheckCDCRequest:	
  2332                           ; 1 bytes @ 0x0
  2333                           
  2334  0070                     ?_USBWakeFromSuspend:	
  2335                           ; 1 bytes @ 0x0
  2336                           
  2337  0070                     ?_USBSuspend:	
  2338                           ; 1 bytes @ 0x0
  2339                           
  2340  0070                     ?_USBCtrlEPAllowStatusStage:	
  2341                           ; 1 bytes @ 0x0
  2342                           
  2343  0070                     ??_USBCtrlEPAllowStatusStage:	
  2344                           ; 1 bytes @ 0x0
  2345                           
  2346  0070                     ?_USBStallHandler:	
  2347                           ; 1 bytes @ 0x0
  2348                           
  2349  0070                     ??_USBStallHandler:	
  2350                           ; 1 bytes @ 0x0
  2351                           
  2352  0070                     ?_USBCtrlEPService:	
  2353                           ; 1 bytes @ 0x0
  2354                           
  2355  0070                     ?_USBConfigureEndpoint:	
  2356                           ; 1 bytes @ 0x0
  2357                           
  2358  0070                     ?_USBCtrlTrfTxService:	
  2359                           ; 1 bytes @ 0x0
  2360                           
  2361  0070                     ??_USBCtrlTrfTxService:	
  2362                           ; 1 bytes @ 0x0
  2363                           
  2364  0070                     ?_USBCtrlTrfSetupHandler:	
  2365                           ; 1 bytes @ 0x0
  2366                           
  2367  0070                     ?_USBCtrlTrfOutHandler:	
  2368                           ; 1 bytes @ 0x0
  2369                           
  2370  0070                     ?_USBCtrlTrfInHandler:	
  2371                           ; 1 bytes @ 0x0
  2372                           
  2373  0070                     ?_USBCheckStdRequest:	
  2374                           ; 1 bytes @ 0x0
  2375                           
  2376  0070                     ?_USBStdFeatureReqHandler:	
  2377                           ; 1 bytes @ 0x0
  2378                           
  2379  0070                     ?_SYSTEM_Initialize:	
  2380                           ; 1 bytes @ 0x0
  2381                           
  2382  0070                     ?_SYS_InterruptHigh:	
  2383                           ; 1 bytes @ 0x0
  2384                           
  2385  0070                     ?_APP_DeviceCDCEmulatorInitialize:	
  2386                           ; 1 bytes @ 0x0
  2387                           
  2388  0070                     ?_APP_DeviceCDCEmulatorTasks:	
  2389                           ; 1 bytes @ 0x0
  2390                           
  2391  0070                     ?_APP_LEDUpdateUSBStatus:	
  2392                           ; 1 bytes @ 0x0
  2393                           
  2394  0070                     ?_main:	
  2395                           ; 1 bytes @ 0x0
  2396                           
  2397  0070                     ?_USART_mySetLineCodingHandler:	
  2398                           ; 1 bytes @ 0x0
  2399                           
  2400  0070                     ?_USBCtrlEPAllowDataStage:	
  2401                           ; 1 bytes @ 0x0
  2402                           
  2403  0070                     ?_USBCtrlEPServiceComplete:	
  2404                           ; 1 bytes @ 0x0
  2405                           
  2406  0070                     ?_USBCtrlTrfRxService:	
  2407                           ; 1 bytes @ 0x0
  2408                           
  2409  0070                     ?_USBStdSetCfgHandler:	
  2410                           ; 1 bytes @ 0x0
  2411                           
  2412  0070                     ?_USBStdGetDscHandler:	
  2413                           ; 1 bytes @ 0x0
  2414                           
  2415  0070                     ??_USBStdGetDscHandler:	
  2416                           ; 1 bytes @ 0x0
  2417                           
  2418  0070                     ?_USBStdGetStatusHandler:	
  2419                           ; 1 bytes @ 0x0
  2420                           
  2421  0070                     ??_USBStdGetStatusHandler:	
  2422                           ; 1 bytes @ 0x0
  2423                           
  2424  0070                     ?i1_USBDeviceInit:	
  2425                           ; 1 bytes @ 0x0
  2426                           
  2427  0070                     ??i1_USBDeviceInit:	
  2428                           ; 1 bytes @ 0x0
  2429                           
  2430  0070                     ?i1_USBTransferOnePacket:	
  2431                           ; 1 bytes @ 0x0
  2432                           
  2433  0070                     ?_memset:	
  2434                           ; 1 bytes @ 0x0
  2435                           
  2436  0070                     ?___lldiv:	
  2437                           ; 2 bytes @ 0x0
  2438                           
  2439  0070                     LED_On@led:	
  2440                           ; 4 bytes @ 0x0
  2441                           
  2442  0070                     LED_Off@led:	
  2443                           ; 1 bytes @ 0x0
  2444                           
  2445  0070                     USBConfigureEndpoint@direction:	
  2446                           ; 1 bytes @ 0x0
  2447                           
  2448  0070                     i1USBTransferOnePacket@dir:	
  2449                           ; 1 bytes @ 0x0
  2450                           
  2451  0070                     memset@p1:	
  2452                           ; 1 bytes @ 0x0
  2453                           
  2454  0070                     ___lldiv@divisor:	
  2455                           ; 2 bytes @ 0x0
  2456                           
  2457                           
  2458                           ; 4 bytes @ 0x0
  2459  0070                     	ds	1
  2460  0071                     ??_USBConfigureEndpoint:
  2461  0071                     ??_APP_LEDUpdateUSBStatus:	
  2462                           ; 1 bytes @ 0x1
  2463                           
  2464  0071                     USBStdGetStatusHandler@p:	
  2465                           ; 1 bytes @ 0x1
  2466                           
  2467  0071                     i1USBDeviceInit@p:	
  2468                           ; 1 bytes @ 0x1
  2469                           
  2470  0071                     i1USBTransferOnePacket@data:	
  2471                           ; 2 bytes @ 0x1
  2472                           
  2473                           
  2474                           ; 2 bytes @ 0x1
  2475  0071                     	ds	1
  2476  0072                     USBCtrlTrfTxService@byteToSend:
  2477  0072                     memset@c:	
  2478                           ; 1 bytes @ 0x2
  2479                           
  2480                           
  2481                           ; 2 bytes @ 0x2
  2482  0072                     	ds	1
  2483  0073                     ??_USBCtrlEPAllowDataStage:
  2484  0073                     i1USBDeviceInit@i_1387:	
  2485                           ; 1 bytes @ 0x3
  2486                           
  2487  0073                     i1USBTransferOnePacket@len:	
  2488                           ; 1 bytes @ 0x3
  2489                           
  2490                           
  2491                           ; 1 bytes @ 0x3
  2492  0073                     	ds	1
  2493  0074                     ??i1_USBTransferOnePacket:
  2494  0074                     i1USBDeviceInit@i:	
  2495                           ; 1 bytes @ 0x4
  2496                           
  2497  0074                     memset@n:	
  2498                           ; 1 bytes @ 0x4
  2499                           
  2500  0074                     ___lldiv@dividend:	
  2501                           ; 2 bytes @ 0x4
  2502                           
  2503                           
  2504                           ; 4 bytes @ 0x4
  2505  0074                     	ds	1
  2506  0075                     ??_USBCtrlEPServiceComplete:
  2507  0075                     USBConfigureEndpoint@EPNum:	
  2508                           ; 1 bytes @ 0x5
  2509                           
  2510                           
  2511                           ; 1 bytes @ 0x5
  2512  0075                     	ds	1
  2513  0076                     ??_memset:
  2514  0076                     USBConfigureEndpoint@handle:	
  2515                           ; 1 bytes @ 0x6
  2516                           
  2517  0076                     i1USBTransferOnePacket@ep:	
  2518                           ; 1 bytes @ 0x6
  2519                           
  2520  0076                     memset@p:	
  2521                           ; 1 bytes @ 0x6
  2522                           
  2523                           
  2524                           ; 2 bytes @ 0x6
  2525  0076                     	ds	1
  2526  0077                     ?_USBEnableEndpoint:
  2527  0077                     USBEnableEndpoint@options:	
  2528                           ; 1 bytes @ 0x7
  2529                           
  2530  0077                     i1USBTransferOnePacket@handle:	
  2531                           ; 1 bytes @ 0x7
  2532                           
  2533                           
  2534                           ; 1 bytes @ 0x7
  2535  0077                     	ds	1
  2536  0078                     ??_USBEnableEndpoint:
  2537  0078                     ??___lldiv:	
  2538                           ; 1 bytes @ 0x8
  2539                           
  2540                           
  2541                           ; 1 bytes @ 0x8
  2542  0078                     	ds	1
  2543  0079                     ___lldiv@quotient:
  2544                           
  2545                           ; 4 bytes @ 0x9
  2546  0079                     	ds	1
  2547  007A                     USBEnableEndpoint@p:
  2548                           
  2549                           ; 2 bytes @ 0xA
  2550  007A                     	ds	2
  2551  007C                     USBEnableEndpoint@ep:
  2552                           
  2553                           ; 1 bytes @ 0xC
  2554  007C                     	ds	1
  2555  007D                     ??_APP_DeviceCDCEmulatorInitialize:
  2556  007D                     ___lldiv@counter:	
  2557                           ; 1 bytes @ 0xD
  2558                           
  2559                           
  2560                           ; 1 bytes @ 0xD
  2561  007D                     	ds	1
  2562  007E                     ??_SYS_InterruptHigh:
  2563  007E                     ??_USER_USB_CALLBACK_EVENT_HANDLER:	
  2564                           ; 1 bytes @ 0xE
  2565                           
  2566                           
  2567                           	psect	cstackBANK0
  2568  0060                     __pcstackBANK0:	
  2569                           ; 1 bytes @ 0xE
  2570                           
  2571  0060                     ??_CDCInitEP:
  2572  0060                     ??_USART_mySetLineCodingHandler:	
  2573                           ; 1 bytes @ 0x0
  2574                           
  2575                           
  2576                           ; 1 bytes @ 0x0
  2577  0060                     	ds	2
  2578  0062                     APP_DeviceCDCEmulatorInitialize@i:
  2579                           
  2580                           ; 1 bytes @ 0x2
  2581  0062                     	ds	1
  2582  0063                     ?_USER_USB_CALLBACK_EVENT_HANDLER:
  2583  0063                     USER_USB_CALLBACK_EVENT_HANDLER@event:	
  2584                           ; 1 bytes @ 0x3
  2585                           
  2586                           
  2587                           ; 2 bytes @ 0x3
  2588  0063                     	ds	1
  2589  0064                     USART_mySetLineCodingHandler@dwBaud:
  2590                           
  2591                           ; 4 bytes @ 0x4
  2592  0064                     	ds	1
  2593  0065                     USER_USB_CALLBACK_EVENT_HANDLER@pdata:
  2594                           
  2595                           ; 2 bytes @ 0x5
  2596  0065                     	ds	2
  2597  0067                     USER_USB_CALLBACK_EVENT_HANDLER@size:
  2598                           
  2599                           ; 2 bytes @ 0x7
  2600  0067                     	ds	1
  2601  0068                     ??_USBCtrlTrfInHandler:
  2602  0068                     ??_USBCtrlTrfRxService:	
  2603                           ; 1 bytes @ 0x8
  2604                           
  2605                           
  2606                           ; 1 bytes @ 0x8
  2607  0068                     	ds	1
  2608  0069                     ??_USBWakeFromSuspend:
  2609  0069                     ??_USBSuspend:	
  2610                           ; 1 bytes @ 0x9
  2611                           
  2612  0069                     ??_USBStdFeatureReqHandler:	
  2613                           ; 1 bytes @ 0x9
  2614                           
  2615  0069                     ??_USBStdSetCfgHandler:	
  2616                           ; 1 bytes @ 0x9
  2617                           
  2618                           
  2619                           ; 1 bytes @ 0x9
  2620  0069                     	ds	1
  2621  006A                     USBCtrlTrfRxService@i:
  2622  006A                     USBCtrlTrfInHandler@lastDTS:	
  2623                           ; 1 bytes @ 0xA
  2624                           
  2625  006A                     USBStdSetCfgHandler@p:	
  2626                           ; 1 bytes @ 0xA
  2627                           
  2628                           
  2629                           ; 2 bytes @ 0xA
  2630  006A                     	ds	1
  2631  006B                     USBCtrlTrfRxService@byteToRead:
  2632  006B                     USBStdFeatureReqHandler@pUEP:	
  2633                           ; 1 bytes @ 0xB
  2634                           
  2635                           
  2636                           ; 2 bytes @ 0xB
  2637  006B                     	ds	1
  2638  006C                     ??_USBCtrlTrfOutHandler:
  2639  006C                     USBStdSetCfgHandler@i_2128:	
  2640                           ; 1 bytes @ 0xC
  2641                           
  2642                           
  2643                           ; 1 bytes @ 0xC
  2644  006C                     	ds	1
  2645  006D                     USBStdSetCfgHandler@i:
  2646  006D                     USBStdFeatureReqHandler@current_ep_data:	
  2647                           ; 1 bytes @ 0xD
  2648                           
  2649                           
  2650                           ; 1 bytes @ 0xD
  2651  006D                     	ds	1
  2652  006E                     USBStdFeatureReqHandler@p:
  2653                           
  2654                           ; 1 bytes @ 0xE
  2655  006E                     	ds	1
  2656  006F                     ??_USBCheckStdRequest:
  2657                           
  2658                           ; 1 bytes @ 0xF
  2659  006F                     	ds	1
  2660                           
  2661                           	psect	maintext
  2662  1ED0                     __pmaintext:	
  2663 ;;
  2664 ;;Main: autosize = 0, tempsize = 0, incstack = 0, save=0
  2665 ;;
  2666 ;; *************** function _main *****************
  2667 ;; Defined at:
  2668 ;;		line 49 in file "../src/main.c"
  2669 ;; Parameters:    Size  Location     Type
  2670 ;;		None
  2671 ;; Auto vars:     Size  Location     Type
  2672 ;;		None
  2673 ;; Return value:  Size  Location     Type
  2674 ;;                  1    wreg      void 
  2675 ;; Registers used:
  2676 ;;		wreg, fsr0l, fsr0h, fsr1l, fsr1h, status,2, status,0, pclath, cstack
  2677 ;; Tracked objects:
  2678 ;;		On entry : B1F/0
  2679 ;;		On exit  : 0/0
  2680 ;;		Unchanged: 0/0
  2681 ;; Data sizes:     COMMON   BANK0   BANK1   BANK2   BANK3   BANK4   BANK5   BANK6   BANK7   BANK8   BANK9  BANK10  BANK1
      +1  BANK12
  2682 ;;      Params:         0       0       0       0       0       0       0       0       0       0       0       0       
      +0       0
  2683 ;;      Locals:         0       0       0       0       0       0       0       0       0       0       0       0       
      +0       0
  2684 ;;      Temps:          0       0       0       0       0       0       0       0       0       0       0       0       
      +0       0
  2685 ;;      Totals:         0       0       0       0       0       0       0       0       0       0       0       0       
      +0       0
  2686 ;;Total ram usage:        0 bytes
  2687 ;; Hardware stack levels required when called:   14
  2688 ;; This function calls:
  2689 ;;		_APP_DeviceCDCEmulatorTasks
  2690 ;;		_SYSTEM_Initialize
  2691 ;;		_USBDeviceAttach
  2692 ;;		_USBDeviceInit
  2693 ;; This function is called by:
  2694 ;;		Startup code after reset
  2695 ;; This function uses a non-reentrant model
  2696 ;;
  2697                           
  2698                           
  2699                           ;psect for function _main
  2700  1ED0                     _main:
  2701  1ED0                     l5375:	
  2702                           ;incstack = 0
  2703                           ; Regs used in _main: [wreg-fsr1h+status,2+status,0+pclath+cstack]
  2704                           
  2705                           
  2706                           ;main.c: 51: SYSTEM_Initialize(SYSTEM_STATE_USB_START);
  2707  1ED0  3000               	movlw	0
  2708  1ED1  319E  26B2  319E   	fcall	_SYSTEM_Initialize
  2709  1ED4                     l5377:
  2710                           
  2711                           ;main.c: 53: USBDeviceInit();
  2712  1ED4  318D  255E  319E   	fcall	_USBDeviceInit
  2713  1ED7                     l5379:
  2714                           
  2715                           ;main.c: 54: USBDeviceAttach();
  2716  1ED7  319F  278E  319E   	fcall	_USBDeviceAttach
  2717  1EDA                     l5381:
  2718                           
  2719                           ;main.c: 57: {;main.c: 58: ;;main.c: 80: if( USBDeviceState < CONFIGURED_STATE )
  2720  1EDA  3020               	movlw	32
  2721  1EDB  0021               	movlb	1	; select bank1
  2722  1EDC  026A               	subwf	_USBDeviceState^(0+128),w	;volatile
  2723  1EDD  1803               	skipnc
  2724  1EDE  2EE0               	goto	u4741
  2725  1EDF  2EE1               	goto	u4740
  2726  1EE0                     u4741:
  2727  1EE0  2EE2               	goto	l132
  2728  1EE1                     u4740:
  2729  1EE1  2EDA               	goto	l5381
  2730  1EE2                     l132:
  2731                           
  2732                           ;main.c: 84: };main.c: 90: if( UCONbits.SUSPND== 1 )
  2733  1EE2  003D               	movlb	29	; select bank29
  2734  1EE3  1C8E               	btfss	14,1	;volatile
  2735  1EE4  2EE6               	goto	u4751
  2736  1EE5  2EE7               	goto	u4750
  2737  1EE6                     u4751:
  2738  1EE6  2EE8               	goto	l5387
  2739  1EE7                     u4750:
  2740  1EE7  2EDA               	goto	l5381
  2741  1EE8                     l5387:
  2742                           
  2743                           ;main.c: 94: };main.c: 97: APP_DeviceCDCEmulatorTasks();
  2744  1EE8  3196  26EB  319E   	fcall	_APP_DeviceCDCEmulatorTasks
  2745  1EEB  2EDA               	goto	l5381
  2746  1EEC  3189  290F         	ljmp	start
  2747  1EEE                     __end_of_main:
  2748                           
  2749                           	psect	text1
  2750  0D5E                     __ptext1:	
  2751 ;; *************** function _USBDeviceInit *****************
  2752 ;; Defined at:
  2753 ;;		line 298 in file "../usb/src/usb_device.c"
  2754 ;; Parameters:    Size  Location     Type
  2755 ;;		None
  2756 ;; Auto vars:     Size  Location     Type
  2757 ;;  p               2    1[BANK2 ] PTR unsigned char 
  2758 ;;		 -> UEP1(1), 
  2759 ;;  i               1    3[BANK2 ] unsigned char 
  2760 ;;  i               1    4[BANK2 ] unsigned char 
  2761 ;; Return value:  Size  Location     Type
  2762 ;;                  1    wreg      void 
  2763 ;; Registers used:
  2764 ;;		wreg, fsr1l, fsr1h, status,2, status,0
  2765 ;; Tracked objects:
  2766 ;;		On entry : 0/0
  2767 ;;		On exit  : 0/0
  2768 ;;		Unchanged: 0/0
  2769 ;; Data sizes:     COMMON   BANK0   BANK1   BANK2   BANK3   BANK4   BANK5   BANK6   BANK7   BANK8   BANK9  BANK10  BANK1
      +1  BANK12
  2770 ;;      Params:         0       0       0       0       0       0       0       0       0       0       0       0       
      +0       0
  2771 ;;      Locals:         0       0       0       4       0       0       0       0       0       0       0       0       
      +0       0
  2772 ;;      Temps:          0       0       0       1       0       0       0       0       0       0       0       0       
      +0       0
  2773 ;;      Totals:         0       0       0       5       0       0       0       0       0       0       0       0       
      +0       0
  2774 ;;Total ram usage:        5 bytes
  2775 ;; Hardware stack levels used:    1
  2776 ;; Hardware stack levels required when called:   11
  2777 ;; This function calls:
  2778 ;;		Nothing
  2779 ;; This function is called by:
  2780 ;;		_main
  2781 ;; This function uses a non-reentrant model
  2782 ;;
  2783                           
  2784                           
  2785                           ;psect for function _USBDeviceInit
  2786  0D5E                     _USBDeviceInit:
  2787  0D5E                     l4171:	
  2788                           ;incstack = 0
  2789                           ; Regs used in _USBDeviceInit: [wreg+fsr1l+fsr1h+status,2+status,0]
  2790                           
  2791                           
  2792                           ;usb_device.c: 300: uint8_t i;;usb_device.c: 302: {PIE2bits.USBIE = 0;};
  2793  0D5E  0021               	movlb	1	; select bank1
  2794  0D5F  1112               	bcf	18,2	;volatile
  2795  0D60                     l4173:
  2796                           
  2797                           ;usb_device.c: 305: {UEIR = 0;};
  2798  0D60  003D               	movlb	29	; select bank29
  2799  0D61  0193               	clrf	19	;volatile
  2800                           
  2801                           ;usb_device.c: 308: {UIR = 0;};
  2802  0D62  0190               	clrf	16	;volatile
  2803                           
  2804                           ;usb_device.c: 311: UEP0 = 0;
  2805  0D63  0198               	clrf	24	;volatile
  2806  0D64                     l4175:
  2807                           
  2808                           ;usb_device.c: 313: { uint8_t i; uint8_t* p = (uint8_t*)&UEP1; for(i=0;i<2;i++) *p++ = 0
      +                          ; };
  2809  0D64  300E               	movlw	14
  2810  0D65  0022               	movlb	2	; select bank2
  2811  0D66  00E2               	movwf	(USBDeviceInit@p+1)^(0+256)
  2812  0D67  3099               	movlw	153
  2813  0D68  00E1               	movwf	USBDeviceInit@p^(0+256)
  2814  0D69  01E3               	clrf	USBDeviceInit@i_1387^(0+256)
  2815  0D6A                     l4181:
  2816  0D6A  0861               	movf	USBDeviceInit@p^(0+256),w
  2817  0D6B  0086               	movwf	6
  2818  0D6C  0862               	movf	(USBDeviceInit@p+1)^(0+256),w
  2819  0D6D  0087               	movwf	7
  2820  0D6E  0181               	clrf	1
  2821  0D6F                     l4183:
  2822  0D6F  3001               	movlw	1
  2823  0D70  07E1               	addwf	USBDeviceInit@p^(0+256),f
  2824  0D71  3000               	movlw	0
  2825  0D72  3DE2               	addwfc	(USBDeviceInit@p+1)^(0+256),f
  2826  0D73                     l4185:
  2827  0D73  3001               	movlw	1
  2828  0D74  00E0               	movwf	??_USBDeviceInit^(0+256)
  2829  0D75  0860               	movf	??_USBDeviceInit^(0+256),w
  2830  0D76  07E3               	addwf	USBDeviceInit@i_1387^(0+256),f
  2831  0D77                     l4187:
  2832  0D77  3002               	movlw	2
  2833  0D78  0263               	subwf	USBDeviceInit@i_1387^(0+256),w
  2834  0D79  1C03               	skipc
  2835  0D7A  2D7C               	goto	u3251
  2836  0D7B  2D7D               	goto	u3250
  2837  0D7C                     u3251:
  2838  0D7C  2D6A               	goto	l4181
  2839  0D7D                     u3250:
  2840  0D7D                     l4189:
  2841                           
  2842                           ;usb_device.c: 315: { UCFG = 0x10 | 0x00 | 0x04 | 0x02; UEIE = 0x9F; UIE = 0x39 | 0x40 |
      +                           0x02; };
  2843  0D7D  3016               	movlw	22
  2844  0D7E  003D               	movlb	29	; select bank29
  2845  0D7F  0091               	movwf	17	;volatile
  2846  0D80  309F               	movlw	159
  2847  0D81  0097               	movwf	23	;volatile
  2848  0D82  307B               	movlw	123
  2849  0D83  0092               	movwf	18	;volatile
  2850  0D84                     l4191:
  2851                           
  2852                           ;usb_device.c: 318: ;;usb_device.c: 321: ;;usb_device.c: 324: for(i=0;i<(sizeof(BDT)/siz
      +                          eof(BDT_ENTRY));i++)
  2853  0D84  0022               	movlb	2	; select bank2
  2854  0D85  01E4               	clrf	USBDeviceInit@i^(0+256)
  2855  0D86                     l4197:
  2856                           
  2857                           ;usb_device.c: 325: {;usb_device.c: 326: BDT[i].Val = 0x00;
  2858  0D86  0864               	movf	USBDeviceInit@i^(0+256),w
  2859  0D87  00E0               	movwf	??_USBDeviceInit^(0+256)
  2860  0D88  3001               	movlw	1
  2861  0D89                     u3265:
  2862  0D89  35E0               	lslf	??_USBDeviceInit^(0+256),f
  2863  0D8A  3EFF               	addlw	-1
  2864  0D8B  1D03               	skipz
  2865  0D8C  2D89               	goto	u3265
  2866  0D8D  3560               	lslf	??_USBDeviceInit^(0+256),w
  2867  0D8E  3E20               	addlw	32
  2868  0D8F  0086               	movwf	6
  2869  0D90  0187               	clrf	7
  2870  0D91  3000               	movlw	0
  2871  0D92  3FC0               	movwi [0]fsr1
  2872  0D93  3000               	movlw	0
  2873  0D94  3FC1               	movwi [1]fsr1
  2874  0D95  3FC2               	movwi [2]fsr1
  2875  0D96  3FC3               	movwi [3]fsr1
  2876  0D97                     l4199:
  2877  0D97  3001               	movlw	1
  2878  0D98  00E0               	movwf	??_USBDeviceInit^(0+256)
  2879  0D99  0860               	movf	??_USBDeviceInit^(0+256),w
  2880  0D9A  07E4               	addwf	USBDeviceInit@i^(0+256),f
  2881  0D9B                     l4201:
  2882  0D9B  300C               	movlw	12
  2883  0D9C  0264               	subwf	USBDeviceInit@i^(0+256),w
  2884  0D9D  1C03               	skipc
  2885  0D9E  2DA0               	goto	u3271
  2886  0D9F  2DA1               	goto	u3270
  2887  0DA0                     u3271:
  2888  0DA0  2D86               	goto	l4197
  2889  0DA1                     u3270:
  2890  0DA1                     l450:
  2891                           
  2892                           ;usb_device.c: 327: };usb_device.c: 330: UCONbits.PPBRST = 1;
  2893  0DA1  003D               	movlb	29	; select bank29
  2894  0DA2  170E               	bsf	14,6	;volatile
  2895  0DA3                     l4203:
  2896                           
  2897                           ;usb_device.c: 333: UADDR = 0x00;
  2898  0DA3  0196               	clrf	22	;volatile
  2899  0DA4                     l4205:
  2900                           
  2901                           ;usb_device.c: 336: UCONbits.PKTDIS = 0;
  2902  0DA4  120E               	bcf	14,4	;volatile
  2903  0DA5                     l4207:
  2904                           
  2905                           ;usb_device.c: 339: UCONbits.PPBRST = 0;
  2906  0DA5  130E               	bcf	14,6	;volatile
  2907                           
  2908                           ;usb_device.c: 342: while(UIRbits.TRNIF == 1)
  2909  0DA6  2DB2               	goto	l4217
  2910  0DA7                     l4209:
  2911                           
  2912                           ;usb_device.c: 343: {;usb_device.c: 344: (UIR &= 0xF7);
  2913  0DA7  30F7               	movlw	247
  2914  0DA8  0022               	movlb	2	; select bank2
  2915  0DA9  00E0               	movwf	??_USBDeviceInit^(0+256)
  2916  0DAA  0860               	movf	??_USBDeviceInit^(0+256),w
  2917  0DAB  003D               	movlb	29	; select bank29
  2918  0DAC  0590               	andwf	16,f	;volatile
  2919  0DAD                     l4211:
  2920                           
  2921                           ;usb_device.c: 346: inPipes[0].info.Val = 0;
  2922  0DAD  0023               	movlb	3	; select bank3
  2923  0DAE  01A9               	clrf	(_inPipes^(0+384)+2)	;volatile
  2924  0DAF                     l4213:
  2925                           
  2926                           ;usb_device.c: 347: outPipes[0].info.Val = 0;
  2927  0DAF  01A2               	clrf	(_outPipes^(0+384)+2)	;volatile
  2928  0DB0                     l4215:
  2929                           
  2930                           ;usb_device.c: 348: outPipes[0].wCount.Val = 0;
  2931  0DB0  01A3               	clrf	(_outPipes^(0+384)+3)	;volatile
  2932  0DB1  01A4               	clrf	((_outPipes+1)^(0+384)+3)	;volatile
  2933  0DB2                     l4217:
  2934  0DB2  003D               	movlb	29	; select bank29
  2935  0DB3  1990               	btfsc	16,3	;volatile
  2936  0DB4  2DB6               	goto	u3281
  2937  0DB5  2DB7               	goto	u3280
  2938  0DB6                     u3281:
  2939  0DB6  2DA7               	goto	l4209
  2940  0DB7                     u3280:
  2941  0DB7                     l4219:
  2942                           
  2943                           ;usb_device.c: 349: };usb_device.c: 353: USBStatusStageEnabledFlag1 = 1;
  2944  0DB7  3001               	movlw	1
  2945  0DB8  0022               	movlb	2	; select bank2
  2946  0DB9  00E0               	movwf	??_USBDeviceInit^(0+256)
  2947  0DBA  0860               	movf	??_USBDeviceInit^(0+256),w
  2948  0DBB  0023               	movlb	3	; select bank3
  2949  0DBC  00CB               	movwf	_USBStatusStageEnabledFlag1^(0+384)	;volatile
  2950                           
  2951                           ;usb_device.c: 354: USBStatusStageEnabledFlag2 = 1;
  2952  0DBD  3001               	movlw	1
  2953  0DBE  0022               	movlb	2	; select bank2
  2954  0DBF  00E0               	movwf	??_USBDeviceInit^(0+256)
  2955  0DC0  0860               	movf	??_USBDeviceInit^(0+256),w
  2956  0DC1  0023               	movlb	3	; select bank3
  2957  0DC2  00CA               	movwf	_USBStatusStageEnabledFlag2^(0+384)	;volatile
  2958  0DC3                     l4221:
  2959                           
  2960                           ;usb_device.c: 356: USBDeferINDataStagePackets = 0;
  2961  0DC3  01C9               	clrf	_USBDeferINDataStagePackets^(0+384)	;volatile
  2962  0DC4                     l4223:
  2963                           
  2964                           ;usb_device.c: 357: USBDeferOUTDataStagePackets = 0;
  2965  0DC4  01C8               	clrf	_USBDeferOUTDataStagePackets^(0+384)	;volatile
  2966  0DC5                     l4225:
  2967                           
  2968                           ;usb_device.c: 358: USBBusIsSuspended = 0;
  2969  0DC5  01D0               	clrf	_USBBusIsSuspended^(0+384)	;volatile
  2970  0DC6                     l4227:
  2971                           
  2972                           ;usb_device.c: 362: for(i = 0; i < (uint8_t)(2+1u); i++)
  2973  0DC6  0022               	movlb	2	; select bank2
  2974  0DC7  01E4               	clrf	USBDeviceInit@i^(0+256)
  2975  0DC8                     l4231:
  2976                           
  2977                           ;usb_device.c: 363: {;usb_device.c: 364: pBDTEntryIn[i] = 0u;
  2978  0DC8  0864               	movf	USBDeviceInit@i^(0+256),w
  2979  0DC9  3EB6               	addlw	(low (_pBDTEntryIn| (0+256)))& (0+255)
  2980  0DCA  0086               	movwf	6
  2981  0DCB  3001               	movlw	1	; select bank3/4
  2982  0DCC  0087               	movwf	7
  2983  0DCD  0181               	clrf	1
  2984                           
  2985                           ;usb_device.c: 365: pBDTEntryOut[i] = 0u;
  2986  0DCE  0864               	movf	USBDeviceInit@i^(0+256),w
  2987  0DCF  3EB9               	addlw	(low (_pBDTEntryOut| (0+256)))& (0+255)
  2988  0DD0  0086               	movwf	6
  2989  0DD1  3001               	movlw	1	; select bank3/4
  2990  0DD2  0087               	movwf	7
  2991  0DD3  0181               	clrf	1
  2992                           
  2993                           ;usb_device.c: 366: ep_data_in[i].Val = 0u;
  2994  0DD4  0864               	movf	USBDeviceInit@i^(0+256),w
  2995  0DD5  3EB3               	addlw	(low (_ep_data_in| (0+256)))& (0+255)
  2996  0DD6  0086               	movwf	6
  2997  0DD7  3001               	movlw	1	; select bank3/4
  2998  0DD8  0087               	movwf	7
  2999  0DD9  0181               	clrf	1
  3000                           
  3001                           ;usb_device.c: 367: ep_data_out[i].Val = 0u;
  3002  0DDA  0864               	movf	USBDeviceInit@i^(0+256),w
  3003  0DDB  3EB0               	addlw	(low (_ep_data_out| (0+256)))& (0+255)
  3004  0DDC  0086               	movwf	6
  3005  0DDD  3001               	movlw	1	; select bank3/4
  3006  0DDE  0087               	movwf	7
  3007  0DDF  0181               	clrf	1
  3008  0DE0                     l4233:
  3009  0DE0  3001               	movlw	1
  3010  0DE1  00E0               	movwf	??_USBDeviceInit^(0+256)
  3011  0DE2  0860               	movf	??_USBDeviceInit^(0+256),w
  3012  0DE3  07E4               	addwf	USBDeviceInit@i^(0+256),f
  3013  0DE4                     l4235:
  3014  0DE4  3003               	movlw	3
  3015  0DE5  0264               	subwf	USBDeviceInit@i^(0+256),w
  3016  0DE6  1C03               	skipc
  3017  0DE7  2DE9               	goto	u3291
  3018  0DE8  2DEA               	goto	u3290
  3019  0DE9                     u3291:
  3020  0DE9  2DC8               	goto	l4231
  3021  0DEA                     u3290:
  3022  0DEA                     l4237:
  3023                           
  3024                           ;usb_device.c: 368: };usb_device.c: 371: pBDTEntryIn[0] = (volatile BDT_ENTRY*)&BDT[2];
  3025  0DEA  3028               	movlw	40
  3026  0DEB  00E0               	movwf	??_USBDeviceInit^(0+256)
  3027  0DEC  0860               	movf	??_USBDeviceInit^(0+256),w
  3028  0DED  0023               	movlb	3	; select bank3
  3029  0DEE  00B6               	movwf	_pBDTEntryIn^(0+384)
  3030                           
  3031                           ;usb_device.c: 373: UEP0 = 0x06|0x10;
  3032  0DEF  3016               	movlw	22
  3033  0DF0  003D               	movlb	29	; select bank29
  3034  0DF1  0098               	movwf	24	;volatile
  3035  0DF2                     l4239:
  3036                           
  3037                           ;usb_device.c: 375: BDT[0].ADR = (((uint16_t)(&SetupPkt)) & 0x7FFF);
  3038  0DF2  3000               	movlw	0
  3039  0DF3  0020               	movlb	0	; select bank0
  3040  0DF4  00A3               	movwf	35	;volatile
  3041  0DF5  3050               	movlw	80
  3042  0DF6  00A2               	movwf	34	;volatile
  3043  0DF7                     l4241:
  3044                           
  3045                           ;usb_device.c: 376: BDT[0].CNT = 8;
  3046  0DF7  3008               	movlw	8
  3047  0DF8  00A1               	movwf	33	;volatile
  3048                           
  3049                           ;usb_device.c: 377: BDT[0].STAT.Val = 0x00|0x04;
  3050  0DF9  3004               	movlw	4
  3051  0DFA  0022               	movlb	2	; select bank2
  3052  0DFB  00E0               	movwf	??_USBDeviceInit^(0+256)
  3053  0DFC  0860               	movf	??_USBDeviceInit^(0+256),w
  3054  0DFD  0020               	movlb	0	; select bank0
  3055  0DFE  00A0               	movwf	32	;volatile
  3056  0DFF                     l4243:
  3057                           
  3058                           ;usb_device.c: 378: BDT[0].STAT.Val |= 0x80;
  3059  0DFF  17A0               	bsf	32,7	;volatile
  3060  0E00                     l4245:
  3061                           
  3062                           ;usb_device.c: 381: USBActiveConfiguration = 0;
  3063  0E00  0023               	movlb	3	; select bank3
  3064  0E01  01EE               	clrf	_USBActiveConfiguration^(0+384)	;volatile
  3065  0E02                     l4247:
  3066                           
  3067                           ;usb_device.c: 384: USBDeviceState = DETACHED_STATE;
  3068  0E02  0021               	movlb	1	; select bank1
  3069  0E03  01EA               	clrf	_USBDeviceState^(0+128)	;volatile
  3070  0E04                     l456:
  3071  0E04  0008               	return
  3072  0E05                     __end_of_USBDeviceInit:
  3073                           
  3074                           	psect	text2
  3075  1F8E                     __ptext2:	
  3076 ;; *************** function _USBDeviceAttach *****************
  3077 ;; Defined at:
  3078 ;;		line 1352 in file "../usb/src/usb_device.c"
  3079 ;; Parameters:    Size  Location     Type
  3080 ;;		None
  3081 ;; Auto vars:     Size  Location     Type
  3082 ;;		None
  3083 ;; Return value:  Size  Location     Type
  3084 ;;                  1    wreg      void 
  3085 ;; Registers used:
  3086 ;;		wreg, status,2, status,0
  3087 ;; Tracked objects:
  3088 ;;		On entry : 0/0
  3089 ;;		On exit  : 0/0
  3090 ;;		Unchanged: 0/0
  3091 ;; Data sizes:     COMMON   BANK0   BANK1   BANK2   BANK3   BANK4   BANK5   BANK6   BANK7   BANK8   BANK9  BANK10  BANK1
      +1  BANK12
  3092 ;;      Params:         0       0       0       0       0       0       0       0       0       0       0       0       
      +0       0
  3093 ;;      Locals:         0       0       0       0       0       0       0       0       0       0       0       0       
      +0       0
  3094 ;;      Temps:          0       0       0       1       0       0       0       0       0       0       0       0       
      +0       0
  3095 ;;      Totals:         0       0       0       1       0       0       0       0       0       0       0       0       
      +0       0
  3096 ;;Total ram usage:        1 bytes
  3097 ;; Hardware stack levels used:    1
  3098 ;; Hardware stack levels required when called:   11
  3099 ;; This function calls:
  3100 ;;		Nothing
  3101 ;; This function is called by:
  3102 ;;		_main
  3103 ;; This function uses a non-reentrant model
  3104 ;;
  3105                           
  3106                           
  3107                           ;psect for function _USBDeviceAttach
  3108  1F8E                     _USBDeviceAttach:
  3109  1F8E                     l4249:	
  3110                           ;incstack = 0
  3111                           ; Regs used in _USBDeviceAttach: [wreg+status,2+status,0]
  3112                           
  3113                           
  3114                           ;usb_device.c: 1356: {;usb_device.c: 1357: if(1 == 1)
  3115  1F8E  0021               	movlb	1	; select bank1
  3116  1F8F  086A               	movf	_USBDeviceState^(0+128),w	;volatile
  3117  1F90  1D03               	btfss	3,2
  3118  1F91  2F93               	goto	u3301
  3119  1F92  2F94               	goto	u3300
  3120  1F93                     u3301:
  3121  1F93  2FAE               	goto	l514
  3122  1F94                     u3300:
  3123  1F94                     l4251:
  3124                           
  3125                           ;usb_device.c: 1358: {;usb_device.c: 1360: UCON = 0;
  3126  1F94  003D               	movlb	29	; select bank29
  3127  1F95  018E               	clrf	14	;volatile
  3128                           
  3129                           ;usb_device.c: 1363: UIE = 0;
  3130  1F96  0192               	clrf	18	;volatile
  3131  1F97                     l4253:
  3132                           
  3133                           ;usb_device.c: 1367: { UCFG = 0x10 | 0x00 | 0x04 | 0x02; UEIE = 0x9F; UIE = 0x39 | 0x40 
      +                          | 0x02; };
  3134  1F97  3016               	movlw	22
  3135  1F98  0091               	movwf	17	;volatile
  3136  1F99                     l4255:
  3137  1F99  309F               	movlw	159
  3138  1F9A  0097               	movwf	23	;volatile
  3139  1F9B                     l4257:
  3140  1F9B  307B               	movlw	123
  3141  1F9C  0092               	movwf	18	;volatile
  3142  1F9D                     l4259:
  3143                           
  3144                           ;usb_device.c: 1369: {PIE2bits.USBIE = 1;INTCONbits.PEIE = 1; INTCONbits.GIE = 1;};
  3145  1F9D  0021               	movlb	1	; select bank1
  3146  1F9E  1512               	bsf	18,2	;volatile
  3147  1F9F                     l4261:
  3148  1F9F  170B               	bsf	11,6	;volatile
  3149  1FA0                     l4263:
  3150  1FA0  178B               	bsf	11,7	;volatile
  3151                           
  3152                           ;usb_device.c: 1372: while(!UCONbits.USBEN){UCONbits.USBEN = 1;}
  3153  1FA1  2FA3               	goto	l511
  3154  1FA2                     l512:
  3155  1FA2  158E               	bsf	14,3	;volatile
  3156  1FA3                     l511:
  3157  1FA3  003D               	movlb	29	; select bank29
  3158  1FA4  1D8E               	btfss	14,3	;volatile
  3159  1FA5  2FA7               	goto	u3311
  3160  1FA6  2FA8               	goto	u3310
  3161  1FA7                     u3311:
  3162  1FA7  2FA2               	goto	l512
  3163  1FA8                     u3310:
  3164  1FA8                     l4265:
  3165                           
  3166                           ;usb_device.c: 1375: USBDeviceState = ATTACHED_STATE;
  3167  1FA8  3001               	movlw	1
  3168  1FA9  0022               	movlb	2	; select bank2
  3169  1FAA  00E0               	movwf	??_USBDeviceAttach^(0+256)
  3170  1FAB  0860               	movf	??_USBDeviceAttach^(0+256),w
  3171  1FAC  0021               	movlb	1	; select bank1
  3172  1FAD  00EA               	movwf	_USBDeviceState^(0+128)	;volatile
  3173  1FAE                     l514:
  3174  1FAE  0008               	return
  3175  1FAF                     __end_of_USBDeviceAttach:
  3176                           
  3177                           	psect	text3
  3178  1EB2                     __ptext3:	
  3179 ;; *************** function _SYSTEM_Initialize *****************
  3180 ;; Defined at:
  3181 ;;		line 86 in file "../src/system_config/system.c"
  3182 ;; Parameters:    Size  Location     Type
  3183 ;;  state           1    wreg     enum E2197
  3184 ;; Auto vars:     Size  Location     Type
  3185 ;;  state           1    1[BANK2 ] enum E2197
  3186 ;; Return value:  Size  Location     Type
  3187 ;;                  1    wreg      void 
  3188 ;; Registers used:
  3189 ;;		wreg, fsr0l, fsr0h, status,2, status,0, pclath, cstack
  3190 ;; Tracked objects:
  3191 ;;		On entry : 0/0
  3192 ;;		On exit  : 0/0
  3193 ;;		Unchanged: 0/0
  3194 ;; Data sizes:     COMMON   BANK0   BANK1   BANK2   BANK3   BANK4   BANK5   BANK6   BANK7   BANK8   BANK9  BANK10  BANK1
      +1  BANK12
  3195 ;;      Params:         0       0       0       0       0       0       0       0       0       0       0       0       
      +0       0
  3196 ;;      Locals:         0       0       0       1       0       0       0       0       0       0       0       0       
      +0       0
  3197 ;;      Temps:          0       0       0       0       0       0       0       0       0       0       0       0       
      +0       0
  3198 ;;      Totals:         0       0       0       1       0       0       0       0       0       0       0       0       
      +0       0
  3199 ;;Total ram usage:        1 bytes
  3200 ;; Hardware stack levels used:    1
  3201 ;; Hardware stack levels required when called:   12
  3202 ;; This function calls:
  3203 ;;		_BUTTON_Enable
  3204 ;;		_LED_Enable
  3205 ;; This function is called by:
  3206 ;;		_main
  3207 ;; This function uses a non-reentrant model
  3208 ;;
  3209                           
  3210                           
  3211                           ;psect for function _SYSTEM_Initialize
  3212  1EB2                     _SYSTEM_Initialize:
  3213                           
  3214                           ;incstack = 0
  3215                           ; Regs used in _SYSTEM_Initialize: [wreg-fsr0h+status,2+status,0+pclath+cstack]
  3216                           ;SYSTEM_Initialize@state stored from wreg
  3217  1EB2  0022               	movlb	2	; select bank2
  3218  1EB3  00E1               	movwf	SYSTEM_Initialize@state^(0+256)
  3219  1EB4                     l5213:
  3220                           
  3221                           ;system.c: 88: switch(state)
  3222  1EB4  2EC4               	goto	l5223
  3223  1EB5                     l5215:
  3224                           
  3225                           ;system.c: 94: OSCCON = 0xFC;
  3226  1EB5  30FC               	movlw	252
  3227  1EB6  0021               	movlb	1	; select bank1
  3228  1EB7  0099               	movwf	25	;volatile
  3229                           
  3230                           ;system.c: 95: ACTCON = 0x90;
  3231  1EB8  3090               	movlw	144
  3232  1EB9  0027               	movlb	7	; select bank7
  3233  1EBA  009B               	movwf	27	;volatile
  3234  1EBB                     l5217:
  3235                           
  3236                           ;system.c: 97: LED_Enable(LED_D1);
  3237  1EBB  3001               	movlw	1
  3238  1EBC  319F  276D  319E   	fcall	_LED_Enable
  3239  1EBF                     l5219:
  3240                           
  3241                           ;system.c: 98: BUTTON_Enable(BUTTON_S1);
  3242  1EBF  3001               	movlw	1
  3243  1EC0  319E  2658  319E   	fcall	_BUTTON_Enable
  3244                           
  3245                           ;system.c: 99: break;
  3246  1EC3  2ECF               	goto	l18
  3247  1EC4                     l5223:
  3248  1EC4  0861               	movf	SYSTEM_Initialize@state^(0+256),w
  3249                           
  3250                           ; Switch size 1, requested type "simple"
  3251                           ; Number of cases is 3, Range of values is 0 to 2
  3252                           ; switch strategies available:
  3253                           ; Name         Instructions Cycles
  3254                           ; simple_byte           10     6 (average)
  3255                           ; direct_byte           12     6 (fixed)
  3256                           ; jumptable            260     6 (fixed)
  3257                           ;	Chosen strategy is simple_byte
  3258  1EC5  3A00               	xorlw	0	; case 0
  3259  1EC6  1903               	skipnz
  3260  1EC7  2EB5               	goto	l5215
  3261  1EC8  3A01               	xorlw	1	; case 1
  3262  1EC9  1903               	skipnz
  3263  1ECA  2ECF               	goto	l18
  3264  1ECB  3A03               	xorlw	3	; case 2
  3265  1ECC  1903               	skipnz
  3266  1ECD  2ECF               	goto	l18
  3267  1ECE  2ECF               	goto	l18
  3268  1ECF                     l18:
  3269  1ECF  0008               	return
  3270  1ED0                     __end_of_SYSTEM_Initialize:
  3271                           
  3272                           	psect	text4
  3273  1F6D                     __ptext4:	
  3274 ;; *************** function _LED_Enable *****************
  3275 ;; Defined at:
  3276 ;;		line 220 in file "../bsp/leds.c"
  3277 ;; Parameters:    Size  Location     Type
  3278 ;;  led             1    wreg     enum E2
  3279 ;; Auto vars:     Size  Location     Type
  3280 ;;  led             1    0[BANK2 ] enum E2
  3281 ;; Return value:  Size  Location     Type
  3282 ;;                  1    wreg      void 
  3283 ;; Registers used:
  3284 ;;		wreg, fsr0l, fsr0h, status,2, status,0
  3285 ;; Tracked objects:
  3286 ;;		On entry : 0/0
  3287 ;;		On exit  : 0/0
  3288 ;;		Unchanged: 0/0
  3289 ;; Data sizes:     COMMON   BANK0   BANK1   BANK2   BANK3   BANK4   BANK5   BANK6   BANK7   BANK8   BANK9  BANK10  BANK1
      +1  BANK12
  3290 ;;      Params:         0       0       0       0       0       0       0       0       0       0       0       0       
      +0       0
  3291 ;;      Locals:         0       0       0       1       0       0       0       0       0       0       0       0       
      +0       0
  3292 ;;      Temps:          0       0       0       0       0       0       0       0       0       0       0       0       
      +0       0
  3293 ;;      Totals:         0       0       0       1       0       0       0       0       0       0       0       0       
      +0       0
  3294 ;;Total ram usage:        1 bytes
  3295 ;; Hardware stack levels used:    1
  3296 ;; Hardware stack levels required when called:   11
  3297 ;; This function calls:
  3298 ;;		Nothing
  3299 ;; This function is called by:
  3300 ;;		_SYSTEM_Initialize
  3301 ;; This function uses a non-reentrant model
  3302 ;;
  3303                           
  3304                           
  3305                           ;psect for function _LED_Enable
  3306  1F6D                     _LED_Enable:
  3307                           
  3308                           ;incstack = 0
  3309                           ; Regs used in _LED_Enable: [wreg-fsr0h+status,2+status,0]
  3310                           ;LED_Enable@led stored from wreg
  3311  1F6D  0022               	movlb	2	; select bank2
  3312  1F6E  00E0               	movwf	LED_Enable@led^(0+256)
  3313  1F6F                     l5143:
  3314                           
  3315                           ;leds.c: 222: switch(led)
  3316  1F6F  2F7C               	goto	l5147
  3317  1F70                     l276:	
  3318                           ;leds.c: 223: {;leds.c: 224: case LED_D1:
  3319                           
  3320                           
  3321                           ;leds.c: 225: TRISCbits.TRISC0 = 0;
  3322  1F70  0021               	movlb	1	; select bank1
  3323  1F71  100E               	bcf	14,0	;volatile
  3324                           
  3325                           ;leds.c: 226: break;
  3326  1F72  2F8D               	goto	l282
  3327  1F73                     l278:	
  3328                           ;leds.c: 228: case LED_D2:
  3329                           
  3330                           
  3331                           ;leds.c: 229: TRISCbits.TRISC1 = 0;
  3332  1F73  0021               	movlb	1	; select bank1
  3333  1F74  108E               	bcf	14,1	;volatile
  3334                           
  3335                           ;leds.c: 230: break;
  3336  1F75  2F8D               	goto	l282
  3337  1F76                     l279:	
  3338                           ;leds.c: 232: case LED_D3:
  3339                           
  3340                           
  3341                           ;leds.c: 233: TRISCbits.TRISC2 = 0;
  3342  1F76  0021               	movlb	1	; select bank1
  3343  1F77  110E               	bcf	14,2	;volatile
  3344                           
  3345                           ;leds.c: 234: break;
  3346  1F78  2F8D               	goto	l282
  3347  1F79                     l280:	
  3348                           ;leds.c: 236: case LED_D4:
  3349                           
  3350                           
  3351                           ;leds.c: 237: TRISCbits.TRISC3 = 0;
  3352  1F79  0021               	movlb	1	; select bank1
  3353  1F7A  118E               	bcf	14,3	;volatile
  3354                           
  3355                           ;leds.c: 238: break;
  3356  1F7B  2F8D               	goto	l282
  3357  1F7C                     l5147:
  3358  1F7C  0860               	movf	LED_Enable@led^(0+256),w
  3359                           
  3360                           ; Switch size 1, requested type "simple"
  3361                           ; Number of cases is 5, Range of values is 0 to 4
  3362                           ; switch strategies available:
  3363                           ; Name         Instructions Cycles
  3364                           ; direct_byte           16     6 (fixed)
  3365                           ; simple_byte           16     9 (average)
  3366                           ; jumptable            260     6 (fixed)
  3367                           ;	Chosen strategy is simple_byte
  3368  1F7D  3A00               	xorlw	0	; case 0
  3369  1F7E  1903               	skipnz
  3370  1F7F  2F8D               	goto	l282
  3371  1F80  3A01               	xorlw	1	; case 1
  3372  1F81  1903               	skipnz
  3373  1F82  2F70               	goto	l276
  3374  1F83  3A03               	xorlw	3	; case 2
  3375  1F84  1903               	skipnz
  3376  1F85  2F73               	goto	l278
  3377  1F86  3A01               	xorlw	1	; case 3
  3378  1F87  1903               	skipnz
  3379  1F88  2F76               	goto	l279
  3380  1F89  3A07               	xorlw	7	; case 4
  3381  1F8A  1903               	skipnz
  3382  1F8B  2F79               	goto	l280
  3383  1F8C  2F8D               	goto	l282
  3384  1F8D                     l282:
  3385  1F8D  0008               	return
  3386  1F8E                     __end_of_LED_Enable:
  3387                           
  3388                           	psect	text5
  3389  1E58                     __ptext5:	
  3390 ;; *************** function _BUTTON_Enable *****************
  3391 ;; Defined at:
  3392 ;;		line 85 in file "../bsp/buttons.c"
  3393 ;; Parameters:    Size  Location     Type
  3394 ;;  button          1    wreg     enum E2159
  3395 ;; Auto vars:     Size  Location     Type
  3396 ;;  button          1    0[BANK2 ] enum E2159
  3397 ;; Return value:  Size  Location     Type
  3398 ;;                  1    wreg      void 
  3399 ;; Registers used:
  3400 ;;		wreg, fsr0l, fsr0h, status,2, status,0
  3401 ;; Tracked objects:
  3402 ;;		On entry : 0/0
  3403 ;;		On exit  : 0/0
  3404 ;;		Unchanged: 0/0
  3405 ;; Data sizes:     COMMON   BANK0   BANK1   BANK2   BANK3   BANK4   BANK5   BANK6   BANK7   BANK8   BANK9  BANK10  BANK1
      +1  BANK12
  3406 ;;      Params:         0       0       0       0       0       0       0       0       0       0       0       0       
      +0       0
  3407 ;;      Locals:         0       0       0       1       0       0       0       0       0       0       0       0       
      +0       0
  3408 ;;      Temps:          0       0       0       0       0       0       0       0       0       0       0       0       
      +0       0
  3409 ;;      Totals:         0       0       0       1       0       0       0       0       0       0       0       0       
      +0       0
  3410 ;;Total ram usage:        1 bytes
  3411 ;; Hardware stack levels used:    1
  3412 ;; Hardware stack levels required when called:   11
  3413 ;; This function calls:
  3414 ;;		Nothing
  3415 ;; This function is called by:
  3416 ;;		_SYSTEM_Initialize
  3417 ;; This function uses a non-reentrant model
  3418 ;;
  3419                           
  3420                           
  3421                           ;psect for function _BUTTON_Enable
  3422  1E58                     _BUTTON_Enable:
  3423                           
  3424                           ;incstack = 0
  3425                           ; Regs used in _BUTTON_Enable: [wreg-fsr0h+status,2+status,0]
  3426                           ;BUTTON_Enable@button stored from wreg
  3427  1E58  0022               	movlb	2	; select bank2
  3428  1E59  00E0               	movwf	BUTTON_Enable@button^(0+256)
  3429  1E5A                     l5149:
  3430  1E5A                     l5153:	
  3431                           ;buttons.c: 87: switch(button)
  3432                           
  3433  1E5A  0860               	movf	BUTTON_Enable@button^(0+256),w
  3434                           
  3435                           ; Switch size 1, requested type "simple"
  3436                           ; Number of cases is 2, Range of values is 0 to 1
  3437                           ; switch strategies available:
  3438                           ; Name         Instructions Cycles
  3439                           ; simple_byte            7     4 (average)
  3440                           ; direct_byte           10     6 (fixed)
  3441                           ; jumptable            260     6 (fixed)
  3442                           ;	Chosen strategy is simple_byte
  3443  1E5B  3A00               	xorlw	0	; case 0
  3444  1E5C  1903               	skipnz
  3445  1E5D  2E62               	goto	l228
  3446  1E5E  3A01               	xorlw	1	; case 1
  3447  1E5F  1903               	skipnz
  3448  1E60  2E62               	goto	l228
  3449  1E61  2E62               	goto	l228
  3450  1E62                     l228:
  3451  1E62  0008               	return
  3452  1E63                     __end_of_BUTTON_Enable:
  3453                           
  3454                           	psect	text6
  3455  16EB                     __ptext6:	
  3456 ;; *************** function _APP_DeviceCDCEmulatorTasks *****************
  3457 ;; Defined at:
  3458 ;;		line 106 in file "../src/app_device_cdc_basic.c"
  3459 ;; Parameters:    Size  Location     Type
  3460 ;;		None
  3461 ;; Auto vars:     Size  Location     Type
  3462 ;;		None
  3463 ;; Return value:  Size  Location     Type
  3464 ;;                  1    wreg      void 
  3465 ;; Registers used:
  3466 ;;		wreg, fsr1l, fsr1h, status,2, status,0, pclath, cstack
  3467 ;; Tracked objects:
  3468 ;;		On entry : 0/0
  3469 ;;		On exit  : 0/0
  3470 ;;		Unchanged: 0/0
  3471 ;; Data sizes:     COMMON   BANK0   BANK1   BANK2   BANK3   BANK4   BANK5   BANK6   BANK7   BANK8   BANK9  BANK10  BANK1
      +1  BANK12
  3472 ;;      Params:         0       0       0       0       0       0       0       0       0       0       0       0       
      +0       0
  3473 ;;      Locals:         0       0       0       0       0       0       0       0       0       0       0       0       
      +0       0
  3474 ;;      Temps:          0       0       0       2       0       0       0       0       0       0       0       0       
      +0       0
  3475 ;;      Totals:         0       0       0       2       0       0       0       0       0       0       0       0       
      +0       0
  3476 ;;Total ram usage:        2 bytes
  3477 ;; Hardware stack levels used:    1
  3478 ;; Hardware stack levels required when called:   13
  3479 ;; This function calls:
  3480 ;;		_CDCTxService
  3481 ;;		_USART_getcUSART
  3482 ;;		_USART_putcUSART
  3483 ;;		_getsUSBUSART
  3484 ;;		_putUSBUSART
  3485 ;; This function is called by:
  3486 ;;		_main
  3487 ;; This function uses a non-reentrant model
  3488 ;;
  3489                           
  3490                           
  3491                           ;psect for function _APP_DeviceCDCEmulatorTasks
  3492  16EB                     _APP_DeviceCDCEmulatorTasks:
  3493  16EB                     l5327:	
  3494                           ;incstack = 0
  3495                           ; Regs used in _APP_DeviceCDCEmulatorTasks: [wreg+fsr1l+fsr1h+status,2+status,0+pclath+c
      +                          stack]
  3496                           
  3497                           
  3498                           ;app_device_cdc_basic.c: 109: if((USBDeviceState < CONFIGURED_STATE)||(UCONbits.SUSPND==
      +                          1)) return;
  3499  16EB  3020               	movlw	32
  3500  16EC  0021               	movlb	1	; select bank1
  3501  16ED  026A               	subwf	_USBDeviceState^(0+128),w	;volatile
  3502  16EE  1C03               	skipc
  3503  16EF  2EF1               	goto	u4631
  3504  16F0  2EF2               	goto	u4630
  3505  16F1                     u4631:
  3506  16F1  2F71               	goto	l74
  3507  16F2                     u4630:
  3508  16F2                     l5329:
  3509  16F2  003D               	movlb	29	; select bank29
  3510  16F3  1C8E               	btfss	14,1	;volatile
  3511  16F4  2EF6               	goto	u4641
  3512  16F5  2EF7               	goto	u4640
  3513  16F6                     u4641:
  3514  16F6  2EF8               	goto	l5331
  3515  16F7                     u4640:
  3516  16F7  2F71               	goto	l74
  3517  16F8                     l5331:
  3518                           
  3519                           ;app_device_cdc_basic.c: 111: if (RS232_Out_Data_Rdy == 0)
  3520  16F8  0023               	movlb	3	; select bank3
  3521  16F9  0856               	movf	_RS232_Out_Data_Rdy^(0+384),w
  3522  16FA  1D03               	btfss	3,2
  3523  16FB  2EFD               	goto	u4651
  3524  16FC  2EFE               	goto	u4650
  3525  16FD                     u4651:
  3526  16FD  2F14               	goto	l5341
  3527  16FE                     u4650:
  3528  16FE                     l5333:
  3529                           
  3530                           ;app_device_cdc_basic.c: 112: {;app_device_cdc_basic.c: 113: LastRS232Out = getsUSBUSART
      +                          (RS232_Out_Data,64);
  3531  16FE  3040               	movlw	64
  3532  16FF  0022               	movlb	2	; select bank2
  3533  1700  00EE               	movwf	??_APP_DeviceCDCEmulatorTasks^(0+256)
  3534  1701  086E               	movf	??_APP_DeviceCDCEmulatorTasks^(0+256),w
  3535  1702  00E8               	movwf	getsUSBUSART@len^(0+256)
  3536  1703  30A0               	movlw	(low (_RS232_Out_Data| (0+512)))& (0+255)
  3537  1704  3194  2425  3196   	fcall	_getsUSBUSART
  3538  1707  0022               	movlb	2	; select bank2
  3539  1708  00EF               	movwf	(??_APP_DeviceCDCEmulatorTasks+1)^(0+256)
  3540  1709  086F               	movf	(??_APP_DeviceCDCEmulatorTasks+1)^(0+256),w
  3541  170A  0023               	movlb	3	; select bank3
  3542  170B  00D8               	movwf	_LastRS232Out^(0+384)
  3543  170C                     l5335:
  3544                           
  3545                           ;app_device_cdc_basic.c: 114: if(LastRS232Out > 0)
  3546  170C  0858               	movf	_LastRS232Out^(0+384),w
  3547  170D  1903               	btfsc	3,2
  3548  170E  2F10               	goto	u4661
  3549  170F  2F11               	goto	u4660
  3550  1710                     u4661:
  3551  1710  2F14               	goto	l5341
  3552  1711                     u4660:
  3553  1711                     l5337:
  3554                           
  3555                           ;app_device_cdc_basic.c: 115: {;app_device_cdc_basic.c: 116: RS232_Out_Data_Rdy = 1;
  3556  1711  01D6               	clrf	_RS232_Out_Data_Rdy^(0+384)
  3557  1712  0AD6               	incf	_RS232_Out_Data_Rdy^(0+384),f
  3558  1713                     l5339:
  3559                           
  3560                           ;app_device_cdc_basic.c: 117: RS232cp = 0;
  3561  1713  01D7               	clrf	_RS232cp^(0+384)
  3562  1714                     l5341:
  3563                           
  3564                           ;app_device_cdc_basic.c: 118: };app_device_cdc_basic.c: 119: };app_device_cdc_basic.c: 1
      +                          23: if(RS232_Out_Data_Rdy && TXSTAbits.TRMT)
  3565  1714  0856               	movf	_RS232_Out_Data_Rdy^(0+384),w
  3566  1715  1903               	btfsc	3,2
  3567  1716  2F18               	goto	u4671
  3568  1717  2F19               	goto	u4670
  3569  1718                     u4671:
  3570  1718  2F33               	goto	l5353
  3571  1719                     u4670:
  3572  1719                     l5343:
  3573  1719  1C9E               	btfss	30,1	;volatile
  3574  171A  2F1C               	goto	u4681
  3575  171B  2F1D               	goto	u4680
  3576  171C                     u4681:
  3577  171C  2F33               	goto	l5353
  3578  171D                     u4680:
  3579  171D                     l5345:
  3580                           
  3581                           ;app_device_cdc_basic.c: 124: {;app_device_cdc_basic.c: 137: USART_putcUSART(RS232_Out_D
      +                          ata[RS232cp]);
  3582  171D  0857               	movf	_RS232cp^(0+384),w
  3583  171E  3EA0               	addlw	(low (_RS232_Out_Data| (0+512)))& (0+255)
  3584  171F  0086               	movwf	6
  3585  1720  3002               	movlw	2	; select bank5/6
  3586  1721  0087               	movwf	7
  3587  1722  0801               	movf	1,w
  3588  1723  319E  2652  3196   	fcall	_USART_putcUSART
  3589  1726                     l5347:
  3590                           
  3591                           ;app_device_cdc_basic.c: 138: ++RS232cp;
  3592  1726  3001               	movlw	1
  3593  1727  0022               	movlb	2	; select bank2
  3594  1728  00EE               	movwf	??_APP_DeviceCDCEmulatorTasks^(0+256)
  3595  1729  086E               	movf	??_APP_DeviceCDCEmulatorTasks^(0+256),w
  3596  172A  0023               	movlb	3	; select bank3
  3597  172B  07D7               	addwf	_RS232cp^(0+384),f
  3598  172C                     l5349:
  3599                           
  3600                           ;app_device_cdc_basic.c: 139: if (RS232cp == LastRS232Out)
  3601  172C  0857               	movf	_RS232cp^(0+384),w
  3602  172D  0658               	xorwf	_LastRS232Out^(0+384),w
  3603  172E  1D03               	skipz
  3604  172F  2F31               	goto	u4691
  3605  1730  2F32               	goto	u4690
  3606  1731                     u4691:
  3607  1731  2F33               	goto	l5353
  3608  1732                     u4690:
  3609  1732                     l5351:
  3610                           
  3611                           ;app_device_cdc_basic.c: 140: RS232_Out_Data_Rdy = 0;
  3612  1732  01D6               	clrf	_RS232_Out_Data_Rdy^(0+384)
  3613  1733                     l5353:
  3614                           
  3615                           ;app_device_cdc_basic.c: 142: };app_device_cdc_basic.c: 146: if(PIR1bits.RCIF && (NextUS
      +                          BOut < (64 - 1)))
  3616  1733  0020               	movlb	0	; select bank0
  3617  1734  1E91               	btfss	17,5	;volatile
  3618  1735  2F37               	goto	u4701
  3619  1736  2F38               	goto	u4700
  3620  1737                     u4701:
  3621  1737  2F58               	goto	l5363
  3622  1738                     u4700:
  3623  1738                     l5355:
  3624  1738  303F               	movlw	63
  3625  1739  0023               	movlb	3	; select bank3
  3626  173A  0259               	subwf	_NextUSBOut^(0+384),w
  3627  173B  1803               	skipnc
  3628  173C  2F3E               	goto	u4711
  3629  173D  2F3F               	goto	u4710
  3630  173E                     u4711:
  3631  173E  2F58               	goto	l5363
  3632  173F                     u4710:
  3633  173F                     l5357:
  3634                           
  3635                           ;app_device_cdc_basic.c: 147: {;app_device_cdc_basic.c: 148: USB_Out_Buffer[NextUSBOut] 
      +                          = USART_getcUSART();
  3636  173F  319E  2663  3196   	fcall	_USART_getcUSART
  3637  1742  0022               	movlb	2	; select bank2
  3638  1743  00EE               	movwf	??_APP_DeviceCDCEmulatorTasks^(0+256)
  3639  1744  0023               	movlb	3	; select bank3
  3640  1745  0859               	movf	_NextUSBOut^(0+384),w
  3641  1746  3E20               	addlw	(low (_USB_Out_Buffer| (0+512)))& (0+255)
  3642  1747  0086               	movwf	6
  3643  1748  3002               	movlw	2	; select bank4/5
  3644  1749  0087               	movwf	7
  3645  174A  0022               	movlb	2	; select bank2
  3646  174B  086E               	movf	??_APP_DeviceCDCEmulatorTasks^(0+256),w
  3647  174C  0081               	movwf	1
  3648  174D                     l5359:
  3649                           
  3650                           ;app_device_cdc_basic.c: 149: ++NextUSBOut;
  3651  174D  3001               	movlw	1
  3652  174E  00EE               	movwf	??_APP_DeviceCDCEmulatorTasks^(0+256)
  3653  174F  086E               	movf	??_APP_DeviceCDCEmulatorTasks^(0+256),w
  3654  1750  0023               	movlb	3	; select bank3
  3655  1751  07D9               	addwf	_NextUSBOut^(0+384),f
  3656  1752                     l5361:
  3657                           
  3658                           ;app_device_cdc_basic.c: 150: USB_Out_Buffer[NextUSBOut] = 0;
  3659  1752  0859               	movf	_NextUSBOut^(0+384),w
  3660  1753  3E20               	addlw	(low (_USB_Out_Buffer| (0+512)))& (0+255)
  3661  1754  0086               	movwf	6
  3662  1755  3002               	movlw	2	; select bank4/5
  3663  1756  0087               	movwf	7
  3664  1757  0181               	clrf	1
  3665  1758                     l5363:
  3666                           
  3667                           ;app_device_cdc_basic.c: 151: };app_device_cdc_basic.c: 170: if(((cdc_trf_state == 0)) &
      +                          & (NextUSBOut > 0))
  3668  1758  0023               	movlb	3	; select bank3
  3669  1759  085A               	movf	_cdc_trf_state^(0+384),w
  3670  175A  1D03               	btfss	3,2
  3671  175B  2F5D               	goto	u4721
  3672  175C  2F5E               	goto	u4720
  3673  175D                     u4721:
  3674  175D  2F6E               	goto	l5371
  3675  175E                     u4720:
  3676  175E                     l5365:
  3677  175E  0859               	movf	_NextUSBOut^(0+384),w
  3678  175F  1903               	btfsc	3,2
  3679  1760  2F62               	goto	u4731
  3680  1761  2F63               	goto	u4730
  3681  1762                     u4731:
  3682  1762  2F6E               	goto	l5371
  3683  1763                     u4730:
  3684  1763                     l5367:
  3685                           
  3686                           ;app_device_cdc_basic.c: 171: {;app_device_cdc_basic.c: 172: putUSBUSART(&USB_Out_Buffer
      +                          [0], NextUSBOut);
  3687  1763  0859               	movf	_NextUSBOut^(0+384),w
  3688  1764  0022               	movlb	2	; select bank2
  3689  1765  00EE               	movwf	??_APP_DeviceCDCEmulatorTasks^(0+256)
  3690  1766  086E               	movf	??_APP_DeviceCDCEmulatorTasks^(0+256),w
  3691  1767  00E0               	movwf	putUSBUSART@length^(0+256)
  3692  1768  3020               	movlw	(low (_USB_Out_Buffer| (0+512)))& (0+255)
  3693  1769  319E  2695  3196   	fcall	_putUSBUSART
  3694  176C                     l5369:
  3695                           
  3696                           ;app_device_cdc_basic.c: 173: NextUSBOut = 0;
  3697  176C  0023               	movlb	3	; select bank3
  3698  176D  01D9               	clrf	_NextUSBOut^(0+384)
  3699  176E                     l5371:
  3700                           
  3701                           ;app_device_cdc_basic.c: 174: };app_device_cdc_basic.c: 176: CDCTxService();
  3702  176E  318B  2397  3196   	fcall	_CDCTxService
  3703  1771                     l74:
  3704  1771  0008               	return
  3705  1772                     __end_of_APP_DeviceCDCEmulatorTasks:
  3706                           
  3707                           	psect	text7
  3708  1E95                     __ptext7:	
  3709 ;; *************** function _putUSBUSART *****************
  3710 ;; Defined at:
  3711 ;;		line 613 in file "../usb/src/usb_device_cdc.c"
  3712 ;; Parameters:    Size  Location     Type
  3713 ;;  data            1    wreg     PTR unsigned char 
  3714 ;;		 -> USB_Out_Buffer(64), 
  3715 ;;  length          1    0[BANK2 ] unsigned char 
  3716 ;; Auto vars:     Size  Location     Type
  3717 ;;  data            1    2[BANK2 ] PTR unsigned char 
  3718 ;;		 -> USB_Out_Buffer(64), 
  3719 ;; Return value:  Size  Location     Type
  3720 ;;                  1    wreg      void 
  3721 ;; Registers used:
  3722 ;;		wreg, status,2, status,0
  3723 ;; Tracked objects:
  3724 ;;		On entry : 0/0
  3725 ;;		On exit  : 0/0
  3726 ;;		Unchanged: 0/0
  3727 ;; Data sizes:     COMMON   BANK0   BANK1   BANK2   BANK3   BANK4   BANK5   BANK6   BANK7   BANK8   BANK9  BANK10  BANK1
      +1  BANK12
  3728 ;;      Params:         0       0       0       1       0       0       0       0       0       0       0       0       
      +0       0
  3729 ;;      Locals:         0       0       0       1       0       0       0       0       0       0       0       0       
      +0       0
  3730 ;;      Temps:          0       0       0       1       0       0       0       0       0       0       0       0       
      +0       0
  3731 ;;      Totals:         0       0       0       3       0       0       0       0       0       0       0       0       
      +0       0
  3732 ;;Total ram usage:        3 bytes
  3733 ;; Hardware stack levels used:    1
  3734 ;; Hardware stack levels required when called:   11
  3735 ;; This function calls:
  3736 ;;		Nothing
  3737 ;; This function is called by:
  3738 ;;		_APP_DeviceCDCEmulatorTasks
  3739 ;; This function uses a non-reentrant model
  3740 ;;
  3741                           
  3742                           
  3743                           ;psect for function _putUSBUSART
  3744  1E95                     _putUSBUSART:
  3745                           
  3746                           ;incstack = 0
  3747                           ; Regs used in _putUSBUSART: [wreg+status,2+status,0]
  3748                           ;putUSBUSART@data stored from wreg
  3749  1E95  0022               	movlb	2	; select bank2
  3750  1E96  00E2               	movwf	putUSBUSART@data^(0+256)
  3751  1E97                     l3777:
  3752                           
  3753                           ;usb_device_cdc.c: 638: {PIE2bits.USBIE = 0;};
  3754  1E97  0021               	movlb	1	; select bank1
  3755  1E98  1112               	bcf	18,2	;volatile
  3756  1E99                     l3779:
  3757                           
  3758                           ;usb_device_cdc.c: 639: if(cdc_trf_state == 0)
  3759  1E99  0023               	movlb	3	; select bank3
  3760  1E9A  085A               	movf	_cdc_trf_state^(0+384),w
  3761  1E9B  1D03               	btfss	3,2
  3762  1E9C  2E9E               	goto	u2641
  3763  1E9D  2E9F               	goto	u2640
  3764  1E9E                     u2641:
  3765  1E9E  2EAF               	goto	l3787
  3766  1E9F                     u2640:
  3767  1E9F                     l3781:
  3768                           
  3769                           ;usb_device_cdc.c: 640: {;usb_device_cdc.c: 641: { pCDCSrc.bRam = (uint8_t*)data; cdc_tx
      +                          _len = length; cdc_mem_type = 0x01; cdc_trf_state = 1; };
  3770  1E9F  0022               	movlb	2	; select bank2
  3771  1EA0  0862               	movf	putUSBUSART@data^(0+256),w
  3772  1EA1  00E1               	movwf	??_putUSBUSART^(0+256)
  3773  1EA2  0861               	movf	??_putUSBUSART^(0+256),w
  3774  1EA3  0023               	movlb	3	; select bank3
  3775  1EA4  00BE               	movwf	_pCDCSrc^(0+384)
  3776  1EA5  0022               	movlb	2	; select bank2
  3777  1EA6  0860               	movf	putUSBUSART@length^(0+256),w
  3778  1EA7  00E1               	movwf	??_putUSBUSART^(0+256)
  3779  1EA8  0861               	movf	??_putUSBUSART^(0+256),w
  3780  1EA9  0023               	movlb	3	; select bank3
  3781  1EAA  00C6               	movwf	_cdc_tx_len^(0+384)
  3782  1EAB                     l3783:
  3783  1EAB  01C5               	clrf	_cdc_mem_type^(0+384)
  3784  1EAC  0AC5               	incf	_cdc_mem_type^(0+384),f
  3785  1EAD                     l3785:
  3786  1EAD  01DA               	clrf	_cdc_trf_state^(0+384)
  3787  1EAE  0ADA               	incf	_cdc_trf_state^(0+384),f
  3788  1EAF                     l3787:
  3789                           
  3790                           ;usb_device_cdc.c: 642: };usb_device_cdc.c: 643: {PIE2bits.USBIE = 1;};
  3791  1EAF  0021               	movlb	1	; select bank1
  3792  1EB0  1512               	bsf	18,2	;volatile
  3793  1EB1                     l789:
  3794  1EB1  0008               	return
  3795  1EB2                     __end_of_putUSBUSART:
  3796                           
  3797                           	psect	text8
  3798  1425                     __ptext8:	
  3799 ;; *************** function _getsUSBUSART *****************
  3800 ;; Defined at:
  3801 ;;		line 542 in file "../usb/src/usb_device_cdc.c"
  3802 ;; Parameters:    Size  Location     Type
  3803 ;;  buffer          1    wreg     PTR unsigned char 
  3804 ;;		 -> RS232_Out_Data(64), 
  3805 ;;  len             1    8[BANK2 ] unsigned char 
  3806 ;; Auto vars:     Size  Location     Type
  3807 ;;  buffer          1   13[BANK2 ] PTR unsigned char 
  3808 ;;		 -> RS232_Out_Data(64), 
  3809 ;; Return value:  Size  Location     Type
  3810 ;;                  1    wreg      unsigned char 
  3811 ;; Registers used:
  3812 ;;		wreg, fsr1l, fsr1h, status,2, status,0, pclath, cstack
  3813 ;; Tracked objects:
  3814 ;;		On entry : 0/0
  3815 ;;		On exit  : 0/0
  3816 ;;		Unchanged: 0/0
  3817 ;; Data sizes:     COMMON   BANK0   BANK1   BANK2   BANK3   BANK4   BANK5   BANK6   BANK7   BANK8   BANK9  BANK10  BANK1
      +1  BANK12
  3818 ;;      Params:         0       0       0       1       0       0       0       0       0       0       0       0       
      +0       0
  3819 ;;      Locals:         0       0       0       3       0       0       0       0       0       0       0       0       
      +0       0
  3820 ;;      Temps:          0       0       0       2       0       0       0       0       0       0       0       0       
      +0       0
  3821 ;;      Totals:         0       0       0       6       0       0       0       0       0       0       0       0       
      +0       0
  3822 ;;Total ram usage:        6 bytes
  3823 ;; Hardware stack levels used:    1
  3824 ;; Hardware stack levels required when called:   12
  3825 ;; This function calls:
  3826 ;;		_USBTransferOnePacket
  3827 ;; This function is called by:
  3828 ;;		_APP_DeviceCDCEmulatorTasks
  3829 ;; This function uses a non-reentrant model
  3830 ;;
  3831                           
  3832                           
  3833                           ;psect for function _getsUSBUSART
  3834  1425                     _getsUSBUSART:
  3835                           
  3836                           ;incstack = 0
  3837                           ; Regs used in _getsUSBUSART: [wreg+fsr1l+fsr1h+status,2+status,0+pclath+cstack]
  3838                           ;getsUSBUSART@buffer stored from wreg
  3839  1425  0022               	movlb	2	; select bank2
  3840  1426  00ED               	movwf	getsUSBUSART@buffer^(0+256)
  3841  1427                     l3735:
  3842                           
  3843                           ;usb_device_cdc.c: 544: cdc_rx_len = 0;
  3844  1427  0023               	movlb	3	; select bank3
  3845  1428  01C7               	clrf	_cdc_rx_len^(0+384)
  3846  1429                     l3737:
  3847                           
  3848                           ;usb_device_cdc.c: 546: if(!(CDCDataOutHandle==0?0:((volatile BDT_ENTRY*)CDCDataOutHandl
      +                          e)->STAT.UOWN))
  3849  1429  0844               	movf	_CDCDataOutHandle^(0+384),w
  3850  142A  1903               	btfsc	3,2
  3851  142B  2C2D               	goto	u2591
  3852  142C  2C2E               	goto	u2590
  3853  142D                     u2591:
  3854  142D  2C3C               	goto	l3741
  3855  142E                     u2590:
  3856  142E                     l3739:
  3857  142E  0844               	movf	_CDCDataOutHandle^(0+384),w
  3858  142F  0086               	movwf	6
  3859  1430  0187               	clrf	7
  3860  1431  0D01               	rlf	1,w
  3861  1432  0D01               	rlf	1,w
  3862  1433  3901               	andlw	1
  3863  1434  0022               	movlb	2	; select bank2
  3864  1435  00E9               	movwf	??_getsUSBUSART^(0+256)
  3865  1436  01EA               	clrf	(??_getsUSBUSART^(0+256)+1)
  3866  1437  0869               	movf	??_getsUSBUSART^(0+256),w
  3867  1438  00EB               	movwf	_getsUSBUSART$2818^(0+256)
  3868  1439  086A               	movf	(??_getsUSBUSART+1)^(0+256),w
  3869  143A  00EC               	movwf	(_getsUSBUSART$2818+1)^(0+256)
  3870  143B  2C3F               	goto	l3743
  3871  143C                     l3741:
  3872  143C  0022               	movlb	2	; select bank2
  3873  143D  01EB               	clrf	_getsUSBUSART$2818^(0+256)
  3874  143E  01EC               	clrf	(_getsUSBUSART$2818+1)^(0+256)
  3875  143F                     l3743:
  3876  143F  086B               	movf	_getsUSBUSART$2818^(0+256),w
  3877  1440  046C               	iorwf	(_getsUSBUSART$2818+1)^(0+256),w
  3878  1441  1D03               	btfss	3,2
  3879  1442  2C44               	goto	u2601
  3880  1443  2C45               	goto	u2600
  3881  1444                     u2601:
  3882  1444  2C8D               	goto	l3759
  3883  1445                     u2600:
  3884  1445                     l3745:
  3885                           
  3886                           ;usb_device_cdc.c: 547: {;usb_device_cdc.c: 552: if(len > (((volatile BDT_ENTRY*)CDCData
      +                          OutHandle)->CNT))
  3887  1445  0023               	movlb	3	; select bank3
  3888  1446  0A44               	incf	_CDCDataOutHandle^(0+384),w
  3889  1447  0086               	movwf	6
  3890  1448  0187               	clrf	7
  3891  1449  0022               	movlb	2	; select bank2
  3892  144A  0868               	movf	getsUSBUSART@len^(0+256),w
  3893  144B  0201               	subwf	1,w
  3894  144C  1803               	skipnc
  3895  144D  2C4F               	goto	u2611
  3896  144E  2C50               	goto	u2610
  3897  144F                     u2611:
  3898  144F  2C57               	goto	l3749
  3899  1450                     u2610:
  3900  1450                     l3747:
  3901                           
  3902                           ;usb_device_cdc.c: 553: len = (((volatile BDT_ENTRY*)CDCDataOutHandle)->CNT);
  3903  1450  0023               	movlb	3	; select bank3
  3904  1451  0844               	movf	_CDCDataOutHandle^(0+384),w
  3905  1452  0086               	movwf	6
  3906  1453  0187               	clrf	7
  3907  1454  3F41               	moviw [1]fsr1
  3908  1455  0022               	movlb	2	; select bank2
  3909  1456  00E8               	movwf	getsUSBUSART@len^(0+256)
  3910  1457                     l3749:
  3911                           
  3912                           ;usb_device_cdc.c: 558: for(cdc_rx_len = 0; cdc_rx_len < len; cdc_rx_len++)
  3913  1457  0023               	movlb	3	; select bank3
  3914  1458  01C7               	clrf	_cdc_rx_len^(0+384)
  3915  1459  2C72               	goto	l3755
  3916  145A                     l3751:
  3917                           
  3918                           ;usb_device_cdc.c: 559: buffer[cdc_rx_len] = cdc_data_rx[cdc_rx_len];
  3919  145A  0847               	movf	_cdc_rx_len^(0+384),w
  3920  145B  3E20               	addlw	32
  3921  145C  0086               	movwf	6
  3922  145D  3001               	movlw	1	; select bank2/3
  3923  145E  0087               	movwf	7
  3924  145F  0801               	movf	1,w
  3925  1460  0022               	movlb	2	; select bank2
  3926  1461  00E9               	movwf	??_getsUSBUSART^(0+256)
  3927  1462  0023               	movlb	3	; select bank3
  3928  1463  0847               	movf	_cdc_rx_len^(0+384),w
  3929  1464  0022               	movlb	2	; select bank2
  3930  1465  076D               	addwf	getsUSBUSART@buffer^(0+256),w
  3931  1466  00EA               	movwf	(??_getsUSBUSART+1)^(0+256)
  3932  1467  086A               	movf	(??_getsUSBUSART+1)^(0+256),w
  3933  1468  0086               	movwf	6
  3934  1469  3002               	movlw	2	; select bank4/5
  3935  146A  0087               	movwf	7
  3936  146B  0869               	movf	??_getsUSBUSART^(0+256),w
  3937  146C  0081               	movwf	1
  3938  146D                     l3753:
  3939  146D  3001               	movlw	1
  3940  146E  00E9               	movwf	??_getsUSBUSART^(0+256)
  3941  146F  0869               	movf	??_getsUSBUSART^(0+256),w
  3942  1470  0023               	movlb	3	; select bank3
  3943  1471  07C7               	addwf	_cdc_rx_len^(0+384),f
  3944  1472                     l3755:
  3945  1472  0022               	movlb	2	; select bank2
  3946  1473  0868               	movf	getsUSBUSART@len^(0+256),w
  3947  1474  0023               	movlb	3	; select bank3
  3948  1475  0247               	subwf	_cdc_rx_len^(0+384),w
  3949  1476  1C03               	skipc
  3950  1477  2C79               	goto	u2621
  3951  1478  2C7A               	goto	u2620
  3952  1479                     u2621:
  3953  1479  2C5A               	goto	l3751
  3954  147A                     u2620:
  3955  147A                     l3757:
  3956                           
  3957                           ;usb_device_cdc.c: 565: CDCDataOutHandle = USBTransferOnePacket(2,0,(uint8_t*)&cdc_data_
      +                          rx,sizeof(cdc_data_rx));
  3958  147A  0022               	movlb	2	; select bank2
  3959  147B  01E0               	clrf	USBTransferOnePacket@dir^(0+256)
  3960  147C  3020               	movlw	32
  3961  147D  00E1               	movwf	USBTransferOnePacket@data^(0+256)
  3962  147E  3001               	movlw	1
  3963  147F  00E2               	movwf	(USBTransferOnePacket@data+1)^(0+256)
  3964  1480  3040               	movlw	64
  3965  1481  00E9               	movwf	??_getsUSBUSART^(0+256)
  3966  1482  0869               	movf	??_getsUSBUSART^(0+256),w
  3967  1483  00E3               	movwf	USBTransferOnePacket@len^(0+256)
  3968  1484  3002               	movlw	2
  3969  1485  3193  235E  3194   	fcall	_USBTransferOnePacket
  3970  1488  0022               	movlb	2	; select bank2
  3971  1489  00EA               	movwf	(??_getsUSBUSART+1)^(0+256)
  3972  148A  086A               	movf	(??_getsUSBUSART+1)^(0+256),w
  3973  148B  0023               	movlb	3	; select bank3
  3974  148C  00C4               	movwf	_CDCDataOutHandle^(0+384)
  3975  148D                     l3759:
  3976                           
  3977                           ;usb_device_cdc.c: 567: };usb_device_cdc.c: 569: return cdc_rx_len;
  3978  148D  0023               	movlb	3	; select bank3
  3979  148E  0847               	movf	_cdc_rx_len^(0+384),w
  3980  148F                     l785:
  3981  148F  0008               	return
  3982  1490                     __end_of_getsUSBUSART:
  3983                           
  3984                           	psect	text9
  3985  1E52                     __ptext9:	
  3986 ;; *************** function _USART_putcUSART *****************
  3987 ;; Defined at:
  3988 ;;		line 80 in file "../bsp/usart.c"
  3989 ;; Parameters:    Size  Location     Type
  3990 ;;  c               1    wreg     unsigned char 
  3991 ;; Auto vars:     Size  Location     Type
  3992 ;;  c               1    0[BANK2 ] unsigned char 
  3993 ;; Return value:  Size  Location     Type
  3994 ;;                  1    wreg      void 
  3995 ;; Registers used:
  3996 ;;		wreg
  3997 ;; Tracked objects:
  3998 ;;		On entry : 0/0
  3999 ;;		On exit  : 0/0
  4000 ;;		Unchanged: 0/0
  4001 ;; Data sizes:     COMMON   BANK0   BANK1   BANK2   BANK3   BANK4   BANK5   BANK6   BANK7   BANK8   BANK9  BANK10  BANK1
      +1  BANK12
  4002 ;;      Params:         0       0       0       0       0       0       0       0       0       0       0       0       
      +0       0
  4003 ;;      Locals:         0       0       0       1       0       0       0       0       0       0       0       0       
      +0       0
  4004 ;;      Temps:          0       0       0       0       0       0       0       0       0       0       0       0       
      +0       0
  4005 ;;      Totals:         0       0       0       1       0       0       0       0       0       0       0       0       
      +0       0
  4006 ;;Total ram usage:        1 bytes
  4007 ;; Hardware stack levels used:    1
  4008 ;; Hardware stack levels required when called:   11
  4009 ;; This function calls:
  4010 ;;		Nothing
  4011 ;; This function is called by:
  4012 ;;		_APP_DeviceCDCEmulatorTasks
  4013 ;; This function uses a non-reentrant model
  4014 ;;
  4015                           
  4016                           
  4017                           ;psect for function _USART_putcUSART
  4018  1E52                     _USART_putcUSART:
  4019                           
  4020                           ;incstack = 0
  4021                           ; Regs used in _USART_putcUSART: [wreg]
  4022                           ;USART_putcUSART@c stored from wreg
  4023  1E52  0022               	movlb	2	; select bank2
  4024  1E53  00E0               	movwf	USART_putcUSART@c^(0+256)
  4025  1E54                     l5155:
  4026                           
  4027                           ;usart.c: 82: TXREG = c;
  4028  1E54  0860               	movf	USART_putcUSART@c^(0+256),w
  4029  1E55  0023               	movlb	3	; select bank3
  4030  1E56  009A               	movwf	26	;volatile
  4031  1E57                     l312:
  4032  1E57  0008               	return
  4033  1E58                     __end_of_USART_putcUSART:
  4034                           
  4035                           	psect	text10
  4036  1E63                     __ptext10:	
  4037 ;; *************** function _USART_getcUSART *****************
  4038 ;; Defined at:
  4039 ;;		line 160 in file "../bsp/usart.c"
  4040 ;; Parameters:    Size  Location     Type
  4041 ;;		None
  4042 ;; Auto vars:     Size  Location     Type
  4043 ;;  c               1    1[BANK2 ] unsigned char 
  4044 ;; Return value:  Size  Location     Type
  4045 ;;                  1    wreg      unsigned char 
  4046 ;; Registers used:
  4047 ;;		wreg
  4048 ;; Tracked objects:
  4049 ;;		On entry : 0/0
  4050 ;;		On exit  : 0/0
  4051 ;;		Unchanged: 0/0
  4052 ;; Data sizes:     COMMON   BANK0   BANK1   BANK2   BANK3   BANK4   BANK5   BANK6   BANK7   BANK8   BANK9  BANK10  BANK1
      +1  BANK12
  4053 ;;      Params:         0       0       0       0       0       0       0       0       0       0       0       0       
      +0       0
  4054 ;;      Locals:         0       0       0       1       0       0       0       0       0       0       0       0       
      +0       0
  4055 ;;      Temps:          0       0       0       1       0       0       0       0       0       0       0       0       
      +0       0
  4056 ;;      Totals:         0       0       0       2       0       0       0       0       0       0       0       0       
      +0       0
  4057 ;;Total ram usage:        2 bytes
  4058 ;; Hardware stack levels used:    1
  4059 ;; Hardware stack levels required when called:   11
  4060 ;; This function calls:
  4061 ;;		Nothing
  4062 ;; This function is called by:
  4063 ;;		_APP_DeviceCDCEmulatorTasks
  4064 ;; This function uses a non-reentrant model
  4065 ;;
  4066                           
  4067                           
  4068                           ;psect for function _USART_getcUSART
  4069  1E63                     _USART_getcUSART:
  4070  1E63                     l3765:	
  4071                           ;incstack = 0
  4072                           ; Regs used in _USART_getcUSART: [wreg]
  4073                           
  4074                           
  4075                           ;usart.c: 162: char c;;usart.c: 164: if (RCSTAbits.OERR)
  4076  1E63  0023               	movlb	3	; select bank3
  4077  1E64  1C9D               	btfss	29,1	;volatile
  4078  1E65  2E67               	goto	u2631
  4079  1E66  2E68               	goto	u2630
  4080  1E67                     u2631:
  4081  1E67  2E71               	goto	l3773
  4082  1E68                     u2630:
  4083  1E68                     l3767:
  4084                           
  4085                           ;usart.c: 165: {;usart.c: 166: RCSTAbits.CREN = 0;
  4086  1E68  121D               	bcf	29,4	;volatile
  4087  1E69                     l3769:
  4088                           
  4089                           ;usart.c: 167: c = RCREG;
  4090  1E69  0819               	movf	25,w	;volatile
  4091  1E6A  0022               	movlb	2	; select bank2
  4092  1E6B  00E0               	movwf	??_USART_getcUSART^(0+256)
  4093  1E6C  0860               	movf	??_USART_getcUSART^(0+256),w
  4094  1E6D  00E1               	movwf	USART_getcUSART@c^(0+256)
  4095  1E6E                     l3771:
  4096                           
  4097                           ;usart.c: 168: RCSTAbits.CREN = 1;
  4098  1E6E  0023               	movlb	3	; select bank3
  4099  1E6F  161D               	bsf	29,4	;volatile
  4100                           
  4101                           ;usart.c: 169: }
  4102  1E70  2E76               	goto	l319
  4103  1E71                     l3773:
  4104                           
  4105                           ;usart.c: 170: else;usart.c: 171: {;usart.c: 172: c = RCREG;
  4106  1E71  0819               	movf	25,w	;volatile
  4107  1E72  0022               	movlb	2	; select bank2
  4108  1E73  00E0               	movwf	??_USART_getcUSART^(0+256)
  4109  1E74  0860               	movf	??_USART_getcUSART^(0+256),w
  4110  1E75  00E1               	movwf	USART_getcUSART@c^(0+256)
  4111  1E76                     l319:
  4112                           
  4113                           ;usart.c: 173: };usart.c: 178: return c;
  4114  1E76  0022               	movlb	2	; select bank2
  4115  1E77  0861               	movf	USART_getcUSART@c^(0+256),w
  4116  1E78                     l320:
  4117  1E78  0008               	return
  4118  1E79                     __end_of_USART_getcUSART:
  4119                           
  4120                           	psect	text11
  4121  0B97                     __ptext11:	
  4122 ;; *************** function _CDCTxService *****************
  4123 ;; Defined at:
  4124 ;;		line 893 in file "../usb/src/usb_device_cdc.c"
  4125 ;; Parameters:    Size  Location     Type
  4126 ;;		None
  4127 ;; Auto vars:     Size  Location     Type
  4128 ;;  byte_to_send    1   13[BANK2 ] unsigned char 
  4129 ;;  i               1   12[BANK2 ] unsigned char 
  4130 ;; Return value:  Size  Location     Type
  4131 ;;                  1    wreg      void 
  4132 ;; Registers used:
  4133 ;;		wreg, fsr1l, fsr1h, status,2, status,0, pclath, cstack
  4134 ;; Tracked objects:
  4135 ;;		On entry : 0/0
  4136 ;;		On exit  : 0/0
  4137 ;;		Unchanged: 0/0
  4138 ;; Data sizes:     COMMON   BANK0   BANK1   BANK2   BANK3   BANK4   BANK5   BANK6   BANK7   BANK8   BANK9  BANK10  BANK1
      +1  BANK12
  4139 ;;      Params:         0       0       0       0       0       0       0       0       0       0       0       0       
      +0       0
  4140 ;;      Locals:         0       0       0       4       0       0       0       0       0       0       0       0       
      +0       0
  4141 ;;      Temps:          0       0       0       2       0       0       0       0       0       0       0       0       
      +0       0
  4142 ;;      Totals:         0       0       0       6       0       0       0       0       0       0       0       0       
      +0       0
  4143 ;;Total ram usage:        6 bytes
  4144 ;; Hardware stack levels used:    1
  4145 ;; Hardware stack levels required when called:   12
  4146 ;; This function calls:
  4147 ;;		_USBTransferOnePacket
  4148 ;; This function is called by:
  4149 ;;		_APP_DeviceCDCEmulatorTasks
  4150 ;; This function uses a non-reentrant model
  4151 ;;
  4152                           
  4153                           
  4154                           ;psect for function _CDCTxService
  4155  0B97                     _CDCTxService:
  4156  0B97                     l3789:	
  4157                           ;incstack = 0
  4158                           ; Regs used in _CDCTxService: [wreg+fsr1l+fsr1h+status,2+status,0+pclath+cstack]
  4159                           
  4160                           
  4161                           ;usb_device_cdc.c: 895: uint8_t byte_to_send;;usb_device_cdc.c: 896: uint8_t i;;usb_devi
      +                          ce_cdc.c: 898: {PIE2bits.USBIE = 0;};
  4162  0B97  0021               	movlb	1	; select bank1
  4163  0B98  1112               	bcf	18,2	;volatile
  4164  0B99                     l3791:
  4165                           
  4166                           ;usb_device_cdc.c: 900: {};;usb_device_cdc.c: 902: if((CDCDataInHandle==0?0:((volatile B
      +                          DT_ENTRY*)CDCDataInHandle)->STAT.UOWN))
  4167  0B99  0023               	movlb	3	; select bank3
  4168  0B9A  0843               	movf	_CDCDataInHandle^(0+384),w
  4169  0B9B  1903               	btfsc	3,2
  4170  0B9C  2B9E               	goto	u2651
  4171  0B9D  2B9F               	goto	u2650
  4172  0B9E                     u2651:
  4173  0B9E  2BAD               	goto	l3795
  4174  0B9F                     u2650:
  4175  0B9F                     l3793:
  4176  0B9F  0843               	movf	_CDCDataInHandle^(0+384),w
  4177  0BA0  0086               	movwf	6
  4178  0BA1  0187               	clrf	7
  4179  0BA2  0D01               	rlf	1,w
  4180  0BA3  0D01               	rlf	1,w
  4181  0BA4  3901               	andlw	1
  4182  0BA5  0022               	movlb	2	; select bank2
  4183  0BA6  00E8               	movwf	??_CDCTxService^(0+256)
  4184  0BA7  01E9               	clrf	(??_CDCTxService^(0+256)+1)
  4185  0BA8  0868               	movf	??_CDCTxService^(0+256),w
  4186  0BA9  00EA               	movwf	_CDCTxService$2866^(0+256)
  4187  0BAA  0869               	movf	(??_CDCTxService+1)^(0+256),w
  4188  0BAB  00EB               	movwf	(_CDCTxService$2866+1)^(0+256)
  4189  0BAC  2BB0               	goto	l3797
  4190  0BAD                     l3795:
  4191  0BAD  0022               	movlb	2	; select bank2
  4192  0BAE  01EA               	clrf	_CDCTxService$2866^(0+256)
  4193  0BAF  01EB               	clrf	(_CDCTxService$2866+1)^(0+256)
  4194  0BB0                     l3797:
  4195  0BB0  086A               	movf	_CDCTxService$2866^(0+256),w
  4196  0BB1  046B               	iorwf	(_CDCTxService$2866+1)^(0+256),w
  4197  0BB2  1903               	btfsc	3,2
  4198  0BB3  2BB5               	goto	u2661
  4199  0BB4  2BB6               	goto	u2660
  4200  0BB5                     u2661:
  4201  0BB5  2BB9               	goto	l3801
  4202  0BB6                     u2660:
  4203  0BB6                     l3799:
  4204                           
  4205                           ;usb_device_cdc.c: 903: {;usb_device_cdc.c: 904: {PIE2bits.USBIE = 1;};
  4206  0BB6  0021               	movlb	1	; select bank1
  4207  0BB7  1512               	bsf	18,2	;volatile
  4208                           
  4209                           ;usb_device_cdc.c: 905: return;
  4210  0BB8  2C8C               	goto	l811
  4211  0BB9                     l3801:
  4212                           
  4213                           ;usb_device_cdc.c: 906: };usb_device_cdc.c: 913: if(cdc_trf_state == 3)
  4214  0BB9  3003               	movlw	3
  4215  0BBA  0023               	movlb	3	; select bank3
  4216  0BBB  065A               	xorwf	_cdc_trf_state^(0+384),w
  4217  0BBC  1D03               	btfss	3,2
  4218  0BBD  2BBF               	goto	u2671
  4219  0BBE  2BC0               	goto	u2670
  4220  0BBF                     u2671:
  4221  0BBF  2BC1               	goto	l3805
  4222  0BC0                     u2670:
  4223  0BC0                     l3803:
  4224                           
  4225                           ;usb_device_cdc.c: 914: cdc_trf_state = 0;
  4226  0BC0  01DA               	clrf	_cdc_trf_state^(0+384)
  4227  0BC1                     l3805:
  4228                           
  4229                           ;usb_device_cdc.c: 919: if(cdc_trf_state == 0)
  4230  0BC1  085A               	movf	_cdc_trf_state^(0+384),w
  4231  0BC2  1D03               	btfss	3,2
  4232  0BC3  2BC5               	goto	u2681
  4233  0BC4  2BC6               	goto	u2680
  4234  0BC5                     u2681:
  4235  0BC5  2BC9               	goto	l3809
  4236  0BC6                     u2680:
  4237  0BC6                     l3807:
  4238                           
  4239                           ;usb_device_cdc.c: 920: {;usb_device_cdc.c: 921: {PIE2bits.USBIE = 1;};
  4240  0BC6  0021               	movlb	1	; select bank1
  4241  0BC7  1512               	bsf	18,2	;volatile
  4242                           
  4243                           ;usb_device_cdc.c: 922: return;
  4244  0BC8  2C8C               	goto	l811
