:020000040000FA
:06120800000089310F29EE
:101210007E1489318A31752289317E1009002000BF
:10122000893112292100E801E901EA01EB01A0302E
:101230008400013085004F308F31F827893120300C
:1012400084000230850048308F31F8278931A03082
:1012500084000230850040308F31F82789317E10BC
:1012600020009E31D02E20005203031D3829392939
:10127000512950081F39003A031D3F29402951299F
:101280002300A917033020005106031D48294929CE
:101290004F290130E90069082300D10051292300BA
:1012A000D10120005208031D56295729742A5008DD
:1012B0001F39023A031D5D295E29742A54080F392B
:1012C000003A031964296529742A54080F39E90082
:1012D0000330690203186D296E29742A2030210019
:1012E0006A06031D74297529742A2300A917200092
:1012F000D41B7B297C29912954080F39B93E8600DB
:10130000013087000108E9006908EE0054080F3930
:10131000B03E8600013087000108E9006908ED0051
:10132000A52954080F39B63E860001308700010810
:10133000E9006908EE0054080F39B33E8600013019
:1013400087000108E9006908ED006D18A829A9299E
:10135000AE29FB30E9006908EE05AF296E15D41BF4
:10136000B229B329BE296E08E90054080F39B93EE5
:1013700086000130870069088100C8296E08E900ED
:1013800054080F39B63E8600013087006908810095
:1013900003305106031DCD29CE29F1296E088600A0
:1013A0008701811FD429D529E829D41BD829D92917
:1013B000E12954080F39B03E8600013087008114BE
:1013C000E82954080F39B33E8600013087008114A4
:1013D0006E088600870101156E0886008701811757
:1013E000742A0430E9006908EE066E088600870159
:1013F000811FFB29FC29192A7F30E9006E0886002D
:101400008701690881056E08860087010117003091
:10141000E4000530E3006E08E500FF39031D0030ED
:10142000E6000130E7000030E800903113208931F8
:101430001D2A6E0886008701011704302000E9008C
:101440006908EE06ED18252A262A2D2A6E08860040
:101450008701811F2C2A2D2A592AD41B302A312A90
:10146000392A54080F39B03E8600013087008110B8
:10147000402A54080F39B33E86000130870081109E
:101480003B30E9006E08860087016908810500305D
:10149000E4000530E3006E08E500FF39031D00306D
:1014A000E6000130E7000030E80090311320893178
:1014B000602A3B30E9006E088600870169088105D3
:1014C000200054080F39983EE900EA010E30EA3D49
:1014D0006908EB006A08EC00FE30E9006B08860042
:1014E0006C08870069088105080021006A03031D54
:1014F0007A2A7B2A882A3D008E1A7F2A802A882A07
:1015000090011214121602302100E5006508EA006D
:101510003D00101D8C2A8D2A9A2A121D902A912A8C
:101520009A2AFB302100E50065083D0090059F31B7
:101530004D278A313D008E1C9E2A9F2AA22A200018
:101540001211962B101CA52AA62AB82A121CA92A09
:10155000AA2AB82A8E3105268A31210012150430B4
:10156000E5006508EA00FE30E50065083D009005ED
:10157000101EBB2ABC2AC92A121EBF2AC02AC92A89
:101580009E31EE268A31EF302100E50065083D00EE
:101590009005101FCC2ACD2AF72A121FD02AD12A53
:1015A000E12A73302000E3000030E4000030E50061
:1015B0000030E6000130E7000030E80090311320F1
:1015C0008A31BF302100E50065083D009005230009
:1015D0004D080319EC2AED2AEF2A0130CD024D08FF
:1015E000031DF32AF42AF72A943190248A313D000E
:1015F000901EFB2AFC2A032B921EFF2A002B032B92
:101600008F31CC278A313D00901C072B082B1E2BD5
:10161000921C0B2B0C2B1E2BFF302000E3007F3085
:10162000E4000030E5000030E6000130E700003063
:10163000E800903113208A313D00930104302100ED
:101640006A020318242B252B282B20001211962B1D
:101650003D00921D2C2B2D2B942B2100E7013D00EA
:10166000901D332B342B942B0F082100E5006508C7
:10167000EB006B0CE500E50C650C0F39E600660825
:101680002300CF00F7302100E50065083D009005FC
:1016900021006B194C2B4D2B5F2B23004F08B03EC4
:1016A000860001308700010801392100E500013082
:1016B000E50601086506FE3965068100702B2300EA
:1016C0004F08B33E86000130870001080139210030
:1016D000E5000130E50601086506FE396506810072
:1016E00023004F08031D752B762B7A2B953172251D
:1016F0008A31892B72302000E3000030E400EB30A7
:10170000E5000030E6000030E700E80090311320EB
:101710008A3101302100E5006508E70704306702DF
:10172000031C932B942B2F2B200012110800210057
:1017300012112300430803199E2B9F2BAD2B430846
:1017400086008701010D010D01392200E800E90141
:101750006808EA006908EB00B02B2200EA01EB01FF
:101760006A086B040319B52BB62BB92B210012158F
:101770008C2C033023005A06031DBF2BC02BC12B1A
:10178000DA015A08031DC52BC62BC92B21001215DF
:101790008C2C02305A06031DCE2BCF2BE72B2200B8
:1017A000E001E00A0030E1000030E200E301023035
:1017B00093315E238B312200E80068082300C300C8
:1017C00003302200E80068082300DA008A2C5A035C
:1017D000031DEB2BEC2B8A2C41304602031CF12B12
:1017E000F22BF82B40302200E8006808ED00FD2BBA
:1017F00046082200E8006808ED006D082300460254
:101800002200E80068082300C600A0302200E8009B
:1018100068082300BC0022006D08E8006808EC009E
:1018200023004508031D152C162C582C342C23009E
:101830003E0886000230870001082200E8002300ED
:101840003C08860087012200680881000130E8001A
:1018500068082300BC0701302200E8006808230064
:10186000BE0701302200EC0222006C08031D392C57
:101870003A2C172C5E2C23003E088600023087008D
:1018800001082200E80023003C08860087012200AE
:10189000680881000130E80068082300BC070130B7
:1018A0002200E80068082300BE0701302200EC0295
:1018B00022006C08031D5D2C5E2C3B2C2300460887
:1018C000031D632C642C762C403022006D06031D12
:1018D0006A2C6B2C712C0230E80068082300DA00B7
:1018E000762C0330E80068082300DA002200E001CB
:1018F000E00AA030E1000030E2006D08E80068086E
:10190000E300023093315E238B312200E900690845
:101910002300C30021001215080021006908860079
:101920008701413F2000EB006B08E800E9016908EE
:1019300023002402031DA02C20006808230023029A
:101940000318A32CA42CA92C23082000E800680865
:10195000EB0020006B08E800E90168082300A302FF
:10196000200069082300A43B2000EA01CF2C6A086C
:10197000583E860087010108E80023002008860001
:10198000013087002000680881000130E800680805
:101990002300A00701302000E8006808EA076B0870
:1019A0006A02031CD42CD52CB72C23002308240452
:1019B0000319DB2CDC2C1C2D08302000E800210052
:1019C000680A860087012000680881005830E80016
:1019D0000030E90021006808023E860087012000EF
:1019E0006808C03F6908C13F210069088600870177
:1019F000011BFB2CFC2C0C2D48302000E8002100A2
:101A000068088600870120006808810021006808B6
:101A10008600870181175D2D08302000E800210035
:101A20006808860087012000680881002100680896
:101A30008600870181175D2D08302000E800210015
:101A4000680A860087012000680881005030E8009D
:101A50000030E90021006808023E8600870120006E
:101A60006808C03F6908C13F0430E80021006808E9
:101A70008600870120006808810021006808860030
:101A8000870181172300250826040319482D492DB5
:101A9000532D0530A03E860001308700413F8A006B
:101AA000403F0A008D312300A2134C08031D592D1D
:101AB0005A2D5D2D943190248C3108002100121193
:101AC0003D009301900198010E302200E200993010
:101AD000E100E301610886006208870081010130AE
:101AE000E1070030E23D0130E0006008E30702302A
:101AF0006302031C7C2D7D2D6A2D16303D00910064
:101B00009F3097007B3092002200E4016408E000DF
:101B10000130E035FF3E031D892D6035203E8600F3
:101B200087010030C03F0030C13FC23FC33F01309A
:101B3000E0006008E4070C306402031CA02DA12D16
:101B4000862D3D000E1796010E120E13B22DF730A2
:101B50002200E00060083D0090052300A901A201D9
:101B6000A301A4013D009019B62DB72DA72D01307A
:101B70002200E00060082300CB0001302200E000DA
:101B800060082300CA00C901C801D0012200E40195
:101B90006408B63E86000130870081016408B93EC2
:101BA00086000130870081016408B33E8600013061
:101BB000870081016408B03E860001308700810102
:101BC0000130E0006008E40703306402031CE92DE3
:101BD000EA2DC82D2830E00060082300B60016303A
:101BE0003D00980000302000A3005030A2000830D3
:101BF000A10004302200E00060082000A000A0172F
:101C00002300EE012100EA010800210012113D002D
:101C10009301900198010E30F2009930F100F30128
:101C2000710886007208870081010130F1070030D9
:101C3000F23D0130F0007008F30702307302031C1C
:101C4000222E232E102E16303D0091009F3097003B
:101C50007B309200F4017408F0000130F035FF3E53
:101C6000031D2E2E7035203E860087010030C03FB8
:101C70000030C13FC23FC33F0130F0007008F4079D
:101C80000C307402031C452E462E2B2E3D000E17E1
:101C900096010E120E13552EF730F00070089005C5
:101CA0002300A901A201A301A4013D009019592E0E
:101CB0005A2E4C2E0130F00070082300CB0001306A
:101CC000F0007008CA00C901C801D001F40174080D
:101CD000B63E86000130870081017408B93E860057
:101CE0000130870081017408B33E8600013087000F
:101CF00081017408B03E8600013087008101013007
:101D0000F0007008F40703307402031C882E892E3B
:101D1000672E2830F00070082300B60016303D0012
:101D2000980000302000A3005030A2000830A1002D
:101D30000430F0007008A000A0172300EE0121007D
:101D4000EA01080023003608860087010030011BE5
:101D500001302000EA000430E80068082300B606DD
:101D6000083021006A06031DB62EB72ECE2E2000A5
:101D700052087F393D00960016080319C02EC12E67
:101D8000C82E10302000E80068082100EA00CE2E9E
:101D900004302000E80068082100EA002300530313
:101DA000031DD32ED42E212F58302000E800003000
:101DB000E90023003608023E8600870120006808FB
:101DC000C03F6908C13F953100258E3102302300A4
:101DD0005406031DEC2EED2EFD2E04302000E800ED
:101DE0002300360886008701200068088100230050
:101DF0003608860087018117382F20006A08031DE6
:101E0000022F032F122F4830E800230036088600E7
:101E100087012000680881002300360886008701BA
:101E20008117382F0830E800230036088600870124
:101E3000200068088100230036088600870181178A
:101E4000382FA21F242F252F372F250826040319EA
:101E50002A2F2B2F352F0530A03E8600013087001A
:101E6000413F8A00403F0A008F312300A213D30173
:101E700008003D000E122300A91B3F2F402F802F8A
:101E8000A21F432F442F542F0230F5007508D300B2
:101E90004808031D4C2F4D2F502F913195218F3124
:101EA0002300CA01CB01CB2F0830F5002100680ABE
:101EB00086008701750881005030F5000030F6007B
:101EC0006808023E860087017508C03F7608C13F5A
:101ED0000C30F500680886008701750881006808E5
:101EE0008600870181170430F5002300360886003C
:101EF0008701750881003608860087018117CB2F7E
:101F00002000D01F842F852F9E2F0130F5007508EB
:101F10002300D3004908031D8E2F8F2F922F91315C
:101F200095218F312300CA01CB014C08031D992F45
:101F30009A2FCB2F943190248F31CB2F0230F50084
:101F400075082300D3000830F5002100680A8600D8
:101F50008701750881005030F5000030F6006808F0
:101F6000023E860087017508C03F7608C13F0430F5
:101F7000F5006808860087017508810068088600FA
:101F8000870181172300CA01CB014C08031DC92F0B
:101F9000CA2FCB2F9A2F08003D00181CD02FD12F0D
:101FA000F32F210069088600870180300106031D98
:101FB000DA2FDB2FF12F23003608860087018430CB
:101FC0000106031DE42FE52FF12F0C30F000210056
:101FD000690886008701700881006908860087010A
:101FE00081173D001810DF30F000700890050800E0
:0C1FF000640080010131890BF92F0034DE
:10200A0023008D1221008D168D13243023009E008B
:10201A0090309D0008309F0019080800202892314E
:10202A00A322903148289F31D427903148289331F0
:10203A00BD239031482820006408003A0319292852
:10204A007F3A0319432848286308013A03191828D4
:10205A00033A03194828013A03191C28063A0319B6
:10206A004828773A03194828013A03191428073AE5
:10207A0003191428013A0319142848286308FF3A57
:10208A000319482848280800023023005306031D74
:10209A004F28502854288C318D2490318228D3011E
:1020AA004E08031D59285A28812808302000EC00C0
:1020BA002100680A8600870120006C0881005030E0
:1020CA00EC000030ED0021006808023E860087011E
:1020DA0020006C08C03F6D08C13F0C30EC002100A5
:1020EA0068088600870120006C08810021006808C2
:1020FA008600870181178228CE010800003023005C
:10210A00E8000030E7004B30E6000030E500E90166
:10211A00EA0108302000E00060082300EB00C70154
:10212A001A302000E0006008F70001309F31AF2725
:10213A0090311E302000E0006008F70002309F3125
:10214A00AF279031F0012030F1000130F200403029
:10215A002000E0006008F300023093310023903140
:10216A002000E10061082300C400C301DA0108006D
:10217A00F5002030F1007108F6007008F100013016
:10218A00F135890BC5287508F2000130F235FF3E9A
:10219A00031DCB2872357107F3000130F335FF3E7A
:1021AA00031DD3287335F4007408F60776088600F1
:1021BA00870181137008031DE328E428EE287608B6
:1021CA00F1007508B93E8600013087007108810068
:1021DA00F7287608F1007508B63E860001308700B8
:1021EA007108810076088600870101137608043E8B
:1021FA00860087010117080023005E08E8005D08D1
:10220A00E7005C08E6005B08E5006808F300670879
:10221A00F2006608F1006508F0000030F700B730F8
:10222A00F6001B30F5000030F4009131EE219131B7
:10223A00FF3070072000E400FF30713DE500FF30F9
:10224A00723DE600FF30733DE7006408E000E101FB
:10225A00600823009B002000610823009C002000E6
:10226A006408E0006508E1006608E2006708E30028
:10227A000830E336E20CE10CE00C890B3E296008D9
:10228A0023009C0090310520913108002300D401DD
:10229A00CC01C901C801CE01D3017F302100E00081
:1022AA002300360886008701210060088105043072
:1022BA00E00060082300B6067F302100E00023001A
:1022CA003608860087012100600881050430E00095
:1022DA0060082300B6067F302100E0006808860007
:1022EA008701600881052300A901AA01AB01A201A7
:1022FA00A301A4019531E825913100302000E400C2
:10230A000330E3000030E5000030E6000030E7006B
:10231A00E8009031132091318F313927913108002B
:10232A002300C901C80102305306031D9D299E29B5
:10233A00BE290830F3002100680A86008701730865
:10234A0081005830F3000030F4006808023E86002D
:10235A0087017308C03F7408C13F4830F30068081A
:10236A008600870173088100680886008701811743
:10237A00ED292B0820005702031DC72923002A082C
:10238A00200056020318CA29CB29D229570823004C
:10239A00AB00200056082300AA0095310025913190
:1023AA005830F3000030F40023003608023E86005D
:1023BA0087017308C03F7408C13F4830F3003608EC
:1023CA008600870173088100360886008701811715
:1023DA0008000030FC000030FB000030FA0000303A
:1023EA00F90073087204710470040319FD29FE29A7
:1023FA003F2AFD01FD0A0C2A0130F035F10DF20DDC
:10240A00F30D890B022A0130F8007808FD07F31F43
:10241A000F2A102A012A0130F935FA0DFB0DFC0D9D
:10242A00890B112A73087702031D252A720876027E
:10243A00031D252A71087502031D252A70087402D6
:10244A00031C282A292A322A7008F4027108F53B4B
:10245A007208F63B7308F73B79140130F336F20C35
:10246A00F10CF00C890B332A0130FD02031D3E2AC0
:10247A003F2A102A7C08F3007B08F2007A08F10050
:10248A007908F00008002000D801D901882A230021
:10249A00A9175103031D522A532A942A2000D8143B
:1024AA00942A2300A917942A2300A9172000D41BD1
:1024BA005F2A602A6B2A54080F39B93E8600013018
:1024CA0087000108F0007008F100752A54080F39D6
:1024DA00B63E8600013087000108F0007008F1005E
:1024EA00710886008701811F7B2A7C2A942A710839
:1024FA0086008701011D822A832A942A0130F0006E
:10250A007008D800942A50081F39003A03194C2A37
:10251A00013A0319562A033A0319592A942A23001D
:10252A00A91F982A992AA22A5830A7000030A80081
:10253A0029140230F0007008AA0008003D008E1C21
:10254A00A72AA82AF42A01309F310D279231FF2A9F
:10255A00230040034104031DB32AB42AB92A0130D7
:10256A009F312D279231FA2A4B3040064104031D30
:10257A00BF2AC02AC52A01309F310D279231FA2A73
:10258A0000304102973003194002031CCD2ACE2A9B
:10259A00D12AC001C101FA2AFA2A230040034104C0
:1025AA00031DD82AD92ADE2A01309F312D279231DC
:1025BA00FA2A323040064104031DE42AE52AEA2AAF
:1025CA0001309F310D279231FA2A03304102B73088
:1025DA0003194002031CF22AF32AFA2ACE2A2100FE
:1025EA006A08203A0319AD2AD22A01302300C0070B
:1025FA000030C13D0800F60070080319052B062BB0
:10260A00102B7608B63E8600013087000108F400D8
:10261A007408F700192B7608B93E86000130870046
:10262A000108F4007408F7007708031D1D2B1E2B00
:10263A00202B00305D2BFF307105F4007F307205CE
:10264A00F5007708023E860087017408C03F7508C6
:10265A00C13F7308F400770A860087017408810075
:10266A004030F400770886008701740881057708EE
:10267A00860087018115770886008701811770080F
:10268A000319482B492B532B0430F4007608B63E25
:10269A00860001308700740881065C2B0430F40040
:1026AA007608B93E860001308700740881067708EB
:1026BA0008002200E60060080319642B652B6F2BC3
:1026CA006608B63E8600013087000108E400640807
:1026DA00E700782B6608B93E8600013087000108BA
:1026EA00E4006408E7006708031D7C2B7D2B7F2B21
:1026FA000030BC2BFF306105E4007F306205E50045
:10270A006708023E860087016408C03F6508C13F2A
:10271A006308E400670A8600870164088100403084
:10272A00E400670886008701640881056708860057
:10273A0087018115670886008701811760080319D8
:10274A00A72BA82BB22B0430E4006608B63E8600FD
:10275A000130870064088106BB2B0430E400660858
:10276A00B93E8600013087006408810667080800C0
:10277A00200050081F39013A0319C42BC52BC62B58
:10278A00242C500E890C0339013A0319CD2BCE2B78
:10279A00CF2B242C54080319D32BD42B132C5403DA
:1027AA000319D82BD92B132C242C60302300A70013
:1027BA000230A8000030AB000830AA002914A9177B
:1027CA00242C60302300A7000230A800A917242C6B
:1027DA0057082300A400200056082300A300DB307A
:1027EA00F0007008A0001130A6000130A500A21761
:1027FA00242CE5302300A7000130A8000030AB00EC
:10280A000730AA00C130F0007008A900242C520831
:10281A00F00070082300C200A917242C5108003ABE
:10282A000319DA2B013A0319E62B213A0319ED2B86
:10283A00013A0319FE2B033A03190C2C242C080025
:10284A002200ED002300C701440803192D2C2E2C69
:10285A003C2C440886008701010D010D0139220034
:10286A00E900EA016908EB006A08EC003F2C220043
:10287A00EB01EC016B086C04031D442C452C8D2CD8
:10288A002300440A8600870122006808010203180F
:10289A004F2C502C572C2300440886008701413FB7
:1028AA002200E8002300C701722C4708203E860058
:1028BA000130870001082200E900230047082200AE
:1028CA006D07EA006A0886000230870069088100FD
:1028DA000130E90069082300C707220068082300BD
:1028EA004702031C792C7A2C5A2C2200E001203052
:1028FA00E1000130E2004030E9006908E3000230FB
:10290A0093315E2394312200EA006A082300C4004E
:10291A0023004708080023004B08031D952C962C1A
:10292A00FF2C0130F0007008CB004A08031D9E2CD2
:10293A009F2CFF2C0130F0007008CA0002305306A9
:10294A00031DA82CA92CB92C360A860087018101FF
:10295A004830F00036088600870170088100360882
:10296A00860087018117FF2C5303031DBD2CBE2C43
:10297A00FF2CCE010830F0002100690A8600870189
:10298A00700881005030F0000030F1006908023E02
:10299A00860087017008C03F7108C13F0430F0000B
:1029AA006908860087017008810069088600870126
:1029BA0081170130F00070082300CE000830F000C3
:1029CA002100680A86008701700881005030F000F3
:1029DA000030F1006808023E860087017008C03F97
:1029EA007108C13F8030F0006808860087017008CE
:1029FA008100FF2C08000830F0007008F200003057
:102A0A0023002B02083003192A0203180D2D0E2D5C
:102A1A00252D2A08F0007008F2005408031D162D0F
:102A2A00172D1C2D0130F0007008D400252D5403F9
:102A3A00031D202D212D252D0230F0007008D40011
:102A4A007208F000F1017008AA027108AB3B720823
:102A5A00F000360A86008701700881005830F000BD
:102A6A007008D20029183A2D3B2D6C2D512D2708BC
:102A7A008400280885000008F000520886008701B3
:102A8A00700881000130A7070030A83D0130F0002E
:102A9A007008D2070130F2027208031D552D562D17
:102AAA003C2D712D27088400280885000008F000B5
:102ABA00520886008701700881000130A70700309C
:102ACA00A83D0130F0007008D2070130F202720806
:102ADA00031D702D712D572D08002D302100E100A6
:102AEA0061082300CD0021006B08FD39031D7E2DEE
:102AFA007F2DDB2D6B363F39E1000130E135FF3E9A
:102B0A00031D832D6135203EE2006208E900690851
:102B1A00E1006108E8000430E1006108E80669089C
:102B2A0086008701010C890C0F390D3A031D9E2D71
:102B3A009F2DD72DE4016908023E86008701403F98
:102B4A00E100413FE200610886006208870001084F
:102B5A00E3006408503E8600870163088100690823
:102B6A00023E860087010130810741310318810A3C
:102B7A000130E1006108E40708306402031CC62D35
:102B8A00C72DA02D5030E1000030E2006908023E56
:102B9A00860087016108C03F6208C13F91314B211D
:102BAA009531E72D903149209531E72DFD306B05A0
:102BBA00E10004306106031DE32DE42DE72D8E317B
:102BCA00A226953108002000500E890C0339003ADC
:102BDA000319F02DF12D442E672E2300A917083072
:102BEA002000EF006F082100EA00672E9631682660
:102BFA009531672E973172279531672EEE30230073
:102C0A00A7000130A800291401302000EF006F0846
:102C1A002300AA00A917672E923148229531672E00
:102C2A00893133219531672E5408EC3E2300A700E1
:102C3A000130A800291401302000EF006F0823009A
:102C4A00AA00A917672E2300A91720005208EF002F
:102C5A005408EC3E8600013087006F088100672E19
:102C6A000030E4000230E3000030E5000030E60006
:102C7A000030E700E800903113209531672E5108A3
:102C8A00003A0319112E013A0319152E023A0319B3
:102C9A00152E063A0319F22D033A0319FB2D013AB0
:102CAA000319352E0F3A0319032E013A0319FF2D82
:102CBA00033A0319192E013A0319282E073A031960
:102CCA00672E672E0800803020005006031D6E2EE6
:102CDA006F2EEA2EC030F00070082300A900DE2E05
:102CEA00AB302300A7009830A8000030AB001230A8
:102CFA00AA00EA2E5208031D832E842EB32E5208F0
:102D0A00F000F101F035F10DC730700784009830FA
:102D1A00713D8500003F2300A700013FA800280855
:102D2A00F1002708F00002307007840071080318C8
:102D3A00710A85000008F2007208AA002808F1004A
:102D4A002708F00003307007840071080318710A1D
:102D5A0085000008F2007208AB00EA2E2300A901E0
:102D6A00EA2E033052020318BB2EBC2ED82E52086C
:102D7A00F000F101F035F10DBD3070078400983094
:102D8A00713D8500003F2300A700013FA8002708E6
:102D9A008400280885000008F000F1017008AA00E4
:102DAA007108AB00EA2E2300A901EA2E2300A9012B
:102DBA00EA2E20005308013A0319752E033A031923
:102DCA007F2E013A0319B62EDB2E0800203021008F
:102DDA006A02031CF12EF22E712F3D008E1CF62E74
:102DEA00F72EF82E712F23005608031DFD2EFE2EF6
:102DFA00142F40302200EE006E08E800A030943113
:102E0A00252496312200EF006F082300D8005808C5
:102E1A000319102F112F142FD601D60AD7015608DD
:102E2A000319182F192F332F9E1C1C2F1D2F332FD8
:102E3A005708A03E86000230870001089E315226BC
:102E4A00963101302200EE006E082300D70757089A
:102E5A005806031D312F322F332FD6012000911E21
:102E6A00372F382F582F3F302300590203183E2F8F
:102E7A003F2F582F9E31632696312200EE00230001
:102E8A005908203E86000230870022006E08810021
:102E9A000130EE006E082300D9075908203E86004B
:102EAA0002308700810123005A08031D5D2F5E2F1F
:102EBA006E2F59080319622F632F6E2F59082200AB
:102ECA00EE006E08E00020309E31952696312300F0
:102EDA00D9018B319723963108002300A9170E30A8
:102EEA002000EB009930EA00EC016A0886006B08C2
:102EFA00870081010130EA070030EB3D0130E9002B
:102F0A006908EC0702306C02031C8C2F8D2F7A2F74
:102F1A002030F0000030F1000030F200F3003030D1
:102F2A00F4000030F5009E31792697313D000E17E6
:102F3A002000ED016D08B33E860001308700810153
:102F4A006D08B03E86000130870081010130E9003A
:102F5A006908ED0703306D02031CB42FB52F9F2FAC
:102F6A00EC30F0000130F1000030F200F3000230E2
:102F7A00F4000030F5009E31792697313D000E139A
:102F8A0028302000E90069082300B600203020001C
:102F9A00E90069082100E90069082000E9006908D8
:102FAA002100E80020005208E90069082300EE0029
:102FBA006E08031DE12FE22FE92F10302000E900EF
:102FCA0069082100EA00FF2F00302000E4000130E8
:102FDA00E300EE30E5000130E6000130E7000030A2
:102FEA00E80090311320973120302000E900690869
:102FFA002100EA0008000934023443340034023460
:10300A0001340034C0343234093404340034003416
:10301A0001340234023401340034053424340034D7
:10302A001034013404342434023402340534243490
:10303A0006340034013405342434013400340134B4
:10304A000734053481340334083400340234093433
:10305A0004340134003402340A34003400340034B5
:10306A00073405340234023440340034003407345F
:10307A0005348234023440340034003434340334A6
:10308A0043340034443400344334003420340034AC
:10309A0052340034533400342D3400343234003482
:1030AA0033340034323400342034003445340034AC
:1030BA006D340034753400346C34003461340034B7
:1030CA0074340034693400346F3400346E3400349C
:1030DA002034003444340034653400346D34003410
:1030EA006F340034343403344D34003469340034DA
:1030FA0063340034723400346F340034633400347F
:10310A0068340034693400347034003420340034B4
:10311A005434003465340034633400346834003481
:10312A006E3400346F3400346C3400346F3400343D
:10313A00673400347934003420340034493400349C
:10314A006E340034633400342E34003412340134C3
:10315A00003402340234003400340834D8340434DD
:10316A000A340034003401340134023400340134A6
:10317A00C334983477349834433498340434033459
:08318A000934043400349834C8
:103CA4002200E000600823009A0008002200E000DF
:103CB4006008003A0319622E013A0319622E622E3B
:103CC400080023009D1C672E682E712E1D121908F2
:103CD4002200E0006008E10023001D16762E19087A
:103CE4002200E0006008E100220061080800710879
:103CF400F7007008F600882E76088600770887009B
:103D0400720881000130F6070030F73D0130F402FB
:103D14000030F53B740A031D932E750A031D932E80
:103D2400942E7E2E08002200E200210012112300AE
:103D34005A08031D9E2E9F2EAF2E22006208E1001A
:103D440061082300BE0022006008E100610823002E
:103D5400C600C501C50ADA01DA0A210012150800F5
:103D64002200E100C42EFC3021009900903027008D
:103D74009B0001309F316D279E3101309E315826C2
:103D84009E31CF2E6108003A0319B52E013A03196A
:103D9400CF2E033A0319CF2ECF2E080000309E31C8
:103DA400B2269E318D315E259E319F318E279E3104
:103DB400203021006A020318E02EE12EE22EDA2ED2
:103DC4003D008E1CE62EE72EE82EDA2E9631EB26E9
:103DD4009E31DA2E89310F293D001215EF30200073
:103DE400E90069083D0090058E1401302000E900C7
:103DF40069082300D00075302000E3000030E4009F
:103E04000030E5000030E6000030E700E8009031C3
:103E140013209E310800F0001B2F22000E102C2FBF
:103E240022008E102C2F22000E112C2F22008E1116
:103E34002C2F7008003A03192C2F013A03190F2F65
:103E4400033A0319122F013A0319152F073A0319DC
:103E5400182F2C2F0800F0003B2F22000E144C2F9B
:103E640022008E144C2F22000E154C2F22008E158A
:103E74004C2F7008003A03194C2F013A03192F2FC5
:103E8400033A0319322F013A0319352F073A03195C
:103E9400382F4C2F08002300D00174302000E30099
:103EA4000030E4000030E5000030E6000030E700B8
:103EB400E800903113209F313D008E101211682FBD
:103EC400FB302000E90069083D00900510196B2FB4
:103ED4006C2F622F08002200E0007C2F21000E10BE
:103EE4008D2F21008E108D2F21000E118D2F21007A
:103EF4008E118D2F6008003A03198D2F013A031992
:103F0400702F033A0319732F013A0319762F073AD6
:103F14000319792F8D2F080021006A08031D932FA0
:103F2400942FAE2F3D008E019201163091009F30E8
:103F340097007B309200210012150B178B17A32FCB
:103F44008E153D008E1DA72FA82FA22F0130220011
:103F5400E00060082100EA000800FC00771DB32F90
:103F6400B42FB92FF0017C089031BD209F31F71C8C
:103F7400BC2FBD2FC32FF001F00A7C089031BD2067
:103F84009F317C08983EF800F9010E30F93D78081D
:103F9400FA007908FB007A0886007B088700770816
:103FA40081000800903183209F312300E90108300B
:103FB400FD007D08EB00EA010030E8000030E70076
:103FC4004B30E6000030E500903105209F312000A1
:103FD400E2016208203E8600023087008101013040
:103FE400FD007D08E20740306202031CFA2FFB2F1C
:0C3FF400EB2F2300D901D801D5010800F3
:020000040001F9
:04000E00A40FCF1F4D
:00000001FF
